:020000040800F2
:1000000000500020E50400087D0400086504000895
:1000100000000000000000000000000000000000E0
:10002000000000000000000000000000790400084B
:1000300000000000000000007904000859060008D4
:10004000790400087904000879040008790400089C
:10005000790400087904000879040008790400088C
:10006000790400087904000879040008790400087C
:10007000790400087904000879040008790400086C
:1000800079040008790400087904000800000000E1
:10009000790400087904000879040008790400084C
:1000A000790400087904000879040008790400083C
:1000B000790400087904000879040008790400082C
:0400C00079040008B7
:1000C400002243088B4274D303098B425FD3030A93
:1000D4008B4244D3030B8B4228D3030C8B420DD3A6
:1000E400FF22090212BA030C8B4202D31212090234
:1000F40065D0030B8B4219D300E0090AC30B8B4272
:1001040001D3CB03C01A5241830B8B4201D38B031F
:10011400C01A5241430B8B4201D34B03C01A5241C4
:10012400030B8B4201D30B03C01A5241C30A8B4207
:1001340001D3CB02C01A5241830A8B4201D38B02F2
:10014400C01A5241430A8B4201D34B02C01A524196
:10015400030A8B4201D30B02C01A5241CDD2C30908
:100164008B4201D3CB01C01A524183098B4201D384
:100174008B01C01A524143098B4201D34B01C01A6F
:10018400524103098B4201D30B01C01A5241C308E7
:100194008B4201D3CB00C01A524183088B4201D356
:1001A4008B00C01A524143088B4201D34B00C01A42
:1001B4005241411A00D20146524110467047FFE7AE
:1001C40001B5002000F0F0F802BDC0460029F7D0C8
:1001D40076E7704703460B437FD4002243088B42E3
:1001E40074D303098B425FD3030A8B4244D3030BBA
:1001F4008B4228D3030C8B420DD3FF22090212BA7F
:10020400030C8B4202D31212090265D0030B8B42FA
:1002140019D300E0090AC30B8B4201D3CB03C01AE4
:100224005241830B8B4201D38B03C01A5241430BBF
:100234008B4201D34B03C01A5241030B8B4201D3AF
:100244000B03C01A5241C30A8B4201D3CB02C01A1A
:100254005241830A8B4201D38B02C01A5241430A92
:100264008B4201D34B02C01A5241030A8B4201D381
:100274000B02C01A5241CDD2C3098B4201D3CB0128
:10028400C01A524183098B4201D38B01C01A5241D7
:1002940043098B4201D34B01C01A524103098B42DB
:1002A40001D30B01C01A5241C3088B4201D3CB00C6
:1002B400C01A524183088B4201D38B00C01A5241A9
:1002C40043088B4201D34B00C01A5241411A00D259
:1002D40001465241104670475DE0CA0F00D04942C2
:1002E400031000D34042534000229C4603098B4232
:1002F4002DD3030A8B4212D3FC22890112BA030ABA
:100304008B420CD3890192118B4208D3890192113B
:100314008B4204D389013AD0921100E08909C309C0
:100324008B4201D3CB01C01A524183098B4201D3C2
:100334008B01C01A524143098B4201D34B01C01AAD
:10034400524103098B4201D30B01C01A5241C30825
:100354008B4201D3CB00C01A524183088B4201D394
:100364008B00C01A5241D9D243088B4201D34B00AF
:10037400C01A5241411A00D20146634652415B10F1
:10038400104601D34042002B00D5494270476346D2
:100394005B1000D3404201B5002000F005F802BD17
:1003A4000029F8D016E770477047C0460123184A61
:1003B40011680B4313608023164ADB0211680B4358
:1003C400154913600B68154A1A4080231B01134317
:1003D4000B60A021F022C9050B6893431A00A023E7
:1003E40013430B600E490F4A0B681A40CC23DB0100
:1003F40013430B6000230C4A0C4913600B600C4937
:100404000B600C4B0C491960092313607047C046FC
:100414002C100240381002404C100240FFF3FFFF42
:1004240020000050FF00FFFF004800400448004047
:10043400084800400C48004055410300802130B575
:10044400054A064C0378002B00D130BD01301568F5
:100454000D42FCD02360F5E71C48004028480040CA
:10046400042172460A4202D1EFF3088001E0EFF35F
:10047400098015E030BFFDE707B5FFF797FF074890
:1004840000F0ACF800210220019100910B000A0059
:1004940000F0CCF800F0C2F830BFFDE71C0F0008F4
:1004A40073B5002813D046698569C469FFF77EFFD8
:1004B400094800F093F80021330001912A0001203B
:1004C400009400F0B3F800F0A9F830BFFDE7040091
:1004D40006000500EAE7C0461C0F0008704700004C
:1004E40001221E4B70B519680A431A600422196868
:1004F4001142FCD003211A4B1A688A4311000122CD
:100504000A430C211A601A680A40042AFBD1FFF737
:100514004DFF1448FFF792FF134800F05FF80023E3
:1005240012481349134C1A188A4210D30021124B53
:10053400124A93420FD3124800F050F81148FFF7C3
:100544007DFFFFF7CBFF00F059F930BFFDE7E55819
:1005540004331560E7E702C3EBE7C046001002402E
:100564000C1002402A0F00083A0F00080000002077
:10057400040000209C1100081C0000202000002022
:10058400460F0008510F0008FA21084B10B51868EF
:100594008900FFF795FD0022054B01381860054BD3
:1005A4001A60054B07321A6010BDC04600000020D7
:1005B40014E000E018E000E010E000E0014B1868EF
:1005C4007047C0461C000020034A116813685B1A78
:1005D4008342FBD37047C0461C00002030B500287E
:1005E4000FD009220A4B1B681340934209D1802182
:1005F400084B094C0278002A04D140321968114290
:10060400FCD030BD1D680D42FCD001302260F1E702
:10061400004800401C48004028480040014B024A62
:100624001A60FEE70CED00E00400FA0530B5074C53
:10063400074D2560207161710021E180A260E360B3
:10064400039B2361049B636130BDC046040000200A
:10065400EC5D07FA024A1368013313607047C04621
:100664001C000020032370B501244D00AB4026007C
:100674008C400221DB43AE40A94002681A40324359
:1006840002604268A243426082681A400A43826060
:10069400C2681340C36070BD094B02211A0010B533
:1006A4001C680C42FCD00121064B187010680842EB
:1006B400FCD0802110680842FCD11878C0B210BD6B
:1006C400083001400C300140802310B5054C1B0656
:1006D4002360FFF7E1FF0020FFF7DEFF80231B020A
:1006E400236010BD18000050802370B5074C1B0612
:1006F400236080230D001843FFF7CEFF2800FFF787
:10070400CBFF80231B02236070BDC046180000503D
:10071400802307490A681A42FCD0064B0649186030
:1007240080230A681A42FCD0044B18607047C04604
:100734001C380140283801401C480040284800402B
:1007440010B504002078002800D110BD0134FFF753
:10075400DFFFF7E770B5064D03090400E85CFFF717
:10076400D7FF0F231C40285DFFF7D2FF70BDC046A2
:10077400600F000810B50400000EFFF7EBFF200C1B
:10078400C0B2FFF7E7FF200AC0B2FFF7E3FFE0B211
:10079400FFF7E0FF10BDF0B5040087B0002820DAB1
:1007A4002D20FFF7B5FF644201260A2703AA731E12
:1007B400D318200039000193FFF7F2FD019B30317B
:1007C400197020003900FFF705FDF5B2041E0FD1A2
:1007D400013DEDB203AB585DFFF79AFF002DF7D151
:1007E40004E00028E0D13020FFF792FF07B0F0BD0D
:1007F40001360D2EDAD10C25EAE700000122C54BA3
:10080400F0B519688FB00A431A60042219681142BE
:10081400FCD00321C04B1A688A43110001220A4309
:100824000C211A601A680A40042AFBD1BB49BC4A4D
:100834000B6880241A4080231B0113430B60FFF7CD
:10084400A3FE0121B74AA0271368B7480B431360DE
:1008540080230168DB010B43B44903600B68E402A5
:1008640023430B60FF053B68B149B24C1940A023F8
:100874009B030B43F0213B60AF4B89031868AF4DDA
:100884000143AF4819600168AE4E0C408821C9008D
:1008940021430160F021A0203C688C432043386050
:1008A4001868A94C014319602168A8480840CC2164
:1008B400C901014321600024A549A6480C600460D5
:1008C400A5480460A54805600920A54D0860A54910
:1008D4000C602C60A44D2C60A44D2E600860072190
:1008E400A0261068A24D014311603A6836022A40DE
:1008F40032433A60C022AC4680259E480168914349
:10090400294301609C48783D0168914301609B48FC
:100914000168A943016060461968783501400E43B7
:1009240097491E600B68974E93432B4380250B60B9
:100934003368954A6D0113402B43834933600B6838
:10094400924A1B021B0A0B6013680F2103401360B9
:100954003800FFF787FE80238D4D1B022B6021009A
:100964008C48FFF77FFE01218B4C38002160FFF794
:1009740079FE01218748FFF775FE02218548FFF7BC
:1009840071FE80239B022B6002232360802380213D
:10099400654ADB022360136849010B431360136843
:1009A400694B2F00029380237C49039601940A68C3
:1009B4001A400092FBD16B46794D1B88794E2B80EF
:1009C4002B88B8235B0133803388C5239B002B809D
:1009D4002B882B88403213432B80C820FFF7F4FD6B
:1009E4007148FFF7ADFE7148FFF7AAFE7048FFF7A4
:1009F400A7FE7048FFF7A4FE80230124019A5B023E
:100A040013600220FFF7E0FD019B08201C60FFF744
:100A1400DBFD6948FFF794FE288880B2FFF7AAFE41
:100A24006648FFF78DFE308880B2FFF7A3FE644866
:100A3400FFF786FE6348FFF783FEA023DB051868F3
:100A4400FFF798FE5E48FFF77BFE5F48FFF778FEEE
:100A5400029B1868FFF78EFE5C48FFF771FE039B4C
:100A64001868FFF787FE5648FFF76AFE4220FFF733
:100A74002BFE06002000FFF727FE05005448FFF771
:100A84005FFE3000FFF766FE524E3000FFF758FE5F
:100A94002800FFF75FFE4A48FFF752FE80231B063B
:100AA4003B604220FFF7F8FDA520FFF7F5FD80230A
:100AB40005001B023B604848FFF742FE2800FFF791
:100AC40049FE4648FFF73CFE80212000FFF70CFE5C
:100AD4000520FFF779FD2000FFF7F6FD0290422084
:100AE400FFF7F2FD05003E48FFF72AFE2800FFF756
:100AF40031FE3000FFF724FE0298FFF72BFE30484A
:100B0400FFF71EFE6B1EDBB2FD2B6DD93548FFF7D8
:100B140017FEFEE7001002400C1002404C10024089
:100B2400FFF3FFFF2C100240341002403810024043
:100B3400FFFFC3FF0FF0FFFF080000504103000058
:100B4400240000505541030020000050FF00FFFF27
:100B54000038014004380140083801400C38014095
:100B64000448004000480040084800400C48004049
:100B7400FF0FFFFF00040050040000500404005065
:100B8400080400500C000050FFCFFFFF2004005069
:100B940018000050000800501808005008300140A8
:100BA4000030014004300140710F0008940F000828
:100BB400A10F0008A80F0008DE0F0008EF0F0008BF
:100BC40099110008F70F00080B1000081E10000808
:100BD400281000083E100008461000085B100008AA
:100BE4007F1000089610000881212000FFF77CFD8B
:100BF4002000FFF7E9FCE4210620FFF775FDC02182
:100C04000720FFF771FD00990820FFF76DFD8C2187
:100C14000920FFF769FD72211D20FFF765FD74218E
:100C24001E20FFF761FD04212620FFF75DFD0099DA
:100C34002020FFF759FD08212120FFF755FD12213F
:100C44003920FFF751FD03213120FFF74DFD0A2123
:100C54003720FFF749FD00990E20FFF745FD009965
:100C64000F20FFF741FD9D48FFF76AFD2800FFF7BD
:100C740071FD9B48FFF764FD9A48FFF761FD009BF7
:100C8400029340230393984B06AA0693009B97482C
:100C94001B0A137113006A46127800255A71009BCF
:100CA40001330093FFF74CFD0098FFF774FD904863
:100CB400FFF746FD81212000FFF716FD2000FFF716
:100CC40083FC00210D20FFF70FFD80231B063B60F2
:100CD4008020FFF7E1FC06AB585D0135FFF7DCFC33
:100CE400062DF8D180231B023B6029002220FFF748
:100CF400FBFCFF211220FFF7F7FC039908260800EC
:100D0400FFF7F2FC02233B608023019A9B021360ED
:100D14000423019A832113602000FFF7E5FCFFF709
:100D24004DFCF530FF300500FFF748FC401B05D4AF
:100D340020008121FFF7D8FC6E480DE01220FFF758
:100D4400C3FC3042F0D008211220FFF7CDFC200074
:100D54008121FFF7C9FC6848FFF7F2FC81212000DC
:100D6400FFF7C2FC2000FFF72FFCFF211220FFF742
:100D7400BBFC00210398FFF7B7FC80239B023B6078
:100D84000223019A852113608023019ADB021360F8
:100D94002000FFF7A9FCFFF711FCFA239B00C518FC
:100DA400FFF70CFC401B0CD51220FFF78DFC039BB6
:100DB4001842F5D02025284209D0FF211220FFF740
:100DC40093FC81212000FFF78FFC4C487FE0132027
:100DD400FFF77AFC06001020FFF776FCF2B2010060
:100DE400331C202A00D92B1CDBB20D200493FFF7FF
:100DF4007BFC80231B063B600020FFF74DFC002595
:100E0400049AEBB29A422DD880231B023B6019202E
:100E1400FFF75AFC05901A20FFF756FCFF21050046
:100E24001220FFF761FC81212000FFF75DFC032EF7
:100E34001FD8002EC9D03248FFF782FC0498FFF770
:100E4400AAFC3048FFF77CFC00252020FFF760FC5B
:100E540006ABE85CFFF77EFC0135049AEBB29342E3
:100E6400F3D333E00020FFF717FC06AB58550135E8
:100E7400C6E706AB1B78502BDDD106AB5B784F2B56
:100E8400D9D106AB9B784E2BD5D106ABDB78472B5B
:100E9400D1D1029B1C4801339D3D0293FFF750FCC6
:100EA40028B2FFF778FC1948FFF74AFC6B46142276
:100EB4009A560323D017184080188010FFF76BFC54
:100EC4001348FFF73DFC0298FFF765FC1148FFF754
:100ED40037FCE1208000FFF777FBD4E6D010000850
:100EE400E2100008ED10000850494E473011000888
:100EF4003A11000845110008401100088511000846
:100F04006F1100087C1100084F1100085E110008E1
:100F140067110008991100084641554C543A52454E
:100F24005345540D0A004541524C593A52455345D4
:100F3400545C725C6E005253543A53544152540DF3
:100F44000A005253543A4D41494E0D0A004541524C
:100F54004C593A4D41494E5C725C6E00303132332B
:100F6400343536373839414243444546000D0A3D4D
:100F74003D3D204C49464554524143204C30373284
:100F8400206C6F72615F70696E672076302E31005D
:100F9400205B50494E4745522F54585D00203D3D3B
:100FA4003D0D0A005048593A205346372F425731D5
:100FB40032352F4352342D3520203931352E30200F
:100FC4004D487A20202B31342064426D20207379DF
:100FD4006E633D307831320D0A004442473A205363
:100FE4005049315F4352313D307800204352323D05
:100FF4003078004442473A204750494F415F4D4FB3
:101004004445523D3078004442473A204750494FC6
:10101400415F4146524C3D30780020505550445277
:101024003D3078004442473A207072652D696E69FC
:101034007420207665723D307800206F706D3D30ED
:1010440078004442473A206C6F6F706261636B288A
:101054004135293D307800202841353D73686F7251
:10106400742C31323D5358313237362C30303D53A5
:101074005820737475636B290D0A004442473A2063
:10108400706F73742D736C656570207665723D3076
:1010940078004552523A20535831323736206E6F19
:1010A4007420666F756E64202876657273696F6E3E
:1010B4002030783030206F7220307846462920E284
:1010C40080942068616C7465640D0A005358313251
:1010D40037362076657273696F6E3D307800202054
:1010E40072656164792E0D0A00526F6C653A205066
:1010F400494E47455220E280942073656E64696EC0
:10110400672050494E47206576657279207E3220EB
:10111400732C206C697374656E696E67203120735B
:1011240020666F7220504F4E470D0A0054582050CD
:10113400494E47202300202E2E2E20004F4B0D0A0F
:101144000054494D454F55540D0A00525820504FF4
:101154004E472020727373693D0064426D20736EA4
:10116400723D00644220206F6B3D00525820756E22
:101174006B6E6F776E202800206279746573293A4C
:101184000052582074696D656F757420286E6F2045
:08119400504F4E47290D0A00DF
:04119C000024F40037
:04000005080004E506
:00000001FF
