:020000040800F2
:10000000005000201D010008D9000008C1000008B0
:1000100000000000000000000000000000000000E0
:10002000000000000000000000000000D5000008F3
:100030000000000000000000D50000083D1000088E
:10004000D5000008D5000008D5000008D50000083C
:10005000D5000008D5000008D5000008D50000082C
:10006000D5000008D5000008D5000008D50000081C
:10007000D5000008D5000008D5000008D50000080C
:10008000D5000008D5000008D5000008D5000008FC
:10009000D5000008D5000008D5000008D5000008EC
:1000A000D5000008D5000008D5000008D5000008DC
:1000B000D5000008D5000008D5000008D5000008CC
:1000C000042172460A4202D1EFF3088001E0EFF307
:1000D00009800EE030BFFDE707B500210220019145
:1000E00000910B000A0000F095FF00F08BFF30BF7D
:1000F000FDE707B5002188420CD043698269C069D9
:10010000019100900021012000F084FF00F07AFFAF
:1001100030BFFDE708000B000A00F1E7002370B5CF
:100120000B480C490C4C1A188A420AD300210B4B7D
:100130000B4A934209D300F063FF00F0A9FF30BFE0
:10014000FDE7E55804331560EDE702C3F1E7C0466B
:100150000000002000000020C81200081800002045
:040160001C0000205F
:1010000070470000014B024A1A60FEE70CED00E059
:101010000400FA0530B5074C074D25602071617159
:101020000021E180A260E360039B2361049B636174
:1010300030BDC04600000020EC5D07FA024A13688C
:10104000013313607047C046180000208023074911
:101050000A681A42FCD0064B0649186080230A68C9
:101060001A42FCD0044B18607047C0461C3801403F
:10107000283801401C4800402848004010B50400B2
:101080002078002800D110BD0134FFF7DFFFF7E71B
:101090000122F8B54D4B19680A431A6004221968F9
:1010A0001142FCD003214A4B1A688A4311000122E5
:1010B0000A430C211A601A680A40042AFBD14549E8
:1010C000454A0B68454C1A4080231B0113430B60B3
:1010D0000123434A11680B43A0211360C9050B6823
:1010E000404A1A40A0239B031343F0220B603E4B5F
:1010F0009203186802431A6022683C481040882214
:10110000D20002432260F022A0200C6894432043C6
:101110000860196836480A4336491A600B68364A2F
:101120001A40CC23DB0113430B608023334ADB01DD
:1011300011680B4313600023314A324913600B607E
:1011400031490B6031490860092111608022304823
:10115000D2020468224302602E4A2F4813600360C3
:101160002E4803602E4B2F4818602F4B11601C0037
:10117000013B002C28D12D48FFF780FF2C48FFF7BA
:101180007DFF0F262B48FFF779FF1C25671C2300E6
:10119000EB403340DAB210003730092B01D830323F
:1011A0001000043DFFF752FF2B1DF0D13C000D2035
:1011B000FFF74CFF0A20FFF749FF1F4B1A00013BC6
:1011C000002ADFD0C046F9E7C046D0E70010024051
:1011D0000C1002404C100240FFF3FFFF24000050AF
:1011E0002C100240FFFFC3FF080000500FF0FFFF6C
:1011F0004103000020000050FF00FFFF34100240B8
:101200000038014004380140083801400C380140E2
:1012100038100240004800400448004008480040A0
:101220000C48004055410300400D03003C120008EB
:1012300072120008AF120008006A18000D0A3D3D46
:101240003D204C49464554524143204C30373220D2
:1012500068656C6C6F2076302E32202855534152D1
:1012600054312B4C50554152543129203D3D3D0DB8
:101270000A00496620796F752063616E207265618E
:101280006420746869732C20746865205838202D98
:101290003E204C30373220666C6173682070697074
:1012A000656C696E6520776F726B732E0D0A004C4A
:1012B00049464554524143204C30373220746963CB
:0812C0006B3D307800000000D6
:040000050800011DD1
:00000001FF
