:020000040800F2
:1000000000500020E50400087D0400086504000895
:1000100000000000000000000000000000000000E0
:10002000000000000000000000000000790400084B
:1000300000000000000000007904000859060008D4
:10004000790400087904000879040008790400089C
:10005000790400087904000879040008790400088C
:10006000790400087904000879040008790400087C
:10007000790400087904000879040008790400086C
:1000800079040008790400087904000800000000E1
:10009000790400087904000879040008790400084C
:1000A000790400087904000879040008790400083C
:1000B000790400087904000879040008790400082C
:0400C00079040008B7
:1000C400002243088B4274D303098B425FD3030A93
:1000D4008B4244D3030B8B4228D3030C8B420DD3A6
:1000E400FF22090212BA030C8B4202D31212090234
:1000F40065D0030B8B4219D300E0090AC30B8B4272
:1001040001D3CB03C01A5241830B8B4201D38B031F
:10011400C01A5241430B8B4201D34B03C01A5241C4
:10012400030B8B4201D30B03C01A5241C30A8B4207
:1001340001D3CB02C01A5241830A8B4201D38B02F2
:10014400C01A5241430A8B4201D34B02C01A524196
:10015400030A8B4201D30B02C01A5241CDD2C30908
:100164008B4201D3CB01C01A524183098B4201D384
:100174008B01C01A524143098B4201D34B01C01A6F
:10018400524103098B4201D30B01C01A5241C308E7
:100194008B4201D3CB00C01A524183088B4201D356
:1001A4008B00C01A524143088B4201D34B00C01A42
:1001B4005241411A00D20146524110467047FFE7AE
:1001C40001B5002000F0F0F802BDC0460029F7D0C8
:1001D40076E7704703460B437FD4002243088B42E3
:1001E40074D303098B425FD3030A8B4244D3030BBA
:1001F4008B4228D3030C8B420DD3FF22090212BA7F
:10020400030C8B4202D31212090265D0030B8B42FA
:1002140019D300E0090AC30B8B4201D3CB03C01AE4
:100224005241830B8B4201D38B03C01A5241430BBF
:100234008B4201D34B03C01A5241030B8B4201D3AF
:100244000B03C01A5241C30A8B4201D3CB02C01A1A
:100254005241830A8B4201D38B02C01A5241430A92
:100264008B4201D34B02C01A5241030A8B4201D381
:100274000B02C01A5241CDD2C3098B4201D3CB0128
:10028400C01A524183098B4201D38B01C01A5241D7
:1002940043098B4201D34B01C01A524103098B42DB
:1002A40001D30B01C01A5241C3088B4201D3CB00C6
:1002B400C01A524183088B4201D38B00C01A5241A9
:1002C40043088B4201D34B00C01A5241411A00D259
:1002D40001465241104670475DE0CA0F00D04942C2
:1002E400031000D34042534000229C4603098B4232
:1002F4002DD3030A8B4212D3FC22890112BA030ABA
:100304008B420CD3890192118B4208D3890192113B
:100314008B4204D389013AD0921100E08909C309C0
:100324008B4201D3CB01C01A524183098B4201D3C2
:100334008B01C01A524143098B4201D34B01C01AAD
:10034400524103098B4201D30B01C01A5241C30825
:100354008B4201D3CB00C01A524183088B4201D394
:100364008B00C01A5241D9D243088B4201D34B00AF
:10037400C01A5241411A00D20146634652415B10F1
:10038400104601D34042002B00D5494270476346D2
:100394005B1000D3404201B5002000F005F802BD17
:1003A4000029F8D016E770477047C0460123184A61
:1003B40011680B4313608023164ADB0211680B4358
:1003C400154913600B68154A1A4080231B01134317
:1003D4000B60A021F022C9050B6893431A00A023E7
:1003E40013430B600E490F4A0B681A40CC23DB0100
:1003F40013430B6000230C4A0C4913600B600C4937
:100404000B600C4B0C491960092313607047C046FC
:100414002C100240381002404C100240FFF3FFFF42
:1004240020000050FF00FFFF004800400448004047
:10043400084800400C48004055410300802130B575
:10044400054A064C0378002B00D130BD01301568F5
:100454000D42FCD02360F5E71C48004028480040CA
:10046400042172460A4202D1EFF3088001E0EFF35F
:10047400098015E030BFFDE707B5FFF797FF074890
:1004840000F0ACF800210220019100910B000A0059
:1004940000F0CCF800F0C2F830BFFDE7000F000810
:1004A40073B5002813D046698569C469FFF77EFFD8
:1004B400094800F093F80021330001912A0001203B
:1004C400009400F0B3F800F0A9F830BFFDE7040091
:1004D40006000500EAE7C046000F00087047000068
:1004E40001221E4B70B519680A431A600422196868
:1004F4001142FCD003211A4B1A688A4311000122CD
:100504000A430C211A601A680A40042AFBD1FFF737
:100514004DFF1448FFF792FF134800F05FF80023E3
:1005240012481349134C1A188A4210D30021124B53
:10053400124A93420FD3124800F050F81148FFF7C3
:100544007DFFFFF7CBFF00F059F930BFFDE7E55819
:1005540004331560E7E702C3EBE7C046001002402E
:100564000C1002400E0F00081E0F000800000020AF
:1005740004000020781100081C0000202000002046
:100584002A0F0008350F0008FA21084B10B5186827
:100594008900FFF795FD0022054B01381860054BD3
:1005A4001A60054B07321A6010BDC04600000020D7
:1005B40014E000E018E000E010E000E0014B1868EF
:1005C4007047C0461C000020034A116813685B1A78
:1005D4008342FBD37047C0461C00002030B500287E
:1005E4000FD009220A4B1B681340934209D1802182
:1005F400084B094C0278002A04D140321968114290
:10060400FCD030BD1D680D42FCD001302260F1E702
:10061400004800401C48004028480040014B024A62
:100624001A60FEE70CED00E00400FA0530B5074C53
:10063400074D2560207161710021E180A260E360B3
:10064400039B2361049B636130BDC046040000200A
:10065400EC5D07FA024A1368013313607047C04621
:100664001C000020032370B501244D00AB4026007C
:100674008C400221DB43AE40A94002681A40324359
:1006840002604268A243426082681A400A43826060
:10069400C2681340C36070BD094B02211A0010B533
:1006A4001C680C42FCD00121064B187010680842EB
:1006B400FCD0802110680842FCD11878C0B210BD6B
:1006C400083001400C300140802310B5054C1B0656
:1006D4002360FFF7E1FF0020FFF7DEFF80231B020A
:1006E400236010BD18000050802370B5074C1B0612
:1006F400236080230D001843FFF7CEFF2800FFF787
:10070400CBFF80231B02236070BDC046180000503D
:10071400802307490A681A42FCD0064B0649186030
:1007240080230A681A42FCD0044B18607047C04604
:100734001C380140283801401C480040284800402B
:1007440010B504002078002800D110BD0134FFF753
:10075400DFFFF7E770B5064D03090400E85CFFF717
:10076400D7FF0F231C40285DFFF7D2FF70BDC046A2
:10077400440F000810B50400000EFFF7EBFF200C37
:10078400C0B2FFF7E7FF200AC0B2FFF7E3FFE0B211
:10079400FFF7E0FF10BDF0B5040087B0002820DAB1
:1007A4002D20FFF7B5FF644201260A2703AA731E12
:1007B400D318200039000193FFF7F2FD019B30317B
:1007C400197020003900FFF705FDF5B2041E0FD1A2
:1007D400013DEDB203AB585DFFF79AFF002DF7D151
:1007E40004E00028E0D13020FFF792FF07B0F0BD0D
:1007F40001360D2EDAD10C25EAE700000122C54BA3
:10080400F0B519688FB00A431A60042219681142BE
:10081400FCD00321C04B1A688A43110001220A4309
:100824000C211A601A680A40042AFBD1BB49BC4A4D
:100834000B6880241A4080231B0113430B60FFF7CD
:10084400A3FE0121B74AA0271368B7480B431360DE
:1008540080230168DB010B43B44903600B68E402A5
:1008640023430B60FF053B68B149B24C1940A023F8
:100874009B030B43F0213B60AF4B89031868AF4DDA
:100884000143AF4819600168AE4E0C408821C9008D
:1008940021430160F021A0203C688C432043386050
:1008A4001868A94C014319602168A8480840CC2164
:1008B400C901014321600024A549A6480C600460D5
:1008C400A5480460A54805600920A54D0860A54910
:1008D4000C602C60A44D2C60A44D2E600860072190
:1008E400A0261068A24D014311603A6836022A40DE
:1008F40032433A60C022AC4680259E480168914349
:10090400294301609C48783D0168914301609B48FC
:100914000168A943016060461968783501400E43B7
:1009240097491E600B68974E93432B4380250B60B9
:100934003368954A6D0113402B43834933600B6838
:10094400924A1B021B0A0B6013680F2103401360B9
:100954003800FFF787FE80238D4D1B022B6021009A
:100964008C48FFF77FFE01218B4C38002160FFF794
:1009740079FE01218748FFF775FE02218548FFF7BC
:1009840071FE80239B022B6002232360802380213D
:10099400654ADB022360136849010B431360136843
:1009A400694B2F00039380237C49049602940A68C0
:1009B4001A400192FBD16B46794D9B88794E2B806E
:1009C4002B88B8235B0133803388C5239B002B809D
:1009D4002B882B88403213432B80C820FFF7F4FD6B
:1009E4007148FFF7ADFE7148FFF7AAFE7048FFF7A4
:1009F400A7FE7048FFF7A4FE80230124029A5B023D
:100A040013600220FFF7E0FD029B08201C60FFF743
:100A1400DBFD6948FFF794FE288880B2FFF7AAFE41
:100A24006648FFF78DFE308880B2FFF7A3FE644866
:100A3400FFF786FE6348FFF783FEA023DB051868F3
:100A4400FFF798FE5E48FFF77BFE5F48FFF778FEEE
:100A5400039B1868FFF78EFE5C48FFF771FE049B4A
:100A64001868FFF787FE5648FFF76AFE4220FFF733
:100A74002BFE06002000FFF727FE05005448FFF771
:100A84005FFE3000FFF766FE524E3000FFF758FE5F
:100A94002800FFF75FFE4A48FFF752FE80231B063B
:100AA4003B604220FFF7F8FDA520FFF7F5FD80230A
:100AB40005001B023B604848FFF742FE2800FFF791
:100AC40049FE4648FFF73CFE80212000FFF70CFE5C
:100AD4000520FFF779FD2000FFF7F6FD0390422083
:100AE400FFF7F2FD05003E48FFF72AFE2800FFF756
:100AF40031FE3000FFF724FE0398FFF72BFE304849
:100B0400FFF71EFE6B1EDBB2FD2B6DD93548FFF7D8
:100B140017FEFEE7001002400C1002404C10024089
:100B2400FFF3FFFF2C100240341002403810024043
:100B3400FFFFC3FF0FF0FFFF080000504103000058
:100B4400240000505541030020000050FF00FFFF27
:100B54000038014004380140083801400C38014095
:100B64000448004000480040084800400C48004049
:100B7400FF0FFFFF00040050040000500404005065
:100B8400080400500C000050FFCFFFFF2004005069
:100B940018000050000800501808005008300140A8
:100BA4000030014004300140550F0008780F000860
:100BB400850F00088C0F0008C20F0008D30F00082F
:100BC40074110008DB0F0008EF0F00080210000882
:100BD4000C100008221000082A1000083F1000081A
:100BE400631000087A10000881212000FFF77CFDC3
:100BF4002000FFF7E9FCE4210620FFF775FDC02182
:100C04000720FFF771FD01990820FFF76DFD8C2186
:100C14000920FFF769FD72211D20FFF765FD74218E
:100C24001E20FFF761FD04212620FFF75DFD0199D9
:100C34002020FFF759FD08212120FFF755FD12213F
:100C44003920FFF751FD03213120FFF74DFD0A2123
:100C54003720FFF749FD01990E20FFF745FD019963
:100C64000F20FFF741FD9648FFF76AFD2800FFF7C4
:100C740071FD9448FFF764FD9348FFF761FD40233D
:100C8400039381212000FFF72FFD2000FFF79CFC38
:100C9400FF211220FFF728FD00210398FFF724FD10
:100CA40080239B023B600223029A852113608023E8
:100CB400029ADB0213602000FFF716FDFFF77EFCAB
:100CC400824BC518FFF77AFC401B0CD51220FFF7A6
:100CD400FBFC039B1842F5D02026304209D0FF21AB
:100CE4001220FFF701FD81212000FFF7FDFC784869
:100CF400E2E01320FFF7E8FC05001020FFF7E4FC16
:100D0400EAB201002B1C202A00D9331CDBB20D20CF
:100D14000493FFF7E9FC80231B063B600020FFF7E8
:100D2400BBFC0026049AF3B29A422ED880231B02FD
:100D34003B601920FFF7C8FC05901A20FFF7C4FC9C
:100D4400FF2106001220FFF7CFFC81212000FFF7CE
:100D5400CBFC032D20D8002DC9D05E48FFF7F0FC52
:100D64000498FFF718FD5C48FFF7EAFC00252020F3
:100D7400FFF7CEFC06ABE85CFFF7ECFC0135049A08
:100D8400EBB29342F3D3554896E00020FFF784FC7E
:100D940006ABF0540136C5E706AB1B78502BDCD10B
:100DA40006AB5B78492BD8D106AB9B784E2BD4D1BC
:100DB40006ABDB78472BD0D1019B494801339D3EDC
:100DC4000193FFF7BDFC30B2FFF7E5FC4548FFF7A0
:100DD400B7FC6B4603221B7D00255BB2D81710407D
:100DE400C0188010FFF7D7FC3F48FFF7A9FC019813
:100DF400FFF7D1FC3948FFF7A3FC3C4B06AA069346
:100E0400019B3B481B0A137113006A4612795A71FD
:100E1400FFF796FC81212000FFF766FC2000FFF716
:100E2400D3FB00210D20FFF75FFC80231B063B60F2
:100E34008020FFF731FC06AB585D0135FFF72CFC31
:100E4400062DF8D180231B023B6029002220FFF7E6
:100E54004BFCFF211220FFF747FC039908260800EA
:100E6400FFF742FC02233B608023029A9B0213603B
:100E74000423029A832113602000FFF735FCFFF757
:100E84009DFBF530FF300500FFF798FB401B05D4B0
:100E940020008121FFF728FC16480DE01220FFF7FF
:100EA40013FC3042F0D008211220FFF71DFC200073
:100EB4008121FFF719FC1048FFF742FCE1E6C04628
:100EC400B4100008C6100008D110000888130000F0
:100ED4005B11000845110008521100087411000844
:100EE40006110008151100081E110008504F4E4746
:100EF400291100083B110008361100084641554CE1
:100F0400543A52455345540D0A004541524C593AFE
:100F140052455345545C725C6E005253543A5354D8
:100F24004152540D0A005253543A4D41494E0D0A50
:100F3400004541524C593A4D41494E5C725C6E0039
:100F440030313233343536373839414243444546FB
:100F5400000D0A3D3D3D204C494645545241432035
:100F64004C303732206C6F72615F70696E67207627
:100F7400302E3100205B504F4E4745522F52585D62
:100F840000203D3D3D0D0A005048593A2053463754
:100F94002F42573132352F4352342D3520203931E9
:100FA400352E30204D487A20202B31342064426D78
:100FB400202073796E633D307831320D0A0044424B
:100FC400473A20535049315F4352313D3078002035
:100FD4004352323D3078004442473A204750494F0B
:100FE400415F4D4F4445523D3078004442473A20DA
:100FF4004750494F415F4146524C3D3078002050A4
:10100400555044523D3078004442473A207072654E
:101014002D696E697420207665723D307800206FEA
:10102400706D3D3078004442473A206C6F6F7062B7
:1010340061636B284135293D307800202841353DD6
:1010440073686F72742C31323D5358313237362CF9
:1010540030303D535820737475636B290D0A004476
:1010640042473A20706F73742D736C6565702076F7
:1010740065723D3078004552523A20535831323728
:1010840036206E6F7420666F756E642028766572E4
:1010940073696F6E2030783030206F72203078465C
:1010A400462920E280942068616C7465640D0A000E
:1010B4005358313237362076657273696F6E3D301E
:1010C4007800202072656164792E0D0A00526F6CDD
:1010D400653A20504F4E47455220E28094206C6977
:1010E4007374656E696E6720666F722050494E474F
:1010F4002C207265706C79696E6720504F4E470DD5
:101104000A0052582050494E472020727373693D9B
:101114000064426D20736E723D0064422020636F50
:10112400756E743D00545820504F4E47202E2E2E7D
:1011340020004F4B0D0A0054494D454F55540D0A9C
:1011440000525820756E6B6E6F776E2028002062F7
:1011540079746573293A0052582074696D656F7506
:101164007420286C697374656E696E672E2E2E293F
:041174000D0A000060
:041178000024F4005B
:04000005080004E506
:00000001FF
