:020000040800F2
:10000000005000207905000811050008F9040008D7
:1000100000000000000000000000000000000000E0
:100020000000000000000000000000000D050008B6
:1000300000000000000000000D050008BD0A0008D7
:100040000D0500080D0500080D0500080D05000848
:100050000D0500086D3800080D050008A1380008DE
:100060000D0500080D0500080D0500080D05000828
:100070000D0500080D0500080D0500080D05000818
:100080000D0500080D0500080D0500080000000022
:100090000D0500080D0500080D0500080D050008F8
:1000A0000D0500080D0500080D050008652A00086B
:1000B0000D050008852900080D0500080D0500083C
:0400C0000D05000822
:1000C40000100E0000C2010080250000A55AA55AA8
:0400D4005AA55AA52A
:1000D80003B47146490840004900095E49008E444E
:1000E80003BC7047002243088B4274D303098B4238
:1000F8005FD3030A8B4244D3030B8B4228D3030CF0
:100108008B420DD3FF22090212BA030C8B4202D391
:100118001212090265D0030B8B4219D300E0090AB9
:10012800C30B8B4201D3CB03C01A5241830B8B42C2
:1001380001D38B03C01A5241430B8B4201D34B03AB
:10014800C01A5241030B8B4201D30B03C01A524110
:10015800C30A8B4201D3CB02C01A5241830A8B4295
:1001680001D38B02C01A5241430A8B4201D34B027E
:10017800C01A5241030A8B4201D30B02C01A5241E2
:10018800CDD2C3098B4201D3CB01C01A5241830996
:100198008B4201D38B01C01A524143098B4201D3D0
:1001A8004B01C01A524103098B4201D30B01C01AFB
:1001B8005241C3088B4201D3CB00C01A5241830875
:1001C8008B4201D38B00C01A524143088B4201D3A2
:1001D8004B00C01A5241411A00D201465241104602
:1001E8007047FFE701B5002000F006F802BDC046E1
:1001F8000029F7D076E770477047C0469140031C46
:1002080090409C46203A9340194352426346D3405B
:1002180019437047002B11D1002A0FD1002900D1B2
:10022800002802D00021C943081C07B4024802A1D3
:100238004018029003BDC046C1FFFFFF03B46846E3
:1002480001B5029800F006F8019B9E4602B00CBC6E
:100258007047C046F0B54F464646D646C0B504007E
:1002680082B00D00914698468B422FD82CD041463B
:10027800484600F0B1F829000600200000F0ACF86C
:10028800331A9C46203B9A4600D576E04B465246A8
:1002980093401F004B46624693401E00AF4228D849
:1002A80025D05346A41BBD41002B00DA7BE0002279
:1002B80000230092019301235246934001930123A6
:1002C80062469340009318E08242D0D9002200236E
:1002D800009201930A9B002B01D01C605D6000987E
:1002E800019902B01CBC90469946A246F0BDA342B3
:1002F800D7D900220023009201936346002BE9D04E
:10030800FB079846414672080A437B0866460EE09A
:10031800AB4201D1A2420CD8A41A9D410120241954
:100328006D410021013E24184D41002E06D0AB42FC
:10033800EED9013E24196D41002EF8D1009801999B
:10034800534600196941002B23DB2B005246D3404A
:100358002A006446E2401C0053461500002B2DDBA2
:1003680026005746BE40330026006746BE4032008E
:10037800801A994100900191ACE7624620239B1AAC
:100388004A46DA406146130042468A4017001F4336
:1003980080E7624620239B1A2A0066469A4023007B
:1003A800F3401343D4E76246202300219B1A00221E
:1003B800009101920122DA40019280E720236246EF
:1003C80026009B1ADE402F00B0466646B7404646D8
:1003D8003B003343C8E7C04610B5002903D100F0FD
:1003E80007F8203002E0081C00F002F810BDC046F3
:1003F8001C2101231B04984201D3000C10391B0A4D
:10040800984201D3000A08391B09984201D3000910
:10041800043902A2105C40187047C0460403020267
:100428000101010100000000000000000023C25C7F
:100438000133002AFBD1581E704700000123184AD7
:1004480011680B4313608023164ADB0211680B43C3
:10045800154913600B68154A1A4080231B01134382
:100468000B60A021F022C9050B6893431A00A02352
:1004780013430B600E490F4A0B681A40CC23DB016B
:1004880013430B6000230C4A0C4913600B600C49A2
:100498000B600C4B0C491960092313607047C04668
:1004A8002C100240381002404C100240FFF3FFFFAE
:1004B80020000050FF00FFFF0048004004480040B3
:1004C800084800400C48004055410300802130B5E1
:1004D800054A064C0378002B00D130BD0130156861
:1004E8000D42FCD02360F5E71C4800402848004036
:1004F800042172460A4202D1EFF3088001E0EFF3CB
:10050800098015E030BFFDE707B5FFF797FF0748FB
:1005180000F06AFA00210220019100910B000A0004
:1005280000F098FA00F08EFA30BFFDE7183900089D
:1005380073B5002813D046698569C469FFF77EFF43
:10054800094800F051FA0021330001912A000120E6
:10055800009400F07FFA00F075FA30BFFDE7040060
:1005680006000500EAE7C046183900087047000091
:1005780001221E4B70B519680A431A6004221968D3
:100588001142FCD003211A4B1A688A431100012238
:100598000A430C211A601A680A40042AFBD1FFF7A3
:1005A8004DFF1448FFF792FF134800F01DFA00238F
:1005B80012481349134C1A188A4210D30021124BBF
:1005C800124A93420FD3124800F00EFA1148FFF76F
:1005D8007DFFFFF7CBFF00F01FF830BFFDE7E558C0
:1005E80004331560E7E702C3EBE7C046001002409A
:1005F8000C10024026390008363900080000002097
:1006080008000020C840000820000020D80A002068
:10061800423900084D390008F0B5614CA54400F096
:10062800D1F803F07BFC00F009F900F08FF9E12024
:10063800000302F01BF85B4801F070FF02F0D6FFE0
:10064800011E0ED1032001F04DF9574800F0CCF9F6
:10065800564801F063FF00240AE048A800F05CFD5A
:100668007BE002F00BFD041EF2D0514801F056FF6A
:1006780002F02CFF0100200000F0F0FC00F080F9EF
:10068800039000F05DF9002805D000F059F9010049
:10069800082001F027F9002426002500029401947F
:1006A800009400F06DF9070001F044FD01F0F4FD3D
:1006B80001F08AFE02F038F9009B1843C3B2009398
:1006C80002F04EF90543EDB2002E09D1009B002B34
:1006D80006D01900092001F005F900F0ADFC01363B
:1006E800002C08D1002D06D029000C2001F0FAF8C2
:1006F80000F0A2FC0134029B002B10D102F0C0F8DC
:1007080000280CD002F0BCF8FF2800D9FF20C1B2A5
:100718000B2001F0E7F800F08FFC01230293019B06
:10072800002B12D1002E10D1039BFF1A214B9F42A0
:100738000BD902F08DF8002807D131000A3001F0FA
:10074800D1F800F079FC0123019302F0E1F80028C8
:1007580003D00021062001F0C5F848A801F09EFE4C
:10076800002800D079E703F071F8070001F08CF851
:1007780004A9380002F096FD002802D004A801F070
:1007880096F802F0E9FD002808D106A9380002F021
:100798008DFC002802D006A801F0B2F830BF80E72F
:1007A8009CFDFFFF5C39000887390008C039000844
:1007B80098390008B70B0000014B18687047C0460D
:1007C8000400002010B513480378002B20D11249EB
:1007D80003330A68940012D4013B54000FD4023347
:1007E800D4000CD40233540109D4013B140106D4BB
:1007F8000233940103D40133D40100D4D30F074A40
:10080800137080230A681B0413430B6001230370D1
:1008180010BDC046210000207410024020000020B6
:1008280010B5044B1B78002B01D1FFF7CBFF024B0F
:10083800187810BD21000020200000200123A020EE
:100848002F4AC005116882B00B43136003682D4915
:10085800194080235B040B432B4903600B682B482A
:1008680003400B6080232A495B010B60022110685A
:1008780001431160274928480A680240134340226F
:100888000B6026490B6893430B60254B1A600023C5
:10089800244A0193019B93422ED9A022224BD202D3
:1008A80019680A4380211A60204A89021868084298
:1008B80002D1013A002AF9D1012219680A431A60C3
:1008C800042219681142FCD00320194A1168814397
:1008D8000800012101430C2011601168014004291E
:1008E800FBD1144A144911601A680123520C93432E
:1008F800124A137002B07047019B01330193C9E794
:100908002C100240FFFFFFFC04000050FFEFFFFF28
:100918001800005000040050FFCFFFFF04040050EF
:10092800180400509F0F00000010024001350C0011
:100938000C100240040000200024F40000000020F5
:10094800014B18787047C04600000020FA21084B78
:1009580010B518688900FFF7C5FB0022054B013860
:100968001860054B1A60054B07321A6010BDC04667
:100978000400002014E000E018E000E010E000E0CF
:10098800014B18687047C0462400002070B50C4B16
:100998000C481D68026819688D42FAD10A4B0B4948
:1009A8001C680B4B01341868A41AFFF79BFB010065
:1009B8002000FFF797FBFA239B006B43C01870BD1C
:1009C8002400002018E000E014E000E040420F009E
:1009D80004000020034A116813685B1A8342FBD3A2
:1009E8007047C0462400002030B500280FD00922E7
:1009F8000A4B1B681340934209D18021084B094CCC
:100A08000278002A04D1403219681142FCD030BD66
:100A18001D680D42FCD001302260F1E7004800401B
:100A28001C48004028480040044B0901C318C9B2BB
:100A3800197001238340024A1360704700E400E004
:100A480000E100E0014B024A1A60FEE70CED00E00D
:100A58000400FA0530B5074C074D25602071617117
:100A68000021E180A260E360039B2361049B636132
:100A780030BDC04608000020EC5D07FA10B5021E24
:100A880013D00A4B0A491C6800208C420DD11979F1
:100A980011705979517099685160D96891601969D4
:100AA800D160596918601161013010BD080000203B
:100AB800EC5D07FA024A1368013313607047C046B9
:100AC800240000200420704710B50223012903D117
:100AD800007802F01BFD0023180010BDF8B50126B0
:100AE8000A20134D704333015919124B0F00C218D5
:100AF8001400103F3F780A3C0F392770083B0F78E5
:100B08001C18093A177000210822200002F0F8FE8C
:100B1800290033010839C9183A002000013602F0CB
:100B2800E6FE152EDCD10022034B1A70F8BDC04634
:100B3800E83900082900002028000020F0B5002529
:100B480089B00290039117000021082204A802F03E
:100B5800D7FE0822002106A802F0D2FE664A2B0121
:100B68009B1819780298814200D197E00135142D1D
:100B7800F5D10124200009B0F0BD04AB1B78012B8E
:100B880022D8022304AA13700A276F435B4B02374B
:100B9800FF183200390006A802F0A9FE320004A9A5
:100BA800380002F0A4FE544B2D015B195B68002B42
:100BB8005DD0310038009847041E58D0320006A98D
:100BC800380002F094FED5E7112BDDD91123D9E7BF
:100BD80004AB1B78012BD7D90324CBE704AB1B78D4
:100BE80003247833DBB2782BCED9C3E704AB1B7868
:100BF800072BC9D9F0E79622049B92019342C3D0F0
:100C0800E12252029342BFD0E12212039342BBD0A9
:100C1800E2E704AB1B78013B3F2BB5D9DCE704AB1B
:100C28005A781B7812021343354A323B9BB203248D
:100C38009342A9D99EE704AB5A781B781202134352
:100C48000A3B304AF2E704AB1B78013B092B9BD9DE
:100C5800C2E704AB5A781B7812021343323B2A4A84
:100C6800E4E7049B059A032413438DD182E7274CBC
:100C78002378002B0BD129001F4B0831591832005B
:100C8800380002F025FE002801D001232370019BC3
:100C980000249B0700D46DE705346BE7DA78062457
:100CA8000192D20700D565E75E780224BE4200D0E3
:100CB80060E7039B002B00D15CE73A00190004A809
:100CC80002F015FE02980138122800D95CE7FFF7F8
:100CD800FFF954FF7FFF7FFF85FF7FFF7FFFC8FF7E
:100CE8007FFF7FFF8DFF92FFA0FFA6FF7FFF5BFFC7
:100CF800B2FFBAFF5BFFC0FFE839000829000020F7
:100D0800561300007E1300009E07000028000020F4
:100D1800F8B50E0000271C00144B3901C9180D78CE
:100D2800854210D00137142FF7D101231800F8BDE0
:100D38000A2179430E4B0231C9182A00300002F00B
:100D4800D6FD25700FE00223002EEFD00223002CE1
:100D5800ECD04D789542E9D88228E9D1054B1B782B
:100D68003370012323700023E0E7C046E839000808
:100D7800290000202800002070B5050004A8067886
:100D8800059C181E0BD0201E09D00020032E06D962
:100D9800D8701D7059709A7004230130237070BD8B
:100DA800F0B5050005A80778069E081E11D0181E84
:100DB8000FD0301E0DD00020082A0AD8941CE4B2A7
:100DC800BC4206D81D705A70C5B2AA4202D801208A
:100DD8003470F0BD0F5C1D18AF700130F4E710B52A
:100DE80004004218537890781B0200041843635C8F
:100DF8001843D3781B06184310BD0B0A01704370C3
:100E08000B0C090E8370C170704770B5C288C4B0EE
:100E18000400012A09D802230278417880880093C7
:100E2800013301F08DFB44B070BD0C26037A03AD8D
:100E38002B70437AFF366E44737002339A4205D0A2
:100E480002784178808800930323EAE702F084FA65
:100E5800002806D00023227800936178A088073301
:100E6800DFE77278002A05D021000D200A31684496
:100E780002F03DFD280002F083F9031ED3D1009350
:100E880022786178A0880833CBE7000010B50248C3
:100E980001F044FB10BDC0465E3E000870B5094C29
:100EA800200001F03BFB084D280001F037FB200033
:100EB80001F034FB280001F031FB200001F02EFB8B
:100EC80070BDC046D73C0008283B00080F2307B573
:100ED800034001A8092B06D8303303700023437060
:100EE80001F01CFB07BD3733F7E730B5040089B0C4
:100EF80002AD18220021280002F002FD2378616863
:100F08002B70637803A86B70FFF777FFA16804A8BC
:100F1800FFF773FFE16805A8FFF76FFF216906A8CF
:100F2800FFF76BFFFFF72CFD010007A8FFF765FF30
:100F38000022182311000093F1202B0001F0D8FAA9
:100F480009B030BDF0B5060000250A2785B0ECB21F
:100F5800002E02D00A2D04D12C00002C10D105B08F
:100F6800F0BD30003900FFF743F96B4630310433E8
:100F7800595530003900FFF7B5F801350600E6E7A6
:100F88006A46013CE4B201AB1B5D6846137000235E
:100F9800537001F0C3FAE0E7F0B505000027BBB2D3
:100FA8008B4210D2EC5D202C17D0092C15D04C1E8A
:100FB8002C192678202E01D0092E04D1013989B2A6
:100FC800013C8B42F5D30026ED19945D002C06D127
:100FD8005B1A58425841C0B2F0BD0137DFE78B4277
:100FE80011D2A85D0700613F192F01D82038C0B27F
:100FF8002700613F192F01D8203CE4B201330136A4
:101008009BB28442E1D00020E6E7000010B50C0056
:1010180001F084FA064801F081FA002C03D1054852
:1010280001F07CFA10BD2000FFF78CFFFAE7C046FC
:10103800C03B0008D73C000800B5A5B0842103A830
:1010480000F006FD002806D00022009003AB110036
:10105800C12001F04DFA25B000BD000070B5254E45
:10106800254D8AB029703070FFF738FD00F07CFC00
:101078002248FFF7B9FCFFF7D3FB337805AC637060
:101088002B782070A3700123E3702371FFF758FCBD
:1010980006230022607111000093F020230001F064
:1010A80027FA2000FFF7EAFC002805D01448FFF7CC
:1010B8009BFC2000FFF719FF1248FFF795FC124B25
:1010C800002203937F230493773B0093110003AB23
:1010D800F22001F00DFAFFF733FC002807D10B4886
:1010E800FFF782FC0A48FFF77FFC0AB070BD094889
:1010F800F6E7C046F1000020F20000207A3D000823
:10110800883D0008973D000801010101A63D00083F
:10111800C63D0008B63D0008F0B50400A9B0002897
:1011280000D19AE0B448FFF75FFC2278012A0AD080
:10113800B248FFF759FC012322786178A088009310
:1011480001F0FEF989E06578202D00D1E9E015D895
:10115800022D00D183E008D8002D33D0012D3ED0D8
:10116800A088009502230122B1E0032D00D18EE072
:10117800102DF5D12000FFF748FE6EE0312D00D18B
:101188009EE00BD8212D00D110E1302DE8D1E38865
:10119800012B00D187E0A0880092D0E0402D00D13B
:1011A80078E0412DDCD1842107A800F051FC030030
:1011B800A088002B00D070E08433009322786178F7
:1011C800813BBDE78E48FFF70FFCE08823000090C5
:1011D8002800A278A188083301F08AF93DE08948FF
:1011E800FFF702FC042001F0ADFB8748FFF71EF96A
:1011F800C5B28648FFF71AF92F1CC0B2282D00D9AE
:101208002827FFB2031C102800D91023DAB2039252
:10121800022207ADFF3207920026AB717F233A0006
:101228002B726F7178490C372E716E72AE72EE7236
:101238000AA8EE7102F05BFBE819039A734902F001
:1012480056FB039B8120FF18A18800972B003200D2
:1012580001F04EF9082001F075FB29B0F0BD6C4B88
:1012680007A819686B4B1E686B4B1D68FFF7C5FD17
:10127800310008A8FFF7C1FD290009A8FFF7BDFD47
:101288000C23A1880093002207AB8220A4E7FFF774
:10129800D9FBE2E700F068FBDFE70093010007AB4A
:1012A8000022C12098E7207A07AD287002F0B4F830
:1012B80002236870A188009300222B00B0208BE7DE
:1012C800E388022B05D00223A0880093013329006C
:1012D80036E7237A1E2B14D81D2B06D2012B04D0F7
:1012E800002B13D09A1F032A10D81800617A02F035
:1012F800A5F80222230000920833A1880022B12019
:101308006AE7312BF1D007D8262BEED00093A088BE
:1013180008230122312113E7372BE6D0402BF5D1E2
:10132800E3E70E2602ABF61800233370E0880128A5
:10133800C9D9637A991C884203D0A08800910323F5
:10134800C5E72100257A1A000A312800FFF7F6FBC5
:10135800071E03D0031FDBB2012B09D83300082274
:1013680007A92800FFF7D4FC002801D00023337018
:1013780032780F2602ABF618042306A900930196CB
:101388000B0028003900FFF7F7FC0300A088002BAA
:1013980005D10433009322786178013BD0E6337895
:1013A800009306AB01000022A02015E70F2602AB30
:1013B800F61800233370E388012B00D0EBE61621E2
:1013C800277A02A80918330008223800FFF7A0FC82
:1013D80006AD01000A23002820D00093019507AB31
:1013E80000223800FFF7C8FC0300A088002BD0D0EB
:1013F8002B78009307ABD5E72A3B0008373B00085A
:10140800433B00084C3B0008593B0008733B00086D
:101418005000F81F5400F81F5800F81F162102A8A2
:10142800327809180093019507AB3800FFF7B8FC2C
:101438000300A088002B06D133782278023300936A
:10144800617803237CE62B7801000093002207AB28
:10145800A120C1E670B50400A2B00D00002806D096
:10146800D54AFFF799FD002803D0FFF70FFD22B0FA
:1014780070BDD24A29002000FFF78EFD00280FD04A
:10148800CF4801F04BF8CF4C200001F047F8FFF7A8
:1014980005FD200001F042F8CB4801F03FF836E0A6
:1014A800CA4A29002000FFF777FD002833D0C84832
:1014B800FFF79AFA102001F045FAC64801F02EF815
:1014C800BF4801F02BF8C44801F028F8FFF7E6FC04
:1014D800C24801F023F8BC4801F020F8C04801F0E8
:1014E8001DF80120FFF72EFDBE4801F017F8012076
:1014F800FFF728FDBC4801F011F81C247F252800BF
:10150800E040043CC0B2FFF7E1FC231DF7D1B74827
:1015180001F004F8A9E7B64A29002000FFF73CFDCE
:10152800061E2BD0842101A800F092FA842801D04D
:10153800B0483DE1B04800F0F1FFB04BB0481B782F
:10154800002B00D1AF4800F0E9FFAF4800F0E6FFFC
:10155800AE4B1C782009FFF7B9FC2000FFF7B6FC5A
:10156800AB4800F0DBFF402101A8FFF738FC00285A
:1015780001D1A84891E7FFF7E5FCC8E7A64A29008A
:101588002000FFF709FD002800D1F8E0842101A818
:1015980000F05EFA8428CBD1310001A8FFF71FFCC8
:1015A80001009E48FFF732FD864C200000F0B6FF90
:1015B800042101A8FFF713FC01009948FFF726FD55
:1015C800200000F0ABFF082101A8FFF708FC01008C
:1015D8009448FFF71BFD854D280000F09FFF0C2164
:1015E80001A8FFF7FCFB01008F48FFF70FFD200063
:1015F80000F094FF102101A8FFF7F1FB01008B48D0
:10160800FFF704FD200000F089FF142101A8FFF76F
:10161800E6FB01008648FFF7F9FC200000F07EFF9A
:10162800182101A8FFF7DBFB01008248FFF7EEFC59
:10163800280000F073FF442101A8FFF7D0FB010048
:101648007D48FFF7E3FC200000F068FF482101A86F
:10165800FFF7C5FB01007948FFF7D8FC200000F030
:101668005DFF4C2101A8FFF7BAFB01007448FFF7A2
:10167800CDFC280000F052FF502101A8FFF7AFFB76
:1016880001007048FFF7C2FC200000F047FF54211A
:1016980001A8FFF7A4FB01006B48FFF7B7FC200087
:1016A80000F03CFF582101A8FFF799FB01006748AB
:1016B800FFF7ACFC200000F031FF5C2101A8FFF728
:1016C8008EFB01006248FFF7A1FC280000F026FF0E
:1016D8001C2101A8FFF783FB01005E48FFF796FC79
:1016E800200000F01BFF202101A8FFF778FB010074
:1016F8005948FFF78BFC200000F010FF242101A8B7
:10170800FFF76DFB01005548FFF780FC200000F053
:1017180005FF282101A8FFF762FB01005048FFF7E9
:1017280075FC280000F0FAFE302101A8FFF757FBEE
:1017380001004C48FFF76AFC200000F0EFFE34215E
:1017480001A8FFF74CFB01004748FFF75FFC2000AA
:1017580000F0E4FE2C2101A8FFF741FB01004348FB
:10176800FFF754FC200000F0D9FE402101A8FFF744
:1017780036FB01003E48FFF749FC2800C8E63D4A11
:1017880029002000FFF708FC002806D13A4A290062
:101798002000FFF701FC002801D03848B8E6384A95
:1017A80029002000FFF7F8FB002800D1C0E63548E3
:1017B80000F0B4FE5BE6C0467C3B00087F3B0008B7
:1017C800593B0008833B0008733B0008853B000831
:1017D8008D3B00089D3B0008A13B0008AB3B00087F
:1017E800B13B0008B93B0008C23B00080D3E0008A9
:1017F800CA3B0008D43B0008DC3B0008F10000208D
:10180800923C0008773B0008E33B0008F200002008
:10181800EF3B0008D73C0008F73B0008003C0008F5
:101828000D3C0008193C0008293C0008373C00081A
:10183800433C00084F3C00085B3C0008693C00083A
:10184800783C0008873C0008953C0008A43C000848
:10185800B93C0008CE3C0008D93C0008E43C00082C
:10186800EF3C0008FA3C0008063D0008123D00085D
:10187800203D0008263D00082E3D0008373D0008A1
:101888006A3D0008713D00081FB5040000F0BEF86D
:10189800002C0BD0210003A8FFF7AFFA0423002285
:1018A8000093110003ABC02000F022FE1FBD30B52D
:1018B800040085B0002813D0037802AD2B7043785C
:1018C80041680A2068446B70FFF797FAA3780022F2
:1018D800AB7107231100009390202B0000F008FE45
:1018E80005B030BD7FB5002201AB187018005970E3
:1018F8000292039204920592FFF7F7FA07B000BD2F
:1019080070B50500C4B0002824D00600FF367378EF
:1019180002AC2370B37863700300FE3304229B5E2D
:10192800A3709BB21B0AE3700300FC33996803A8F9
:10193800FFF763FA7278002A03D0290004A801F09F
:10194800D6FF0022737811000833009391202300FA
:1019580000F0CEFD44B070BD0B0A017043700B0C53
:10196800090E8370C170704700230B4A10B51360CD
:101978000A4A13600A4A13600A4A13600A4A136043
:101988000A4A13600A4A13600A4A13600A4A136033
:1019980000F0ECFD10BDC046F8000020FC0000205F
:1019A8000001002004010020F400002008010020AC
:1019B80014010020100100200C010020024A1368C5
:1019C800013313607047C04608010020024A1368BB
:1019D800013313607047C046F4000020024A1368C0
:1019E800013313607047C04614010020024A13688F
:1019F800013313607047C04610010020024A136883
:101A0800013313607047C0460C010020C30703D59B
:101A18000B4A136801331360830703D5094A136817
:101A280001331360430703D5074A13680133136072
:101A3800030703D5054A1368013313607047C0468E
:101A4800F8000020FC000020000100200401002014
:101A580010B5041E00D1E5E00020832900D8E1E09C
:101A680084220100200001F04BFF00F0C7FE0100B6
:101A78002000FFF771FF00F0C7FE0100201DFFF7EF
:101A88006BFF00F0C7FE010020000830FFF764FF7D
:101A980000F0C6FE010020000C30FFF75DFF00F0EB
:101AA800C5FE010020001030FFF756FF00F0C4FE0D
:101AB800010020001430FFF74FFF00F0C3FE0100C3
:101AC80020001830FFF748FF2000574B1C301968DA
:101AD800FFF742FF2000554B20301968FFF73CFF05
:101AE8002000534B24301968FFF736FF2000514B74
:101AF80028301968FFF730FF20004F4B2C30196849
:101B0800FFF72AFF20004D4B30301968FFF724FFFC
:101B180020004B4B34301968FFF71EFF2000494B5B
:101B280038301968FFF718FF2000474B3C30196818
:101B3800FFF712FF01F050FA010020004030FFF7D4
:101B48000BFF00F085FE010020004430FFF704FF82
:101B580000F084FE010020004830FFF7FDFE00F091
:101B680083FE010020004C30FFF7F6FE00F082FEF5
:101B7800010020005030FFF7EFFE00F081FE010069
:101B880020005430FFF7E8FE00F080FE010020003E
:101B98005830FFF7E1FE00F07FFE010020005C30C6
:101BA800FFF7DAFE00F07EFE010020006030FFF74C
:101BB800D3FE00F07DFE010020006430FFF7CCFE6C
:101BC80000F07CFE010020006830FFF7C5FE00F041
:101BD8007BFE010020006C30FFF7BEFE00F07AFEAD
:101BE800010020007030FFF7B7FE00F079FE010019
:101BF80020007430FFF7B0FE00F078FE01002000EE
:101C08007830FFF7A9FE00F077FE010020007C3055
:101C1800FFF7A2FE00F076FE010020008030FFF7FB
:101C28009BFE842010BDC046F8000020FC00002068
:101C38000001002004010020F40000200801002019
:101C480014010020100100200C010020024A136832
:101C5800184310607047C046C4020020F0B5002247
:101C6800082504000A4E0B4893B28B4200D3F0BDFE
:101C7800A35C1B0258402B0007B2400080B2002F23
:101C880000DA7040013BDBB2002BF5D10132EBE703
:101C980021100000FFFF0000802307490A681A424C
:101CA800FCD0064B0649186080230A681A42FCD00B
:101CB800044B18607047C0461C4800402848004044
:101CC8001C3801402838014070B504004518AC4262
:101CD8000AD1402307490A681A42FCD04023064922
:101CE8000A681A42FCD070BD2078FFF7D5FF01348E
:101CF800EDE7C0461C4800401C3801400C4910B5AF
:101D08000A880C4C92B2531C2488DB05DB0D9C42DC
:101D180009D18020084A4001136801331360FFF796
:101D280095FF002010BD054CA0540B800120F9E759
:101D3800D0090020D8090020D4090020D0070020AD
:101D4800F0B53E4CA544AAAC2688012403ADAA7080
:101D5800E970320A090A2C70687029716E71AA71CB
:101D68000634002E0AD0002B08D00B20190002AB35
:101D78003200C01801F0BBFD3619B4B221002800AA
:101D8800FFF76CFF03AB1855A31C9BB20134A4B238
:101D9800000A019303AB1855012200201400030028
:101DA800019E81B28E4212D8A4A9CB18453BFF3BB5
:101DB8001A700020FFF770FF53A82100FFF784FF77
:101DC8000020FFF769FFA5239B009D44F0BD295C17
:101DD8008C4600290FD1A4A9CB18453BFF3B1A70AC
:101DE800A1235B009C4224D823000122611C89B2F4
:101DF80001300C00D4E7A12149008C4219D867466C
:101E0800A4AE3619453E0132611CFF3ED2B289B2FA
:101E18003770FF2AECD1A4AEF318453BFF3B1A708C
:101E28004423FF33994204D002340B00FE3AA1B296
:101E3800DEE7034A136801331360C4E76CFDFFFF54
:101E4800E0090020F0B5694C694BA5440024220044
:101E58001888904217D823003822093BFF329BB2DA
:101E6800934248D98020FFF7F1FE624A1368013394
:101E78001360614A13680133136002235F4A1178C3
:101E88000B43137095E05E4B511C9D5C89B2002D8D
:101E980000D1A8E06E1EF3B202AE0A00019323003F
:101EA800A41900212600564FD719019C8C4212D143
:101EB800FF2D0ED090420CD94021FF318B4200D922
:101EC80091E0A2AC591CE3184E4C1B1900241C705D
:101ED8008BB21C00BDE7904200D184E04024FF345F
:101EE800A34200D97FE07C5C01320133745492B282
:101EF8009BB20131D9E702AB9D795B792D021D4375
:101F08009542AFD82B0009339BB29C42AAD1A11E9F
:101F180089B202A8FFF7A2FEA2AB3B4A1B193B49B4
:101F28009A1812785B181B7812021343834299D1CE
:101F380002AB1B7852AC237002AB5B78E580637010
:101F480002AB9B78A37002AB1A79DB7812021343B9
:101F5800A380002D05D002AB2A00D91D54A801F09A
:101F6800C6FC6578012D07D180204000FFF76EFE82
:101F7800224B1A7815431D7080208000FFF766FEFB
:101F8800234A136801331360EFF3108672B6214DAC
:101F98002B78032B11D9204A1368013313601F4A89
:101FA80013680133136086F310888020C000FFF7A0
:101FB8004DFEA3239B009D44F0BDA022184F520064
:101FC8003B78184853432100C01801F090FC0322C5
:101FD8003B78013313403B702B780133DBB22B7015
:101FE80086F31088E5E720203DE7C04674FDFFFF33
:101FF800C0020020E0090020F4090020C3020020EC
:102008007C01002080FDFFFF7FFDFFFF7EFDFFFFBD
:10201800F8090020CC070020FC090020DC0900207A
:10202800CD070020CC02002070B5164D2E78002E6A
:1020380005D0002802D1144B2870188070BD124CAE
:102048002388002809D1002B04D01030FFF7FEFDAB
:10205800FFF7F8FE00232380F0E7A1225200934205
:102068000AD94020FFF7F2FD0123084A2B701368B4
:10207800268001331360E1E75A1C2280044AD054B9
:10208800DCE7C046C2020020C0020020E0090020B0
:102098007C01002070B503244600B4400223A0252B
:1020A800E443B340ED052A68124E22401A432A60E1
:1020B800012585403268AA430F4D32602A681440D2
:1020C80023432B60072809D80F22800082408140D3
:1020D8000A4C236893431943216070BD0F240838C4
:1020E800C0B2800084408140054A1368A343194365
:1020F8001160F2E704000050080000502000005072
:102108002400005010B50024074A1388A34204D8BD
:1021180000231380054A137010BD054B185D013468
:10212800FFF782FFA4B2EFE77A0100201801002030
:102138001A010020F8B50F252026EFF3108472B697
:10214800404B1A68404B1B682A4229D0D30703D555
:102158003E490B6801330B60930703D53C490B6874
:1021680001330B60530703D53A490B6801330B6001
:10217800130703D5384A1368013313600420FFF7A7
:1021880065FD364B364A1D60364B1B6813680133B4
:102198001360354A13680133136084F31088CCE761
:1021A8002B4224D0DA0703D530490A6801320A6085
:1021B8009A0703D52E490A6801320A605A0703D5DF
:1021C8002C490A6801320A601B0703D52A4A13689A
:1021D800013313600820FFF739FD284B204A1D60A2
:1021E800274B1B68136801331360264AD2E7324233
:1021F80014D00120244A1B4B1F6813680133136055
:10220800224A136801331360214A13780343137079
:10221800FFF71CFDF8B2FFF771FDBEE733420DD0A2
:10222800194A174B02201F68136801331360194AB3
:10223800136801331360164A1378E7E784F31088AC
:10224800F8BDC0461C4800401C3801402C0A00203C
:10225800140A00201C0A0020240A002020480040FC
:10226800E0090020244800400C0A0020300A002021
:10227800180A0020200A0020280A002020380140DF
:1022880024380140100A0020000A0020040A002017
:10229800DA090020080A0020F7B54149414A0B88AD
:1022A80012889BB2934234D13F4A1378002B5ED1F7
:1022B800F7BD002C05D1FFF725FF2000FFF7B4FE7E
:1022C800EBE73A490B88012B04D120002025A843CD
:1022D8005428F0D1200020385E28ECD85E2BEAD8AC
:1022E800581C08803249CA54D7E7324B1B88002B48
:1022F800E3D1314B1B78002BDFD1230020218B4306
:10230800412BDAD12A4B1A700122284B32701A80DD
:10231800C3E72A4A2A4DD25C0133DB05DB0D0B806B
:102328002B78D4B2002B03D000232B700A2CB4D006
:10233800244E3378002BD8D00D2C01D00A2CB8D1DC
:1023480080200027194B00011B880D3C0193019A3E
:10235800174B9F54FFF77AFC01991548FFF77AF855
:10236800124B37701F8063425C412C7095E7EFF386
:10237800108372B60021117083F31088114B1B78FB
:102388008B4200D094E70B490B4B0A88002A03D1F3
:102398001A78002A00D18BE700220A801A7087E792
:1023A800D8090020D0090020CF0700207A0100209A
:1023B8001A010020C0020020C2020020D00700201D
:1023C800190100201801002010B5EFF3108372B630
:1023D8000021244A1468116083F310888C4240D08D
:1023E800E30702D52048FEF7FFFAA30702D51F48E6
:1023F800FEF7FAFA630702D51D48FEF7F5FA230738
:1024080002D51C48FEF7F0FAE30602D51A48FEF793
:10241800EBFAA30602D51948FEF7E6FA630602D5D9
:102428001748FEF7E1FA230602D51648FEF7DCFA4C
:10243800E30502D51448FEF7D7FAA30502D51348D9
:10244800FEF7D2FA630502D51148FEF7CDFA230547
:1024580002D51048FEF7C8FAE30402D50E48FEF785
:10246800C3FA10BDC4020020D43D0008E33D0008B3
:10247800F13D0008013E0008103E00081F3E00081C
:102488002C3E0008393E0008473E0008563E00082A
:10249800633E00086E3E00087E3E000870B5EFF30C
:1024A800108572B60F4C2378DBB2002B03D185F36D
:1024B8001088180070BDA0220B4E520033780B49CB
:1024C8005343C91801F013FA032233780133134038
:1024D80033702378013BDBB2237085F31088012029
:1024E800E8E7C046CC070020CE070020CC02002039
:1024F80037B5382506AC2488FF35AC4204D9064ADE
:1025080013680133136037BD002C01D0002BF6D0BF
:102518000094FFF715FCF6E7E009002010B5041E4B
:1025280004D1064A13680133136010BDFDF77EFF1E
:1025380081B22000FFF7C8FBF7E7C046E00900209A
:1025480030B585B008AC258802ACA3700523E570CA
:102558002D0A21706270257101000093002223006A
:10256800FE20FFF7EDFB05B030BD0000EFF3108251
:1025780072B600231F490B601F490B601F490B608F
:102588001F490B601F490B601F490B601F490B60F7
:102598001F490B601F490B601F490B601F490B60E7
:1025A8001F490B601F490B601F490B601F490B60D7
:1025B8001F490B601F490B601F490B601F490B60C7
:1025C8001F490B601F490B601F490B601F490B60B7
:1025D8001F490B701F490B701F490B801F490B8047
:1025E8001F490B601F490B701F490B6082F310884D
:1025F8007047C046DC090020E0090020FC090020E3
:10260800E8090020E4090020EC090020F009002076
:10261800000A0020040A0020080A0020F809002007
:10262800F40900200C0A0020100A00202C0A0020BF
:10263800140A00201C0A0020240A0020300A002066
:10264800180A0020200A0020280A0020C8020020BA
:10265800DA090020C3020020D0090020D809002090
:10266800D4090020CF070020C40200208023474A55
:10267800DB01116870B50B4313608023444ADB0209
:10268800116801240B43434913600B68424A060052
:102698001A408023DB001343404A0B60136806216D
:1026A800234313600220FFF7F5FC06210320FFF700
:1026B800F1FCC0223A4D04212B68092093431A00EB
:1026C800402313432B60FFF7E5FC0A200421FFF7A2
:1026D800E1FC2B68334A20001A4080235B03134334
:1026E8002B600023304A314D2B601360304A136051
:1026F8009E4207D0FEF760F873080002C018310048
:10270800FDF7F0FC1F222B4B2B4C18602B4B0120A4
:102718001A6000232A4A236013602A4A13609E42E3
:102728000CD0FEF749F873084000C0183100FDF7D7
:10273800D9FC254A03075B0F104018431F22234B7F
:102748001860234B1A600023224A1370224A137020
:10275800224A1370224A1380224A1370224A1370A5
:10276800224A1380224A1370224A1370FFF7FEFE92
:102778003D232B60204B012123601D20FEF754F9D7
:1027880001211B20FEF750F970BDC04634100240ED
:10279800381002404C100240FFF3FFFF2C1002409B
:1027A8000C000050FFFFCFFF0448004000480040E5
:1027B800084800400C4800400038014020480040CC
:1027C8000438014008380140F0FF00000C3801408F
:1027D80020380140CD070020CE070020CC0700207C
:1027E800C0020020C2020020DB0900207A0100207C
:1027F80018010020190100203D800000014B1868D5
:102808007047C046DC090020014B18687047C04675
:10281800E0090020014B18687047C046FC090020F9
:10282800014B18687047C046E8090020014B18683A
:102838007047C046E4090020014B18687047C0463D
:10284800EC090020014B18687047C046F0090020C9
:10285800014B18687047C046000A0020014B1868F1
:102868007047C046040A0020014B18687047C046EC
:10287800080A0020014B18687047C046F809002074
:10288800014B18687047C046F4090020014B1868CE
:102898007047C0460C0A0020014B18687047C046B4
:1028A800100A0020014B18687047C0462C0A002007
:1028B800014B18687047C046140A0020014B18687D
:1028C8007047C0461C0A0020014B18687047C04674
:1028D800240A0020014B18687047C046300A0020BF
:1028E800014B18687047C046180A0020014B186849
:1028F8007047C046200A0020014B18687047C04640
:10290800280A0020014B18687047C046D4090020E7
:10291800EFF3108372B60021024A1068116083F346
:1029280010887047C8020020EFF3108372B60021A8
:10293800034A10781170C0B283F310887047C046FC
:10294800DA090020002808D0EFF3108372B6034993
:102958000A781043087083F310887047C302002078
:10296800EFF3108372B60021034A10781170C0B2D9
:1029780083F310887047C046C30200201022F8B5C0
:10298800284C2368134208D027490A6027490A6857
:1029980001320A600121264A11701A0719D120262E
:1029A8000127236833423CD0224A234B01201D686B
:1029B800136801331360214A136801331360204AF6
:1029C80013783B431370FFF741F9E8B2FFF796F924
:1029D800E7E7DA0703D51B490A6801320A609A0754
:1029E80003D519490A6801320A605A0703D51749FD
:1029F8000A6801320A601B0703D5154A13680133B8
:102A080013600420FFF722F90F22074B1A60114ABE
:102A1800094B1B681368013313600F4A13680133AD
:102A28001360F8BD1C48004020480040E809002019
:102A3800CF070020000A002024480040040A002094
:102A4800DA0900202C0A0020140A00201C0A0020A1
:102A5800240A0020E00900200C0A00201022F8B502
:102A6800284C2368134208D027490A6027490A6876
:102A780001320A600121264A11701A0719D120264D
:102A88000227236833423CD0224A234B02201D6888
:102A9800136801331360214A136801331360204A15
:102AA80013783B431370FFF7D1F8E8B2FFF726F924
:102AB800E7E7DA0703D51B490A6801320A609A0773
:102AC80003D519490A6801320A605A0703D517491C
:102AD8000A6801320A601B0703D5154A13680133D7
:102AE80013600820FFF7B2F80F22074B1A60114A4B
:102AF800094B1B681368013313600F4A13680133CD
:102B08001360F8BD1C38014020380140E809002056
:102B1800CF070020000A002024380140080A0020BE
:102B2800DA090020300A0020180A0020200A0020B4
:102B3800280A0020E0090020100A0020F0B587B01C
:102B480004901D2000F068FC04001E2000F064FCC6
:102B58000500262000F060FC0590202000F05CFCB9
:102B68000600212000F058FC270001212A0923092A
:102B7800AD0836020F400D400643DBB2D2B20297D1
:102B880003950196082B50D8083B591E8B412849BC
:102B98005B420B4027495B18151C0C2A00D90C25F1
:102BA800EAB2062A00D20625019AEDB2002A01D11E
:102BB800083201922A00204800211E00FDF71EFB62
:102BC80001225242D3170027801859413B0080192F
:102BD80079413200FDF71EFB049B07005800039B58
:102BE800401B9B000730C0180523029A5B425343E1
:102BF800C0188000082300280FDD059B240719074B
:102C0800C90F4900691A89004B1E1818FDF76AFA9E
:102C1800640F043444432300083301980430C01877
:102C28007843BF08C01907B0F0BD044BB4E7C046ED
:102C3800B817FEFF90D0030040420F0020A1070004
:102C480070B50400080016001D00FFF777FF022288
:102C58000F2C17D80C4BE400E2580C49B21A8A42E0
:102C680003D900211A19E65051601B195968084CFC
:102C78000122641A844205D3091859602A1E01D01A
:102C880000222860100070BD340A0020E70300000D
:102C9800801A06000F2807D8C20005488018436824
:102CA8008B4202D80023436070475B1AFBE7C0469B
:102CB800340A002030B50F2813D80C4BC000C45874
:102CC8000B4D141BAC4203D90024C2501A1854608F
:102CD800002906D01B185A680648841A8C4201D26B
:102CE800586030BD52185A60FBE7C046340A0020CD
:102CF800E7030000801A060010B5084C2378002B63
:102D080001D0002010BDFF21122000F097FB00F039
:102D180085F90028F5D001232370F3E7B40A0020D1
:102D280070B50D4E3378002B02D10325280070BDF5
:102D3800122000F071FB002504004307F6D50100BE
:102D4800122000F07BFB357000F053F9A842ECD05C
:102D580001231C40E518E9E7B40A002070B50C4DC2
:102D68002A78131C062A00D90623DAB20A2304009B
:102D78009340984200D91C00FDF702FE054B041948
:102D88001C602B78FF2B01D001332B7070BDC0461F
:102D9800B50A0020B80A002073B56B46DE1D9D1DDC
:102DA800997100230C003370012233002900FDF7CC
:102DB800AFFF002803D13378012B00D12C782000F5
:102DC80076BD0000F0B5012185B00320FFF7E4FFD0
:102DD800A62106000420FFF7DFFF002302AA03ADA7
:102DE800D41CD37001902B800222230029001020CC
:102DF800FDF78EFF002823D12378022B20D16C7891
:102E08002B7824021C4304211120FFF7C5FF05007D
:102E1800071E00D10127FDF7B9FD00900220002E02
:102E28000CD0FDF7ADFD284E3368C21A0BD59BB206
:102E380080B2834207D0FEF7D9FD032005B0F0BD6C
:102E4800FA246400DFE7002D24D0FFF755FF1F4A5E
:102E5800009B944663441D00002801D10420EDE73F
:102E6800FFF75EFF022806D12000FFF777FFFEF785
:102E7800BDFD0120E2E70328F0D0012803D0FDF7CB
:102E880085FD401BECD4FDF781FD451B02D400F005
:102E9800B0F8E3E700F0BBF80028DFD03800FDF712
:102EA80099FD1B2000F0B8FA050000F0A2F86B4667
:102EB8001B799D3D5BB22DB2AB42D5DB0020044BA4
:102EC80030601870BAE7C046B80A0020204E0000EB
:102ED800B50A0020002301280CD00133022809D0AC
:102EE8000133032806D00133042803D00538431ED4
:102EF8009841031D052043430148C0187047C04648
:102F08008E3E000870B50400FDF740FD0500FDF792
:102F18003DFD401BA042FAD370BD0000F8B5041E69
:102F280003D1FF22284B1A70F8BD80210079274A67
:102F3800274B8902002831D0022010600422196032
:102F48001A600A20FFF7DEFFA178402000F076FA29
:102F5800E178412000F072FA6178012000F06EFA01
:102F6800FDF714FD1B4B0727C618012000F054FA83
:102F7800050063786B403B4203D0FDF707FD801BDB
:102F880012D463786B405B0703D029000420FEF756
:102F9800A9FC22780C4B01201A70C5E711600222A7
:102FA8001A608022D202CBE7C820FFF7ABFF617816
:102FB800012000F043FA3220FFF7A4FF012000F0BF
:102FC8002BFA0500D5E7C046BC0A002018000050BF
:102FD8001808005088130000014B18787047C04645
:102FE800BC0A002010B50120FFF774FFFFF796FF19
:102FF80010BD10B50220FFF76DFFFFF78FFF10BD62
:1030080010B50320FFF766FFFFF788FF10BD10B566
:103018000420FFF75FFFFFF781FF10BD10B5FFF732
:10302800E8FF002804D00620FFF754FFFFF776FFDB
:1030380010BD000010B500240F4B4B201C7000F091
:10304800EBF910210143C9B24B2000F0F7F9022037
:10305800FDF7C0FC2100012000F0F0F90120FDF788
:10306800B9FCFFF7BFFFA04204D00120FDF7B2FC76
:10307800FFF7BFFF10BDC046BC0A002070B5FFF7C0
:10308800C6FF051E0CD01E2000F0C6F9042404401B
:1030980006D121000520FEF725FC2500FFF7A9FF32
:1030A800280070BD10B5FFF7A4FF10BDF0B50D00E6
:1030B80085B00027C30749D5B94247D0FDF766FC5C
:1030C8002B00FC339860122000F0A6F9202604009B
:1030D8000640BE4206D0FEF779FC2100122000F01F
:1030E800ADF933E04306F8D5132000F095F9070051
:1030F800102000F091F90290192000F08DF943B2E8
:103108001A20019300F088F9029903900D2000F02D
:1031180095F9002F04D03A002900300000F0A2F9F8
:10312800019A2B00D01703221040019AFF33801810
:1031380080105F709870039BFE359D3BAB80FEF757
:103148003DFC2100122000F079F90127380005B074
:10315800F0BD000010B5FFF74CFF064C2378002B9C
:1031680001D0FFF78BFF0023034A23701370034A33
:10317800136010BDC80A0020D20A0020CC0A002023
:10318800F7B50400FFF728FF002C02D10026300015
:10319800FEBD3B4B1B78002BF8D13A4A0438C0B22D
:1031A8001370394A01280BD801331370FFF77AFFDF
:1031B800FFF708FEFD23184208D0FFF7CBFFE5E72D
:1031C8001370FFF716FF0028F2D1DFE727002D4B19
:1031D800FF371E787B780193FDF7D2FB2B4D020059
:1031E8002B0030000199FFF72BFD061E04D00128A3
:1031F800E3D1FEF703FCE0E701000E2000F01EF922
:1032080031000D2000F01AF97978222000F016F923
:103218007A78002A03D0611C300000F03DF9FF21C4
:10322800122000F00BF9FFF7EBFE061E07D1154B35
:1032380029681878FFF72EFDFFF78CFFA7E722789B
:10324800134B09201A7000F0E7F80F231840114BB0
:1032580002301870104C2B682360002B03D178784B
:10326800FFF76CFC2060FDF791FB0C4A23689B1864
:1032780018180B4B024A18600123137087E7C046E1
:10328800D20A0020BD0A0020C80A0020CC0A00206B
:10329800D00A0020D10A0020C40A002050C3000030
:1032A800C00A002070B50D1E01D1002070BD244B4E
:1032B8001C78012CF9D1204223D0122000F0ACF860
:1032C80006000100122000F0B9F8330719D50026CE
:1032D8001C4B6E701B782B701B4B1B78AB701B4BF9
:1032E8001B686B601A4B1D78FDF74AFB3100020022
:1032F8002800FFF7DFFCFEF771FBFFF72BFF20002C
:10330800D4E7FDF743FB134B1B68C01ACDD4012447
:10331800FF21122000F092F80A4B6C701B782B707A
:10332800094B1B78AB70094B1B686B60084B1D7809
:10333800FDF726FB002102002800FFF7BBFCDCE7B5
:10334800D20A0020D00A0020D10A0020C40A002096
:10335800BD0A0020C00A0020024B1878431E98417D
:10336800C0B27047D20A00200323012270B54C0076
:10337800A3401500DB43A5408A4006681E4035433C
:103388000560456895430222A2404560816819405E
:103398000A438260C2681340C36070BD03234900BA
:1033A8008B40DB4302681A400260C2681340C36066
:1033B80070470000094B02211A0010B51C680C4226
:1033C800FCD00121064B187010680842FCD08021FF
:1033D80010680842FCD11878C0B210BD083001400E
:1033E8000C30014010B50A4C00212000FFF7BCFF4B
:1033F8008022084B52021A600120FDF7EBFA0021E7
:103408002000FFF7CBFF0620FDF7E4FA10BDC04609
:103418000008005018080050802310B5064C1B0601
:1034280023607F231840FFF7C5FF0020FFF7C2FF86
:1034380080231B02236010BD18000050802370B544
:10344800074C1B06236080230D001843FFF7B2FFCB
:103458002800FFF7AFFF80231B02236070BDC04622
:1034680018000050802370B50A4D1B062B607F237F
:103478000C0016001840FFF79DFFA619B44203D1AF
:1034880080231B022B6070BD0020FFF793FF207084
:103498000134F3E718000050802370B50A4D1B066D
:1034A8002B6080230C0016001843FFF783FFA61932
:1034B800B44203D180231B022B6070BD2078FFF734
:1034C80079FF0134F4E7C0461800005010B54220D7
:1034D800FFF7A2FF10BD000010B50B4A0023410BF7
:1034E800C004FCF797FE0400010CC9B20620FFF7E0
:1034F800A5FF210AC9B20720FFF7A0FFE1B2082003
:10350800FFF79CFF10BDC0460048E80110B5011C3C
:10351800112809D91121802302395B421943C9B204
:103528000920FFF78BFF10BDC3B2022BF3D2022193
:10353800F1E7F423FF3370B504000D000920994228
:1035480004D8F0308842804140420730111C082AD4
:1035580032D908210439000149000143C9B21D20AC
:10356800FFF76CFF211C0C2C2BD90C21042309011B
:1035780019431E20C9B2FFF761FF2620FFF74CFF51
:103588000A2C23D97D2D21D80C210143C9B226202C
:10359800FFF754FF07253120062C1CD8FFF73CFF06
:1035A8000521A8430143C9B23120FFF747FF0C2189
:1035B8003720FFF743FF70BDD2B2052ACAD20521D2
:1035C800C8E7E3B2062BD1D20621CFE7F72108409E
:1035D800F3390143DBE7FFF71FFF0321A84301434A
:1035E800C9B23120FFF72AFF0A21E1E7F8B507231E
:1035F800774A8024116808200B431360C02275495C
:10360800A0270B68FF05934323430B607249734E51
:103618000B68734D83430B60724938300B689343D2
:1036280023430B607049714C0B689343704A0B60DD
:10363800136870490B40136080223B686E49920101
:103648000B4013433B6033688343336023686B4804
:103658000B401A436A4B22601A6820380A401A60E5
:10366800026A2A4002623A68664DAC462A408025C2
:103678002D022A433A6080273268BA433260664690
:103688006746226832402A43226080241A6864010F
:1036980017401F60026A5C4F1201120902621A6821
:1036A8005A4E1140214319600F21FFF75DFE3D601E
:1036B80000215748FFF758FE0125A0202900C00522
:1036C8003560FFF751FE29005148FFF74DFE0221F2
:1036D8004F48FFF749FE80239B023B60022333607B
:1036E8008023DB02336004213A48FFF757FE2900A4
:1036F8003848FFF753FE00213648FFF74FFE0D21EB
:103708004348FFF74BFE8023424943480A68144365
:103718000C600A6802681A40FCD1B8203F4B40018F
:103728001A603F4A0F241060CB2292001A60402290
:10373800186802431A6001230A68F0201A430A60D5
:1037480038490A68A2431A430A601021364A1568A4
:103758008543294311601168A1430B43136020235B
:1037680032490A68824313430B603149314B0A6876
:1037780031481A430A6031490A681A430A603049D5
:103788000A6802400A602F4A032113600520FDF7EA
:103798004BF903210720FDF747F9FFF723FEFFF751
:1037A80049FC041E02D100242000F8BDFFF78EFE5C
:1037B8000138C0B2FD28F6D82348FFF78DFE052250
:1037C800FA210720FFF7B5FE0E20FFF79FFEEBE773
:1037D8002C10024000040050040400500400005063
:1037E800FFFFFFF0080400500C04005008000050D0
:1037F80020040050FF0FFFFFFFCFFFFF2000005005
:103808000C000050FF3FFFFF180000501808005040
:1038180000080050341002400830014000300140D8
:10382800043001400C000140080001401400014030
:103838000004014013200000ECDFFFFF08040140F2
:103848000C04014014040140C0CA8936EFF3108308
:1038580072B60021024A1068116083F3108870471D
:10386800D40A002003230A490A6813400ED00B60CB
:1038780002231A4203D00749086803430B60D307A1
:1038880004D50423034A11680B4313607047C046EC
:1038980014040140D40A00200A490B4B0A6813405B
:1038A8000ED00B60D30604D50123084908680343EA
:1038B8000B60930404D50823044A11680B43136072
:1038C8007047C0461404014010200000D40A0020AC
:1038D80030B50024A24201D1002005E0035D651C3B
:1038E8000C5DA34201D0181B30BD2C00F2E7002369
:1038F80010B59A4200D110BDCC5CC4540133F8E72E
:1039080003001218934200D1704719700133F9E788
:103918004641554C543A52455345540D0A004541C9
:10392800524C593A52455345545C725C6E0052539E
:10393800543A53544152540D0A005253543A4D418B
:10394800494E0D0A004541524C593A4D41494E5C89
:10395800725C6E004C545F424F4F545F4845415271
:1039680054424541542073746167653D706F7374A8
:103978005F756172745F696E69745C725C6E004D2C
:103988003A524144494F5F4259504153530D0A003E
:103998004C545F424F4F545F484541525442454151
:1039A800542073746167653D726164696F5F726505
:1039B8006164795C725C6E004C545F424F4F545F97
:1039C8004845415254424541542073746167653DEE
:1039D800726164696F5F6661756C745C725C6E00BD
:1039E80001010300D10A00080E00000000000000D9
:1039F80002010100000000000100000000000000BA
:103A080003010100000000000100000000000000A8
:103A18000401020000000000A600000000000000F1
:103A28000501010000000000010000000000000086
:103A380006010100CD0A0008000000000000000097
:103A48000708060000000000FF000000000000005A
:103A580008010100CD0A0008010000000000000074
:103A68000901010000000000010000000000000042
:103A78000A01030000000000000000000000000030
:103A88000B0405020000000000100E0000000000FA
:103A98000C010300000000001000000000000000FE
:103AA8000D02040000000000640000000000000097
:103AB8000E010100CD0A000800000000000000000F
:103AC8001002040000000000F401000000000000E3
:103AD80011010300000000000400000000000000C5
:103AE8001302040000000000900100000000000024
:103AF8008001030100000000010000000000000038
:103B08008101030100000000010000000000000026
:103B18008201010100000000000000000000000018
:103B28002E00433A44495350415443480D0A004338
:103B38003A4241445F5645520D0A00433A50494EB5
:103B4800470D0A00433A5645525F444953500D0AFF
:103B5800004F53452D4C696665547261634C4F5252
:103B6800412D4D7572617461465700646576004653
:103B780041494C0041540041544900200041542B14
:103B88005645523F00433A41545F5645525F4449B7
:103B980053500D0A0046573D002056455253494F91
:103BA8004E3D00204749543D002050524F544F3D50
:103BB8000020534348454D413D00204341503D308E
:103BC800780041542B524144494F3F004552524FCF
:103BD800520D0A00524144494F3D00205645525368
:103BE800494F4E3D3078002053544154453D0041E3
:103BF800542B535441543F00484F53545F44524F41
:103C08005050454400484F53545F4552524F525309
:103C180000484F53545F51554555455F46554C4CE8
:103C280000484F53545F4952515F49444C4500483E
:103C38004F53545F4952515F485400484F53545FA3
:103C48004952515F544300484F53545F4952515FA2
:103C5800544500484F53545F52585F425954455396
:103C680000484F53545F52585F4C505541525400CE
:103C7800484F53545F52585F55534152543100488E
:103C88004F53545F50415253455F4F4B00484F5379
:103C9800545F50415253455F45525200484F535468
:103CA8005F554152545F4552525F4C5055415254F2
:103CB80000484F53545F554152545F4552525F5527
:103CC800534152543100524144494F5F44494F30A7
:103CD80000524144494F5F44494F310052414449E1
:103CE8004F5F44494F3200524144494F5F44494F66
:103CF8003300524144494F5F52585F4F4B00524185
:103D080044494F5F54585F4F4B00524144494F5FFD
:103D18004352435F45525200535441544500415465
:103D28002B48454C500041542B48454C503F0041CE
:103D380054204154492041542B5645523F20415468
:103D48002B524144494F3F2041542B535441543F37
:103D58002041542B48454C502041542B42494E0D8C
:103D68000A0041542B42494E004F4B2042494E0D08
:103D78000A00433A53454E445F424F4F540D0A00E0
:103D8800433A53454E445F4641554C540D0A00434F
:103D98003A53454E445F52454144590D0A00433A4F
:103DA800434C4B5F4853455F33324D0D0A00433A4D
:103DB800434C4B5F4853495F31364D0D0A00433A37
:103DC800494E49545F444F4E450D0A00483A5258EF
:103DD8005F4C5055415254310D0A00483A52585FD1
:103DE8005553415254310D0A00483A4552525F4CDE
:103DF8005055415254310D0A00483A4552525F55C8
:103E080053415254310D0A00483A50524F435F46CD
:103E180052414D450D0A00483A434F42535F4552BF
:103E2800520D0A00483A434F42535F4F56460D0A17
:103E380000483A50415253455F4552520D0A0048D6
:103E48003A5645525F5245515F52580D0A00483A5A
:103E58004652414D455F4F4B0D0A00483A515F4667
:103E6800554C4C0D0A00483A41545F44495350415F
:103E78005443480D0A00483A52585F52494E475F2A
:103E88004F56460D0A000180000000028100000024
:103E98000383400001048500000005860000000639
:043EA80087A00000EF
:103EAC001249134B70B50C68186872B600230326C0
:103EBC00104A114D1360114A1360114A1360114AD4
:103ECC001360114A1360114A13602A6801331A43B4
:103EDC002A600F4D2A68B24313432B600D4B1960B7
:103EEC0084F30888804730BFFDE7C0460000F01F10
:103EFC000400F01F00440040341002400444004011
:103F0C000844004010E000E014E000E018E000E09D
:103F1C000000014008ED00E00122524BF0B5196899
:103F2C0085B00A431A60042219681142FCD003219F
:103F3C004D4B1A688A43110001220A430C211A6066
:103F4C001A680A40042AFBD1052400254749484B2E
:103F5C00FA200B60474A484B15601C601C0040005F
:103F6C0001904F38FF38454F00900291039280200A
:103F7C00019B009A80029B1A414A0193AB0099580D
:103F8C00404A002613680343136001233E4A10681D
:103F9C000343A0201360F022C005036893431A006A
:103FAC00A023134303600C20384A1368834338481A
:103FBC0013600368374A1A408823DB0113430360FC
:103FCC00354B3E601E60354B48081E60344BC018A4
:103FDC00FCF786F81F22334B31001860324B1A6005
:103FEC000D233B603300314E009A8A4216D80023D1
:103FFC00294A3B601360294A01351360032D06D111
:10400C00029A23601360039A136005B0F0BDA623D7
:10401C000093022DABD1019B0093A8E7802022686E
:10402C0040020240501E824120208918204A12680A
:10403C000242D9D01248326884469C446046007BC8
:10404C00D2B290420AD10133082BCDD10023029A6F
:10405C0023601360039A1360FFF722FFA53A5342C3
:10406C005341C1E7001002400C10024014E000E084
:10407C007F3E000018E000E010E000E0004400404B
:10408C00C4000008381002402C10024004000050FC
:10409C0020000050FF00FFFF044400400844004093
:1040AC000024F4000C440040204400402444004010
:0440BC001C44004060
:0840C0009CC1FF7F010000001C
:0840C800010000000024F400D7
:040000050800057971
:00000001FF
