:020000040800F2
:100000000050002005040008A1030008890300082F
:1000100000000000000000000000000000000000E0
:100020000000000000000000000000009D03000828
:1000300000000000000000009D03000839090008CE
:100040009D0300089D0300089D0300089D03000810
:100050009D030008894900089D030008C149000864
:100060009D0300089D0300089D0300089D030008F0
:100070009D0300089D0300089D0300089D030008E0
:100080009D0300089D0300089D0300080000000078
:100090009D0300089D0300089D0300089D030008C0
:1000A0009D0300089D0300089D030008012F000820
:1000B0009D030008212E00089D0300089D030008F1
:0400C0009D03000894
:1000C400A55AA55A5AA55AA500100E0000C201004F
:0400D4008025000083
:1000D80002B4714649084900095C49008E4402BCD3
:1000E8007047C046002243088B4274D303098B42F1
:1000F8005FD3030A8B4244D3030B8B4228D3030CF0
:100108008B420DD3FF22090212BA030C8B4202D391
:100118001212090265D0030B8B4219D300E0090AB9
:10012800C30B8B4201D3CB03C01A5241830B8B42C2
:1001380001D38B03C01A5241430B8B4201D34B03AB
:10014800C01A5241030B8B4201D30B03C01A524110
:10015800C30A8B4201D3CB02C01A5241830A8B4295
:1001680001D38B02C01A5241430A8B4201D34B027E
:10017800C01A5241030A8B4201D30B02C01A5241E2
:10018800CDD2C3098B4201D3CB01C01A5241830996
:100198008B4201D38B01C01A524143098B4201D3D0
:1001A8004B01C01A524103098B4201D30B01C01AFB
:1001B8005241C3088B4201D3CB00C01A5241830875
:1001C8008B4201D38B00C01A524143088B4201D3A2
:1001D8004B00C01A5241411A00D201465241104602
:1001E8007047FFE701B5002000F006F802BDC046E1
:1001F8000029F7D076E770477047C046D0400B001B
:10020800D1409C46203AD34018435242634693401B
:10021800184370479140030090409C46203A934011
:10022800194352426346D34019437047002B11D1FA
:10023800002A0FD1002900D1002802D00021C9438B
:10024800080007B4024802A14018029003BDC04646
:10025800A9FFFFFF03B4684601B5029804F0CAFB82
:10026800019B9E4602B00CBC7047C04610B50029E1
:1002780003D100F007F8203002E0080000F002F88F
:1002880010BDC0461C2101231B04984201D3000C59
:1002980010391B0A984201D3000A08391B099842F1
:1002A80001D30009043902A2105C40187047C04607
:1002B8000403020201010101000000000000000027
:1002C8000023C25C0133002AFBD1581E704700008E
:1002D8000123174A11680B4313608023154ADB0278
:1002E80011680B43144913600A68144B1A408023A1
:1002F8001B0113430B60A021F023C9050A689A4328
:10030800503B13430B600E490E4B0A681A40CC232E
:10031800DB0113430B6000230B4A0C4913600B608D
:100328000B490B600B4B0C4919600923136070478C
:100338002C100240381002404C100240FFF3FFFF1F
:1003480020000050FF00FFFF004800400448004024
:10035800084800400C48004055410300802130B552
:10036800054A064C0378002B00D130BD01301568D2
:100378000D42FCD02360F5E71C48004028480040A7
:10038800042172460A4202D1EFF3088001E0EFF33C
:10039800098015E030BFFDE707B5FFF799FF07486B
:1003A80000F05EFA002102200B000A000191009182
:1003B80000F08CFA00F082FA30BFFDE7D24B00085B
:1003C80073B504000600051E02D046698569C46934
:1003D800FFF77EFF074800F043FA002133002A00A8
:1003E80001200191009400F071FA00F067FA30BF23
:1003F800FDE7C046D24B00087047000001221C4BA5
:1004080010B519680A431A60042219681142FCD011
:100418000323184A11689943023B0B430C211360CC
:1004280013680B40042BFBD1FFF752FF1248FFF76C
:1004380095FF124800F014FA114A124B12498B42E8
:1004480010D30021114B124A93420ED3114800F0E9
:1004580007FA1148FFF782FFFFF7CEFF00F01EF8FA
:1004680030BFFDE701CA01C3E9E702C3ECE7C046B4
:10047800001002400C100240E04B0008F04B00084E
:1004880048530008000000200C000020280000202D
:1004980064150020FC4B0008074C0008F0B5624CBE
:1004A800A54400F0CDF804F07DFE00F005F900F059
:1004B80089F9E120000302F023FB04F021F9041E6E
:1004C80000D1A4E003F0F4FA040004F03EF80100BF
:1004D800200000F03DFE00F08FF9059000F06CF967
:1004E800002805D000F068F90100082001F082FA20
:1004F800002401272500260004940394009400F0AA
:100508007BF9019002F05AF802F00AF902F0A6F914
:1005180002F058FC064302F071FC009B0543F6B25A
:10052800EDB2002B07D1002E06D03100092001F0D2
:1005380061FA00F0FBFD0097002C07D1002D06D0D2
:1005480029000C2001F056FA00F0F0FD3C00049B55
:10055800002B0ED102F0E2FB00280BD002F0DEFBEC
:10056800FF2800D9FF20C1B20B2001F043FA00F0A8
:10057800DDFD0497039B002B12D1009B002B10D1AB
:10058800059A019B9B1A294A93420AD902F0AEFBAD
:10059800002806D100990A3001F02CFA00F0C6FDB7
:1005A800039702F003FC002803D00021062001F085
:1005B80021FA4EA802F0BCF9002830D104F0D4F991
:1005C800029001F0EDF9029807A903F09DFE0028BA
:1005D80002D007A801F0F7F903F0FEFE002808D1C1
:1005E800029809A903F028FB002802D009A801F005
:1005F8000FFA019803F00EFC019803F0CBFB00F012
:1006080035FC0178019801F0BBFB30BF77E70100AA
:10061800032001F0EFF9064800F022F955E74EA84B
:1006280000F0F4FDC5E7C04684FDFFFFB70B0000EE
:10063800164C0008014B18687047C046040000209B
:1006480010B513480378002B20D1124903330A68E8
:10065800940012D4013B54000FD40233D4000CD4BC
:100668000233540109D4013B140106D40233940126
:1006780003D40133D40100D4D30F074A1370802365
:100688000A681B0413430B600123037010BDC046A6
:1006980028000020741002402900002010B5044BE7
:1006A8001B78002B01D1FFF7CBFF024B187810BD48
:1006B80028000020290000200123A0202F4AC0057F
:1006C800116882B00B43136001682D4B19408023D9
:1006D8005B040B432B4903600B682B4803400B60FA
:1006E80080232A495B010B600221106801431160D5
:1006F800274928480A680240134340220B602649CC
:100708000B6893430B60254B1A600023FA22019370
:100718001201019B93422DD3A022214BD2021968CA
:100728000A4380211A601F4A89021868084202D1C8
:10073800013A002AF9D1012219680A431A600422F1
:1007480019681142FCD00322174908689043023AFD
:1007580002430C200A600A680240042AFBD1134AAB
:100768001349116001221968124B490C8A431A7007
:1007780002B07047019B01330193CAE72C10024075
:10078800FFFFFFFC04000050FFEFFFFF18000050C0
:1007980000040050FFCFFFFF04040050180400506D
:1007A8000010024001350C000C100240040000202B
:1007B8000024F40000000020014B18787047C04660
:1007C80000000020FA21084B10B518688900FFF7CF
:1007D80089FC0022054B01381860054B1A60054B4F
:1007E80007321A6010BDC0460400002014E000E083
:1007F80018E000E010E000E0014B18687047C046C0
:100808002C00002070B50C4B0C481D680268196854
:100818008D42FAD10A4B0B491C680B4B01341868FE
:10082800A41AFFF75FFC01002000FFF75BFCFA2326
:100838009B006B43C01870BD2C00002018E000E03E
:1008480014E000E040420F0004000020034A116851
:1008580013685B1A8342FBD37047C0462C00002004
:1008680030B500280FD009220A4B1B681340934269
:1008780009D18021084B094C0278002A04D1403262
:1008880019681142FCD030BD1D680D42FCD0013002
:100898002260F1E7004800401C480040284800401A
:1008A800044B0901C318C9B2197001238340024AD5
:1008B8001360704700E400E000E100E0014B024AE9
:1008C8001A60FEE70CED00E00400FA0530B5074CAD
:1008D800074D2560207161710021E180A260E3600D
:1008E800039B2361049B636130BDC0460C0000205C
:1008F800EC5D07FA030010B5002813D00A4A0B492B
:10090800146800208C420DD11179197051795970F1
:1009180091685960D16899601169D960516910600E
:100928001961013010BDC0460C000020EC5D07FACB
:10093800024A1368013313607047C0462C00002038
:100948000420704703004178027809021143827835
:10095800C07812040A430006597910431A7909022B
:1009680011439A7912040A43D97909061143704749
:100978000023064A1901515C814205D00133172B27
:10098800F8D10120404270471800FCE7284C0008C5
:10099800030010B50220012903D1187803F0F4FDF3
:1009A800002010BDF0B51A4B89B01A4C1A4D0193AE
:1009B80023786778AE1C2B70082200216F703000F6
:1009C80004F0F2F821003A003000083104F0F4F89D
:1009D800019B10340A359C42EAD1002400211822D8
:1009E80002A804F0E1F802ABFF221C7000232000EB
:1009F8000492059300F060F902AA084B06901000D3
:100A0800938200F0D5F9064B1C7009B0F0BDC046C2
:100A1800984D0008284C0008310000200211000001
:100A2800300000200023F0B58DB00F0014000190B5
:100A38000293039304930593FFF79AFF0125061E7B
:100A480054DB794B02019B18DA7805350092D207FE
:100A58004CD45B78043DA34248D1002F46D02200F5
:100A6800390002A804F0A8F801980138132812D810
:100A7800FFF72EFB0A37373F3737773737464B595B
:100A88005F3711676C11727E02AB1B78012B24D87B
:100A9800022302AA13700A277743644B2200FF1827
:100AA800390004A804F088F82200380002A904F0EC
:100AB80083F85D4B360101939B195B68002B00D1CD
:100AC8009AE0210038009847051E00D194E02200E2
:100AD800380004A904F070F808E0112BDBD91123C1
:100AE800D7E702AB1B78012BD5D9032528000DB019
:100AF800F0BD02AB1B787833DBB2782BCBD9F4E7A7
:100B080002AB1B78072BC6D9EFE79622029B92010E
:100B18009342C0D0E12252029342BCD0E122120398
:100B28009342E2D1B7E702AB1B78013B3F2BB2D926
:100B3800DBE702AB1B883E4A323B9BB29342AAD901
:100B4800D3E702AB1B883B4A0A3BF6E702AB1B78AC
:100B5800013B092B9FD9C8E702AB1B88364A323BB9
:100B6800EBE702A8FFF7EEFE084300D093E7BCE7E7
:100B780002AB1B78022BB8D806AD1822002128003A
:100B880004F012F802AB1878287000F095F8286184
:100B98000720FFF7EDFE002801DA0425A6E70A275B
:100BA8007843264B0230C0180193FFF7CBFEA860AC
:100BB800E9601520FFF7DCFE0028EEDB7843019B97
:100BC8001818837816202B75FFF7D2FE0028E4DB6F
:100BD8004743019B0121DF19BB7828006B7500F0A2
:100BE80005F9002805D000F071F8051E00D07DE752
:100BF80051E700F015F9F6E7114D2B78002B0AD1D3
:100C0800019B083622003800991903F0BFFF00281D
:100C180001D001232B700223009D009A1D401A4227
:100C280000D163E7052561E7284C00083300002060
:100C3800561300007E1300009E07000031000020BC
:100C480030000020F7B51E0007000C000192FFF7E6
:100C58008FFE03000120002B13DB0018002C10D09E
:100C6800002E0ED00C4A190152185578019A954257
:100C780007D8822F06D10125084B1B782370002046
:100C88003570FEBD0A215943054B2A002000C918BA
:100C980003F092FFF3E7C046284C0008300000201C
:100CA8003300002003001120002B04D0013B00205A
:100CB800012B00D81E30704703000020022B02D8F9
:100CC800014A9B0098587047A44D0008030004206F
:100CD800092B01D8014AD05C7047C046984D0008DE
:100CE8000023062A01DD063A53B2C01A884200DD05
:100CF8000800012800DC0020C0B27047F8B50500E4
:100D08000E00092400281AD00478022C41D8142790
:100D1800C757FBB21E2B3ED82000FFF7C3FF3A008F
:100D2800697DFFF7DDFF002837D0012C09D0022CA0
:100D380026D0EB68AC681C4363425C416400200029
:100D4800F8BD002E2DD08021EA68AB68C9028A421E
:100D580025D200211800104309D102243129EED9E7
:100D68002C69114BE418631E9C41A400E7E71800A6
:100D7800204009185B08D007C9B203435208E9E7C5
:100D8800002E0ED0AB68EA681343D8D02C69074B05
:100D9800E8E70124D3E70524D1E70624CFE70324B5
:100DA800CDE70724CBE7C046702FFCFFE05EF8FFD5
:100DB80070B50B4D0400010018222800002C0AD041
:100DC80003F0FAFE18220021064803F0EDFE002287
:100DD800054B1A7070BD03F0E7FE2C70F2E7C046B1
:100DE80030010020180100201701002070B505000F
:100DF800FFF784FF1822041E074807D0002103F0DC
:100E0800D3FE0023054A2000137070BD290003F0AB
:100E1800D3FE0123F6E7C046180100201701002081
:100E280073B50F4D08202B78002B18D00D4C0E4EA3
:100E380018223100200003F0BFFE2378012B07D1D0
:100E480000230022009300231000190002F0D2FAB8
:100E580018220021300003F0A7FE0020287076BD7C
:100E680017010020300100201801002000487047B9
:100E78003001002070B5050004A80678059C181EEE
:100E88000BD0201E09D00020032E06D9D8701D7063
:100E980059709A7004230130237070BDF0B50500B5
:100EA80005A80778069C081E12D0181E10D0201E10
:100EB8000ED00020082A0BD8961CF6B2BE4207D8DE
:100EC8001D705A700233C5B2AA4202D8012026709A
:100ED800F0BD0D5C1D540130F5E7030010B5421854
:100EE800507894785B5C2404000220431843D3783C
:100EF8001B06184310BD0B0A017043700B0C090E3A
:100F08008370C170704770B5C2880400C4B0012AEC
:100F180009D802230278417880880093013301F0D0
:100F280059FD44B070BD0C26037A03AD2B70437A8B
:100F3800FF366E44737002339A4205D002784178C6
:100F4800808800930323EAE703F046FA002806D0D6
:100F5800002322786178A08800930733DFE772784E
:100F6800002A05D021000D200A31684403F024FE30
:100F7800280003F073F8031ED3D122786178A08883
:100F880000930833CBE7000010B5024801F010FDCC
:100F980010BDC046E65000080F2307B518400300EF
:100FA8003733092800D8073B6A461371002301A884
:100FB800537101F0FDFC07BD30B5040089B002ADE6
:100FC80018220021280003F0EFFD2388616803A898
:100FD8002B80FFF790FFA16804A8FFF78CFFE1685A
:100FE80005A8FFF788FF216906A8FFF784FFFFF728
:100FF80003FC010007A8FFF77EFF00221823110059
:101008000093F1202B0001F0BDFC09B030BD0000B9
:10101800F0B5002485B0050001AEA04206D1124803
:1010280001F0C6FC05B0F0BD0A2C0FD028000A213B
:10103800FFF7DEF83031A15528000A21FFF752F8F2
:101048002F0001340500092FEED8E4B26A46013CAE
:10105800E4B2335D684613700023537001F0A8FCB6
:10106800002CF3D1DEE7C046B94F000810B50C00DC
:1010780001F09EFC034801F09BFC2000FFF7C8FF2D
:1010880010BDC046A24E0008F0B50027BEB2B1425E
:1010980004D9C45D202C11D0092C0FD04C1E041982
:1010A800B1420DD80024C719135D301980B2002B46
:1010B8000FD1081A43425841C0B2F0BD0137E5E7E5
:1010C8002578202D01D0092DECD1013989B2013CB8
:1010D800E6E781420FD93D5D28006138192801D81B
:1010E800203DEDB218006138192801D8203BDBB249
:1010F8000134AB42D8D00020DFE7000070B5094CBE
:10110800200001F055FC084D280001F051FC20009A
:1011180001F04EFC280001F04BFC200001F048FCD7
:1011280070BDC046B94F0008B04D000800B5A5B065
:10113800842103A800F0BEFE002806D000220090FB
:101148001100C12003AB01F01DFC25B000BD00005B
:1011580070B5254E254D8AB029703070FFF722FCF6
:1011680000F034FE2248FFF77BFBFFF797FA33784D
:1011780005AC63702B782070A3700123E370DB1833
:101188002371FFF719FB0623002260711100F0207C
:101198000093230001F0F6FB2000FFF7ABFB0028CB
:1011A80005D01448FFF75CFB2000FFF705FF124845
:1011B800FFF756FB114B002203937F230493773BE1
:1011C8001100F220009303AB01F0DCFBFFF7F4FA07
:1011D800002807D10A48FFF743FB0A48FFF740FBFE
:1011E8000AB070BD0848F6E7490100204801002010
:1011F800B24D0008C04D0008CF4D000801010201A2
:10120800DE4D0008FE4D0008EE4D0008F0B5040064
:10121800ABB0002800D197E0BC48FFF721FB22784B
:10122800012A0AD0BA48FFF71BFB0123227861780C
:10123800A088009301F0CEFB86E06178202900D1D8
:10124800E6E010D8032906D8481E02282FD8FEF752
:101258003FFF3B7D9500102900D192E0A088022332
:1012680001220091E6E7312900D1A5E00BD8212918
:1012780000D111E13029F1D1E388012B00D18DE0B3
:10128800A0880092D3E0402900D17EE04129E5D131
:10129800842109A800F00EFE0300A088002B00D0CE
:1012A80076E08433227861780093813BC2E79948DD
:1012B800FFF7D6FAE0882300A278A18800900020E2
:1012C800083301F05FFB3FE09348FFF7C9FA0420B9
:1012D80001F086FD914B18000493FEF7F1FF05001D
:1012E8008F4B2F1C1800EDB20593FEF7E9FF282D50
:1012F80000D92827031CC0B2FFB2102800D9102338
:10130800DAB20392874A09AD00260992AB717F23AE
:101318003A006F710C3704992E71EE71FFB20CA868
:101328000B9303F049FC039A0599E81903F044FC70
:10133800039B8120DF19A1882B003200009701F060
:1013480021FB082001F04CFD2BB0F0BD764B09A81D
:101358001968764B1E68764B1D68FFF7CCFD310087
:101368000AA8FFF7C8FD29000BA8FFF7C4FD0C2346
:10137800A18800220093822009ABA2E7FFF79EFA1A
:10138800E2E72000FFF7BFFDDEE700F01FFDDBE727
:10139800010000930022C12009AB92E7207A04AB38
:1013A800187503F081F804AB58750223A188002250
:1013B8000093B02009AB84E7E388022B04D0022312
:1013C800A0880093013335E7237A1E2B0BD8002B16
:1013D80003D05849D94011420ED1A0880122009368
:1013E8003121082326E719002639C9B21A29F4D869
:1013F8005148C8401042F0D01800617A03F066F8EE
:1014080002222300A188B12000920833002258E765
:101418000E2704ABFF1800233B70E0880128CED9C3
:10142800637A267A9D1CA84203D0A08800950323DE
:1014380000E721001A0030000A31FFF7F3FA051E11
:1014480003D0031FDBB2012B09D83B000822300070
:1014580009A9FFF7F7FB002801D000233B703A7871
:101468000F2704ABFF18042329000093300008ABB2
:101478000197FFF7FFFC0300A088002B05D1043378
:10148800227861780093013BD4E63B78009308AB5F
:1014980001000022A02014E70F2604ABF618002351
:1014A8003370E388012B00D0EAE61621277A04A8D6
:1014B8000918330008223800FFF7C4FB08AD010003
:1014C8000A2300280ED00093002209AB38000195AA
:1014D800FFF7D0FC0300A088002BD0D02B78009316
:1014E80009ABD5E7162104A832780918009338000B
:1014F80009AB0195FFF7D2FC0300A088002B1DD192
:101508003378227802336178009390E70C4E000814
:10151800194E0008254E00082E4E00083B4E0008C4
:10152800554E0008010200005000F81F5400F81F33
:101538005800F81FC2030060012822042B7801001C
:1015480000930022A12009ABBBE6C04670B5040099
:101558000D00A2B0002806D0DE4AFFF795FD00284E
:1015680003D0FFF711FD22B070BD29002000DA4A30
:10157800FFF78AFD002812D0D84801F019FAD84C94
:10158800200001F015FAFFF7B9FD200001F010FA6C
:10159800D44801F00DFAD44801F00AFAE1E729002D
:1015A8002000D24AFFF770FD002830D0D048FFF75E
:1015B80057F9102001F014FCCE4801F0F9F9C7489A
:1015C80001F0F6F9CC4801F0F3F9FFF797FDCB48A5
:1015D80001F0EEF9C34801F0EBF9C94801F0E8F968
:1015E8000120FFF715FDC74801F0E2F90220FFF7D7
:1015F8000FFDC54801F0DCF91C247F252800E040D8
:10160800043CC0B2FFF7C8FC231DF7D1C3E729008B
:101618002000BE4AFFF738FD061E27D0842101A806
:1016280000F048FC842801D0B9484FE1B94801F0DE
:10163800BFF9B94BB9481B78002B00D0B84801F066
:10164800B7F9B84801F0B4F9B74B1C782009FFF78F
:10165800A3FC2000FFF7A0FCB44801F0A9F9402141
:1016680001A8FFF73AFCFFF7D3FC94E72900200014
:10167800AF4AFFF709FD002800D10EE1842101A837
:1016880000F018FC8428CFD1310001A8FFF725FC11
:10169800A84B01001800FFF7E9FC914C200001F06D
:1016A80087F9042101A8FFF718FCA34B01001800D3
:1016B800FFF7DCFC200001F07BF9082101A8FFF707
:1016C8000CFC9E4B01001800FFF7D0FC864D28004B
:1016D80001F06EF90C2101A8FFF7FFFB984B010000
:1016E8001800FFF7C3FC200001F062F9102101A8DF
:1016F800FFF7F3FB934B01001800FFF7B7FC20003E
:1017080001F056F9142101A8FFF7E7FB8E4B010001
:101718001800FFF7ABFC200001F04AF9182101A8D6
:10172800FFF7DBFB894B01001800FFF79FFC28003F
:1017380001F03EF9442101A8FFF7CFFB844B0100DB
:101748001800FFF793FC200001F032F9482101A8A6
:10175800FFF7C3FB7F4B01001800FFF787FC200051
:1017680001F026F94C2101A8FFF7B7FB7A4B0100DD
:101778001800FFF77BFC280001F01AF9502101A896
:10178800FFF7ABFB754B01001800FFF76FFC20005B
:1017980001F00EF9542101A8FFF79FFB704B0100DF
:1017A8001800FFF763FC200001F002F9582101A896
:1017B800FFF793FB6B4B01001800FFF757FC200065
:1017C80001F0F6F85C2101A8FFF787FB664B0100E2
:1017D8001800FFF74BFC280001F0EAF81C2101A8CB
:1017E800FFF77BFB614B01001800FFF73FFC20006F
:1017F80001F0DEF8202101A8FFF76FFB5C4B010028
:101808001800FFF733FC200001F0D2F8242101A8CA
:10181800FFF763FB574B01001800FFF727FC200078
:1018280001F0C6F8282101A8FFF757FB524B010029
:101838001800FFF71BFC280001F0BAF8302101A8B6
:10184800FFF74BFB4D4B01001800FFF70FFC200082
:1018580001F0AEF8342101A8FFF73FFB484B010027
:101868001800FFF703FC200001F0A2F82C2101A8C2
:10187800FFF733FB434B01001800FFF7F7FB20008D
:1018880001F096F8402101A8FFF727FB3E4B010025
:101898001800FFF7EBFB28007EE6290020003B4AF2
:1018A800FFF7F2FB002806D129002000384AFFF78D
:1018B800EBFB002801D037486EE629002000364AA5
:1018C800FFF7E2FB002800D1AEE6344801F070F8DB
:1018D80049E6C0465E4E0008614E00083B4E0008CF
:1018E800654E0008554E000895500008674E0008E0
:1018F8006F4E00087F4E0008834E00088D4E00088A
:10190800934E00089B4E0008A44E0008AC4E0008F9
:10191800B64E0008BE4E000849010020594E000886
:10192800744F0008C54E000848010020D14E000839
:10193800D94E0008E24E0008EF4E0008FB4E0008A2
:101948000B4F0008194F0008254F0008314F0008B9
:101958003D4F00084B4F00085A4F0008694F0008D8
:10196800774F0008864F00089B4F0008B04F0008CB
:10197800BB4F0008C64F0008D14F0008DC4F0008D5
:10198800E84F0008F44F000802500008085000080B
:1019980010500008195000084C5000085350000817
:1019A8001FB5040000F064FA002C0BD0210003A836
:1019B800FFF7A1FA0423002200931100C02003AB13
:1019C80000F0E0FF1FBD1FB5041E12D00388416858
:1019D8000A206A4668441381FFF78DFA6A46A3789D
:1019E80090209373072300220093110002AB00F0AC
:1019F800C9FF1FBD7FB56B4618715971002301A837
:101A08000293039304930593FFF7D6FA07B000BD3A
:101A180070B50400C4B000281AD005000300FF35D3
:101A2800FC336E785A68996803A80292FFF763FA44
:101A3800002E04D03200210004A803F0BDF80022D3
:101A48006B78110008330093912002AB00F09AFFE5
:101A580044B070BD030010B500282BD0081E29D053
:101A6800012008701A784A705A788A709A78CA7071
:101A7800DA780A715A68140A4A718C71140C120EB9
:101A8800CC710A729A68140A4A728C72140C120E7B
:101A9800CC720A73DA68140A4A738C73140C120E27
:101AA8000A74CC731B691A0A4B748A741A0C1B0EBD
:101AB800CA740B7510BD0000002804D0FF2803D09D
:101AC800431E052B01D970470720044A4000835A5A
:101AD80003498B42F7D001338352F4E74C010020CD
:101AE800FFFF000010B500280AD002000021054BB6
:101AF80010321C8804800230198002339042F8D1D9
:101B080010BDC0464C010020054A064913888B4287
:101B180001D001331380002801D0034B187070479F
:101B28004A010020FFFF000008000020F0B58BB03C
:101B38000E00141E039003D1002528000BB0F0BD41
:101B4800100004A9FFF786FF051EF5D06778380056
:101B5800FFF7B2FF002F02D1A07801F027FD6078CF
:101B6800FFF7D2FF152332000093C320039904AB7B
:101B780000F008FFE1E700000021044A1388118003
:101B8800181CFF2B00D9FF20C0B270474A01002063
:101B9800FF22024B18781A707047C04608000020D0
:101BA8000300F0B500286AD0081E68D001220A7028
:101BB8005A784A709A788A70DA78CA701A790A71EB
:101BC8005A794A7100228A71CA719A68100A0A728F
:101BD8004872100C120E8872CA72DA68100A0A73F8
:101BE8004873100C120E8873CA731A69100A0A74A3
:101BF8004874100C120ECA7414228874985C8854A5
:101C08000132462AFAD14C1C985A8854000AA0542A
:101C18000232AA2AF8D1985A8854000AA0540232EB
:101C2800BA2AF8D11A00BA3210780A00BA321070FB
:101C38001A00BB3210780A00BB321070BC331A7815
:101C48000B000C0008000826BC331A700C4D0D4B15
:101C5800BD3402781202534032001FB25B009BB2BF
:101C6800002F00DA6B40013AD2B2002AF5D10130D8
:101C78008442EED101202370BE311B0A0B70F0BDE7
:101C880021100000FFFF0000F0B5384C0500A54406
:101C98000392022234ACFF32A3700F00228001F0BD
:101CA80057FC0023E070322802D832331B1ADBB20B
:101CB8002371FFF76DFF0026039B6071A76039A8A9
:101CC80064AFE680E560236101F080FC380001F034
:101CD80001FE7300FB58181E0AD0254A9818FA23EB
:101CE8009B0498423FD2FA218900FEF7FBF980B2A3
:101CF800872302AA5B009B1898530236642EE8D10A
:101D0800B92040008018FFF7EDFEFFF735FFC1232B
:101D180002AA5B009B1818708423164E02A9327819
:101D2800FF335B181A70144B200003931B7863AFC2
:101D380004A93B70FFF734FF041E0FD0BF233A7885
:101D4800C4200093A9B204AB00F01CFE0023039A40
:101D580013703378FF2B01D0013333702000A52393
:101D68009B009D44F0BD0548C2E7C0466CFDFFFFDF
:101D7800E70300006401002009000020FFFF0000C5
:101D880070B50B4E0B0032680A490400821A8A4269
:101D980001D8002070BD084D01002868FFF774FFC6
:101DA8000028F6D02B68346001332B60F2E7C04678
:101DB800600100205FEA00005C0100200B0A01704E
:101DC80043700B0C090E8370C170704700230B4AD7
:101DD80010B513600A4A13600A4A13600A4A13606E
:101DE8000A4A13600A4A13600A4A13600A4A1360CF
:101DF8000A4A136000F004FE10BDC04688010020A6
:101E080084010020800100207C010020780100204E
:101E180074010020700100206C010020680100207E
:101E2800024A1368013313607047C04674010020EA
:101E3800024A1368013313607047C04678010020D6
:101E4800024A1368013313607047C04670010020CE
:101E5800024A1368013313607047C0466C010020C2
:101E6800024A1368013313607047C04668010020B6
:101E7800C30703D50B4A136801331360830703D5DF
:101E8800094A136801331360430703D5074A1368E7
:101E980001331360000703D5054A13680133136043
:101EA8007047C0468801002084010020800100207E
:101EB8007C01002010B5041E00D1E5E00020832934
:101EC80000D8E1E084220100200002F06DFE00F05D
:101ED800E3FE01002000FFF771FF00F0E3FE0100C0
:101EE800201DFFF76BFF00F0E3FE01002000083023
:101EF800FFF764FF00F0E2FE010020000C30FFF75E
:101F08005DFF00F0E1FE010020001030FFF756FFF2
:101F180000F0E0FE010020001430FFF74FFF00F052
:101F2800DFFE010020001830FFF748FF2000574B64
:101F38001C301968FFF742FF2000554B2030196804
:101F4800FFF73CFF2000534B24301968FFF736FF9A
:101F58002000514B28301968FFF730FF20004F4B05
:101F68002C301968FFF72AFF20004D4B30301968D4
:101F7800FFF724FF20004B4B34301968FFF71EFF92
:101F88002000494B38301968FFF718FF2000474BED
:101F98003C301968FFF712FF01F02CFD010020000A
:101FA8004030FFF70BFF00F0A1FE01002000443095
:101FB800FFF704FF00F0A0FE010020004830FFF703
:101FC800FDFE00F09FFE010020004C30FFF7F6FEFA
:101FD80000F09EFE010020005030FFF7EFFE00F0F9
:101FE8009DFE010020005430FFF7E8FE00F09CFE43
:101FF800010020005830FFF7E1FE00F09BFE0100D1
:1020080020005C30FFF7DAFE00F09AFE01002000A5
:102018006030FFF7D3FE00F099FE01002000643025
:10202800FFF7CCFE00F098FE010020006830FFF7B3
:10203800C5FE00F097FE010020006C30FFF7BEFEE1
:1020480000F096FE010020007030FFF7B7FE00F0A8
:1020580095FE010020007430FFF7B0FE00F094FEFA
:10206800010020007830FFF7A9FE00F093FE010080
:1020780020007C30FFF7A2FE00F092FE0100200055
:102088008030FFF79BFE842010BDC04688010020E9
:1020980084010020800100207C01002078010020BC
:1020A80074010020700100206C01002068010020EC
:1020B800024A1368034313607047C046900100202A
:1020C800F0B50022082504000A4E0B4893B2994245
:1020D80000D8F0BDA35C1B0258402B0007B240009B
:1020E80080B2002F00DA7040013BDBB2002BF5D143
:1020F8000132EBE721100000FFFF000080230749B1
:102108000A681A42FCD0064B0649186080230A6800
:102118001A42FCD0044B18607047C0461C48004067
:10212800284800401C3801402838014070B5040098
:102138004518AC420AD1402307490A681A42FCD024
:10214800402306490A681A42FCD070BD2078FFF780
:10215800D5FF0134EDE7C0461C4800401C3801405B
:10216800F0B5454C0D00A5441900AAAB1E88012303
:1021780003AC2370E570330A2D0A257160700725BA
:10218800A2706671A371002E09D0002907D00B2018
:1021980002AB3200C01802F00FFD7619B5B2290063
:1021A8002000FFF78DFFAB1C60550135000AADB26A
:1021B8006055002001249BB24426019322000300AD
:1021C800FF3603A9095C8C4600292BD1A22189007E
:1021D8005B1802A95B18453BFF3B1A70B44246D016
:1021E800411C621C8BB20093230094B20122019916
:1021F800009D0130A942E4D8A22189005B1802A9F8
:102208005B18453BFF3B00201A70FFF777FF53A888
:102218002100FFF78BFF0020FFF770FFA5239B002D
:102228009D44F0BDB44222D0A227411C89B2BF0010
:102238000091E71902A97F186146453F0132651CE4
:10224800FF3FD2B2ADB23970FF2A0ED1A221890068
:102258005B1802A95B18453BFF3B1A70B54206D0D4
:1022680002342B00A4B2FE3AC1E72C00BFE7034AB0
:10227800136801331360D1E76CFDFFFFF4030020FE
:10228800F0B56C4C6C4BA5440024220018886B4BAD
:10229800019390426AD823009C22093B9BB25200CA
:1022A800934200D3ADE004A98D7904AB5B792D028C
:1022B8001D43954200D3A4E02B0009339BB29C42F6
:1022C80000D09EE0A11E89B204A8FFF7F9FEA02362
:1022D8009B00E41804ABE418594BE3181A78594BDF
:1022E8001202E41823781343834200D089E004AB38
:1022F8009B7804AA54AC1288A37004AB2280DA78C5
:102308001B79E5801B021343A380002D05D004AB85
:102318002A00D91D56A802F04FFC6578012D07D177
:1023280080204000FFF7C4FE474B1A7815431D7004
:1023380080208000FFF7BCFE444A13680133136015
:10234800EFF3108672B6424D2B78032B5BD9414AC6
:10235800136801331360404A13680133136086F32E
:1023680010888020C000FFF7A3FE15E00199531CD8
:102378008D5C9BB2002D3BD12020FFF799FE374A98
:10238800136801331360364A13680133136002235C
:102398002D4A11780B431370A5239B009D44F0BD73
:1023A8009042E9D0A0267600B342E5D2039B029E74
:1023B8005B5C01327354390092B24F1C6318FEB251
:1023C8009BB2B542ECD8FF2D10D090420ED9A02177
:1023D80049008B42D0D2A024A400591C1B1904AC7C
:1023E8001B19204C1B1900241C708BB21C0050E7D1
:1023F8001A0004AEA3190293019B00219B180393B2
:10240800DBE78020B9E7A022174F52003B78174836
:1024180053432100C01802F0CFFB03223B7801335D
:1024280013403B702B780133DBB22B7086F3108896
:10243800B2E7C0466CFDFFFF66090020680900206E
:102448007FFDFFFF7EFDFFFF9C030020D0030020DF
:10245800FC030020F0030020F8030020F403002010
:10246800CC03002080FDFFFFFE03002000040020B5
:1024780070B5164D2E78002E05D0002802D1144BC9
:102488002870188070BD124C2388002809D1002BB1
:1024980004D01030FFF70CFEFFF7F2FE0023238074
:1024A800F0E7A122520093420AD94020FFF700FE2C
:1024B8000123084A2B701368268001331360E1E773
:1024C8005A1C2280044AD054DCE7C0466509002023
:1024D80066090020F40300206809002070B5032471
:1024E8000223A0254600B440B340ED052A68134EE8
:1024F800A2431A432A60012585403268AA43104D39
:1025080032602A68A24313432B60072809D80F2298
:102518008000824081400B4C23689343194321601B
:1025280070BD0F240838C0B2800084408140064A3C
:102538001368A34319431160F2E7C0460400005032
:102548000800005020000050240000500B4A10B52D
:1025580013880B4C99B224880133DB05DB0DA342A9
:1025680008D18020074A4001136801331360FFF740
:102578009FFD10BD044C60541380FAE79A010020B7
:1025880098010020940100209C01002010B500242F
:10259800074A1388A34204D800231380054A1370FE
:1025A80010BD054B185D0134FFF762FFA4B2EFE7D9
:1025B800020900200109002004090020F8B50F25B0
:1025C8002026EFF3108472B6404B1A68404B1B6804
:1025D8002A4229D0D30703D53E490B6801330B6043
:1025E800930703D53C490B6801330B60530703D5A8
:1025F8003A490B6801330B60120703D5384A136850
:10260800013313600420FFF753FD364B364A1D6033
:10261800364B1B68136801331360354A136801335E
:10262800136084F31088CCE72B4225D0DA0703D552
:1026380030490A6801320A609A0703D52E490A68A8
:1026480001320A605A0703D52C490A6801320A6028
:102658001B0703D52A4A1368013313600820FFF7C4
:1026680027FD0F22274B1A601F4A274B1B68136848
:1026780001331360254AD1E7324214D00120244A9D
:102688001A4B1F68136801331360224A1368013319
:102698001360214A137803431370FFF709FDF8B25A
:1026A800FFF754FFBDE733420DD0194A164B0220FD
:1026B8001F68136801331360184A136801331360E5
:1026C800154A1378E7E784F31088F8BD1C480040E2
:1026D8001C380140C0030020BC030020B8030020C0
:1026E800B403002020480040F403002024480040A0
:1026F800C8030020B0030020AC030020A80300207A
:10270800A40300202038014024380140C4030020DD
:10271800DC030020D80300209D030020D403002000
:10272800F7B5444A4448118800888BB2814266D084
:102738004249434ECC5C0133DB05DB0D1380337813
:10274800E4B2002B0FD13F4B1B78002B42D00D2C4D
:1027580013D00A2C11D0002C27D1FFF717FF200027
:10276800FFF786FEDDE7002333700A2CD9D0354BFE
:102778001B78002B2ED00D2CEDD180200027324B5A
:10278800324D01931B8800010093EF54FFF790FC32
:1027980028000099FEF7DAFE019B0D3C1F80294BAB
:1027A8001F7063425C413470BBE7274A1388012BD2
:1027B80009D12021200088435428CED1591C1180EA
:1027C800224AD454ADE7210020395E29C5D85E2BB2
:1027D800C3D8F3E71E4B1B88002BC0D11D4B1B78B9
:1027E800002BBCD1230020229343412BB7D1174B98
:1027F8001F3A1C70144B1A80124B1A7091E7164B33
:102808001A78002A15D0EFF3108272B600211970D9
:1028180082F310880B4B1B788B420AD10C490D4B65
:102828000A88002A02D11A78002A02D000220A80D7
:102838001A70F7BD980100209A0100209C01002021
:1028480000090020010900200209002004090020D5
:1028580066090020650900208C01002010B5EFF3FF
:10286800108272B60021244B1C68196082F310880C
:102878008C4240D0E30702D52048FDF7F1FFA307BB
:1028880002D51F48FDF7ECFF630702D51D48FDF789
:10289800E7FF230702D51C48FDF7E2FFE30602D550
:1028A8001A48FDF7DDFFA30602D51948FDF7D8FF42
:1028B800630602D51748FDF7D3FF230602D516484D
:1028C800FDF7CEFFE30502D51448FDF7C9FFA305C0
:1028D80002D51348FDF7C4FF630502D51148FDF77B
:1028E800BFFF230502D51048FDF7BAFFE40402D55F
:1028F8000E48FDF7B5FF10BD900100205C500008A0
:102908006B5000087950000889500008985000085A
:10291800A7500008B4500008C1500008CF50000864
:10292800DE500008EB500008F65000080651000879
:1029380070B5EFF3108572B60F4C2278D3B2002A27
:1029480003D185F31088180070BDA0220B4E5200E9
:1029580033780B495343C91802F02EF90322337810
:102968000133134033702378013BDBB2237085F3C6
:1029780010880120E8E7C046FC030020FD03002082
:102988000004002037B59C2506AC24886D00AC42B5
:1029980004D3064A13680133136037BD002C01D0F5
:1029A800002BF6D00094FFF7DBFBF6E7F4030020DA
:1029B80010B5041E04D1064A13680133136010BD14
:1029C800FDF77EFC81B22000FFF7B0FBF7E7C046B9
:1029D800F403002030B585B008AC258802ACA3709C
:1029E8000523E5702D0A217062700100257100220F
:1029F8000093FE202300FFF7B3FB05B030BD0000B5
:102A0800EFF3108172B600231F4A13601F4A136048
:102A18001F4A13601F4A13601F4A13601F4A13603E
:102A28001F4A13601F4A13601F4A13601F4A13602E
:102A38001F4A13601F4A13601F4A13601F4A13601E
:102A48001F4A13601F4A13601F4A13601F4A13600E
:102A58001F4A13601F4A13601F4A13601F4A1360FE
:102A68001F4A13601F4A13701F4A13701F4A1380AE
:102A78001F4A13801F4A13601F4A13701F4A1360AE
:102A880081F310887047C046F8030020F403002043
:102A9800F0030020EC030020E8030020E4030020FA
:102AA800E0030020DC030020D8030020D40300202A
:102AB800D0030020CC030020C8030020C40300205A
:102AC800C0030020BC030020B8030020B40300208A
:102AD800B0030020AC030020A8030020A4030020BA
:102AE800A00300209D0300209C0300209A010020E1
:102AF80098010020940100208C0100209001002002
:102B0800F8B58023484ADB01116801240B431360A0
:102B18008023464ADB02116805000B4344491360D1
:102B28000A68444B02201A408023DB001343424AC0
:102B38000B601368062123431360FFF7CFFC0621BF
:102B48000320FFF7CBFCC0233C4E04213268092048
:102B58009A43803B13433360FFF7C0FC04210A20EB
:102B6800FFF7BCFC3268364B364F1A4080235B03B4
:102B7800134333600026344B1E60344B1E60344BC5
:102B88001E60B54231D1334B334A1C601F2313609A
:102B9800324B3D601D60324B1D601F22314B1C6063
:102BA800314B1A600023314A1370314A1370314A8D
:102BB8001370314A1380314A1370314A1370314A05
:102BC8001380314A1370314A1370FFF719FF3D2300
:102BD8001D4A012113602E4B1D203B60FDF760FE4E
:102BE80001211B20FDF75CFEF8BDFDF723FD6C08F5
:102BF800000229000019FDF775FA164B164A1860ED
:102C08001F231360154B3E601E60154B1E60FDF7B9
:102C180011FD400000192900FDF764FA1D4B040757
:102C2800640F18400443B8E73410024038100240DB
:102C38004C100240FFF3FFFF2C1002400C00005024
:102C4800FFFFCFFF00380140004800400448004023
:102C5800084800400C480040204800400438014023
:102C6800083801400C38014020380140FE0300209C
:102C7800FD030020FC0300206609002065090020F0
:102C88006409002002090020010900200009002031
:102C98003D800000F0FF0000014B18687047C046F7
:102CA800F8030020014B18687047C046F403002061
:102CB800014B18687047C046F0030020014B1868A4
:102CC8007047C046EC030020014B18687047C046A7
:102CD800E8030020014B18687047C046E403002051
:102CE800014B18687047C046E0030020014B186884
:102CF8007047C046DC030020014B18687047C04687
:102D0800D8030020014B18687047C046D403002040
:102D1800014B18687047C046D0030020014B186863
:102D28007047C046CC030020014B18687047C04666
:102D3800C8030020014B18687047C046C403002030
:102D4800014B18687047C046C0030020014B186843
:102D58007047C046BC030020014B18687047C04646
:102D6800B8030020014B18687047C046B403002020
:102D7800014B18687047C046B0030020014B186823
:102D88007047C046AC030020014B18687047C04626
:102D9800A8030020014B18687047C046A403002010
:102DA800014B18687047C04694010020EFF3108269
:102DB80072B60021024B1868196082F310887047B8
:102DC800A0030020EFF3108272B60021034B18789D
:102DD8001970C0B282F310887047C0469D03002066
:102DE800002808D0EFF3108172B6034A1378034322
:102DF800137081F3108870479C030020EFF3108252
:102E080072B60021034B18781970C0B282F310888B
:102E18007047C0469C0300201022F8B5284D2B6847
:102E2800134208D027490A6027490A6801320A6014
:102E38000121264A11701A0719D1202601272B686B
:102E480033423CD0224A234B01201C6813680133CB
:102E58001360214A136801331360204A13783B43F7
:102E68001370FFF725F9E0B2FFF770FBE7E7DA0721
:102E780003D51B490A6801320A609A0703D5194924
:102E88000A6801320A605A0703D517490A680132ED
:102E98000A601B0703D5154A136801331360042021
:102EA800FFF706F90F22074B1A60114A094B1B68F6
:102EB8001368013313600F4A136801331360F8BDB8
:102EC8001C48004020480040EC0300208C010020F2
:102ED800DC03002024480040D80300209D03002084
:102EE800C0030020BC030020B8030020B403002066
:102EF800F4030020C80300201022F8B5284D2B68E1
:102F0800134208D027490A6027490A6801320A6033
:102F18000121264A11701A0719D1202602272B6889
:102F280033423CD0224A234B02201C6813680133E9
:102F38001360214A136801331360204A13783B4316
:102F48001370FFF7B5F8E0B2FFF700FBE7E7DA0721
:102F580003D51B490A6801320A609A0703D5194943
:102F68000A6801320A605A0703D517490A6801320C
:102F78000A601B0703D5154A13680133136008203C
:102F8800FFF796F80F22074B1A60114A094B1B6886
:102F98001368013313600F4A136801331360F8BDD7
:102FA8001C38014020380140EC0300208C0100202F
:102FB800DC03002024380140D40300209D030020B6
:102FC800B0030020AC030020A8030020A4030020C5
:102FD800F4030020C4030020F0B587B002930CABC3
:102FE8001B78040003930DAB1B78080004930EAB09
:102FF8001D880FAB1B7801920593002945D0002D41
:1030080000D10835211C0C2C41D90C21CCB206006A
:10301800220000212348FDF7FDF8002702000B00DD
:1030280001204042C11780197941801859413B005D
:103038003200FDF7FBF8029B039A5B001B1B920012
:1030480007339B180522049952424A439B180700EC
:103058009B000820002B13DD059A5100611A890096
:1030680000D10131481EC018FDF73CF86B4602003C
:103078001879019B082B0FD90820C0B2504308309B
:1030880004352D187D43BF08E81907B0F0BDE3B239
:10309800062BBBD20621B9E7C1B20529EDD205201E
:1030A800EBE7C04640420F007FB5099D0E000024A3
:1030B8000A2803D97D21B1426441E4B2FA2103947C
:1030C8000824890071430294012600240096019483
:1030D800FFF782FF0300A54200D02860002083424A
:1030E80003D02000089A9A426041304004B070BD75
:1030F800F0B587B005901D2001F0D6F906001E2016
:1031080001F0D2F90500262001F0CEF907002020B1
:1031180001F0CAF90400212001F0C6F98446012013
:103128002B09FF08AD083109320705400640074062
:1031380060462402520F0443C9B2DBB20432A4B27F
:10314800082914D80839484241410C4849420140ED
:103158000918181C0C2B0CD90C20059B03970294FA
:1031680001960095C0B2FFF737FF07B0F0BD0449DC
:10317800EFE7DBB2062BF0D20620EEE748E80100C5
:1031880020A1070070B5040008001D001600FFF715
:10319800AFFF03000220312C17D8FA200C49E400B5
:1031A80062588000B21A824203D300200A1966507E
:1031B800506009194A68074C0120A41A9C4204D39C
:1031C800D2184A60002D01D1002070BD2B60FBE7AA
:1031D800AC0A0020801A0600312807D8054BC00029
:1031E8001B185A688A4202D800225A607047521A3D
:1031F800FBE7C046AC0A002030B5312814D8FA25C0
:103208000B4BC000C458AD00141BAC4203D30024C0
:10321800C2501A185460002906D01B185A6805486D
:10322800841A8C4201D2586030BD52185A60FBE7AC
:10323800AC0A0020801A060010B5084C2378002B31
:1032480001D0002010BDFF21122001F03FF900F04D
:10325800F3FB0028F5D001232370F3E73C0C002092
:1032680070B50E4D2B78002B01D1032070BD1220B4
:1032780001F01AF90423040018401C42F6D021007A
:10328800122001F023F900232B7000F0C0FB002866
:10329800EBD001231C40E018E8E7C0463C0C0020B6
:1032A800031E14D0081E12D0012008701A784A7024
:1032B8005A788A700022CA705A680A715A68120AC3
:1032C8004A715A68120C8A715B681B0ECB71704781
:1032D80003000120002B18D0002A16D00018072957
:1032E80013D91978013001290FD1597811709978BB
:1032F800517058791979000208439979DB790904E2
:10330800014300201B060B43536070470300002055
:10331800312B03D802485843024BC0187047C046A7
:1033280020A1070030DFCE35F0B507000E000024DD
:1033380089B00092019303AD220038003100FCF7F8
:103348005DFF2200287001990098FCF757FF0834A8
:1033580028720135402CEFD10E9B064807930023B5
:10336800054A03AC195D013348405043142BF9D189
:1033780009B0F0BDC59D1C8193010001F7B500237C
:1033880004000D00EB540133322BFBD1002C00D18B
:103398000C4C2E00012731367F1B630363405A0C07
:1033A80053405C015C403378B91920000193FCF765
:1033B8001FFF6B5C013E7370019B6B54B542ECD1EF
:1033C800F7BDC046B979379E37B5084C2569A2685C
:1033D800E368206861680095FFF7A6FF044960610B
:1033E800FFF7CCFF00234A34237037BD400C002080
:1033F800580C0020F7B51500C4220D4C07000E002C
:10340800200000215200019301F0CEFB019B3222E3
:10341800E360089B2760236123004C336660A56046
:103428001A80FFF7D1FF01234B3400202370FEBD23
:10343800400C0020F7B5214B009001911B7801202A
:103448001F4C002B16D0009B0018002B12D000290F
:1034580010D0270032254A373B78312B04D923690D
:1034680001332361FFF7B0FF3B78E218167E312E57
:1034780001D90720FEBD01333B7032000120002135
:10348800FCF7C8FE236D1840636D1940084304D04B
:10349800013DEDB2002DDFD1EBE73000FFF736FF3D
:1034A8000028E6D0009B4C341E70019B18602388CE
:1034B800002B01D0013B23800020DBE78B0C002090
:1034C800400C002070B50A4A030012780D00012054
:1034D800084C002A0BD00230322908D82361FFF7A4
:1034E80073FF230000204A334C341D70208070BDC8
:1034F8008B0C0020400C002070B5134B02221B7867
:10350800124D002B10D0013231290DD82B004A332F
:103518001B783124002B01D0013BDCB22B6983429C
:1035280004D100228C4208D1100070BDC31ADA17EA
:103538009B1853400422012BF6D10131C9B2FFF781
:10354800C1FF0122F0E7C0468B0C0020400C002090
:1035580073B5002601246442E5170C4B1A6D5B6DA8
:103568001100194303D13220801BC0B276BD100070
:1035780019000019694100900191009801991040C3
:103588001940013602000B00F6B2E9E7400C0020B2
:10359800312807D8044A163080008358591C01D0B6
:1035A800013383507047C046400C0020312808D8AA
:1035B800044A90304000835A03498B4201D00133BA
:1035C80083527047400C0020FFFF000070B50028B0
:1035D8000FD00400FF260025064B323419880A1C38
:1035E800FF2900D9321C027001301D800233A0422D
:1035F800F4D170BD600D0020014B18697047C046BA
:10360800400C0020014B18787047C0468A0C0020F7
:10361800014B18787047C0468B0C002070B50B4DD5
:103628002A78131C062A00D906230A24DBB29C40F8
:10363800844200D90400FDF7DFF8054B0019186033
:103648002B78FF2B01D001332B7070BDC80D0020E3
:10365800CC0D002013B56B466A46997100230C0007
:10366800D37169466B46012207330631FDF7EAFA42
:10367800002805D16B46DB79012B01D16B469C797B
:10368800200016BDF0B5012185B00320FFF7E2FF49
:10369800A62107000420FFF7DDFF002302AA93807C
:1036A800D3701300019002221020033303A9FDF701
:1036B800C9FA00281FD102ABDB78022B1BD102AB61
:1036C8009E8804211120FFF7C5FF0500FDF79AF831
:1036D80004000220002F0CD0FDF78EF8284F3B681D
:1036E800C21A0BD59BB280B2834207D0FEF7B0FB5B
:1036F800032005B0F0BDFA267600E2E7002D21D0C0
:10370800FFF79AFD1F4BE418002814D0FFF7A8FD17
:10371800022806D13000FFF781FFFEF799FB012050
:10372800E7E7032807D0012807D1FDF76BF8001B4E
:1037380008D400F06CF90420DBE7FDF763F8001B00
:10374800E4D4F2E700F071F90028F4D0281C002D29
:1037580000D10120C0B2FDF779F81B2000F0A4FECB
:10376800040000F054F96B461B799D3C5BB224B20F
:10377800A342CFDB0020044B38601870B9E7C0467D
:10378800CC0D0020204E0000C80D0020F0B504002C
:1037980000203F2C17D80E4D4B1EAB4213D80D4BB3
:1037A8000D4EDD7A002D0BD09D7AA54208D11D68FB
:1037B800551BA94204D9C7435D68AF4204D34019D9
:1037C8000C33B342EDD1F0BD01204042FBE7C046C7
:1037D8001F4E0000D00D0020D0130020F7B50D00BB
:1037E8001900099B0400089E0192002B03D00123B5
:1037F800099A5B42138001223F2C2AD8264F4B1E80
:103808000232BB4225D8013A002D22D0002E20D00A
:10381800B5421ED8019A2000FFF7B8FF0422361AD5
:10382800AE4216D31D4A00231100CE7A002E12D0C4
:103838000133DBB20C31802BF7D100231168019ED4
:10384800711AB94207D80133DBB20C32802BF5D19B
:1038580005221000FEBD0C275F43104EF1190A899E
:103868008C720132D205D20D0A819446019A8134B4
:10387800BA510127FF34A4004D60CF72A1592D1809
:10388800A94200D2A5510999002903D06246D20164
:103898001A430A800022DCE71F4E0000D00D0020EA
:1038A8000A4B10B5984210D07F240C220440624382
:1038B800074B9B18DA7A002A07D01A89C009824276
:1038C80003D15A688A4200D9596010BDFFFF000031
:1038D800D00D002010B5002808D00021421C044B50
:1038E800FF321C6810C002C39042FAD110BDC04616
:1038F800D0130020002301280CD00133022809D05E
:103908000133032806D00133042803D00538431EA9
:103918009841031D05205843014BC0187047C04605
:103928001651000870B50400FCF76CFF0500FCF7A1
:1039380069FF401BA042FAD370BD0000F8B504002F
:10394800FF23002831D080210079264A264B89029E
:1039580000282DD002201060042219601A600A2065
:10396800FFF7E0FF4020A17800F0B0FD4120E178AA
:1039780000F0ACFD6178012000F0A8FDFCF742FFE3
:103988001A4B0727C618012000F08EFD0500637842
:103998006B403B4207D0FCF735FF801B0ED46378A1
:1039A8006B403B4219D101202378114A1370F8BDAE
:1039B800116002221A608022D202CFE7C820FFF7E6
:1039C800B1FF6178012000F081FD3220FFF7AAFFE6
:1039D800012000F069FD0500D9E729000420FEF761
:1039E80009F8E0E718000050180800508813000094
:1039F800D0140020014B18787047C046D01400201E
:103A080010B50120FFF776FFFFF798FF10BD10B53E
:103A18000220FFF76FFFFFF791FF10BD10B50320DD
:103A2800FFF768FFFFF78AFF10BD10B50420FFF706
:103A380061FFFFF783FF10BD10B5FFF7E8FF00280F
:103A480004D00620FFF756FFFFF778FF10BD0000EF
:103A580010B500240F4B4B201C7000F025FD1021E1
:103A68000143C9B24B2000F031FD0220FCF7EEFE05
:103A78002100012000F02AFD0120FCF7E7FEFFF7F6
:103A8800BFFFA04204D00120FCF7E0FEFFF7BFFF14
:103A980010BDC046D014002070B5FCF7B3FEFA255F
:103AA8000400AD00FCF7AEFE001BA842FAD370BDBF
:103AB80010B5FFF7BAFF041E0CD01E2000F0F4FC6E
:103AC800042301001940184205D10520FDF792FF93
:103AD800FFF79DFF0024200010BD00007FB50138CE
:103AE8000C0003281AD8FCF7F3FA02041A2500F090
:103AF8004DFA002502A8057000F04EFA0400A8420D
:103B08000CD0224B1D70224B1D70FFF780FF200048
:103B180000F020FDFFF7C0FFFFF7CAFF7FBD0023BD
:103B28001C4A1370194A1370194A137001221A4B50
:103B38001A70F3E7174D02A82B7801AE0370032320
:103B48004370124B1B788370114B1B78C370124B58
:103B58001B78037100F0EAF93080C1B20D20FDF73F
:103B680049FF7378002B02D0FFF751FFD6E70120F9
:103B78002B78210001332B70084B1870084B1C6000
:103B8800084B1C60FFF7AAFFC8E7C046E5140020F1
:103B9800E4140020D2140020D1140020DC140020EA
:103BA800D8140020D4140020F0B51500174A89B0A5
:103BB800174E0192127803AB1A70164F32681874B8
:103BC80005923A68180059740495069200F056F95F
:103BD80002AB1880019BC4B22100187800F08EF95E
:103BE800022C10D0042322009A43012A01D1356007
:103BF8003D6002AB5B78019A290020001370FFF743
:103C08006DFF09B0F0BD3560F3E7C046DC14002055
:103C1800D8140020D414002010B50400FCF7ECFDE3
:103C280002231B1B02002100D8B2FFF7BDFF10BD05
:103C380010B5FFF7ECFE10BDF0B501270D0089B0F7
:103C480038421CD000291AD04E4B1F70FCF7DAFD01
:103C58002B00FC339860122000F026FC202306007D
:103C680004001E4018420DD0FEF7E2F80020FFF7CE
:103C7800D3FF454B1F702100122000F027FC0020C5
:103C880009B0F0BD4306F6D5132000F00DFC0190F5
:103C9800102000F009FC0290192000F005FC47B242
:103CA8001A2000F001FC029903900D2000F00EFC90
:103CB800019B002B04D01A002900300000F017FCEB
:103CC8002E000322019BFF367370FB1713402A0056
:103CD800DB199B10B370039BFE329D3B938000233E
:103CE80006AF3A00280001997374FFF7F1FA0290C1
:103CF800002803D00020FFF78FFFBCE72B003A0015
:103D08000933FF3303CA03C30123737479787868CE
:103D1800FFF7F2FB070000F085F8012F18D104AB7C
:103D2800D81C029B05A903700593FFF783FB0028A5
:103D38000ED1FFF76CFE059800F00CFCFFF7ACFE07
:103D4800FFF7B6FEFCF758FD104B1860104B1F70BC
:103D58000120FFF761FF019B083BDBB2002B08D174
:103D68007370FEF75DF81220210000F0AFFB012010
:103D780086E72A00117A11700132511BC9B28B42B1
:103D8800F8D8EDE7E5140020E4140020E014002042
:103D9800DD14002073B51C4B05001A781B4B022A52
:103DA80002D000221A7073BD1A78194E002A02D167
:103DB80030600132F6E700F00FFB0400FFF728FC43
:103DC800431E98412200C3B23168280000F036F83B
:103DD800040000F047F8002C03D0042CE3D1356030
:103DE800E1E76B4601A9D81C01940470FFF722FB98
:103DF8000028F4D1FFF70BFE019800F0ABFBFFF7AA
:103E08004BFEFFF755FEEAE7DC140020DD14002026
:103E1800E0140020002110B502000800FFF7C4FEDE
:103E280010BD0000042806D8034A80008358591C96
:103E380001D0013383507047E814002010B5040006
:103E48000120002B0CD00018002A09D1611A023079
:103E5800002905DBBE2301385B00994200D310001E
:103E680010BD0000042806D8034A80008358591C56
:103E780001D0013383507047FC14002082B001AB9D
:103E8800002806D1188018785B781B02184302B006
:103E98007047017C027801290CD0012A12D102292D
:103EA8000DD04268C168511A02D48068121A13D51D
:103EB80006220CE0012A05D1427C002A09D1802281
:103EC800520007E0022A11D0002A11D10222FF3243
:103ED80000E0084A1A80D6E70748814202D9C12281
:103EE8009200F7E7632AEAD98122E9E78022F7E717
:103EF800C022F5E7030200002F75000010B5032863
:103F080006D8084A800083585C1C01D001338350CE
:103F1800052906D8044A89008B58581C01D001335A
:103F28008B5010BD281500201015002037B500282B
:103F380028D0002203784178C5788B4252411C1C56
:103F4800D2B20F2B00D90F2401798078D301E4B2C3
:103F5800DBB200280CD0002901D040210B43002DF2
:103F68000DD12343FF210A400B40100218433EBDE8
:103F7800002901D040210B432021002D00D0102121
:103F88000B43EEE780230122ECE700000022014BFF
:103F98001A70704738150020F8B50400051E0BD0BC
:103FA800064F3E783000FFF7B1F932210500701C4A
:103FB800FCF71EF9267039702800F8BD3815002066
:103FC80070B586B006000D00FCF750FF031E00D048
:103FD800037801AC2370104B66701B780495A370AE
:103FE8000E4B1E780E4BE6701B6802930D4B1B6838
:103FF8000393FCF701FC0C4902003000FFF7C6FBF5
:104008000A4D0590220000212888FDF78FFD2B8896
:1040180001332B8006B070BD441500204C150020DC
:104028004015002048150020102700003A150020F0
:1040380010B5FFF7ECFC064C2378002B01D0FFF7F6
:1040480037FD0023034A23701370034A136010BD21
:104058005C1500205F15002050150020F0B58DB0CC
:104068000390FFF7C7FC039B0690002B16D0954BD7
:104078001C78002C12D1039B934DFF335B78934F30
:104088000833934E0593FF2B0CD9924B2C703C6050
:1040980034602100FF201C70FFF792FF00252800E4
:1040A8000DB0F0BDFCF7E2FE8A4B0493002802D065
:1040B8000378002B31D10023864A2B703B60336094
:1040C8001370069B844A043BDBB2012B46D80123BC
:1040D8001370FFF7ADFD7E4B186800280BD000F079
:1040E80039FAFCF78FFBFA250400AD00FCF78AFBD0
:1040F800001BA842FAD3FFF7C5FA0224A043C0B2B6
:10410800002832D0049B1878FFF742FA00212000DB
:10411800FFF756FFFFF78CFFC0E706AB1C720AA932
:1041280008A80A94FFF786F9002804D0049B2C708D
:104138003C603460ADE706AB1B7A049A13700A9BA7
:104148003360FFF75FFA3123002801D00138C3B28A
:104158002B70FFF751FA5D4B1860B2E7002313701C
:10416800FFF755FC0028B6D198E76B461C7D200068
:10417800FEF7BEFF594B0600984204D9FDF770FEC2
:1041880031000120C4E7564D524F28603E78FCF7B5
:1041980033FB544B0200210030000593FEF7F2FF79
:1041A8000490002806D0012801D1FDF759FE04200B
:1041B8002968ADE7FCF75AFE01234B4E5B42002805
:1041C8001CD00278002A19D033803B7806932B68DC
:1041D8000793FCF711FB454B020000930799444BEA
:1041E80006980196FFF7FAFA002808D0059B387858
:1041F8001968FEF7F1FF0320296889E73380002159
:104208000E2000F063F900210D2000F05FF9210075
:10421800222000F05BF9FCF729FE002801D0037882
:104228000493049A06AB1A74274B06AA1B7808A9AC
:104238005374264B0AA81B680B93FFF731F8082222
:10424800002008A900F06AF9039BFF335A78002A76
:1042580004D0039B0020591C00F060F9FF211220B4
:1042680000F034F9FFF7DAFB1E4E051E08D1194B92
:1042780031681878FEF7B0FF194B0620196847E730
:10428800039A1C4B127809201A7000F00DF90F22BE
:10429800194B1040023018703368184E3360002BE9
:1042A80003D12000FEF724FF3060FCF7ABFA336837
:1042B8001349144A5B181B1813600122014B1A702A
:1042C800EDE6C0465F15002044150020401500208B
:1042D800481500204C1500205C15002060CC050016
:1042E8003C150020501500200A000020801A060006
:1042F800102700005E1500205D15002058150020CD
:10430800F04902005415002070B50C1E01D10020A0
:1043180070BD2A4B1B78012BF9D118422CD01220E2
:1043280000F0C2F805000100122000F0CFF82D07B8
:1043380022D50025224B234E1B7865702370224B13
:104348001B78A37033686360204B1C78FCF754FA21
:10435800290002002000FEF74FFFFDF771FD1C4BFE
:1043680031681888FFF79CFA28003168FFF728FEA3
:10437800FFF75EFE0120CBE7FCF744FA154B1B68FC
:10438800C01AC4D4FF21122000F0A0F80C4B0D4D28
:104398001B782370012363700B4B1B78A3702B6869
:1043A80063600A4B1C78FCF727FA00210200200002
:1043B800FEF722FF05202968D8E7C0465F150020D0
:1043C8005E150020581500205D1500204C150020B2
:1043D8000A00002054150020024B1878431E98410B
:1043E800C0B270475F1500200122032370B5150085
:1043F8004C00A340A5408A4006689E4335430560AB
:10440800456895430222A2404560816899430A4362
:104418008260C2689A43C26070BD032349008B4022
:1044280002689A430260C2689A43C26070470000FB
:104438000222084B19681142FCD00121064A10706B
:1044480018680842FCD0802118680842FCD110780E
:10445800C0B27047083001400C3001408022044B44
:10446800002802D112021A6070471206FBE7C04604
:104478001800005010B50A4C00212000FFF7B4FFC7
:104488008022084B52021A600120FCF7DFF9002154
:104498002000FFF7C2FF0620FCF7D8F910BDC04680
:1044A800000800501808005010B504000120FFF75C
:1044B800D5FF7F202040FFF7BBFF0020FFF7B8FFA4
:1044C80004000020FFF7CAFF200010BD70B50400EB
:1044D80001200D00FFF7C2FF80202043FFF7A8FF4F
:1044E8002800FFF7A5FF0020FFF7B8FF70BD70B5E3
:1044F800050001200C001600FFF7B0FF7F202840C0
:10450800FFF796FFA6190020B44202D1FFF7A6FFD5
:1045180070BDFFF78DFF20700134F4E770B505001A
:1045280001200C001600FFF799FF80202843FFF7B1
:104538007FFFA619B44203D10020FFF78FFF70BD9B
:104548002078FFF775FF0134F4E710B54220FFF734
:10455800ABFF10BD10B500230A4A410BC004FBF79E
:1045680065FE0400010CC9B20620FFF7AFFF210A5F
:104578000720C9B2FFF7AAFF0820E1B2FFF7A6FF9C
:1045880010BDC0460048E80110B5011C112809D922
:104598001121802302395B4219430920C9B2FFF770
:1045A80095FF10BDC3B2022BF3D20221F1E7000040
:1045B800F0B5FA230D0009218DB006005B000491C7
:1045C8009D4205D2FB3BAB429B415B4207330493C0
:1045D80000230793331C0C2E39D90C23DBB2039329
:1045E800171C082A38D90827FBB2059307AB019393
:1045F800414B290000930398FF23FAB2FEF754FDBC
:10460800041E2ED1FA2292006A43039908AB19704E
:104618005A80110C120E5A71FF229A71079A197159
:10462800110ADA711972110C120E9A726022DA727A
:10463800324A59729A810F22987301005F70009272
:104648000200C220FEF79EF920000DB0F0BDF1B2C5
:104658000629C3D20623C1E7D3B2052BC4D2052746
:10466800C2E704270599049B04391B014900194333
:104678001D20C9B2FFF72AFF039B1E2019013943E9
:10468800C9B2FFF723FF2620FFF70EFF0A2E19D91C
:104698007D2D12D80C210143C9B22620FFF716FF41
:1046A8003120FFF701FF0723032198430143C9B2D3
:1046B8003120FFF70BFF0A2119E0F72339001840D2
:1046C8000143EAE7F7233900184001432620FFF7A2
:1046D800FDFE062EE4D83120FFF7E6FE072305216C
:1046E80098430143C9B23120FFF7F0FE0C2137206F
:1046F800FFF7ECFEA8E7C04660CC0500CC0500003B
:10470800F8B50723794A8024116808200B43136001
:10471800C0227749774F0B68774E934323430B604A
:1047280076490B6883430B60754976480B68934359
:1047380023430B607449A0240B68E4059343734A30
:104748000B60136872490B40136080224021236874
:1047580092013B401343236003688B436D49036018
:104768000B683B401A436C4B0A601A683A401A605F
:104778006A4A1568354015602568694E35408026B7
:104788003602B4463543802625600568B543056082
:1047980065460868624E30402843802508601968DD
:1047A8006D013140012619601168200009010909CD
:1047B80011601A680F213A402A431A60FFF714FE65
:1047C800584F0020FFF74AFE00215748FFF70CFE1C
:1047D800310020003E60FFF707FE31005248FFF726
:1047E80003FE02215048FFF7FFFD80224F4B920243
:1047F8001A6002233B608023DB023B6004213C48B3
:10480800FFF70BFE31003A48FFF707FE0021384852
:10481800FFF703FE44480D21FFF7FFFD444A4548D2
:1048280013681D43156013688021802403681940AC
:104838002342F9D1B820404B400119603F49713CEF
:104848000860CB218900196040211868014319606C
:1048580001231168F0201943116039490A68A243FD
:104868001A430A601021374A1568854329431160A5
:104878001168A1430B431360202333490A6882431C
:1048880013430B603149324B0A6832481A430A60B5
:1048980031490A681A430A6030490A6802400A60C6
:1048A8002F4A032113600520FBF7FAFF0321072095
:1048B800FBF7F6FFFFF7DEFDFFF7CAF8041E02D18B
:1048C80000242000F8BDFFF740FE0138C0B2FD28E3
:1048D800F6D82448FFF73EFE0522FA210720FFF705
:1048E80067FE0E20FFF750FEEBE7C0462C10024093
:1048F80000040050FFCFFFFFFFFFFFF0040400504B
:1049080008040050040000500C040050200400501B
:10491800FF0FFFFF080000500C000050200000505F
:10492800FF3FFFFF18080050000800501800005013
:10493800341002400830014000300140043001408A
:104948000C0001400800014014000140000401402F
:1049580013200000ECDFFFFF080401400C040140B5
:1049680014040140C0CA8936EFF3108272B60021E0
:10497800024B1868196082F3108870476015002090
:104988000B4A03211368180008400B420ED0106030
:104998000222134203D00749086802430A60DB0772
:1049A80004D50423034A11680B4313607047C046BB
:1049B80014040140601500200B4A0C4913681800C4
:1049C80008400B420ED01060DA0604D501220849CF
:1049D800086802430A609B0404D50823044A116846
:1049E8000B4313607047C0461404014010200000B8
:1049F80060150020F0B557464E464546DE46E0B500
:104A080004000D009246994683B08B4230D82DD0D1
:104A180049465046FBF72AFC290006002000FBF710
:104A280025FC331A9846203B34D49B4653465A46B5
:104A3800934042461F00534693401E00AF423BD866
:104A4800AF4200D179E05B46A41BBD41002B00DAE0
:104A580076E0002200230092019301235A469340F6
:104A68000193012342469340009329E08242CFD923
:104A780000220023009201930C9B002B01D01C60A4
:104A88005D600098019903B0F0BCBB46B246A946E8
:104A9800A046F0BD42469B4620239B1A5246DA4068
:104AA800414613004A468A40170042461F43534670
:104AB80093401E00AF42C3D9002200230092019305
:104AC8004346002BD8D0FB0772081A4346467B089A
:104AD8000EE0AB4201D1A2420CD8A41A9D4101209C
:104AE80024196D410021013E24184D41002E06D0A5
:104AF800AB42EED9013E24196D41002EF8D1009841
:104B080001995B4600196941002B24DB2B005A46AA
:104B18004446D3402A00E2401C005B461500002BA7
:104B28002ADB26009E40330026004746BE4032005E
:104B3800801A9941009001919EE7A342BCD882E770
:104B48004246202300219B1A002200910192012253
:104B5800DA40019285E7424620239B1A2A004646FE
:104B68009A402300F340444613432A00E2401C00C5
:104B78005B461500002BD4DA42462F00202326007E
:104B880097409B1ADE403B003343CDE730B5002405
:104B98000139A24201D1002005E0035D01340D5D19
:104BA800AB42F6D0581B30BD03008218934200D1A7
:104BB800704719700133F9E7002310B59A4200D104
:104BC80010BDCC5CC4540133F8E74641554C543A07
:104BD80052455345540D0A004541524C593A5245E5
:104BE8005345545C725C6E005253543A53544152CC
:104BF800540D0A005253543A4D41494E0D0A00458E
:104C080041524C593A4D41494E5C725C6E004D3AE6
:104C1800524144494F5F4259504153530D0A0000D5
:104C280001010300990900080E00000000000000BF
:104C38000201010000000000010000000000000067
:104C48000301010000000000010000000000000056
:104C58000401020000000000A6000000000000009F
:104C68000501010000000000010000000000000034
:104C780006010100490900080000000000000000CA
:104C88000708060000000000FF0000000000000008
:104C980008010100490900080100000000000000A7
:104CA80009010100000000000100000000000000F0
:104CB8000A010300000000000000000000000000DE
:104CC8000B0405020000000000100E0000000000A8
:104CD8000C010300000000001000000000000000AC
:104CE8000D02040000000000640000000000000045
:104CF8000E01010049090008000000000000000042
:104D08001002040000000000F40100000000000090
:104D18001101030000000000040000000000000072
:104D280013020400000000009001000000000000D1
:104D38001401030000000000000000000000000053
:104D48001501020000000000020000000000000041
:104D58001601030000000000110000000000000020
:104D680080010301000000000100000000000000B5
:104D780081010301000000000200000000000000A3
:104D88008201010100000000000000000000000096
:104D9800000308090A0B0C070D0E000048E8010083
:104DA80090D0030020A107002E00433A53454E44FB
:104DB8005F424F4F540D0A00433A53454E445F46F5
:104DC80041554C540D0A00433A53454E445F5245F1
:104DD8004144590D0A00433A434C4B5F4853455FE1
:104DE80033324D0D0A00433A434C4B5F4853495FF9
:104DF80031364D0D0A00433A494E49545F444F4EEF
:104E0800450D0A00433A44495350415443480D0A5A
:104E180000433A4241445F5645520D0A00433A5016
:104E2800494E470D0A00433A5645525F444953508C
:104E38000D0A004F53452D4C696665547261634CE9
:104E48004F52412D4D757261746146570064657605
:104E5800004641494C00415400415449002000415A
:104E6800542B5645523F00433A41545F5645525FD2
:104E7800444953500D0A0046573D002056455253A9
:104E8800494F4E3D00204749543D002050524F5451
:104E98004F3D0020534348454D413D00204341507C
:104EA8003D30780041542B524144494F3F00455210
:104EB800524F520D0A00524144494F3D0020564579
:104EC8005253494F4E3D3078002053544154453D8C
:104ED8000041542B535441543F00484F53545F44AE
:104EE800524F5050454400484F53545F4552524F1B
:104EF800525300484F53545F51554555455F4655E9
:104F08004C4C00484F53545F4952515F49444C45FB
:104F180000484F53545F4952515F485400484F531B
:104F2800545F4952515F544300484F53545F4952AC
:104F3800515F544500484F53545F52585F4259548B
:104F4800455300484F53545F52585F4C5055415297
:104F58005400484F53545F52585F5553415254318F
:104F680000484F53545F50415253455F4F4B0048E0
:104F78004F53545F50415253455F45525200484F7A
:104F880053545F554152545F4552525F4C505541FE
:104F9800525400484F53545F554152545F45525242
:104FA8005F55534152543100524144494F5F44497F
:104FB8004F3000524144494F5F44494F31005241FC
:104FC80044494F5F44494F3200524144494F5F447E
:104FD800494F3300524144494F5F52585F4F4B008D
:104FE800524144494F5F54585F4F4B005241444926
:104FF8004F5F4352435F455252005354415445005A
:1050080041542B48454C500041542B48454C503F87
:10501800004154204154492041542B5645523F20C9
:1050280041542B524144494F3F2041542B53544142
:10503800543F2041542B48454C502041542B424961
:105048004E0D0A0041542B42494E004F4B20424915
:105058004E0D0A00483A52585F4C5055415254314F
:105068000D0A00483A52585F5553415254310D0ABF
:1050780000483A4552525F4C5055415254310D0A3E
:1050880000483A4552525F5553415254310D0A0077
:10509800483A50524F435F4652414D450D0A004829
:1050A8003A434F42535F4552520D0A00483A434F24
:1050B80042535F4F56460D0A00483A5041525345F5
:1050C8005F4552520D0A00483A5645525F524551C3
:1050D8005F52580D0A00483A4652414D455F4F4BC2
:1050E8000D0A00483A515F46554C4C0D0A00483AA3
:1050F80041545F44495350415443480D0A00483ACB
:1051080052585F52494E475F4F56460D0A0001807C
:1051180000000002810000000383400001048500B4
:0C512800000005860000000687A00000C3
:105134001249134B70B50C68186872B60023032625
:10514400104A114D1360114A1360114A1360114A39
:105154001360114A1360114A13602A6801331A4319
:105164002A600F4D2A68B24313432B600D4B19601C
:1051740084F30888804730BFFDE7C0460000F01F75
:105184000400F01F00440040341002400444004076
:105194000844004010E000E014E000E018E000E003
:1051A4000000014008ED00E001224F4BF0B5196802
:1051B40085B00A431A60042219681142FCD0032303
:1051C4004A4A11689943023B0B430C21136013684C
:1051D4000B40042BFBD1464B464E05223360002383
:1051E400454D464C2B602260F032FF32019303920E
:1051F400A63302938020019B414A9B00D158414A27
:105204008002136800270343136001233E4A106899
:105214000343A0201360F023C00502689A43503B67
:10522400134303600C20394A1368834338481360DE
:105234000268384B1A408823DB0113430360364A63
:10524400364B48081F601760354A1760354A801886
:10525400FAF74AFF1F21344B344A186011600D22BB
:105264002E4B39001A603B00314F029A8A421BD8F8
:1052740000232A4A1360284A1360294A1360019ABA
:1052840001320192032A04D1236033602B6005B0FC
:10529400F0BD039B029A9B1A0393A6230293019BDE
:1052A400022BA7D1039BA4E780202268400202407E
:1052B400501E8241202089181E4A12680242D4D00E
:1052C4001D483A68C05CD2B2904208D10133082B21
:1052D400CBD10023236033602B60FFF729FFA53A6D
:1052E40053425341C1E7C046001002400C10024033
:1052F4007F3E000014E000E018E000E010E000E071
:10530400CC000008381002402C1002400400005069
:1053140020000050FF00FFFF044400400044004010
:10532400084400400024F4000C44004020440040A1
:0C533400244400401C440040C400000859
:08534000BCF6FF7F0100000034
:0C534800010000000024F400FF01FFFF42
:0400000508000405E6
:00000001FF
