:020000040800F2
:100000000050002005040008A1030008890300082F
:1000100000000000000000000000000000000000E0
:100020000000000000000000000000009D03000828
:1000300000000000000000009D0300083D090008CA
:100040009D0300089D0300089D0300089D03000810
:100050009D0300083D4A00089D030008754A0008FA
:100060009D0300089D0300089D0300089D030008F0
:100070009D0300089D0300089D0300089D030008E0
:100080009D0300089D0300089D0300080000000078
:100090009D0300089D0300089D0300089D030008C0
:1000A0009D0300089D0300089D030008AD2F000874
:1000B0009D030008CD2E00089D0300089D03000845
:0400C0009D03000894
:1000C400A55AA55A5AA55AA500100E0000C201004F
:0400D4008025000083
:1000D80002B4714649084900095C49008E4402BCD3
:1000E8007047C046002243088B4274D303098B42F1
:1000F8005FD3030A8B4244D3030B8B4228D3030CF0
:100108008B420DD3FF22090212BA030C8B4202D391
:100118001212090265D0030B8B4219D300E0090AB9
:10012800C30B8B4201D3CB03C01A5241830B8B42C2
:1001380001D38B03C01A5241430B8B4201D34B03AB
:10014800C01A5241030B8B4201D30B03C01A524110
:10015800C30A8B4201D3CB02C01A5241830A8B4295
:1001680001D38B02C01A5241430A8B4201D34B027E
:10017800C01A5241030A8B4201D30B02C01A5241E2
:10018800CDD2C3098B4201D3CB01C01A5241830996
:100198008B4201D38B01C01A524143098B4201D3D0
:1001A8004B01C01A524103098B4201D30B01C01AFB
:1001B8005241C3088B4201D3CB00C01A5241830875
:1001C8008B4201D38B00C01A524143088B4201D3A2
:1001D8004B00C01A5241411A00D201465241104602
:1001E8007047FFE701B5002000F006F802BDC046E1
:1001F8000029F7D076E770477047C046D0400B001B
:10020800D1409C46203AD34018435242634693401B
:10021800184370479140030090409C46203A934011
:10022800194352426346D34019437047002B11D1FA
:10023800002A0FD1002900D1002802D00021C9438B
:10024800080007B4024802A14018029003BDC04646
:10025800A9FFFFFF03B4684601B5029804F024FC27
:10026800019B9E4602B00CBC7047C04610B50029E1
:1002780003D100F007F8203002E0080000F002F88F
:1002880010BDC0461C2101231B04984201D3000C59
:1002980010391B0A984201D3000A08391B099842F1
:1002A80001D30009043902A2105C40187047C04607
:1002B8000403020201010101000000000000000027
:1002C8000023C25C0133002AFBD1581E704700008E
:1002D8000123174A11680B4313608023154ADB0278
:1002E80011680B43144913600A68144B1A408023A1
:1002F8001B0113430B60A021F023C9050A689A4328
:10030800503B13430B600E490E4B0A681A40CC232E
:10031800DB0113430B6000230B4A0C4913600B608D
:100328000B490B600B4B0C4919600923136070478C
:100338002C100240381002404C100240FFF3FFFF1F
:1003480020000050FF00FFFF004800400448004024
:10035800084800400C48004055410300802130B552
:10036800054A064C0378002B00D130BD01301568D2
:100378000D42FCD02360F5E71C48004028480040A7
:10038800042172460A4202D1EFF3088001E0EFF33C
:10039800098015E030BFFDE707B5FFF799FF07486B
:1003A80000F060FA002102200B000A000191009180
:1003B80000F08EFA00F084FA30BFFDE7864C0008A2
:1003C80073B504000600051E02D046698569C46934
:1003D800FFF77EFF074800F045FA002133002A00A6
:1003E80001200191009400F073FA00F069FA30BF1F
:1003F800FDE7C046864C00087047000001221C4BF0
:1004080010B519680A431A60042219681142FCD011
:100418000323184A11689943023B0B430C211360CC
:1004280013680B40042BFBD1FFF752FF1248FFF76C
:1004380095FF124800F016FA114A124B12498B42E6
:1004480010D30021114B124A93420ED3114800F0E9
:1004580009FA1148FFF782FFFFF7CEFF00F01EF8F8
:1004680030BFFDE701CA01C3E9E702C3ECE7C046B4
:10047800001002400C100240944C0008A44C0008E4
:10048800FC530008000000200C0000202800002079
:100498006C160020B04C0008BB4C0008F0B5634C4B
:1004A800A54400F0CFF804F0D7FE00F007F900F0FB
:1004B8008BF9E120000302F079FB04F07BF9041EBC
:1004C80000D1A6E003F04AFB040004F094F8010010
:1004D800200000F065FE00F091F9059000F06EF93B
:1004E800002805D000F06AF90100082001F0D8FAC8
:1004F800002401272500260004940394009400F0AA
:100508007DF9019002F0B0F802F060F902F0FCF910
:1005180002F0AEFC064302F0C7FC009B0543F6B2AE
:10052800EDB2002B07D1002E06D03100092001F0D2
:10053800B7FA00F023FE0097002C07D1002D06D053
:1005480029000C2001F0ACFA00F018FE3C00049BD6
:10055800002B0ED102F038FC00280BD002F034FC3E
:10056800FF2800D9FF20C1B20B2001F099FA00F052
:1005780005FE0497039B002B12D1009B002B10D182
:10058800059A019B9B1A2A4A93420AD902F004FC55
:10059800002806D100990A3001F082FA00F0EEFD39
:1005A800039702F059FC002803D00021062001F02F
:1005B80077FA4EA802F012FA002832D104F02EFA87
:1005C800029001F01BFA029807A903F0F3FE002835
:1005D80002D007A801F025FA03F054FF002808D13B
:1005E800029809A903F07EFB002802D009A801F0AF
:1005F80065FA01F02DFA019803F062FC019803F006
:100608001FFC00F045FC0178019801F00FFC30BF99
:1006180075E70100032001F043FA064800F022F9CB
:1006280053E74EA800F020FEC3E7C04684FDFFFF55
:10063800B70B0000CA4C0008014B18687047C04649
:100648000400002010B513480378002B20D112496C
:1006580003330A68940012D4013B54000FD40233C8
:10066800D4000CD40233540109D4013B140106D43C
:100678000233940103D40133D40100D4D30F074AC1
:10068800137080230A681B0413430B600123037053
:1006980010BDC04628000020741002402900002028
:1006A80010B5044B1B78002B01D1FFF7CBFF024B91
:1006B800187810BD28000020290000200123A02060
:1006C8002F4AC005116882B00B43136001682D4B97
:1006D800194080235B040B432B4903600B682B48AC
:1006E80003400B6080232A495B010B6002211068DC
:1006F80001431160274928480A68024013434022F1
:100708000B6026490B6893430B60254B1A60002346
:10071800FA2201931201019B93422DD3A022214B6F
:10072800D20219680A4380211A601F4A8902186890
:10073800084202D1013A002AF9D1012219680A4374
:100748001A60042219681142FCD00322174908686C
:100758009043023A02430C200A600A680240042AC5
:10076800FBD1134A1349116001221968124B490C35
:100778008A431A7002B07047019B01330193CAE79C
:100788002C100240FFFFFFFC04000050FFEFFFFFAA
:100798001800005000040050FFCFFFFF0404005071
:1007A800180400500010024001350C000C100240E3
:1007B800040000200024F40000000020014B1878F9
:1007C8007047C04600000020FA21084B10B5186891
:1007D8008900FFF787FC0022054B01381860054B9C
:1007E8001A60054B07321A6010BDC046040000208D
:1007F80014E000E018E000E010E000E0014B1868A9
:100808007047C0462C00002070B50C4B0C481D6882
:10081800026819688D42FAD10A4B0B491C680B4BC8
:1008280001341868A41AFFF75DFC01002000FFF7E7
:1008380059FCFA239B006B43C01870BD2C000020A4
:1008480018E000E014E000E040420F00040000203F
:10085800034A116813685B1A8342FBD37047C0468A
:100868002C00002030B500280FD009220A4B1B6845
:100878001340934209D18021084B094C0278002A81
:1008880004D1403219681142FCD030BD1D680D42B8
:10089800FCD001302260F1E7004800401C480040CD
:1008A80028480040044B0901C318C9B21970012334
:1008B8008340024A1360704700E400E000E100E072
:1008C800014B024A1A60FEE70CED00E00400FA054D
:1008D80030B5074C074D2560207161710021E1801A
:1008E800A260E360039B2361049B636130BDC04643
:1008F8000C000020EC5D07FA030010B5002813D0A7
:100908000A4A0B49146800208C420DD111791970DC
:100918005179597091685960D16899601169D960A5
:10092800516910601961013010BDC0460C000020EB
:10093800EC5D07FA024A1368013313607047C0463A
:100948002C00002004207047030041780278090237
:1009580011438278C07812040A430006597910437B
:100968001A79090211439A7912040A43D9790906B6
:10097800114370470023064A1901515C814205D092
:100988000133172BF8D10120404270471800FCE7CB
:10099800DC4C0008030010B50220012903D11878A7
:1009A80003F048FE002010BDF0B51A4B89B01A4C70
:1009B8001A4D019323786778AE1C2B70082200210A
:1009C8006F70300004F04AF921003A003000083115
:1009D80004F04CF9019B10340A359C42EAD10024FA
:1009E8000021182202A804F039F902ABFF221C707A
:1009F800002320000492059300F060F902AA084B36
:100A080006901000938200F0D5F9064B1C7009B0CF
:100A1800F0BDC0464C4E0008DC4C000831000020F8
:100A280002110000300000200023F0B58DB00F0047
:100A3800140001900293039304930593FFF79AFF20
:100A48000125061E54DB794B02019B18DA7805351F
:100A58000092D2074CD45B78043DA34248D1002FC2
:100A680046D02200390002A804F000F901980138A4
:100A7800132812D8FFF72CFB0A37373F3737773759
:100A880037464B595F3711676C11727E02AB1B7882
:100A9800012B24D8022302AA13700A277743644B38
:100AA8002200FF18390004A804F0E0F822003800FA
:100AB80002A904F0DBF85D4B360101939B195B68D2
:100AC800002B00D19AE0210038009847051E00D17C
:100AD80094E02200380004A904F0C8F808E0112BBB
:100AE800DBD91123D7E702AB1B78012BD5D9032516
:100AF80028000DB0F0BD02AB1B787833DBB2782B41
:100B0800CBD9F4E702AB1B78072BC6D9EFE79622BF
:100B1800029B92019342C0D0E12252029342BCD080
:100B2800E12212039342E2D1B7E702AB1B78013B03
:100B38003F2BB2D9DBE702AB1B883E4A323B9BB264
:100B48009342AAD9D3E702AB1B883B4A0A3BF6E794
:100B580002AB1B78013B092B9FD9C8E702AB1B8866
:100B6800364A323BEBE702A8FFF7EEFE084300D017
:100B780093E7BCE702AB1B78022BB8D806AD182266
:100B88000021280004F06AF802AB1878287000F0F9
:100B980095F828610720FFF7EDFE002801DA042503
:100BA800A6E70A277843264B0230C0180193FFF7BF
:100BB800CBFEA860E9601520FFF7DCFE0028EEDB1D
:100BC8007843019B1818837816202B75FFF7D2FEFF
:100BD8000028E4DB4743019B0121DF19BB7828008B
:100BE8006B7500F005F9002805D000F071F8051EB6
:100BF80000D07DE751E700F015F9F6E7114D2B78A5
:100C0800002B0AD1019B083622003800991904F0FC
:100C180017F8002801D001232B700223009D009AA9
:100C28001D401A4200D163E7052561E7DC4C000846
:100C380033000020561300007E1300009E070000BA
:100C48003100002030000020F7B51E0007000C001E
:100C58000192FFF78FFE03000120002B13DB001821
:100C6800002C10D0002E0ED00C4A190152185578BD
:100C7800019A954207D8822F06D10125084B1B7887
:100C8800237000203570FEBD0A215943054B2A0008
:100C98002000C91803F0EAFFF3E7C046DC4C00085F
:100CA800300000203300002003001120002B04D066
:100CB800013B0020012B00D81E30704703000020A4
:100CC800022B02D8014A9B0098587047584E0008DA
:100CD80003000420092B01D8014AD05C7047C046A4
:100CE8004C4E00080023062A01DD063A53B2C01A0A
:100CF800884200DD0800012800DC0020C0B27047EF
:100D0800F8B505000E00092400281AD00478022C32
:100D180041D81427C757FBB21E2B3ED82000FFF737
:100D2800C3FF3A00697DFFF7DDFF002837D0012CAB
:100D380009D0022C26D0EB68AC681C4363425C41A6
:100D480064002000F8BD002E2DD08021EA68AB6831
:100D5800C9028A4225D200211800104309D1022471
:100D68003129EED92C69114BE418631E9C41A4006B
:100D7800E7E71800204009185B08D007C9B2034309
:100D88005208E9E7002E0ED0AB68EA681343D8D0C2
:100D98002C69074BE8E70124D3E70524D1E70624AB
:100DA800CFE70324CDE70724CBE7C046702FFCFF2D
:100DB800E05EF8FF70B50B4D040001001822280012
:100DC800002C0AD003F052FF18220021064803F035
:100DD80045FF0022054B1A7070BD03F03FFF2C70D1
:100DE800F2E7C0463001002018010020170100205A
:100DF80070B50500FFF784FF1822041E074807D0C6
:100E0800002103F02BFF0023054A2000137070BD5A
:100E1800290003F02BFF0123F6E7C0461801002044
:100E28001701002073B5174D08202B78002B28D008
:100E3800154C164E18223100200003F017FF02F05F
:100E48003CFE2378012B0AD10023002200930023C3
:100E58001000190002F024FB0522FA2104E0022BFD
:100E680006D1FA2105224900072003F09FFC01E082
:100E7800002BF1D018220021300003F0EFFE0020F3
:100E8800287076BD170100203001002018010020CD
:100E9800004870473001002070B5050004A80678A6
:100EA800059C181E0BD0201E09D00020032E06D941
:100EB800D8701D7059709A7004230130237070BD6A
:100EC800F0B5050005A80778069C081E12D0181E64
:100ED80010D0201E0ED00020082A0BD8961CF6B27F
:100EE800BE4207D81D705A700233C5B2AA4202D852
:100EF80001202670F0BD0D5C1D540130F5E703009C
:100F080010B54218507894785B5C240400022043A2
:100F18001843D3781B06184310BD0B0A01704370A1
:100F28000B0C090E8370C17070470000F0B5C288C1
:100F38000400C5B0012A08D80223027841788088C5
:100F48000093013301F09CFD2AE00C26037A03ADDF
:100F58002B70437AFF366E44737002339A4205D081
:100F680002784178808800930323EBE703F08AFA3C
:100F7800002817D0154EA7883378002B06D00023F9
:100F880022786178380000930733DBE702222900D2
:100F98000F48FF3203F06AFE0E4B1F8001233370A7
:100FA80045B0F0BD7278002A05D021000D200A3125
:100FB800684403F05BFE280003F0A6F8031EEFD197
:100FC80022786178A08800930833BBE74A010020A3
:100FD8004B0100204801002010B5024801F03EFDF9
:100FE80010BDC0469A5100080F2307B518400300EA
:100FF8003733092800D8073B6A461371002301A834
:10100800537101F02BFD07BD30B5040089B002AD66
:1010180018220021280003F021FE2388616803A814
:101028002B80FFF77AFFA16804A8FFF776FFE16835
:1010380005A8FFF772FF216906A8FFF76EFFFFF703
:10104800DDFB010007A8FFF768FF00221823110045
:101058000093F1202B0001F0EBFC09B030BD00003B
:10106800F0B5002485B0050001AEA04206D11248B3
:1010780001F0F4FC05B0F0BD0A2C0FD028000A21BD
:10108800FFF7B6F83031A15528000A21FFF72AF8F2
:101098002F0001340500092FEED8E4B26A46013C5E
:1010A800E4B2335D684613700023537001F0D6FC38
:1010B800002CF3D1DEE7C0466D50000810B50C00D7
:1010C80001F0CCFC034801F0C9FC2000FFF7C8FF81
:1010D80010BDC046564F0008F0B50027BEB2B14259
:1010E80004D9C45D202C11D0092C0FD04C1E041932
:1010F800B1420DD80024C719135D301980B2002BF6
:101108000FD1081A43425841C0B2F0BD0137E5E794
:101118002578202D01D0092DECD1013989B2013C67
:10112800E6E781420FD93D5D28006138192801D8CA
:10113800203DEDB218006138192801D8203BDBB2F8
:101148000134AB42D8D00020DFE7000070B5094C6D
:10115800200001F083FC084D280001F07FFC2000EE
:1011680001F07CFC280001F079FC200001F076FCFD
:1011780070BDC0466D500008644E000800B5A5B0AB
:10118800842103A800F0ECFE002806D0002200907D
:101198001100C12003AB01F04BFC25B000BD0000DD
:1011A800F0B50025264B274F274E8BB031701D70A8
:1011B8003870FFF7F9FB00F05FFE2448FFF752FB99
:1011C800FFF76EFA3B7805AC637033782070A37034
:1011D8000123E370DB182371FFF7F0FA062360712F
:1011E8002A00F02000932900230001F021FC2000B0
:1011F800FFF782FBA84205D01548FFF733FB200014
:10120800FFF702FF1348FFF72DFB134B0022039350
:101218007F230493773B1100F220009303AB01F086
:1012280007FCFFF7CBFA002807D10C48FFF71AFB99
:101238000B48FFF717FB0BB0F0BD0A48F6E7C046AE
:101248004A0100204D0200204C020020664E000892
:10125800744E0008834E000801010201924E0008F6
:10126800B24E0008A24E0008F0B50400ABB000284A
:1012780000D197E0BC48FFF7F5FA2278012A0AD096
:10128800BA48FFF7EFFA012322786178A088009323
:1012980001F0F6FB86E06178202900D1E6E010D85D
:1012A800032906D8481E02282FD8FEF711FF3B7DD8
:1012B8009500102900D192E0A08802230122009114
:1012C800E6E7312900D1A5E00BD8212900D111E1A9
:1012D8003029F1D1E388012B00D18DE0A08800925C
:1012E800D3E0402900D17EE04129E5D1842109A835
:1012F80000F036FE0300A088002B00D076E084338F
:10130800227861780093813BC2E79948FFF7AAFAEF
:10131800E0882300A278A18800900020083301F01B
:1013280087FB3FE09348FFF79DFA042001F0AEFDEC
:10133800914B18000493FEF7C3FF05008F4B2F1C39
:101348001800EDB20593FEF7BBFF282D00D928271A
:10135800031CC0B2FFB2102800D91023DAB20392DE
:10136800874A09AD00260992AB717F233A006F7155
:101378000C3704992E71EE71FFB20CA80B9303F091
:1013880075FC039A0599E81903F070FC039B81200A
:10139800DF19A1882B003200009701F049FB0820D3
:1013A80001F074FD2BB0F0BD764B09A81968764B97
:1013B8001E68764B1D68FFF7B0FD31000AA8FFF7DD
:1013C800ACFD29000BA8FFF7A8FD0C23A18800227B
:1013D8000093822009ABA2E7FFF772FAE2E7200048
:1013E800FFF7A4FDDEE700F047FDDBE7010000930F
:1013F8000022C12009AB92E7207A04AB187503F0EC
:10140800A9F804AB58750223A18800220093B020E4
:1014180009AB84E7E388022B04D00223A088009359
:10142800013335E7237A1E2B0BD8002B03D05849FC
:10143800D94011420ED1A0880122009331210823FE
:1014480026E719002639C9B21A29F4D85148C840E4
:101458001042F0D01800617A03F08EF802222300BF
:10146800A188B12000920833002258E70E2704AB68
:10147800FF1800233B70E0880128CED9637A267ACA
:101488009D1CA84203D0A0880095032300E72100F3
:101498001A0030000A31FFF7C7FA051E03D0031FF0
:1014A800DBB2012B09D83B000822300009A9FFF75D
:1014B800CBFB002801D000233B703A780F2704AB00
:1014C800FF18042329000093300008AB0197FFF7A9
:1014D800E3FC0300A088002B05D10433227861784F
:1014E8000093013BD4E63B78009308AB010000224F
:1014F800A02014E70F2604ABF61800233370E38806
:10150800012B00D0EAE61621277A04A8091833002F
:1015180008223800FFF798FB08AD01000A230028CD
:101528000ED00093002209AB38000195FFF7B4FCF8
:101538000300A088002BD0D02B78009309ABD5E707
:10154800162104A8327809180093380009AB0195D0
:10155800FFF7B6FC0300A088002B1DD13378227852
:1015680002336178009390E7C04E0008CD4E000822
:10157800D94E0008E24E0008EF4E0008094F000857
:10158800010200005000F81F5400F81F5800F81F0F
:10159800C2030060012822042B7801000093002276
:1015A800A12009ABBBE6C04670B504000D00A2B08F
:1015B800002806D0DE4AFFF78FFD002803D0FFF78A
:1015C8000BFD22B070BD29002000DA4AFFF784FD28
:1015D800002812D0D84801F041FAD84C200001F078
:1015E8003DFAFFF7B3FD200001F038FAD44801F0C6
:1015F80035FAD44801F032FAE1E729002000D24A4E
:10160800FFF76AFD002830D0D048FFF72BF91020EB
:1016180001F03CFCCE4801F021FAC74801F01EFA5F
:10162800CC4801F01BFAFFF791FDCB4801F016FA00
:10163800C34801F013FAC94801F010FA0120FFF776
:101648000FFDC74801F00AFA0220FFF709FDC54857
:1016580001F004FA1C247F252800E040043CC0B2B5
:10166800FFF7C2FC231DF7D1C3E729002000BE4ABB
:10167800FFF732FD061E27D0842101A800F070FC78
:10168800842801D0B9484FE1B94801F0E7F9B94BCE
:10169800B9481B78002B00D0B84801F0DFF9B848EA
:1016A80001F0DCF9B74B1C782009FFF79DFC2000FE
:1016B800FFF79AFCB44801F0D1F9402101A8FFF7DF
:1016C8001EFCFFF7CDFC94E729002000AF4AFFF786
:1016D80003FD002800D10EE1842101A800F040FCA0
:1016E8008428CFD1310001A8FFF709FCA84B0100DD
:1016F8001800FFF7E3FC914C200001F0AFF904213A
:1017080001A8FFF7FCFBA34B01001800FFF7D6FC6C
:10171800200001F0A3F9082101A8FFF7F0FB9E4B78
:1017280001001800FFF7CAFC864D280001F096F961
:101738000C2101A8FFF7E3FB984B01001800FFF705
:10174800BDFC200001F08AF9102101A8FFF7D7FBA2
:10175800934B01001800FFF7B1FC200001F07EF95F
:10176800142101A8FFF7CBFB8E4B01001800FFF7EF
:10177800A5FC200001F072F9182101A8FFF7BFFBB2
:10178800894B01001800FFF799FC280001F066F961
:10179800442101A8FFF7B3FB844B01001800FFF7B1
:1017A8008DFC200001F05AF9482101A8FFF7A7FB9A
:1017B8007F4B01001800FFF781FC200001F04EF973
:1017C8004C2101A8FFF79BFB7A4B01001800FFF79B
:1017D80075FC280001F042F9502101A8FFF78FFBA2
:1017E800754B01001800FFF769FC200001F036F97D
:1017F800542101A8FFF783FB704B01001800FFF785
:101808005DFC200001F02AF9582101A8FFF777FBB9
:101818006B4B01001800FFF751FC200001F01EF986
:101828005C2101A8FFF76BFB664B01001800FFF76E
:1018380045FC280001F012F91C2101A8FFF75FFB05
:10184800614B01001800FFF739FC200001F006F990
:10185800202101A8FFF753FB5C4B01001800FFF79C
:101868002DFC200001F0FAF8242101A8FFF747FB1E
:10187800574B01001800FFF721FC200001F0EEF89B
:10188800282101A8FFF73BFB524B01001800FFF786
:1018980015FC280001F0E2F8302101A8FFF72FFB22
:1018A8004D4B01001800FFF709FC200001F0D6F8A5
:1018B800342101A8FFF723FB484B01001800FFF76C
:1018C800FDFB200001F0CAF82C2101A8FFF717FB47
:1018D800434B01001800FFF7F1FB200001F0BEF8B0
:1018E800402101A8FFF70BFB3E4B01001800FFF752
:1018F800E5FB28007EE6290020003B4AFFF7ECFBC9
:10190800002806D129002000384AFFF7E5FB002807
:1019180001D037486EE629002000364AFFF7DCFB85
:10192800002800D1AEE6344801F098F849E6C046F0
:10193800124F0008154F0008EF4E0008194F000815
:10194800094F0008495100081B4F0008234F0008A1
:10195800334F0008374F0008414F0008474F000831
:101968004F4F0008584F0008604F00086A4F0008A2
:10197800724F00084D0200200D4F00082850000843
:10198800794F00084C020020854F00088D4F000851
:10199800964F0008A34F0008AF4F0008BF4F00083C
:1019A800CD4F0008D94F0008E54F0008F14F000857
:1019B800FF4F00080E5000081D5000082B5000086B
:1019C8003A5000084F500008645000086F50000853
:1019D8007A50000885500008905000089C50000874
:1019E800A8500008B6500008BC500008C4500008B1
:1019F800CD50000800510008075100081FB5040029
:101A080000F08CFA002C0BD0210003A8FFF785FA10
:101A18000423002200931100C02003AB01F008F852
:101A28001FBD1FB5041E12D0038841680A206A46EC
:101A380068441381FFF771FA6A46A378902093737C
:101A4800072300220093110002AB00F0F1FF1FBD35
:101A580070B5104EC4B03378002B18D002F012FDC8
:101A6800041E14D102220C49FF3203A803F0FEF829
:101A78000A4B03A81D88347002F046FB002806D1E3
:101A88000090082301221021280000F0F9FF44B03B
:101A980070BDC0464A0100204B01002048010020CB
:101AA8007FB56B4618715971002301A802930393FF
:101AB80004930593FFF7A8FA07B000BD70B50400BA
:101AC800C4B000281AD005000300FF35FC336E7837
:101AD8005A68996803A80292FFF71FFA002E04D0EB
:101AE8003200210004A803F0C1F800226B7811002D
:101AF80008330093912002AB00F09AFF44B070BD08
:101B0800030010B500282BD0081E29D0012008702A
:101B18001A784A705A788A709A78CA70DA780A718C
:101B28005A68140A4A718C71140C120ECC710A721C
:101B38009A68140A4A728C72140C120ECC720A73C8
:101B4800DA68140A4A738C73140C120E0A74CC7374
:101B58001B691A0A4B748A741A0C1B0ECA740B750B
:101B680010BD0000002804D0FF2803D0431E052B19
:101B780001D970470720044A4000835A03498B4221
:101B8800F7D001338352F4E750020020FFFF000032
:101B980010B500280AD002000021054B10321C881D
:101BA80004800230198002339042F8D110BDC0463B
:101BB80050020020054A064913888B4201D00133A0
:101BC8001380002801D0034B187070474E02002084
:101BD800FFFF000008000020F0B58BB00E00141EB7
:101BE800039003D1002528000BB0F0BD100004A914
:101BF800FFF786FF051EF5D067783800FFF7B2FFBC
:101C0800002F02D1A07801F027FD6078FFF7D2FFFE
:101C1800152332000093C320039904AB00F008FF9A
:101C2800E1E700000021044A13881180181CFF2BEB
:101C380000D9FF20C0B270474E020020FF22024B9D
:101C480018781A707047C046080000200300F0B5E5
:101C580000286AD0081E68D001220A705A784A7093
:101C68009A788A70DA78CA701A790A715A794A7138
:101C780000228A71CA719A68100A0A724872100C96
:101C8800120E8872CA72DA68100A0A734873100C46
:101C9800120E8873CA731A69100A0A744874100CF1
:101CA800120ECA7414228874985C88540132462A29
:101CB800FAD14C1C985A8854000AA0540232AA2A15
:101CC800F8D1985A8854000AA0540232BA2AF8D196
:101CD8001A00BA3210780A00BA3210701A00BB32F1
:101CE80010780A00BB321070BC331A780B000C0055
:101CF80008000826BC331A700C4D0D4BBD34027811
:101D08001202534032001FB25B009BB2002F00DA70
:101D18006B40013AD2B2002AF5D101308442EED1AB
:101D280001202370BE311B0A0B70F0BD211000008A
:101D3800FFFF0000F0B5384C0500A54403920222CD
:101D480034ACFF32A3700F00228001F057FC00234F
:101D5800E070322802D832331B1ADBB22371FFF746
:101D68006DFF0026039B6071A76039A864AFE68009
:101D7800E560236101F080FC380001F001FE73008A
:101D8800FB58181E0AD0254A9818FA239B04984233
:101D98003FD2FA218900FEF7A5F980B2872302AA6B
:101DA8005B009B1898530236642EE8D1B920400096
:101DB8008018FFF7EDFEFFF735FFC12302AA5B008D
:101DC8009B1818708423164E02A93278FF335B18CB
:101DD8001A70144B200003931B7863AF04A93B705F
:101DE800FFF734FF041E0FD0BF233A78C4200093B6
:101DF800A9B204AB00F01CFE0023039A13703378D9
:101E0800FF2B01D0013333702000A5239B009D4494
:101E1800F0BD0548C2E7C0466CFDFFFFE7030000C0
:101E28006802002009000020FFFF000070B50B4E7B
:101E38000B0032680A490400821A8A4201D800203D
:101E480070BD084D01002868FFF774FF0028F6D020
:101E58002B68346001332B60F2E7C046640200202F
:101E68005FEA0000600200200B0A017043700B0C4F
:101E7800090E8370C170704700230B4A10B51360B8
:101E88000A4A13600A4A13600A4A13600A4A13602E
:101E98000A4A13600A4A13600A4A13600A4A13601E
:101EA80000F004FE10BDC0468C020020880200200D
:101EB80084020020800200207C020020780200209A
:101EC80074020020700200206C020020024A13688D
:101ED800013313607047C04678020020024A136835
:101EE800013313607047C0467C020020024A136821
:101EF800013313607047C04674020020024A136819
:101F0800013313607047C04670020020024A13680C
:101F1800013313607047C0466C020020C30703D525
:101F28000B4A136801331360830703D5094A136802
:101F380001331360430703D5074A1368013313605D
:101F4800000703D5054A1368013313607047C0467C
:101F58008C020020880200208402002080020020D9
:101F680010B5041E00D1E5E00020832900D8E1E087
:101F780084220100200002F071FE00F0E3FE01005F
:101F88002000FFF771FF00F0E3FE0100201DFFF7BE
:101F98006BFF00F0E3FE010020000830FFF764FF4C
:101FA80000F0E2FE010020000C30FFF75DFF00F0BA
:101FB800E1FE010020001030FFF756FF00F0E0FEC0
:101FC800010020001430FFF74FFF00F0DFFE010092
:101FD80020001830FFF748FF2000574B1C301968C5
:101FE800FFF742FF2000554B20301968FFF73CFFF0
:101FF8002000534B24301968FFF736FF2000514B5F
:1020080028301968FFF730FF20004F4B2C30196833
:10201800FFF72AFF20004D4B30301968FFF724FFE7
:1020280020004B4B34301968FFF71EFF2000494B46
:1020380038301968FFF718FF2000474B3C30196803
:10204800FFF712FF01F02CFD010020004030FFF7E0
:102058000BFF00F0A1FE010020004430FFF704FF51
:1020680000F0A0FE010020004830FFF7FDFE00F060
:102078009FFE010020004C30FFF7F6FE00F09EFEA8
:10208800010020005030FFF7EFFE00F09DFE010038
:1020980020005430FFF7E8FE00F09CFE010020000D
:1020A8005830FFF7E1FE00F09BFE010020005C3095
:1020B800FFF7DAFE00F09AFE010020006030FFF71B
:1020C800D3FE00F099FE010020006430FFF7CCFE3B
:1020D80000F098FE010020006830FFF7C5FE00F010
:1020E80097FE010020006C30FFF7BEFE00F096FE60
:1020F800010020007030FFF7B7FE00F095FE0100E8
:1021080020007430FFF7B0FE00F094FE01002000BC
:102118007830FFF7A9FE00F093FE010020007C3024
:10212800FFF7A2FE00F092FE010020008030FFF7CA
:102138009BFE842010BDC0468C020020880200202F
:1021480084020020800200207C0200207802002007
:1021580074020020700200206C020020024A1368FA
:10216800034313607047C04694020020F0B5002274
:10217800082504000A4E0B4893B2994200D8F0BDD6
:10218800A35C1B0258402B0007B2400080B2002F0E
:1021980000DA7040013BDBB2002BF5D10132EBE7EE
:1021A80021100000FFFF0000802307490A681A4237
:1021B800FCD0064B0649186080230A681A42FCD0F6
:1021C800044B18607047C0461C480040284800402F
:1021D8001C3801402838014070B504004518AC424D
:1021E8000AD1402307490A681A42FCD0402306490D
:1021F8000A681A42FCD070BD2078FFF7D5FF013479
:10220800EDE7C0461C4800401C380140F0B5454C7D
:102218000D00A5441900AAAB1E88012303AC237046
:10222800E570330A2D0A257160700725A270667162
:10223800A371002E09D0002907D00B2002AB320071
:10224800C01802F013FD7619B5B229002000FFF777
:102258008DFFAB1C60550135000AADB260550020FA
:1022680001249BB24426019322000300FF3603A9F0
:10227800095C8C4600292BD1A22189005B1802A990
:102288005B18453BFF3B1A70B44246D0411C621CA8
:102298008BB20093230094B201220199009D013072
:1022A800A942E4D8A22189005B1802A95B18453B22
:1022B800FF3B00201A70FFF777FF53A82100FFF7B4
:1022C8008BFF0020FFF770FFA5239B009D44F0BD06
:1022D800B44222D0A227411C89B2BF000091E7195D
:1022E80002A97F186146453F0132651CFF3FD2B203
:1022F800ADB23970FF2A0ED1A22189005B1802A95C
:102308005B18453BFF3B1A70B54206D002342B00E0
:10231800A4B2FE3AC1E72C00BFE7034A13680133B1
:102328001360D1E76CFDFFFFF8040020F0B56C4C9A
:102338006C4BA5440024220018886B4B01939042F3
:102348006AD823009C22093B9BB25200934200D3D7
:10235800ADE004A98D7904AB5B792D021D4395424C
:1023680000D3A4E02B0009339BB29C4200D09EE02E
:10237800A11E89B204A8FFF7F9FEA0239B00E41868
:1023880004ABE418594BE3181A78594B1202E418B5
:1023980023781343834200D089E004AB9B7804AAD6
:1023A80054AC1288A37004AB2280DA781B79E580DC
:1023B8001B021343A380002D05D004AB2A00D91DAE
:1023C80056A802F053FC6578012D07D18020400003
:1023D800FFF7C4FE474B1A7815431D708020800014
:1023E800FFF7BCFE444A136801331360EFF310860D
:1023F80072B6424D2B78032B5BD9414A13680133DF
:102408001360404A13680133136086F310888020F4
:10241800C000FFF7A3FE15E00199531C8D5C9BB229
:10242800002D3BD12020FFF799FE374A136801336E
:102438001360364A13680133136002232D4A11785A
:102448000B431370A5239B009D44F0BD9042E9D037
:10245800A0267600B342E5D2039B029E5B5C013264
:102468007354390092B24F1C6318FEB29BB2B54246
:10247800ECD8FF2D10D090420ED9A02149008B42F4
:10248800D0D2A024A400591C1B1904AC1B19204C41
:102498001B1900241C708BB21C0050E71A0004AEF4
:1024A800A3190293019B00219B180393DBE780206B
:1024B800B9E7A022174F52003B7817485343210031
:1024C800C01802F0D3FB03223B78013313403B7062
:1024D8002B780133DBB22B7086F31088B2E7C04645
:1024E8006CFDFFFF6A0A00206C0A00207FFDFFFFD9
:1024F8007EFDFFFFA0040020D4040020000500207A
:10250800F4040020FC040020F8040020D00400207B
:1025180080FDFFFF020500200405002070B5164D60
:102528002E78002E05D0002802D1144B2870188070
:1025380070BD124C2388002809D1002B04D010301C
:10254800FFF70CFEFFF7F2FE00232380F0E7A1223D
:10255800520093420AD94020FFF700FE0123084A9F
:102568002B701368268001331360E1E75A1C228020
:10257800044AD054DCE7C046690A00206A0A0020F1
:10258800F80400206C0A002070B503240223A0255B
:102598004600B440B340ED052A68134EA2431A43DF
:1025A8002A60012585403268AA43104D32602A68A6
:1025B800A24313432B60072809D80F2280008240CA
:1025C80081400B4C236893431943216070BD0F244D
:1025D8000838C0B2800084408140064A1368A3438B
:1025E80019431160F2E7C04604000050080000508B
:1025F80020000050240000500B4A10B513880B4CE3
:1026080099B224880133DB05DB0DA34208D1802071
:10261800074A4001136801331360FFF79FFD10BD9F
:10262800044C60541380FAE79E0200209C020020AC
:1026380098020020A002002010B50024074A138841
:10264800A34204D800231380054A137010BD054B1C
:10265800185D0134FFF762FFA4B2EFE7060A002015
:10266800050A0020080A0020F8B50F252026EFF3F8
:10267800108472B6404B1A68404B1B682A4229D016
:10268800D30703D53E490B6801330B60930703D585
:102698003C490B6801330B60530703D53A490B6873
:1026A80001330B60120703D5384A136801331360EE
:1026B8000420FFF753FD364B364A1D60364B1B6826
:1026C800136801331360354A13680133136084F3C8
:1026D8001088CCE72B4225D0DA0703D530490A68A1
:1026E80001320A609A0703D52E490A6801320A6046
:1026F8005A0703D52C490A6801320A601B0703D51B
:102708002A4A1368013313600820FFF727FD0F22B8
:10271800274B1A601F4A274B1B6813680133136045
:10272800254AD1E7324214D00120244A1A4B1F68A7
:10273800136801331360224A136801331360214A76
:10274800137803431370FFF709FDF8B2FFF754FF3E
:10275800BDE733420DD0194A164B02201F68136893
:1027680001331360184A136801331360154A13784C
:10277800E7E784F31088F8BD1C4800401C38014086
:10278800C4040020C0040020BC040020B8040020B9
:1027980020480040F804002024480040CC040020D1
:1027A800B4040020B0040020AC040020A8040020D9
:1027B8002038014024380140C8040020E0040020EB
:1027C800DC040020A1040020D8040020F7B5444A06
:1027D8004448118800888BB2814266D04249434EF2
:1027E800CC5C0133DB05DB0D13803378E4B2002BBE
:1027F8000FD13F4B1B78002B42D00D2C13D00A2C45
:1028080011D0002C27D1FFF717FF2000FFF786FE15
:10281800DDE7002333700A2CD9D0354B1B78002B09
:102828002ED00D2CEDD180200027324B324D019354
:102838001B8800010093EF54FFF790FC28000099D3
:10284800FEF7B2FE019B0D3C1F80294B1F706342AF
:102858005C413470BBE7274A1388012B09D120213A
:10286800200088435428CED1591C1180224AD454C0
:10287800ADE7210020395E29C5D85E2BC3D8F3E720
:102888001E4B1B88002BC0D11D4B1B78002BBCD1C5
:10289800230020229343412BB7D1174B1F3A1C70BA
:1028A800144B1A80124B1A7091E7164B1A78002AAB
:1028B80015D0EFF3108272B60021197082F31088D8
:1028C8000B4B1B788B420AD10C490D4B0A88002A06
:1028D80002D11A78002A02D000220A801A70F7BDA5
:1028E8009C0200209E020020A0020020040A002072
:1028F800050A0020060A0020080A00206A0A0020AB
:10290800690A00209002002010B5EFF3108272B619
:102918000021244B1C68196082F310888C4240D037
:10292800E30702D52048FDF79DFFA30702D51F48FE
:10293800FDF798FF630702D51D48FDF793FF2307AE
:1029480002D51C48FDF78EFFE30602D51A48FDF7AD
:1029580089FFA30602D51948FDF784FF630602D54F
:102968001748FDF77FFF230602D51648FDF77AFFC3
:10297800E30502D51448FDF775FFA30502D51348F2
:10298800FDF770FF630502D51148FDF76BFF2305BE
:1029980002D51048FDF766FFE40402D50E48FDF79E
:1029A80061FF10BD94020020105100081F5100085B
:1029B8002D5100083D5100084C5100085B5100089A
:1029C80068510008755100088351000892510008A9
:1029D8009F510008AA510008BA51000870B5EFF3DA
:1029E800108572B60F4C2278D3B2002A03D185F332
:1029F8001088180070BDA0220B4E520033780B4986
:102A08005343C91802F032F90322337801331340D3
:102A180033702378013BDBB2237085F310880120E3
:102A2800E8E7C04600050020010500200405002055
:102A380037B59C2506AC24886D00AC4204D3064A01
:102A480013680133136037BD002C01D0002BF6D07A
:102A58000094FFF7DBFBF6E7F804002010B5041E2E
:102A680004D1064A13680133136010BDFDF728FC32
:102A780081B22000FFF7B0FBF7E7C046F80400205A
:102A880030B585B008AC258802ACA3700523E57085
:102A98002D0A217062700100257100220093FE202A
:102AA8002300FFF7B3FB05B030BD0000EFF3108142
:102AB80072B600231F4A13601F4A13601F4A13602F
:102AC8001F4A13601F4A13601F4A13601F4A13608E
:102AD8001F4A13601F4A13601F4A13601F4A13607E
:102AE8001F4A13601F4A13601F4A13601F4A13606E
:102AF8001F4A13601F4A13601F4A13601F4A13605E
:102B08001F4A13601F4A13601F4A13601F4A13604D
:102B18001F4A13701F4A13701F4A13801F4A1380DD
:102B28001F4A13601F4A13701F4A136081F31088ED
:102B38007047C046FC040020F8040020F40400207C
:102B4800F0040020EC040020E8040020E404002045
:102B5800E0040020DC040020D8040020D404002075
:102B6800D0040020CC040020C8040020C4040020A5
:102B7800C0040020BC040020B8040020B4040020D5
:102B8800B0040020AC040020A8040020A404002005
:102B9800A1040020A00400209E0200209C02002026
:102BA800980200209002002094020020F8B58023AB
:102BB800484ADB01116801240B4313608023464A0D
:102BC800DB02116805000B43444913600A68444B53
:102BD80002201A408023DB001343424A0B6013682B
:102BE800062123431360FFF7CFFC06210320FFF7DC
:102BF800CBFCC0233C4E0421326809209A43803B19
:102C080013433360FFF7C0FC04210A20FFF7BCFC24
:102C18003268364B364F1A4080235B0313433360C8
:102C28000026344B1E60344B1E60344B1E60B54288
:102C380031D1334B334A1C601F231360324B3D6044
:102C48001D60324B1D601F22314B1C60314B1A60D6
:102C58000023314A1370314A1370314A1370314AD4
:102C68001380314A1370314A1370314A1380314A44
:102C78001370314A1370FFF719FF3D231D4A0121D4
:102C880013602E4B1D203B60FDF70CFE01211B201D
:102C9800FDF708FEF8BDFDF7CFFC6C08000229001F
:102CA8000019FDF71FFA164B164A18601F23136008
:102CB800154B3E601E60154B1E60FDF7BDFC4000C5
:102CC80000192900FDF70EFA1D4B0407640F184080
:102CD8000443B8E734100240381002404C10024058
:102CE800FFF3FFFF2C1002400C000050FFFFCFFF46
:102CF80000380140004800400448004008480040AF
:102D08000C48004020480040043801400838014081
:102D18000C38014020380140020500200105002040
:102D2800000500206A0A0020690A0020680A0020BD
:102D3800060A0020050A0020040A00203D80000041
:102D4800F0FF0000014B18687047C046FC040020E3
:102D5800014B18687047C046F8040020014B1868FA
:102D68007047C046F4040020014B18687047C046FD
:102D7800F0040020014B18687047C046EC0400209E
:102D8800014B18687047C046E8040020014B1868DA
:102D98007047C046E4040020014B18687047C046DD
:102DA800E0040020014B18687047C046DC0400208E
:102DB800014B18687047C046D8040020014B1868BA
:102DC8007047C046D4040020014B18687047C046BD
:102DD800D0040020014B18687047C046CC0400207E
:102DE800014B18687047C046C8040020014B18689A
:102DF8007047C046C4040020014B18687047C0469D
:102E0800C0040020014B18687047C046BC0400206D
:102E1800014B18687047C046B8040020014B186879
:102E28007047C046B4040020014B18687047C0467C
:102E3800B0040020014B18687047C046AC0400205D
:102E4800014B18687047C046A8040020014B186859
:102E58007047C04698020020EFF3108272B6002136
:102E6800024B1868196082F310887047A404002088
:102E7800EFF3108272B60021034B18781970C0B2B4
:102E880082F310887047C046A1040020002808D0AB
:102E9800EFF3108172B6034A13780343137081F37A
:102EA80010887047A0040020EFF3108272B600214A
:102EB800034B18781970C0B282F310887047C04667
:102EC800A00400201022F8B5284D2B68134208D022
:102ED80027490A6027490A6801320A600121264AFF
:102EE80011701A0719D1202601272B6833423CD0CC
:102EF800224A234B01201C68136801331360214ABE
:102F0800136801331360204A13783B431370FFF7AB
:102F180025F9E0B2FFF770FBE7E7DA0703D51B49AD
:102F28000A6801320A609A0703D519490A6801320A
:102F38000A605A0703D517490A6801320A601B0755
:102F480003D5154A1368013313600420FFF706F907
:102F58000F22074B1A60114A094B1B68136801338B
:102F680013600F4A136801331360F8BD1C48004012
:102F780020480040F004002090020020E0040020D7
:102F880024480040DC040020A1040020C4040020E0
:102F9800C0040020BC040020B8040020F80400206D
:102FA800CC0400201022F8B5284D2B68134208D015
:102FB80027490A6027490A6801320A600121264A1E
:102FC80011701A0719D1202602272B6833423CD0EA
:102FD800224A234B02201C68136801331360214ADC
:102FE800136801331360204A13783B431370FFF7CB
:102FF800B5F8E0B2FFF700FBE7E7DA0703D51B49AE
:103008000A6801320A609A0703D519490A68013229
:103018000A605A0703D517490A6801320A601B0774
:1030280003D5154A1368013313600820FFF796F893
:103038000F22074B1A60114A094B1B6813680133AA
:1030480013600F4A136801331360F8BD1C38014040
:1030580020380140F004002090020020E004002005
:1030680024380140D8040020A1040020B404002022
:10307800B0040020AC040020A8040020F8040020BC
:10308800C8040020F0B587B002930CAB1B7804008D
:1030980003930DAB1B78080004930EAB1D880FAB90
:1030A8001B7801920593002945D0002D00D10835E1
:1030B800211C0C2C41D90C21CCB206002200002185
:1030C8002348FDF7A7F8002702000B000120404223
:1030D800C11780197941801859413B003200FDF72A
:1030E800A5F8029B039A5B001B1B920007339B18F1
:1030F8000522049952424A439B1807009B00082066
:10310800002B13DD059A5100611A890000D10131A5
:10311800481EC018FCF7E6FF6B4602001879019BB1
:10312800082B0FD90820C0B25043083004352D1899
:103138007D43BF08E81907B0F0BDE3B2062BBBD248
:103148000621B9E7C1B20529EDD20520EBE7C04653
:1031580040420F007FB5099D0E0000240A2803D9BC
:103168007D21B1426441E4B2FA2103940824890024
:10317800714302940126002400960194FFF782FF10
:103188000300A54200D028600020834203D020001D
:10319800089A9A426041304004B070BDF0B587B0DB
:1031A80005901D2001F0D6F906001E2001F0D2F985
:1031B8000500262001F0CEF90700202001F0CAF909
:1031C8000400212001F0C6F9844601202B09FF08DC
:1031D800AD08310932070540064007406046240221
:1031E800520F0443C9B2DBB20432A4B2082914D87E
:1031F8000839484241410C48494201400918181C05
:103208000C2B0CD90C20059B039702940196009572
:10321800C0B2FFF737FF07B0F0BD0449EFE7DBB2F4
:10322800062BF0D20620EEE748E8010020A10700AF
:1032380070B5040008001D001600FFF7AFFF03007B
:103248000220312C17D8FA200C49E400625880007B
:10325800B21A824203D300200A1966505060091935
:103268004A68074C0120A41A9C4204D3D2184A6029
:10327800002D01D1002070BD2B60FBE7B00B0020B2
:10328800801A0600312807D8054BC0001B185A6859
:103298008A4202D800225A607047521AFBE7C04699
:1032A800B00B002030B5312814D8FA250B4BC000DC
:1032B800C458AD00141BAC4203D30024C2501A18E2
:1032C8005460002906D01B185A680548841A8C4295
:1032D80001D2586030BD52185A60FBE7B00B00208D
:1032E800801A060010B5084C2378002B01D0002066
:1032F80010BDFF21122001F03FF900F0F3FB002878
:10330800F5D001232370F3E7400D002070B50E4D72
:103318002B78002B01D1032070BD122001F01AF97F
:103328000423040018401C42F6D02100122001F0AA
:1033380023F900232B7000F0C0FB0028EBD00123F9
:103348001C40E018E8E7C046400D0020031E14D0DA
:10335800081E12D0012008701A784A705A788A70AC
:103368000022CA705A680A715A68120A4A715A6861
:10337800120C8A715B681B0ECB7170470300012029
:10338800002B18D0002A16D00018072913D919784D
:10339800013001290FD159781170997851705879F5
:1033A8001979000208439979DB790904014300205F
:1033B8001B060B435360704703000020312B03D8D2
:1033C80002485843024BC0187047C04620A1070066
:1033D80030DFCE35F0B507000E00002489B000922A
:1033E800019303AD220038003100FCF707FF2200EB
:1033F800287001990098FCF701FF083428720135FC
:10340800402CEFD10E9B064807930023054A03ACD6
:10341800195D013348405043142BF9D109B0F0BD70
:10342800C59D1C8193010001F7B5002304000D0020
:10343800EB540133322BFBD1002C00D10C4C2E0065
:10344800012731367F1B630363405A0C53405C01EC
:103458005C403378B91920000193FCF7C9FE6B5C16
:10346800013E7370019B6B54B542ECD1F7BDC04669
:10347800B979379E37B5084C2569A268E368206892
:1034880061680095FFF7A6FF04496061FFF7CCFF6C
:1034980000234A34237037BD480D0020600D0020FA
:1034A800F7B51500C4220D4C07000E0020000021BE
:1034B8005200019301F0D2FB019B3222E360089B8A
:1034C8002760236123004C336660A5601A80FFF7EC
:1034D800D1FF01234B3400202370FEBD480D00208E
:1034E800F7B5214B009001911B7801201F4C002B50
:1034F80016D0009B0018002B12D0002910D02700EE
:1035080032254A373B78312B04D9236901332361AB
:10351800FFF7B0FF3B78E218167E312E01D907205D
:10352800FEBD01333B70320001200021FCF772FE22
:10353800236D1840636D1940084304D0013DEDB276
:10354800002DDFD1EBE73000FFF736FF0028E6D08B
:10355800009B4C341E70019B18602388002B01D0FF
:10356800013B23800020DBE7930D0020480D00205D
:1035780070B50A4A030012780D000120084C002A91
:103588000BD00230322908D82361FFF773FF2300DC
:1035980000204A334C341D70208070BD930D0020EC
:1035A800480D002070B5134B02221B78124D002BDA
:1035B80010D0013231290DD82B004A331B78312421
:1035C800002B01D0013BDCB22B69834204D10022DD
:1035D8008C4208D1100070BDC31ADA179B185340EB
:1035E8000422012BF6D10131C9B2FFF7C1FF012234
:1035F800F0E7C046930D0020480D002073B5002663
:1036080001246442E5170C4B1A6D5B6D11001943D8
:1036180003D13220801BC0B276BD100019000019FA
:1036280069410090019100980199104019400136B4
:1036380002000B00F6B2E9E7480D0020312807D850
:10364800044A163080008358591C01D00133835036
:103658007047C046480D0020312808D8044A9030E9
:103668004000835A03498B4201D00133835270478B
:10367800480D0020FFFF000070B500280FD004009F
:10368800FF260025064B323419880A1CFF2900D969
:10369800321C027001301D800233A042F4D170BD8B
:1036A800680E0020014B18697047C046480D00207D
:1036B800014B18787047C046920D0020014B1878CE
:1036C8007047C046930D002070B50B4D2A78131C27
:1036D800062A00D906230A24DBB29C40844200D97A
:1036E8000400FDF78BF8054B001918602B78FF2BA9
:1036F80001D001332B7070BDD00E0020D40E0020F5
:1037080013B56B466A46997100230C00D37169465C
:103718006B46012207330631FDF796FA002805D1DA
:103728006B46DB79012B01D16B469C79200016BDD5
:10373800F0B5012185B00320FFF7E2FFA6210700BD
:103748000420FFF7DDFF002302AA9380D370130043
:10375800019002221020033303A9FDF775FA00280F
:103768001FD102ABDB78022B1BD102AB9E88042150
:103778001120FFF7C5FF0500FDF746F804000220F9
:10378800002F0CD0FDF73AF8284F3B68C21A0BD52A
:103798009BB280B2834207D0FEF7B0FB032005B08E
:1037A800F0BDFA267600E2E7002D21D0FFF79AFD5A
:1037B8001F4BE418002814D0FFF7A8FD022806D1F3
:1037C8003000FFF781FFFEF799FB0120E7E70328A8
:1037D80007D0012807D1FDF717F8001B08D400F01F
:1037E8006CF90420DBE7FDF70FF8001BE4D4F2E7DF
:1037F80000F071F90028F4D0281C002D00D1012018
:10380800C0B2FDF725F81B2000F0A4FE040000F06C
:1038180054F96B461B799D3C5BB224B2A342CFDBC3
:103828000020044B38601870B9E7C046D40E002059
:10383800204E0000D00E0020F0B5040000203F2CE0
:1038480017D80E4D4B1EAB4213D80D4B0D4EDD7ADB
:10385800002D0BD09D7AA54208D11D68551BA942A1
:1038680004D9C7435D68AF4204D340190C33B3424F
:10387800EDD1F0BD01204042FBE7C0461F4E0000DD
:10388800D80E0020D8140020F7B50D001900099BA8
:103898000400089E0192002B03D00123099A5B4281
:1038A800138001223F2C2AD8264F4B1E0232BB42DE
:1038B80025D8013A002D22D0002E20D0B5421ED89E
:1038C800019A2000FFF7B8FF0422361AAE4216D339
:1038D8001D4A00231100CE7A002E12D00133DBB22C
:1038E8000C31802BF7D100231168019E711AB9425F
:1038F80007D80133DBB20C32802BF5D1052210003A
:10390800FEBD0C275F43104EF1190A898C720132F3
:10391800D205D20D0A819446019A8134BA51012701
:10392800FF34A4004D60CF72A1592D18A94200D2CE
:10393800A5510999002903D06246D2011A430A8089
:103948000022DCE71F4E0000D80E00200A4B10B5FD
:10395800984210D07F240C2204406243074B9B18E6
:10396800DA7A002A07D01A89C009824203D15A6834
:103978008A4200D9596010BDFFFF0000D80E002010
:1039880010B5002808D00021421C044BFF321C68E7
:1039980010C002C39042FAD110BDC046D81400200E
:1039A800002301280CD00133022809D00133032851
:1039B80006D00133042803D00538431E9841031D5F
:1039C80005205843014BC0187047C046CA5100082B
:1039D80070B50400FCF718FF0500FCF715FF401B45
:1039E800A042FAD370BD0000F8B50400FF230028F8
:1039F80031D080210079264A264B890200282DD013
:103A080002201060042219601A600A20FFF7E0FF04
:103A18004020A17800F0B0FD4120E17800F0ACFD35
:103A28006178012000F0A8FDFCF7EEFE1A4B07278D
:103A3800C618012000F08EFD050063786B403B42FC
:103A480007D0FCF7E1FE801B0ED463786B403B4245
:103A580019D101202378114A1370F8BD1160022290
:103A68001A608022D202CFE7C820FFF7B1FF617841
:103A7800012000F081FD3220FFF7AAFF012000F0AD
:103A880069FD0500D9E729000420FEF709F8E0E7F9
:103A9800180000501808005088130000D81500209E
:103AA800014B18787047C046D815002010B5012082
:103AB800FFF776FFFFF798FF10BD10B50220FFF75C
:103AC8006FFFFFF791FF10BD10B50320FFF768FFE8
:103AD800FFF78AFF10BD10B50420FFF761FFFFF75D
:103AE80083FF10BD10B5FFF7E8FF002804D00620BB
:103AF800FFF756FFFFF778FF10BD000010B5002450
:103B08000F4B4B201C7000F025FD10210143C9B25A
:103B18004B2000F031FD0220FCF79AFE2100012025
:103B280000F02AFD0120FCF793FEFFF7BFFFA0423B
:103B380004D00120FCF78CFEFFF7BFFF10BDC04684
:103B4800D815002070B5FCF75FFEFA250400AD001B
:103B5800FCF75AFE001BA842FAD370BD10B5FFF758
:103B6800BAFF041E0CD01E2000F0F4FC0423010050
:103B78001940184205D10520FDF792FFFFF79DFF78
:103B88000024200010BD00007FB501380C00032878
:103B98001AD8FCF79DFA02041A2500F04DFA002500
:103BA80002A8057000F04EFA0400A8420CD0224B7F
:103BB8001D70224B1D70FFF780FF200000F020FDD4
:103BC800FFF7C0FFFFF7CAFF7FBD00231C4A137031
:103BD800194A1370194A137001221A4B1A70F3E725
:103BE800174D02A82B7801AE037003234370124BC4
:103BF8001B788370114B1B78C370124B1B780371B1
:103C080000F0EAF93080C1B20D20FDF749FF737862
:103C1800002B02D0FFF751FFD6E701202B782100B7
:103C280001332B70084B1870084B1C60084B1C6044
:103C3800FFF7AAFFC8E7C046ED150020EC150020E5
:103C4800DA150020D9150020E4150020E015002021
:103C5800DC150020F0B51500174A89B0174E0192FF
:103C6800127803AB1A70164F3268187405923A68C6
:103C7800180059740495069200F056F902AB1880A2
:103C8800019BC4B22100187800F08EF9022C10D0E4
:103C9800042322009A43012A01D135603D6002AB1A
:103CA8005B78019A290020001370FFF76DFF09B0B7
:103CB800F0BD3560F3E7C046E4150020E0150020AC
:103CC800DC15002010B50400FCF798FD02231B1B2F
:103CD80002002100D8B2FFF7BDFF10BD10B5FFF7F5
:103CE800ECFE10BDF0B501270D0089B038421CD09C
:103CF80000291AD04E4B1F70FCF786FD2B00FC33B1
:103D08009860122000F026FC2023060004001E40C4
:103D180018420DD0FEF7E2F80020FFF7D3FF454B1D
:103D28001F702100122000F027FC002009B0F0BD10
:103D38004306F6D5132000F00DFC0190102000F08A
:103D480009FC0290192000F005FC47B21A2000F087
:103D580001FC029903900D2000F00EFC019B002B42
:103D680004D01A002900300000F017FC2E000322AE
:103D7800019BFF367370FB1713402A00DB199B1059
:103D8800B370039BFE329D3B9380002306AF3A003D
:103D9800280001997374FFF7F1FA0290002803D004
:103DA8000020FFF78FFFBCE72B003A000933FF33F1
:103DB80003CA03C30123737479787868FFF7F2FBA9
:103DC800070000F085F8012F18D104ABD81C029B1E
:103DD80005A903700593FFF783FB00280ED1FFF7B1
:103DE8006CFE059800F00CFCFFF7ACFEFFF7B6FE82
:103DF800FCF704FD104B1860104B1F700120FFF7F3
:103E080061FF019B083BDBB2002B08D17370FEF702
:103E18005DF81220210000F0AFFB012086E72A00A0
:103E2800117A11700132511BC9B28B42F8D8EDE7F3
:103E3800ED150020EC150020E8150020E515002000
:103E480073B51C4B05001A781B4B022A02D00022BE
:103E58001A7073BD1A78194E002A02D130600132E7
:103E6800F6E700F00FFB0400FFF728FC431E98411B
:103E78002200C3B23168280000F036F8040000F0D0
:103E880047F8002C03D0042CE3D13560E1E76B46FA
:103E980001A9D81C01940470FFF722FB0028F4D173
:103EA800FFF70BFE019800F0ABFBFFF74BFEFFF7A7
:103EB80055FEEAE7E4150020E5150020E815002086
:103EC800002110B502000800FFF7C4FE10BD000075
:103ED800042806D8034A80008358591C01D00133AE
:103EE80083507047F015002010B504000120002B06
:103EF8000CD00018002A09D1611A0230002905DB0C
:103F0800BE2301385B00994200D3100010BD0000A9
:103F1800042806D8034A80008358591C01D001336D
:103F2800835070470416002082B001AB002806D1E8
:103F3800188018785B781B02184302B07047017C20
:103F4800027801290CD0012A12D102290DD0426829
:103F5800C168511A02D48068121A13D506220CE0DF
:103F6800012A05D1427C002A09D18022520007E0AB
:103F7800022A11D0002A11D10222FF3200E0084A99
:103F88001A80D6E70748814202D9C1229200F7E792
:103F9800632AEAD98122E9E78022F7E7C022F5E718
:103FA800030200002F75000010B5032806D8084A40
:103FB800800083585C1C01D001338350052906D842
:103FC800044A89008B58581C01D001338B5010BD0E
:103FD800301600201816002037B5002828D00022F7
:103FE80003784178C5788B4252411C1CD2B20F2B02
:103FF80000D90F2401798078D301E4B2DBB200281C
:104008000CD0002901D040210B43002D0DD12343B2
:10401800FF210A400B40100218433EBD002901D081
:1040280040210B432021002D00D010210B43EEE747
:1040380080230122ECE700000022014B1A70704730
:1040480040160020F8B50400051E0BD0064F3E7838
:104058003000FFF7B1F932210500701CFCF7C8F8F1
:10406800267039702800F8BD4016002070B586B05B
:1040780006000D00FCF70CFF031E00D0037801AC0E
:104088002370104B66701B780495A3700E4B1E7836
:104098000E4BE6701B6802930D4B1B680393FCF7ED
:1040A800ADFB0C4902003000FFF7C6FB0A4D059036
:1040B800220000212888FDF78FFD2B8801332B80F3
:1040C80006B070BD4C16002054160020481600207B
:1040D80050160020102700004216002010B5FFF7E8
:1040E800ECFC064C2378002B01D0FFF737FD0023AA
:1040F800034A23701370034A136010BD641600202E
:104108006716002058160020F0B58DB00390FFF711
:10411800C7FC039B0590002B16D0954B1C78002CF0
:1041280012D1039B934DFF335B78934F0833934E23
:104138000493FF2B0CD9924B2C703C603460210007
:10414800FF201C70FFF792FF002420000DB0F0BD87
:10415800FCF79EFE002803D002220378934331D156
:104168000023874A2B703B6033601370059B854A98
:10417800043BDBB2012B45D801231370FFF7AEFDDA
:104188007E4B186800280BD000F03AFAFCF73CFB8D
:10419800FA250400AD00FCF737FB001BA842FAD350
:1041A800FFF7C6FA0225A843C0B2002831D0744BE5
:1041B8001878FFF743FA00212800FFF757FFFFF7A9
:1041C8008DFFC1E706AB1C720AA908A80A94FFF77D
:1041D80087F96B4B002803D02C703C603460AEE745
:1041E80006AA127A1A700A9B3360FFF761FA312324
:1041F800002801D00138C3B22B70FFF753FA5E4B89
:104208001860B3E700231370FFF757FC0028B7D1F5
:104218009AE76B461F7C3800FEF7C0FF5A4B040034
:10422800984204D9FDF772FE21000120C5E7544BDE
:10423800564E1C7804933060FCF7E0FA544B0200A9
:10424800390020000693FEF7F3FF0590002806D0FA
:10425800012801D1FDF75AFE04203168ADE7FCF7CB
:1042680017FE01224B4C524200281DD00378AB4365
:104278001AD0049B22801D7833680793FCF7BEFA96
:10428800454B020000932800444B07990194FFF71F
:10429800FBFA002809D0049B1878069B1968FEF7DA
:1042A800F1FF0320316888E7228000210E2000F00A
:1042B80063F900210D2000F05FF93900222000F099
:1042C8005BF9FCF7E5FD002801D003780593059A12
:1042D80006AB1A74274B06AA1B7808A95374264BF9
:1042E8000AA81B680B93FFF731F80822002008A9D9
:1042F80000F06AF9039BFF335A78002A04D0039B25
:104308000020591C00F060F9FF21122000F034F958
:10431800FFF7DAFB1E4D041E08D1194B29681878DF
:10432800FEF7B0FF194B0620196846E7039A1C4BA5
:10433800127809201A7000F00DF90F22194B10405D
:10434800023018702B68184D2B60002B03D13800F1
:10435800FEF724FF2860FCF757FA2B681349144A24
:104368005B181B1813600122014B1A70EDE6C0465A
:10437800671600204C160020481600205016002012
:10438800541600206416002060CC05004416002056
:10439800581600200A000020801A06001027000086
:1043A800661600206516002060160020F0490200FD
:1043B8005C16002070B50C1E01D1002070BD2A4B80
:1043C8001B78012BF9D118422CD0122000F0C2F82A
:1043D80005000100122000F0CFF82D0722D5002596
:1043E800224B234E1B7865702370224B1B78A370D9
:1043F80033686360204B1C78FCF700FA2900020040
:104408002000FEF74FFFFDF771FD1C4B316818883F
:10441800FFF79CFA28003168FFF728FEFFF75EFED9
:104428000120CBE7FCF7F0F9154B1B68C01AC4D480
:10443800FF21122000F0A0F80C4B0D4D1B782370C3
:10444800012363700B4B1B78A3702B6863600A4BC6
:104458001C78FCF7D3F9002102002000FEF722FFA8
:1044680005202968D8E7C046671600206616002090
:104478006016002065160020541600200A0000204F
:104488005C160020024B1878431E9841C0B2704752
:10449800671600200122032370B515004C00A340C5
:1044A800A5408A4006689E433543056045689543A4
:1044B8000222A2404560816899430A438260C2682B
:1044C8009A43C26070BD032349008B4002689A4337
:1044D8000260C2689A43C260704700000222084B1B
:1044E80019681142FCD00121064A10701868084268
:1044F800FCD0802118680842FCD11078C0B27047FF
:10450800083001400C3001408022044B002802D1C1
:1045180012021A6070471206FBE7C04618000050E6
:1045280010B50A4C00212000FFF7B4FF8022084B89
:1045380052021A600120FCF78BF900212000FFF7D6
:10454800C2FF0620FCF784F910BDC04600080050E1
:104558001808005010B504000120FFF7D5FF7F2090
:104568002040FFF7BBFF0020FFF7B8FF0400002042
:10457800FFF7CAFF200010BD70B5040001200D0030
:10458800FFF7C2FF80202043FFF7A8FF2800FFF7AE
:10459800A5FF0020FFF7B8FF70BD70B5050001202A
:1045A8000C001600FFF7B0FF7F202840FFF796FFAA
:1045B800A6190020B44202D1FFF7A6FF70BDFFF78D
:1045C8008DFF20700134F4E770B5050001200C0060
:1045D8001600FFF799FF80202843FFF77FFFA619F1
:1045E800B44203D10020FFF78FFF70BD2078FFF79A
:1045F80075FF0134F4E710B54220FFF7ABFF10BD9B
:1046080010B500230A4A410BC004FBF70FFE040053
:10461800010CC9B20620FFF7AFFF210A0720C9B273
:10462800FFF7AAFF0820E1B2FFF7A6FF10BDC046BA
:104638000048E80110B5011C112809D9112180236F
:1046480002395B4219430920C9B2FFF795FF10BD33
:10465800C3B2022BF3D20221F1E70000F0B5FA232E
:104668000D0009218DB006005B0004919D4205D222
:10467800FB3BAB429B415B42073304930023079308
:10468800331C0C2E39D90C23DBB20393171C082AD0
:1046980038D90827FBB2059307AB0193414B290092
:1046A80000930398FF23FAB2FEF754FD041E2ED19F
:1046B800FA2292006A43039908AB19705A80110CC8
:1046C800120E5A71FF229A71079A1971110ADA713A
:1046D8001972110C120E9A726022DA72324A5972E9
:1046E8009A810F22987301005F7000920200C22025
:1046F800FEF79EF920000DB0F0BDF1B20629C3D235
:104708000623C1E7D3B2052BC4D20527C2E7042785
:104718000599049B04391B01490019431D20C9B29E
:10472800FFF72AFF039B1E2019013943C9B2FFF77F
:1047380023FF2620FFF70EFF0A2E19D97D2D12D848
:104748000C210143C9B22620FFF716FF3120FFF7DD
:1047580001FF0723032198430143C9B23120FFF722
:104768000BFF0A2119E0F723390018400143EAE753
:10477800F7233900184001432620FFF7FDFE062ED7
:10478800E4D83120FFF7E6FE0723052198430143CB
:10479800C9B23120FFF7F0FE0C213720FFF7ECFEFD
:1047A800A8E7C04660CC0500CC05000010B5FFF7AF
:1047B80055FF10BDF8B50723794A802411680820F1
:1047C8000B431360C0227749774F0B68774E9343AA
:1047D80023430B6076490B6883430B607549764821
:1047E8000B68934323430B607449A0240B68E405CA
:1047F8009343734A0B60136872490B40136080221D
:104808004021236892013B401343236003688B4394
:104818006D4903600B683B401A436C4B0A601A6889
:104828003A401A606A4A1568354015602568694E2D
:10483800354080263602B446354380262560056813
:10484800B543056065460868624E304028438025B8
:10485800086019686D01314001261960116820004F
:104868000901090911601A680F213A402A431A60A0
:10487800FFF710FE584F0020FFF746FE002157486B
:10488800FFF708FE310020003E60FFF703FE31000D
:104898005248FFF7FFFD02215048FFF7FBFD802239
:1048A8004F4B92021A6002233B608023DB023B607D
:1048B80004213C48FFF707FE31003A48FFF703FEA2
:1048C80000213848FFF7FFFD44480D21FFF7FBFDA5
:1048D800444A454813681D431560136880218024A5
:1048E800036819402342F9D1B820404B40011960B0
:1048F8003F49713C0860CB21890019604021186844
:104908000143196001231168F020194311603949E6
:104918000A68A2431A430A601021374A156885437A
:10492800294311601168A1430B43136020233349C5
:104938000A68824313430B603149324B0A68324894
:104948001A430A6031490A681A430A6030490A68FA
:1049580002400A602F4A032113600520FBF7A2FFDB
:1049680003210720FBF79EFFFFF7DAFDFFF7C6F8E4
:10497800041E02D100242000F8BDFFF73CFE0138D8
:10498800C0B2FD28F6D82448FFF73AFE0522FA21DE
:104998000720FFF763FE0E20FFF74CFEEBE7C0464B
:1049A8002C10024000040050FFCFFFFFFFFFFFF074
:1049B8000404005008040050040000500C04005087
:1049C80020040050FF0FFFFF080000500C000050AB
:1049D80020000050FF3FFFFF18080050000800505B
:1049E80018000050341002400830014000300140E7
:1049F800043001400C00014008000140140001404F
:104A08000004014013200000ECDFFFFF0804014010
:104A18000C04014014040140C0CA8936EFF3108227
:104A280072B60021024B1868196082F3108870472B
:104A3800681600200B4A03211368180008400B422F
:104A48000ED010600222134203D0074908680243BF
:104A58000A60DB0704D50423034A11680B4313607B
:104A68007047C04614040140681600200B4A0C49E0
:104A78001368180008400B420ED01060DA0604D5FF
:104A880001220849086802430A609B0404D50823E8
:104A9800044A11680B4313607047C0461404014070
:104AA8001020000068160020F0B557464E464546CF
:104AB800DE46E0B504000D009246994683B08B426D
:104AC80030D82DD049465046FBF7D0FB29000600C8
:104AD8002000FBF7CBFB331A9846203B34D49B4687
:104AE80053465A46934042461F00534693401E0081
:104AF800AF423BD8AF4200D179E05B46A41BBD4131
:104B0800002B00DA76E000220023009201930123B3
:104B18005A4693400193012342469340009329E06B
:104B28008242CFD900220023009201930C9B002BD4
:104B380001D01C605D600098019903B0F0BCBB46D1
:104B4800B246A946A046F0BD42469B4620239B1A82
:104B58005246DA40414613004A468A401700424608
:104B68001F43534693401E00AF42C3D9002200237F
:104B7800009201934346002BD8D0FB0772081A43D2
:104B880046467B080EE0AB4201D1A2420CD8A41ADB
:104B98009D41012024196D410021013E24184D41F9
:104BA800002E06D0AB42EED9013E24196D41002EED
:104BB800F8D1009801995B4600196941002B24DB64
:104BC8002B005A464446D3402A00E2401C005B466C
:104BD8001500002B2ADB26009E403300260047469E
:104BE800BE403200801A9941009001919EE7A3428D
:104BF800BCD882E74246202300219B1A002200915C
:104C080001920122DA40019285E7424620239B1A4D
:104C18002A0046469A402300F340444613432A009C
:104C2800E2401C005B461500002BD4DA42462F00F8
:104C38002023260097409B1ADE403B003343CDE7F4
:104C480030B500240139A24201D1002005E0035DFE
:104C580001340D5DAB42F6D0581B30BD03008218FD
:104C6800934200D1704719700133F9E7002310B55A
:104C78009A4200D110BDCC5CC4540133F8E74641D8
:104C8800554C543A52455345540D0A004541524C2F
:104C9800593A52455345545C725C6E005253543A2B
:104CA80053544152540D0A005253543A4D41494EFF
:104CB8000D0A004541524C593A4D41494E5C725CCF
:104CC8006E004D3A524144494F5F42595041535347
:104CD8000D0A0000010103009D0900080E000000F4
:104CE80000000000020101000000000001000000B7
:104CF80000000000030101000000000001000000A6
:104D0800000000000401020000000000A6000000EE
:104D18000000000005010100000000000100000083
:104D280000000000060101004D0900080000000015
:104D3800000000000708060000000000FF00000057
:104D480000000000080101004D09000801000000F2
:104D5800000000000901010000000000010000003F
:104D6800000000000A01030000000000000000002D
:104D7800000000000B0405020000000000100E00F7
:104D8800000000000C0103000000000010000000FB
:104D9800000000000D020400000000006400000094
:104DA800000000000E0101004D090008000000008D
:104DB800000000001002040000000000F4010000E0
:104DC80000000000110103000000000004000000C2
:104DD8000000000013020400000000009001000021
:104DE80000000000140103000000000000000000A3
:104DF8000000000015010200000000000200000091
:104E0800000000001601030000000000110000006F
:104E18000000000080010301000000000100000004
:104E280000000000810103010000000002000000F2
:104E380000000000820101010000000000000000E5
:104E480000000000000308090A0B0C070D0E000003
:104E580048E8010090D0030020A107002E00433A43
:104E680053454E445F424F4F540D0A00433A534551
:104E78004E445F4641554C540D0A00433A53454E43
:104E8800445F52454144590D0A00433A434C4B5F35
:104E98004853455F33324D0D0A00433A434C4B5F4C
:104EA8004853495F31364D0D0A00433A494E49543B
:104EB8005F444F4E450D0A00433A4449535041540C
:104EC80043480D0A00433A4241445F5645520D0A91
:104ED80000433A50494E470D0A00433A5645525F3F
:104EE800444953500D0A004F53452D4C696665548B
:104EF8007261634C4F52412D4D7572617461465712
:104F080000646576004641494C00415400415449CB
:104F180000200041542B5645523F00433A41545F0C
:104F28005645525F444953500D0A0046573D0020EC
:104F380056455253494F4E3D00204749543D0020A5
:104F480050524F544F3D0020534348454D413D007A
:104F5800204341503D30780041542B524144494F41
:104F68003F004552524F520D0A00524144494F3DAD
:104F7800002056455253494F4E3D30780020535437
:104F88004154453D0041542B535441543F00484F30
:104F980053545F44524F5050454400484F53545F58
:104FA8004552524F525300484F53545F515545553F
:104FB800455F46554C4C00484F53545F4952515F2A
:104FC80049444C4500484F53545F4952515F485437
:104FD80000484F53545F4952515F544300484F5360
:104FE800545F4952515F544500484F53545F5258DB
:104FF8005F425954455300484F53545F52585F4CD1
:10500800505541525400484F53545F52585F5553BE
:105018004152543100484F53545F50415253455FF9
:105028004F4B00484F53545F50415253455F4552D0
:105038005200484F53545F554152545F4552525F96
:105048004C505541525400484F53545F55415254A7
:105058005F4552525F5553415254310052414449C1
:105068004F5F44494F3000524144494F5F44494FD4
:105078003100524144494F5F44494F320052414444
:10508800494F5F44494F3300524144494F5F52589A
:105098005F4F4B00524144494F5F54585F4F4B009C
:1050A800524144494F5F4352435F45525200535463
:1050B8004154450041542B48454C500041542B481D
:1050C800454C503F004154204154492041542B56EF
:1050D80045523F2041542B524144494F3F204154AF
:1050E8002B535441543F2041542B48454C502041A8
:1050F800542B42494E0D0A0041542B42494E004F51
:105108004B2042494E0D0A00483A52585F4C5055C0
:10511800415254310D0A00483A52585F5553415292
:1051280054310D0A00483A4552525F4C505541528D
:1051380054310D0A00483A4552525F555341525472
:10514800310D0A00483A50524F435F4652414D458F
:105158000D0A00483A434F42535F4552520D0A0028
:10516800483A434F42535F4F56460D0A00483A505B
:10517800415253455F4552520D0A00483A5645522E
:105188005F5245515F52580D0A00483A4652414D08
:10519800455F4F4B0D0A00483A515F46554C4C0D40
:1051A8000A00483A41545F44495350415443480D1A
:1051B8000A00483A52585F52494E475F4F56460DCB
:1051C8000A00018000000002810000000383400003
:1051D80001048500000005860000000687A0000085
:1051E8001249134B70B50C68186872B60023032671
:1051F800104A114D1360114A1360114A1360114A85
:105208001360114A1360114A13602A6801331A4364
:105218002A600F4D2A68B24313432B600D4B196067
:1052280084F30888804730BFFDE7C0460000F01FC0
:105238000400F01F004400403410024004440040C1
:105248000844004010E000E014E000E018E000E04E
:105258000000014008ED00E001224F4BF0B519684D
:1052680085B00A431A60042219681142FCD003234E
:105278004A4A11689943023B0B430C211360136897
:105288000B40042BFBD1464B464E052233600023CE
:10529800454D464C2B602260F032FF320193039259
:1052A800A63302938020019B414A9B00D158414A72
:1052B8008002136800270343136001233E4A1068E5
:1052C8000343A0201360F023C00502689A43503BB3
:1052D800134303600C20394A13688343384813602A
:1052E8000268384B1A408823DB0113430360364AAF
:1052F800364B48081F601760354A1760354A8018D2
:10530800FAF7F0FE1F21344B344A186011600D2261
:105318002E4B39001A603B00314F029A8A421BD843
:1053280000232A4A1360284A1360294A1360019A05
:1053380001320192032A04D1236033602B6005B047
:10534800F0BD039B029A9B1A0393A6230293019B29
:10535800022BA7D1039BA4E78020226840020240C9
:10536800501E8241202089181E4A12680242D4D059
:105378001D483A68C05CD2B2904208D10133082B6C
:10538800CBD10023236033602B60FFF729FFA53AB8
:1053980053425341C1E7C046001002400C1002407E
:1053A8007F3E000014E000E018E000E010E000E0BC
:1053B800CC000008381002402C10024004000050B5
:1053C80020000050FF00FFFF04440040004400405C
:1053D800084400400024F4000C44004020440040ED
:0C53E800244400401C440040C4000008A5
:0853F400BCF6FF7F0100000080
:0C53FC00010000000024F400FF01FFFF8E
:0400000508000405E6
:00000001FF
