:020000040800F2
:10000000005000207905000811050008F9040008D7
:1000100000000000000000000000000000000000E0
:100020000000000000000000000000000D050008B6
:1000300000000000000000000D050008950A0008FF
:100040000D0500080D0500080D0500080D05000848
:100050000D050008B93700080D050008ED37000848
:100060000D0500080D0500080D0500080D05000828
:100070000D0500080D0500080D0500080D05000818
:100080000D0500080D0500080D0500080000000022
:100090000D0500080D0500080D0500080D050008F8
:1000A0000D0500080D0500080D050008312A00089F
:1000B0000D050008512900080D0500080D05000870
:0400C0000D05000822
:1000C40000100E0000C2010080250000A55AA55AA8
:0400D4005AA55AA52A
:1000D80003B47146490840004900095E49008E444E
:1000E80003BC7047002243088B4274D303098B4238
:1000F8005FD3030A8B4244D3030B8B4228D3030CF0
:100108008B420DD3FF22090212BA030C8B4202D391
:100118001212090265D0030B8B4219D300E0090AB9
:10012800C30B8B4201D3CB03C01A5241830B8B42C2
:1001380001D38B03C01A5241430B8B4201D34B03AB
:10014800C01A5241030B8B4201D30B03C01A524110
:10015800C30A8B4201D3CB02C01A5241830A8B4295
:1001680001D38B02C01A5241430A8B4201D34B027E
:10017800C01A5241030A8B4201D30B02C01A5241E2
:10018800CDD2C3098B4201D3CB01C01A5241830996
:100198008B4201D38B01C01A524143098B4201D3D0
:1001A8004B01C01A524103098B4201D30B01C01AFB
:1001B8005241C3088B4201D3CB00C01A5241830875
:1001C8008B4201D38B00C01A524143088B4201D3A2
:1001D8004B00C01A5241411A00D201465241104602
:1001E8007047FFE701B5002000F006F802BDC046E1
:1001F8000029F7D076E770477047C0469140031C46
:1002080090409C46203A9340194352426346D3405B
:1002180019437047002B11D1002A0FD1002900D1B2
:10022800002802D00021C943081C07B4024802A1D3
:100238004018029003BDC046C1FFFFFF03B46846E3
:1002480001B5029800F006F8019B9E4602B00CBC6E
:100258007047C046F0B54F464646D646C0B504007E
:1002680082B00D00914698468B422FD82CD041463B
:10027800484600F0B1F829000600200000F0ACF86C
:10028800331A9C46203B9A4600D576E04B465246A8
:1002980093401F004B46624693401E00AF4228D849
:1002A80025D05346A41BBD41002B00DA7BE0002279
:1002B80000230092019301235246934001930123A6
:1002C80062469340009318E08242D0D9002200236E
:1002D800009201930A9B002B01D01C605D6000987E
:1002E800019902B01CBC90469946A246F0BDA342B3
:1002F800D7D900220023009201936346002BE9D04E
:10030800FB079846414672080A437B0866460EE09A
:10031800AB4201D1A2420CD8A41A9D410120241954
:100328006D410021013E24184D41002E06D0AB42FC
:10033800EED9013E24196D41002EF8D1009801999B
:10034800534600196941002B23DB2B005246D3404A
:100358002A006446E2401C0053461500002B2DDBA2
:1003680026005746BE40330026006746BE4032008E
:10037800801A994100900191ACE7624620239B1AAC
:100388004A46DA406146130042468A4017001F4336
:1003980080E7624620239B1A2A0066469A4023007B
:1003A800F3401343D4E76246202300219B1A00221E
:1003B800009101920122DA40019280E720236246EF
:1003C80026009B1ADE402F00B0466646B7404646D8
:1003D8003B003343C8E7C04610B5002903D100F0FD
:1003E80007F8203002E0081C00F002F810BDC046F3
:1003F8001C2101231B04984201D3000C10391B0A4D
:10040800984201D3000A08391B09984201D3000910
:10041800043902A2105C40187047C0460403020267
:100428000101010100000000000000000023C25C7F
:100438000133002AFBD1581E704700000123184AD7
:1004480011680B4313608023164ADB0211680B43C3
:10045800154913600B68154A1A4080231B01134382
:100468000B60A021F022C9050B6893431A00A02352
:1004780013430B600E490F4A0B681A40CC23DB016B
:1004880013430B6000230C4A0C4913600B600C49A2
:100498000B600C4B0C491960092313607047C04668
:1004A8002C100240381002404C100240FFF3FFFFAE
:1004B80020000050FF00FFFF0048004004480040B3
:1004C800084800400C48004055410300802130B5E1
:1004D800054A064C0378002B00D130BD0130156861
:1004E8000D42FCD02360F5E71C4800402848004036
:1004F800042172460A4202D1EFF3088001E0EFF3CB
:10050800098015E030BFFDE707B5FFF797FF0748FB
:1005180000F056FA00210220019100910B000A0018
:1005280000F084FA00F07AFA30BFFDE7643800087A
:1005380073B5002813D046698569C469FFF77EFF43
:10054800094800F03DFA0021330001912A000120FA
:10055800009400F06BFA00F061FA30BFFDE7040088
:1005680006000500EAE7C046643800087047000046
:1005780001221E4B70B519680A431A6004221968D3
:100588001142FCD003211A4B1A688A431100012238
:100598000A430C211A601A680A40042AFBD1FFF7A3
:1005A8004DFF1448FFF792FF134800F009FA0023A3
:1005B80012481349134C1A188A4210D30021124BBF
:1005C800124A93420FD3124800F0FAF91148FFF784
:1005D8007DFFFFF7CBFF00F01FF830BFFDE7E558C0
:1005E80004331560E7E702C3EBE7C046001002409A
:1005F8000C10024072380008823800080000002001
:10060800080000209C3F000820000020D80A002095
:100618008E38000899380008F0B55C4CA54400F005
:10062800C1F803F0E5FB00F0F9F800F07BF9E120F0
:10063800000302F001F802F063FF041E00D0A1E0FD
:100648000100032001F034F9514800F0B9F902F033
:10065800C7FE0100200000F0EDFC00F07DF90390DA
:1006680000F05AF9002805D000F056F901000820DA
:1006780001F01EF90024260025000294019400943C
:1006880000F06AF9070001F03BFD01F0EBFD01F015
:1006980081FE02F02FF9009B1843C3B2009302F0C9
:1006A80045F90543EDB2002E09D1009B002B06D079
:1006B8001900092001F0FCF800F0AAFC0136002C12
:1006C80008D1002D06D029000C2001F0F1F800F027
:1006D8009FFC0134029B002B10D102F0B7F80028D0
:1006E8000CD002F0B3F8FF2800D9FF20C1B20B20CC
:1006F80001F0DEF800F08CFC01230293019B002B33
:1007080012D1002E10D1039BFF1A224B9F420BD906
:1007180002F084F8002807D131000A3001F0C8F847
:1007280000F076FC0123019302F0D8F8002803D0EA
:100738000021062001F0BCF848A801F095FE002829
:100748001CD103F029F8070001F084F804A9380047
:1007580002F048FD002802D004A801F08EF802F04B
:100768009BFD002808D106A9380002F03FFC0028AC
:1007780002D006A801F0AAF830BF81E748A800F027
:10078800B7FCD9E702F01AFC040060E79CFDFFFF04
:10079800A8380008B70B0000014B18687047C0461E
:1007A8000400002010B513480378002B20D112490B
:1007B80003330A68940012D4013B54000FD4023367
:1007C800D4000CD40233540109D4013B140106D4DB
:1007D8000233940103D40133D40100D4D30F074A60
:1007E800137080230A681B0413430B6001230370F2
:1007F80010BDC046210000207410024020000020D7
:1008080010B5044B1B78002B01D1FFF7CBFF024B2F
:10081800187810BD21000020200000200123314A53
:1008280013B511680B43A0211360C9050B682E4A44
:100838001A4080235B0413432C4A0B6013682C492D
:100848000B40136080222B4B52011A6000232A4A66
:100858000193019B934226D9A022284BD202196802
:100868000A438021890208001A60254A1C680C4244
:1008780002D1013A002AF9D11A68024217D003219D
:10088800204B1A688A43110002220A430C211A607D
:100898001A680A40082AFBD11B4B1C4A1A6000221E
:1008A8001B4B1A7013BD019B01330193D1E7012241
:1008B80019680A431A60042219681142FCD00321FE
:1008C800104B1A688A43110001220A430C211A604E
:1008D8001A680A40042AFBD10B4B0E4A1A600C4BCB
:1008E8000122DEE72C100240FFFFFFFC040000504D
:1008F800FFEFFFFF180000509F0F0000001002409C
:1009080001350C000C100240040000200048E801EA
:10091800000000200024F400014B18787047C046FE
:1009280000000020FA21084B10B518688900FFF76D
:10093800D9FB0022054B01381860054B1A60054B9E
:1009480007321A6010BDC0460400002014E000E021
:1009580018E000E010E000E0014B18687047C0465E
:100968002400002070B50C4B0C481D6802681968FB
:100978008D42FAD10A4B0B491C680B4B013418689D
:10098800A41AFFF7AFFB01002000FFF7ABFBFA2327
:100998009B006B43C01870BD2400002018E000E0E5
:1009A80014E000E040420F0004000020034A1168F0
:1009B80013685B1A8342FBD37047C04624000020AB
:1009C80030B500280FD009220A4B1B681340934208
:1009D80009D18021084B094C0278002A04D1403201
:1009E80019681142FCD030BD1D680D42FCD00130A1
:1009F8002260F1E7004800401C48004028480040B9
:100A0800044B0901C318C9B2197001238340024A73
:100A18001360704700E400E000E100E0014B024A87
:100A28001A60FEE70CED00E00400FA0530B5074C4B
:100A3800074D2560207161710021E180A260E360AB
:100A4800039B2361049B636130BDC04608000020FE
:100A5800EC5D07FA10B5021E13D00A4B0A491C6850
:100A680000208C420DD1197911705979517099680B
:100A78005160D96891601969D1605969186011612C
:100A8800013010BD08000020EC5D07FA024A136827
:100A9800013313607047C0462400002004207047CB
:100AA80010B50223012903D1007802F0B9FC002314
:100AB800180010BDF8B501260A20134D7043330104
:100AC8005919124B0F00C2181400103F3F780A3C06
:100AD8000F392770083B0F781C18093A1770002146
:100AE8000822200002F0B2FE290033010839C91893
:100AF8003A002000013602F0A0FE152EDCD10022BB
:100B0800034B1A70F8BDC046BC3800082900002005
:100B180028000020F0B5002589B002900391170045
:100B28000021082204A802F091FE0822002106A84C
:100B380002F08CFE664A2B019B18197802988142B4
:100B480000D197E00135142DF5D10124200009B01A
:100B5800F0BD04AB1B78012B22D8022304AA137022
:100B68000A276F435B4B0237FF183200390006A88B
:100B780002F063FE320004A9380002F05EFE544B16
:100B88002D015B195B68002B5DD031003800984758
:100B9800041E58D0320006A9380002F04EFED5E7F0
:100BA800112BDDD91123D9E704AB1B78012BD7D939
:100BB8000324CBE704AB1B7803247833DBB2782B10
:100BC800CED9C3E704AB1B78072BC9D9F0E7962227
:100BD800049B92019342C3D0E12252029342BFD0B8
:100BE800E12212039342BBD0E2E704AB1B78013B3E
:100BF8003F2BB5D9DCE704AB5A781B7812021343B4
:100C0800354A323B9BB203249342A9D99EE704ABF1
:100C18005A781B78120213430A3B304AF2E704ABB6
:100C28001B78013B092B9BD9C2E704AB5A781B7888
:100C380012021343323B2A4AE4E7049B059A032431
:100C480013438DD182E7274C2378002B0BD1290041
:100C58001F4B083159183200380002F0DFFD002818
:100C680001D001232370019B00249B0700D46DE76A
:100C780005346BE7DA7806240192D20700D565E7D8
:100C88005E780224BE4200D060E7039B002B00D1AF
:100C98005CE73A00190004A802F0CFFD0298013879
:100CA800122800D95CE7FFF713FA54FF7FFF7FFF94
:100CB80085FF7FFF7FFFC8FF7FFF7FFF8DFF92FFCC
:100CC800A0FFA6FF7FFF5BFFB2FFBAFF5BFFC0FF7D
:100CD800BC38000829000020561300007E130000CD
:100CE8009E07000028000020F8B50E0000271C0011
:100CF800144B3901C9180D78854210D00137142FCB
:100D0800F7D101231800F8BD0A2179430E4B0231AF
:100D1800C9182A00300002F090FD25700FE0022368
:100D2800002EEFD00223002CECD04D789542E9D864
:100D38008228E9D1054B1B783370012323700023E7
:100D4800E0E7C046BC380008290000202800002041
:100D580070B5050004A80678059C181E0BD0201E47
:100D680009D00020032E06D9D8701D7059709A70CA
:100D780004230130237070BDF0B5050005A807787D
:100D8800069E081E11D0181E0FD0301E0DD0002050
:100D9800082A0AD8941CE4B2BC4206D81D705A70BE
:100DA800C5B2AA4202D801203470F0BD0F5C1D18EC
:100DB800AF700130F4E710B504004218537890780A
:100DC8001B0200041843635C1843D3781B061843BE
:100DD80010BD0B0A017043700B0C090E8370C170B3
:100DE800704770B5C288C4B00400012A09D802232C
:100DF8000278417880880093013301F087FB44B082
:100E080070BD0C26037A03AD2B70437AFF366E440F
:100E1800737002339A4205D0027841788088009333
:100E28000323EAE702F038FA002806D000232278E4
:100E380000936178A0880733DFE77278002A05D02D
:100E480021000D200A31684402F0F7FC280002F066
:100E580037F9031ED3D1009322786178A08808332C
:100E6800CBE7000010B5024801F03EFB10BDC046BC
:100E7800323D000870B5094C200001F035FB084DE3
:100E8800280001F031FB200001F02EFB280001F0C2
:100E98002BFB200001F028FB70BDC046AB3B0008CF
:100EA800FC3900080F2307B5034001A8092B06D811
:100EB800303303700023437001F016FB07BD37334E
:100EC800F7E730B5040089B002AD182200212800E8
:100ED80002F0BCFC237861682B70637803A86B7000
:100EE800FFF777FFA16804A8FFF773FFE16805A87B
:100EF800FFF76FFF216906A8FFF76BFFFFF72CFDCF
:100F0800010007A8FFF765FF0022182311000093CE
:100F1800F1202B0001F0D2FA09B030BDF0B506007F
:100F280000250A2785B0ECB2002E02D00A2D04D184
:100F38002C00002C10D105B0F0BD30003900FFF7AF
:100F480057F96B4630310433595530003900FFF7F3
:100F5800C9F801350600E6E76A46013CE4B201AB90
:100F68001B5D684613700023537001F0BDFAE0E77B
:100F7800F0B505000027BBB28B4210D2EC5D202CE7
:100F880017D0092C15D04C1E2C192678202E01D0EC
:100F9800092E04D1013989B2013C8B42F5D30026D0
:100FA800ED19945D002C06D15B1A58425841C0B225
:100FB800F0BD0137DFE78B4211D2A85D0700613F22
:100FC800192F01D82038C0B22700613F192F01D846
:100FD800203CE4B2013301369BB28442E1D00020C8
:100FE800E6E7000010B50C0001F07EFA064801F0B3
:100FF8007BFA002C03D1054801F076FA10BD2000D9
:10100800FFF78CFFFAE7C046943A0008AB3B0008AC
:1010180000B5A5B0842103A800F000FD002806D083
:101028000022009003AB1100C12001F047FA25B05F
:1010380000BD000070B5254E254D8AB0297030706E
:10104800FFF738FD00F076FC2248FFF7B9FCFFF700
:10105800D7FB337805AC63702B782070A37001231D
:10106800E3702371FFF758FC06230022607111001A
:101078000093F020230001F021FA2000FFF7EAFC9A
:10108800002805D01448FFF79BFC2000FFF719FF44
:101098001248FFF795FC124B002203937F23049319
:1010A800773B0093110003ABF22001F007FAFFF73A
:1010B80033FC002807D10B48FFF782FC0A48FFF7EA
:1010C8007FFC0AB070BD0948F6E7C046F100002071
:1010D800F20000204E3C00085C3C00086B3C000815
:1010E800010101017A3C00089A3C00088A3C00088A
:1010F800F0B50400A9B0002800D19AE0BB48FFF77A
:101108005FFC2278012A0AD0B948FFF759FC01236D
:1011180022786178A088009301F0F8F989E0657871
:10112800202D00D1E1E015D8022D00D183E008D8A8
:10113800002D33D0012D3ED0A08800950223012236
:10114800B1E0032D00D18EE0102DF5D12000FFF77E
:1011580048FE6EE0312D00D19EE00BD8212D00D144
:1011680008E1302DE8D1E388012B00D187E0A08881
:101178000092C8E0402D00D178E0412DDCD18421D7
:1011880007A800F04BFC0300A088002B00D070E0FB
:101198008433009322786178813BBDE79548FFF757
:1011A8000FFCE088230000902800A278A18808336B
:1011B80001F084F93DE09048FFF702FC042001F0BB
:1011C800A7FB8E48FFF732F9C5B28D48FFF72EF915
:1011D8002F1CC0B2282D00D92827FFB2031C1028C5
:1011E80000D91023DAB20392022207ADFF32079228
:1011F8000026AB717F233A002B726F717F490C3741
:101208002E716E72AE72EE720AA8EE7102F015FBC4
:10121800E819039A7A4902F010FB039B8120FF1812
:10122800A18800972B00320001F048F9082001F04E
:101238006FFB29B0F0BD734B07A81968724B1E6885
:10124800724B1D68FFF7C5FD310008A8FFF7C1FD07
:10125800290009A8FFF7BDFD0C23A18800930022EF
:1012680007AB8220A4E7FFF7D9FBE2E700F062FBB7
:10127800DFE70093010007AB0022C12098E7207A3E
:1012880007AD287002F052F802236870A188009315
:1012980000222B00B0208BE7E388022B05D0022325
:1012A800A08800930133290036E7237A1E2B10D833
:1012B8001D2B02D29A1F032A11D81800617A02F056
:1012C80047F80222230000920833A1880022B120A7
:1012D8006EE7312BF1D0372BEFD0262BEDD00093D2
:1012E800A08808230122312116E70E2602ABF61842
:1012F80000233370E0880128D1D9637A991C884289
:1013080003D0A08800910323CDE72100257A1A0095
:101318000A312800FFF7FEFB071E03D0031FDBB2CC
:10132800012B09D83300082207A92800FFF7DCFCA5
:10133800002801D00023337032780F2602ABF6184C
:10134800042306A9009301960B0028003900FFF733
:10135800FFFC0300A088002B05D1043300932278FA
:101368006178013BD8E63378009306AB0100002290
:10137800A0201DE70F2602ABF61800233370E38880
:10138800012B00D0F3E61621277A02A809183300AA
:1013980008223800FFF7A8FC06AD01000A23002840
:1013A8000ED00093019507AB00223800FFF7D0FC60
:1013B8000300A088002BD0D02B78009307ABD5E78B
:1013C800162102A8327809180093019507AB380056
:1013D800FFF7D2FC0300A088002B19D133782278BC
:1013E800023300936178032396E6C046FE3900086D
:1013F8000B3A0008173A0008203A00082D3A00086E
:10140800473A00085000F81F5400F81F5800F81F0A
:101418002B7801000093002207ABA120C8E6C04644
:1014280070B50400A2B00D00002806D0D54AFFF719
:101438009FFD002803D0FFF715FD22B070BDD24AEA
:1014480029002000FFF794FD00280FD0CF4801F0B5
:101458004BF8CF4C200001F047F8FFF70BFD2000B8
:1014680001F042F8CB4801F03FF836E0CA4A2900BB
:101478002000FFF77DFD002833D0C848FFF7A0FA09
:10148800102001F045FAC64801F02EF8BF4801F0D7
:101498002BF8C44801F028F8FFF7ECFCC24801F02B
:1014A80023F8BC4801F020F8C04801F01DF80120DD
:1014B800FFF734FDBE4801F017F80120FFF72EFDB5
:1014C800BC4801F011F81C247F252800E040043CAA
:1014D800C0B2FFF7E7FC231DF7D1B74801F004F8C5
:1014E800A9E7B64A29002000FFF742FD061E2BD0C7
:1014F800842101A800F092FA842801D0B0483DE187
:10150800B04800F0F1FFB04BB0481B78002B00D179
:10151800AF4800F0E9FFAF4800F0E6FFAE4B1C789B
:101528002009FFF7BFFC2000FFF7BCFCAB4800F028
:10153800DBFF402101A8FFF73EFC002801D1A848A5
:1015480091E7FFF7EBFCC8E7A64A29002000FFF760
:101558000FFD002800D1F8E0842101A800F05EFA10
:101568008428CBD1310001A8FFF725FC01009E4853
:10157800FFF738FD864C200000F0B6FF042101A8D3
:10158800FFF719FC01009948FFF72CFD200000F037
:10159800ABFF082101A8FFF70EFC01009448FFF7F4
:1015A80021FD854D280000F09FFF0C2101A8FFF7C1
:1015B80002FC01008F48FFF715FD200000F094FFA2
:1015C800102101A8FFF7F7FB01008B48FFF70AFD80
:1015D800200000F089FF142101A8FFF7ECFB0100AF
:1015E8008648FFF7FFFC200000F07EFF182101A8C5
:1015F800FFF7E1FB01008248FFF7F4FC280000F048
:1016080073FF442101A8FFF7D6FB01007D48FFF7CF
:10161800E9FC200000F068FF482101A8FFF7CBFB98
:1016280001007948FFF7DEFC200000F05DFF4C2147
:1016380001A8FFF7C0FB01007448FFF7D3FC28009E
:1016480000F052FF502101A8FFF7B5FB01007048D8
:10165800FFF7C8FC200000F047FF542101A8FFF75E
:10166800AAFB01006B48FFF7BDFC200000F03CFF1F
:10167800582101A8FFF79FFB01006748FFF7B2FC5C
:10168800200000F031FF5C2101A8FFF794FB010066
:101698006248FFF7A7FC280000F026FF1C2101A8DC
:1016A800FFF789FB01005E48FFF79CFC200000F073
:1016B8001BFF202101A8FFF77EFB01005948FFF717
:1016C80091FC200000F010FF242101A8FFF773FB14
:1016D80001005548FFF786FC200000F005FF28218F
:1016E80001A8FFF768FB01005048FFF77BFC2800C2
:1016F80000F0FAFE302101A8FFF75DFB01004C481D
:10170800FFF770FC200000F0EFFE342101A8FFF77E
:1017180052FB01004748FFF765FC200000F0E4FE9B
:101728002C2101A8FFF747FB01004348FFF75AFCAB
:10173800200000F0D9FE402101A8FFF73CFB010082
:101748003E48FFF74FFC2800C8E63D4A2900200024
:10175800FFF70EFC002806D13A4A29002000FFF7BF
:1017680007FC002801D03848B8E6384A290020008C
:10177800FFF7FEFB002800D1C0E6354800F0B4FEB4
:101788005BE6C046503A0008533A00082D3A000874
:10179800573A0008473A0008593A0008613A0008E1
:1017A800713A0008753A00087F3A0008853A00083F
:1017B8008D3A0008963A0008E13C00089E3A000875
:1017C800A83A0008B03A0008F1000020663B00087B
:1017D8004B3A0008B73A0008F2000020C33A000864
:1017E800AB3B0008CB3A0008D43A0008E13A0008BD
:1017F800ED3A0008FD3A00080B3B0008173B0008CB
:10180800233B00082F3B00083D3B00084C3B0008E9
:101818005B3B0008693B0008783B00088D3B0008EB
:10182800A23B0008AD3B0008B83B0008C33B0008DA
:10183800CE3B0008DA3B0008E63B0008F43B000812
:10184800FA3B0008023C00080B3C00083E3C00083C
:10185800453C00081FB5040000F0BEF8002C0BD072
:10186800210003A8FFF7B5FA042300220093110012
:1018780003ABC02000F022FE1FBD30B5040085B0C8
:10188800002813D0037802AD2B70437841680A20F2
:1018980068446B70FFF79DFAA3780022AB710723A9
:1018A8001100009390202B0000F008FE05B030BD19
:1018B8007FB5002201AB187018005970029203928C
:1018C80004920592FFF7FDFA07B000BD70B5050058
:1018D800C4B0002824D00600FF36737802AC237009
:1018E800B37863700300FE3304229B5EA3709BB23F
:1018F8001B0AE3700300FC33996803A8FFF769FA31
:101908007278002A03D0290004A801F096FF00226B
:1019180073781100083300939120230000F0CEFD66
:1019280044B070BD0B0A017043700B0C090E837034
:10193800C170704700230B4A10B513600A4A136040
:101948000A4A13600A4A13600A4A13600A4A136073
:101958000A4A13600A4A13600A4A136000F0ECFD51
:1019680010BDC046F8000020FC0000200001002047
:1019780004010020F40000200801002014010020C8
:10198800100100200C010020024A13680133136083
:101998007047C04608010020024A136801331360EB
:1019A8007047C046F4000020024A136801331360F0
:1019B8007047C04614010020024A136801331360BF
:1019C8007047C04610010020024A136801331360B3
:1019D8007047C0460C010020C30703D50B4A1368A3
:1019E80001331360830703D5094A13680133136071
:1019F800430703D5074A136801331360030703D568
:101A0800054A1368013313607047C046F800002088
:101A1800FC000020000100200401002010B5041E75
:101A280000D1E5E00020832900D8E1E0842201000C
:101A3800200001F00BFF00F0C7FE01002000FFF7B7
:101A480071FF00F0C7FE0100201DFFF76BFF00F0DB
:101A5800C7FE010020000830FFF764FF00F0C6FE53
:101A6800010020000C30FFF75DFF00F0C5FE01000B
:101A780020001030FFF756FF00F0C4FE01002000E0
:101A88001430FFF74FFF00F0C3FE010020001830AC
:101A9800FFF748FF2000574B1C301968FFF742FF3B
:101AA8002000554B20301968FFF73CFF2000534BAE
:101AB80024301968FFF736FF2000514B2830196889
:101AC800FFF730FF20004F4B2C301968FFF72AFF33
:101AD80020004D4B30301968FFF724FF20004B4B96
:101AE80034301968FFF71EFF2000494B3830196859
:101AF800FFF718FF2000474B3C301968FFF712FF2B
:101B080001F01EFA010020004030FFF70BFF00F043
:101B180085FE010020004430FFF704FF00F084FE3A
:101B2800010020004830FFF7FDFE00F083FE0100B1
:101B380020004C30FFF7F6FE00F082FE0100200086
:101B48005030FFF7EFFE00F081FE01002000543016
:101B5800FFF7E8FE00F080FE010020005830FFF794
:101B6800E1FE00F07FFE010020005C30FFF7DAFEA6
:101B780000F07EFE010020006030FFF7D3FE00F089
:101B88007DFE010020006430FFF7CCFE00F07CFEF3
:101B9800010020006830FFF7C5FE00F07BFE010061
:101BA80020006C30FFF7BEFE00F07AFE0100200036
:101BB8007030FFF7B7FE00F079FE010020007430A6
:101BC800FFF7B0FE00F078FE010020007830FFF744
:101BD800A9FE00F077FE010020007C30FFF7A2FE8E
:101BE80000F076FE010020008030FFF79BFE842085
:101BF80010BDC046F8000020FC00002000010020B5
:101C080004010020F4000020080100201401002035
:101C1800100100200C010020024A136818431060CC
:101C28007047C046C4020020F0B500220825040011
:101C38000A4E0B4893B28B4200D3F0BDA35C1B0243
:101C480058402B0007B2400080B2002F00DA7040E5
:101C5800013BDBB2002BF5D10132EBE7211000008C
:101C6800FFFF0000802307490A681A42FCD0064B90
:101C78000649186080230A681A42FCD0044B186091
:101C88007047C0461C480040284800401C380140A6
:101C98002838014070B504004518AC420AD14023E9
:101CA80007490A681A42FCD0402306490A681A42C2
:101CB800FCD070BD2078FFF7D5FF0134EDE7C046B2
:101CC8001C4800401C3801400C4910B50A880C4CCF
:101CD80092B2531C2488DB05DB0D9C4209D180207D
:101CE800084A4001136801331360FFF795FF00208D
:101CF80010BD054CA0540B800120F9E7D009002045
:101D0800D8090020D4090020D0070020F0B53E4CA7
:101D1800A544AAAC2688012403ADAA70E970320A4A
:101D2800090A2C70687029716E71AA710634002E28
:101D38000AD0002B08D00B20190002AB3200C018C3
:101D480001F07BFD3619B4B221002800FFF76CFFC3
:101D580003AB1855A31C9BB20134A4B2000A01932B
:101D680003AB18550122002014000300019E81B224
:101D78008E4212D8A4A9CB18453BFF3B1A7000200D
:101D8800FFF770FF53A82100FFF784FF0020FFF73B
:101D980069FFA5239B009D44F0BD295C8C46002962
:101DA8000FD1A4A9CB18453BFF3B1A70A1235B00B8
:101DB8009C4224D823000122611C89B201300C0006
:101DC800D4E7A12149008C4219D86746A4AE361938
:101DD800453E0132611CFF3ED2B289B23770FF2AFC
:101DE800ECD1A4AEF318453BFF3B1A704423FF33F4
:101DF800994204D002340B00FE3AA1B2DEE7034A4E
:101E0800136801331360C4E76CFDFFFFE00900208D
:101E1800F0B5694C694BA54400242200188890420B
:101E280017D823003822093BFF329BB2934248D986
:101E38008020FFF7F1FE624A136801331360614A9C
:101E480013680133136002235F4A11780B43137040
:101E580095E05E4B511C9D5C89B2002D00D1A8E035
:101E68006E1EF3B202AE0A0001932300A4190021EA
:101E78002600564FD719019C8C4212D1FF2D0ED047
:101E880090420CD94021FF318B4200D991E0A2AC9D
:101E9800591CE3184E4C1B1900241C708BB21C00F3
:101EA800BDE7904200D184E04024FF34A34200D92A
:101EB8007FE07C5C01320133745492B29BB20131F1
:101EC800D9E702AB9D795B792D021D439542AFD8C6
:101ED8002B0009339BB29C42AAD1A11E89B202A849
:101EE800FFF7A2FEA2AB3B4A1B193B499A1812788E
:101EF8005B181B7812021343834299D102AB1B78FB
:101F080052AC237002AB5B78E580637002AB9B78C0
:101F1800A37002AB1A79DB7812021343A380002D59
:101F280005D002AB2A00D91D54A801F086FC6578BB
:101F3800012D07D180204000FFF76EFE224B1A7852
:101F480015431D7080208000FFF766FE234A136842
:101F580001331360EFF3108672B6214D2B78032BF3
:101F680011D9204A1368013313601F4A13680133DB
:101F7800136086F310888020C000FFF74DFEA3236E
:101F88009B009D44F0BDA022184F52003B78184892
:101F980053432100C01801F050FC03223B78013361
:101FA80013403B702B780133DBB22B7086F310881B
:101FB800E5E720203DE7C04674FDFFFFC002002092
:101FC800E0090020F4090020C30200207C01002061
:101FD80080FDFFFF7FFDFFFF7EFDFFFFF80900206A
:101FE800CC070020FC090020DC090020CD070020D8
:101FF800CC02002070B5164D2E78002E05D0002892
:1020080002D1144B2870188070BD124C2388002808
:1020180009D1002B04D01030FFF7FEFDFFF7F8FEC2
:1020280000232380F0E7A122520093420AD94020DE
:10203800FFF7F2FD0123084A2B701368268001334D
:102048001360E1E75A1C2280044AD054DCE7C046FA
:10205800C2020020C0020020E00900207C0100200C
:1020680070B503244600B4400223A025E443B340DE
:10207800ED052A68124E22401A432A600125854040
:102088003268AA430F4D32602A68144023432B60FC
:10209800072809D80F228000824081400A4C236813
:1020A80093431943216070BD0F240838C0B28000E3
:1020B80084408140054A1368A34319431160F2E73D
:1020C8000400005008000050200000502400005078
:1020D80010B50024074A1388A34204D800231380AC
:1020E800054A137010BD054B185D0134FFF782FFD8
:1020F800A4B2EFE77A010020180100201A0100209D
:10210800F8B50F252026EFF3108472B6404B1A68F5
:10211800404B1B682A4229D0D30703D53E490B6898
:1021280001330B60930703D53C490B6801330B60FF
:10213800530703D53A490B6801330B60130703D5DE
:10214800384A1368013313600420FFF765FD364BE6
:10215800364A1D60364B1B68136801331360354AD5
:1021680013680133136084F31088CCE72B4224D022
:10217800DA0703D530490A6801320A609A0703D59D
:102188002E490A6801320A605A0703D52C490A68A1
:1021980001320A601B0703D52A4A1368013313600A
:1021A8000820FFF739FD284B204A1D60274B1B6884
:1021B800136801331360264AD2E7324214D0012053
:1021C800244A1B4B1F68136801331360224A1368A3
:1021D80001331360214A137803431370FFF71CFD82
:1021E800F8B2FFF771FDBEE733420DD0194A174B1D
:1021F80002201F68136801331360194A13680133FA
:102208001360164A1378E7E784F31088F8BDC046D0
:102218001C4800401C3801402C0A0020140A0020E9
:102228001C0A0020240A002020480040E009002061
:10223800244800400C0A0020300A0020180A002018
:10224800200A0020280A00202038014024380140B4
:10225800100A0020000A0020040A0020DA090020E1
:10226800080A0020F7B54149414A0B8812889BB2F9
:10227800934234D13F4A1378002B5ED1F7BD002C2E
:1022880005D1FFF725FF2000FFF7B4FEEBE73A4939
:102298000B88012B04D120002025A8435428F0D115
:1022A800200020385E28ECD85E2BEAD8581C08801D
:1022B8003249CA54D7E7324B1B88002BE3D1314B44
:1022C8001B78002BDFD1230020218B43412BDAD14F
:1022D8002A4B1A700122284B32701A80C3E72A4A07
:1022E8002A4DD25C0133DB05DB0D0B802B78D4B291
:1022F800002B03D000232B700A2CB4D0244E337843
:10230800002BD8D00D2C01D00A2CB8D18020002762
:10231800194B00011B880D3C0193019A174B9F54E0
:10232800FFF77AFC01991548FFF77AF8124B3770D6
:102338001F8063425C412C7095E7EFF3108372B6FF
:102348000021117083F31088114B1B788B4200D049
:1023580094E70B490B4B0A88002A03D11A78002A04
:1023680000D18BE700220A801A7087E7D80900207D
:10237800D0090020CF0700207A0100201A01002090
:10238800C0020020C2020020D0070020190100204E
:102398001801002010B5EFF3108372B60021244A0B
:1023A8001468116083F310888C4240D0E30702D58B
:1023B8002048FEF705FBA30702D51F48FEF700FBE0
:1023C800630702D51D48FEF7FBFA230702D51C4810
:1023D800FEF7F6FAE30602D51A48FEF7F1FAA30665
:1023E80002D51948FEF7ECFA630602D51748FEF73E
:1023F800E7FA230602D51648FEF7E2FAE30502D506
:102408001448FEF7DDFAA30502D51348FEF7D8FAFB
:10241800630502D51148FEF7D3FA230502D5104803
:10242800FEF7CEFAE30402D50E48FEF7C9FA10BD4E
:10243800C4020020A83C0008B73C0008C53C0008BE
:10244800D53C0008E43C0008F33C0008003D0008C7
:102458000D3D00081B3D00082A3D0008373D0008D7
:10246800423D0008523D000870B5EFF3108572B682
:102478000F4C2378DBB2002B03D185F310881800AA
:1024880070BDA0220B4E520033780B495343C91834
:1024980001F0D3F9032233780133134033702378E2
:1024A800013BDBB2237085F310880120E8E7C046C2
:1024B800CC070020CE070020CC02002037B53825F5
:1024C80006AC2488FF35AC4204D9064A13680133A8
:1024D800136037BD002C01D0002BF6D00094FFF715
:1024E80015FCF6E7E009002010B5041E04D1064AE1
:1024F80013680133136010BDFDF798FF81B2200007
:10250800FFF7C8FBF7E7C046E009002030B585B003
:1025180008AC258802ACA3700523E5702D0A21704C
:10252800627025710100009300222300FE20FFF74E
:10253800EDFB05B030BD0000EFF3108272B600234A
:102548001F490B601F490B601F490B601F490B6037
:102558001F490B601F490B601F490B601F490B6027
:102568001F490B601F490B601F490B601F490B6017
:102578001F490B601F490B601F490B601F490B6007
:102588001F490B601F490B601F490B601F490B60F7
:102598001F490B601F490B601F490B601F490B70D7
:1025A8001F490B701F490B801F490B801F490B6087
:1025B8001F490B701F490B6082F310887047C04693
:1025C800DC090020E0090020FC090020E8090020BF
:1025D800E4090020EC090020F0090020000A00208E
:1025E800040A0020080A0020F8090020F409002045
:1025F8000C0A0020100A00202C0A0020140A0020CF
:102608001C0A0020240A0020300A0020180A002092
:10261800200A0020280A0020C8020020DA09002029
:10262800C3020020D0090020D8090020D4090020C6
:10263800CF070020C40200208023474ADB0111682D
:1026480070B50B4313608023444ADB0211680124F0
:102658000B43434913600B68424A06001A40802323
:10266800DB001343404A0B601368062123431360C1
:102678000220FFF7F5FC06210320FFF7F1FCC0223A
:102688003A4D04212B68092093431A004023134331
:102698002B60FFF7E5FC0A200421FFF7E1FC2B681B
:1026A800334A20001A4080235B0313432B60002326
:1026B800304A314D2B601360304A13609E4207D078
:1026C800FEF76AF873080002C0183100FDF70AFD2A
:1026D8001F222B4B2B4C18602B4B01201A60002318
:1026E8002A4A236013602A4A13609E420CD0FEF7E0
:1026F80053F873084000C0183100FDF7F3FC254A71
:1027080003075B0F104018431F22234B1860234B0D
:102718001A600023224A1370224A1370224A137047
:10272800224A1380224A1370224A1370224A1380C5
:10273800224A1370224A1370FFF7FEFE3D232B60D6
:10274800204B012123601D20FEF75AF901211B208F
:10275800FEF756F970BDC0463410024038100240EA
:102768004C100240FFF3FFFF2C1002400C000050F9
:10277800FFFFCFFF044800400048004008480040E1
:102788000C4800400038014020480040043801400F
:1027980008380140F0FF00000C38014020380140A3
:1027A800CD070020CE070020CC070020C002002063
:1027B800C2020020DB0900207A0100201801002055
:1027C800190100203D800000014B18687047C04681
:1027D800DC090020014B18687047C046E00900205A
:1027E800014B18687047C046FC090020014B186867
:1027F8007047C046E8090020014B18687047C0467A
:10280800E4090020014B18687047C046EC09002015
:10281800014B18687047C046F0090020014B186842
:102828007047C046000A0020014B18687047C04630
:10283800040A0020014B18687047C046080A0020A7
:10284800014B18687047C046F8090020014B18680A
:102858007047C046F4090020014B18687047C0460D
:102868000C0A0020014B18687047C046100A002067
:10287800014B18687047C0462C0A0020014B1868A5
:102888007047C046140A0020014B18687047C046BC
:102898001C0A0020014B18687047C046240A002013
:1028A800014B18687047C046300A0020014B186871
:1028B8007047C046180A0020014B18687047C04688
:1028C800200A0020014B18687047C046280A0020DB
:1028D800014B18687047C046D4090020EFF31083F5
:1028E80072B60021024A1068116083F3108870479D
:1028F800C8020020EFF3108372B60021034A107853
:102908001170C0B283F310887047C046DA090020FE
:10291800002808D0EFF3108372B603490A781043F1
:10292800087083F310887047C3020020EFF3108308
:1029380072B60021034A10781170C0B283F3108870
:102948007047C046C30200201022F8B5284C2368FF
:10295800134208D027490A6027490A6801320A60E9
:102968000121264A11701A0719D120260127236848
:1029780033423CD0224A234B01201D68136801339F
:102988001360214A136801331360204A13783B43CC
:102998001370FFF741F9E8B2FFF796F9E7E7DA07AE
:1029A80003D51B490A6801320A609A0703D51949F9
:1029B8000A6801320A605A0703D517490A680132C2
:1029C8000A601B0703D5154A1368013313600420F6
:1029D800FFF722F90F22074B1A60114A094B1B68AF
:1029E8001368013313600F4A136801331360F8BD8D
:1029F8001C48004020480040E8090020CF0700207C
:102A0800000A002024480040040A0020DA090020B7
:102A18002C0A0020140A00201C0A0020240A002086
:102A2800E00900200C0A00201022F8B5284C236881
:102A3800134208D027490A6027490A6801320A6008
:102A48000121264A11701A0719D120260227236866
:102A580033423CD0224A234B02201D6813680133BD
:102A68001360214A136801331360204A13783B43EB
:102A78001370FFF7D1F8E8B2FFF726F9E7E7DA07AE
:102A880003D51B490A6801320A609A0703D5194918
:102A98000A6801320A605A0703D517490A680132E1
:102AA8000A601B0703D5154A136801331360082011
:102AB800FFF7B2F80F22074B1A60114A094B1B683F
:102AC8001368013313600F4A136801331360F8BDAC
:102AD8001C38014020380140E8090020CF070020B9
:102AE800000A002024380140080A0020DA090020E2
:102AF800300A0020180A0020200A0020280A002096
:102B0800E0090020100A0020F0B587B004901D20CD
:102B180000F00CFC04001E2000F008FC0500262034
:102B280000F004FC0590202000F000FC06002120A5
:102B380000F0FCFB270001212A092309AD08360211
:102B48000F400D400643DBB2D2B2029703950196BF
:102B5800082B50D8083B591E8B4128495B420B4033
:102B680027495B18151C0C2A00D90C25EAB2062A3D
:102B780000D20625019AEDB2002A01D1083201924D
:102B88002A00204800211E00FDF738FB012252428E
:102B9800D3170027801859413B008019794132002A
:102BA800FDF738FB049B07005800039B401B9B0064
:102BB8000730C0180523029A5B425343C0188000AF
:102BC800082300280FDD059B24071907C90F4900B2
:102BD800691A89004B1E1818FDF784FA640F04342B
:102BE80044432300083301980430C0187843BF08D1
:102BF800C01907B0F0BD044BB4E7C046B817FEFFD4
:102C080090D0030040420F0020A1070070B50400D7
:102C1800080016001D00FFF777FF02220F2C17D8B7
:102C28000C4BE400E2580C49B21A8A4203D900213D
:102C38001A19E65051601B195968084C0122641A88
:102C4800844205D3091859602A1E01D00022286041
:102C5800100070BD340A0020E7030000801A060047
:102C68000F2807D8C2000548801843688B4202D84D
:102C78000023436070475B1AFBE7C046340A002014
:102C880030B50F2813D80C4BC000C4580B4D141B7B
:102C9800AC4203D90024C2501A185460002906D047
:102CA8001B185A680648841A8C4201D2586030BDF5
:102CB80052185A60FBE7C046340A0020E7030000B8
:102CC800801A060010B5084C2378002B01D000208C
:102CD80010BDFF21122000F03BFB00F053F9002843
:102CE800F5D001232370F3E7B40A002070B50D4E28
:102CF8003378002B02D10325280070BD122000F084
:102D080015FB002504004307F6D50100122000F04A
:102D18001FFB357000F021F9A842ECD001231C40BC
:102D2800E518E9E7B40A002070B50C4D2A78131CA1
:102D3800062A00D90623DAB20A23040093409842EF
:102D480000D91C00FDF708FE054B04191C602B7800
:102D5800FF2B01D001332B7070BDC046B50A00208F
:102D6800B80A002073B56B46DE1D9D1D99710023BE
:102D78000C003370012233002900FDF7B5FF00284D
:102D880003D13378012B00D12C78200076BD0000C8
:102D9800F0B5012185B00320FFF7E4FFA621060066
:102DA8000420FFF7DFFF002302AA03ADD41CD37071
:102DB80001902B800222230029001020FDF794FFA8
:102DC800002823D12378022B20D16C782B78240279
:102DD8001C4304211120FFF7C5FF0500071E00D181
:102DE8000127FDF7BFFD00900220002E0CD0FDF753
:102DF800B3FD284E3368C21A0BD59BB280B283420A
:102E080007D0FEF7D9FD032005B0F0BDFA24640011
:102E1800DFE7002D24D0FFF755FF1F4A009B94469B
:102E280063441D00002801D10420EDE7FFF75EFF91
:102E3800022806D12000FFF777FFFEF7BDFD01202D
:102E4800E2E70328F0D0012803D0FDF78BFD401BF3
:102E5800ECD4FDF787FD451B02D400F07EF8E3E7CC
:102E680000F089F80028DFD03800FDF79FFD1B200F
:102E780000F05CFA050000F070F86B461B799D3D88
:102E88005BB22DB2AB42D5DB0020044B306018702A
:102E9800BAE7C046B80A0020204E0000B50A002054
:102EA800002301280CD00133022809D0013303285C
:102EB80006D00133042803D00538431E9841031D6A
:102EC800052043430148C0187047C046623D0008CA
:102ED80070B5041E03D1FF22164B1A7070BD8021F5
:102EE8000079154A154B890200281DD00220106070
:102EF800042219601A60FDF735FD0500FDF732FD63
:102F0800401B0928FAD9A178402000F021FAE1787D
:102F1800412000F01DFA0120617800F019FA2278AA
:102F2800044B01201A70D9E7116002221A6080222E
:102F3800D202DFE7BC0A0020180000501808005031
:102F4800014B18787047C046BC0A002010B5012014
:102F5800FFF7A6FFFFF7BCFF10BD10B50220FFF773
:102F68009FFFFFF7B5FF10BD10B50320FFF798FFCF
:102F7800FFF7AEFF10BD10B50420FFF791FFFFF774
:102F8800A7FF10BD10B5FFF7E8FF002804D0062002
:102F9800FFF786FFFFF79CFF10BD00000022064BDD
:102FA80010B51A70FFF7D2FF002804D00120FDF7F2
:102FB800FDFCFFF7D2FF10BDBC0A002070B5FFF77B
:102FC800DAFF051E0CD01E2000F0B0F904240440DE
:102FD80006D121000520FEF76BFC2500FFF7BDFF99
:102FE800280070BD10B5FFF7B8FF10BDF0B50D0093
:102FF80085B00027C30749D5B94247D0FDF7B2FCD1
:103008002B00FC339860122000F090F92026040071
:103018000640BE4206D0FEF7BFFC2100122000F099
:1030280097F933E04306F8D5132000F07FF907003D
:10303800102000F07BF90290192000F077F943B2D4
:103048001A20019300F072F9029903900D2000F004
:103058007FF9002F04D03A002900300000F08CF9E5
:10306800019A2B00D01703221040019AFF338018D1
:1030780080105F709870039BFE359D3BAB80FEF718
:1030880083FC2100122000F063F90127380005B005
:10309800F0BD000010B5FFF760FF064C2378002B49
:1030A80001D0FFF78BFF0023034A23701370034AF4
:1030B800136010BDC80A0020D20A0020CC0A0020E4
:1030C800F7B50400FFF73CFF002C02D100263000C2
:1030D800FEBD3B4B1B78002BF8D13A4A0438C0B2EE
:1030E8001370394A01280BD801331370FFF77AFFA0
:1030F800FFF74EFEFD23184208D0FFF7CBFFE5E7A8
:103108001370FFF72AFF0028F2D1DFE727002D4BC5
:10311800FF371E787B780193FDF71EFC2B4D0200CC
:103128002B0030000199FFF771FD061E04D001281D
:10313800E3D1FEF749FCE0E701000E2000F008F9B2
:1031480031000D2000F004F97978222000F000F910
:103158007A78002A03D0611C300000F027F9FF219B
:10316800122000F0F5F8FFF7FFFE061E07D1154BF9
:1031780029681878FFF774FDFFF78CFFA7E7227816
:10318800134B09201A7000F0D1F80F231840114B87
:1031980002301870104C2B682360002B03D178780C
:1031A800FFF7B2FC2060FDF7DDFB0C4A23689B1893
:1031B80018180B4B024A18600123137087E7C046A2
:1031C800D20A0020BD0A0020C80A0020CC0A00202C
:1031D800D00A0020D10A0020C40A002050C30000F1
:1031E800C00A002070B50D1E01D1002070BD244B0F
:1031F8001C78012CF9D1204223D0122000F096F837
:1032080006000100122000F0A3F8330719D50026A4
:103218001C4B6E701B782B701B4B1B78AB701B4BB9
:103228001B686B601A4B1D78FDF796FB3100020096
:103238002800FFF725FDFEF7B7FBFFF72BFF20005F
:10324800D4E7FDF78FFB134B1B68C01ACDD40124BC
:10325800FF21122000F07CF80A4B6C701B782B7051
:10326800094B1B78AB70094B1B686B60084B1D78CA
:10327800FDF772FB002102002800FFF701FDDCE7E3
:10328800D20A0020D00A0020D10A0020C40A002057
:10329800BD0A0020C00A0020024B1878431E98413E
:1032A800C0B27047D20A00200323012270B54C0037
:1032B800A3401500DB43A5408A4006681E403543FD
:1032C8000560456895430222A2404560816819401F
:1032D8000A438260C2681340C36070BD094B022173
:1032E8001A0010B51C680C42FCD00121064B18705E
:1032F80010680842FCD0802110680842FCD1187878
:10330800C0B210BD083001400C300140802310B518
:10331800054C5B0223600520FDF748FB01231420C0
:103328002360FDF743FB10BD18080050802310B53B
:10333800064C1B0623607F231840FFF7CFFF0020B1
:10334800FFF7CCFF80231B02236010BD180000503C
:10335800802370B5074C1B06236080230D0018439B
:10336800FFF7BCFF2800FFF7B9FF80231B0223608B
:1033780070BDC04618000050802370B50A4D1B066A
:103388002B607F230C0016001840FFF7A7FFA61933
:10339800B44203D180231B022B6070BD0020FFF7CD
:1033A8009DFF20700134F3E718000050802370B5AA
:1033B8000A4D1B062B6080230C0016001843FFF7EC
:1033C8008DFFA619B44203D180231B022B6070BD68
:1033D8002078FFF783FF0134F4E7C0461800005057
:1033E80010B54220FFF7A2FF10BD000010B50B4A30
:1033F8000023410BC004FCF70DFF0400010CC9B207
:103408000620FFF7A5FF210AC9B20720FFF7A0FF92
:10341800E1B20820FFF79CFF10BDC0460048E80154
:1034280010B5011C112809D91121802302395B42EA
:103438001943C9B20920FFF78BFF10BDC3B2022B95
:10344800F3D20221F1E7F423FF3370B504000D0035
:103458000920994204D8F030884280414042073020
:10346800111C082A32D908210439000149000143F6
:10347800C9B21D20FFF76CFF211C0C2C2BD90C2185
:103488000423090119431E20C9B2FFF761FF262052
:10349800FFF74CFF0A2C23D97D2D21D80C2101439D
:1034A800C9B22620FFF754FF07253120062C1CD867
:1034B800FFF73CFF0521A8430143C9B23120FFF7BC
:1034C80047FF0C213720FFF743FF70BDD2B2052A12
:1034D800CAD20521C8E7E3B2062BD1D20621CFE72D
:1034E800F7210840F3390143DBE7FFF71FFF03210A
:1034F800A8430143C9B23120FFF72AFF0A21E1E7B7
:10350800F8B50723824A8025116808200B43136009
:10351800C022804C80492368804E93432B4323600C
:103528000B687F4F83430B607E497F480B6893434A
:103538002B430B6033687D4993437D4A336013689E
:103548007C4D0B40A02113608022C9050B689201B5
:103558003B4013430B6040212B688B432B6003686F
:1035680075493B401A43754B02601A683A401A6025
:103578000A68734B1A400A60A022D2051268714B80
:103588009C461A4080231B021A43A023DB051A60BD
:1035980080232A689A432A606346802502682D02A0
:1035A8001A402A430260654802680C381A40802392
:1035B800C2600A685B01120112090A60C2680F2121
:1035C80017401F43C760604FFFF76EFE3D60002144
:1035D8005E48FFF769FE0122A0205D4D11002A60B8
:1035E800C005FFF761FE01215848FFF75DFE022183
:1035F8005648FFF759FE80239B023B6002232B604D
:103608008023DB022B602268524950480A4022601E
:103618000C2233680B40336023684F49934323607F
:103628003368934333602368093A934323603368CC
:103638009343336002680A400260484A4848136866
:103648000B401360802347495B010A681A438023B3
:103658000A600A6802681A40FCD1B820424B40014F
:103668001A60424A0F241060CB2292001A6040224E
:10367800186802431A6001230A68F0201A430A6096
:103688003B490A68A2431A430A601021394A15685F
:103698008543294311601168A1430B43136020231C
:1036A80035490A68824313430B603449344B0A682E
:1036B80034481A430A6034490A681A430A6033498D
:1036C8000A6802400A60324A032113600520FDF7A8
:1036D80097F903210720FDF793F9FFF717FEFFF786
:1036E8005DFC041E02D100242000F8BDFFF778FE1F
:1036F8000138C0B2FD28F6D82648FFF777FE052224
:10370800FA210720FFF79FFE0E20FFF789FEEBE75F
:103718002C10024000040050040400500C04005017
:10372800FFCFFFFF0804005008000050FF0FFFFF05
:103738002004005004000050200000500C000050ED
:10374800FFFFFFF0FF3FFFFF180000500008005088
:1037580018080050FFFCFFFFFFFFFFF30C080050A4
:10376800083001403410024000300140043001406C
:103778000C00014008000140140001400004014011
:1037880013200000ECDFFFFF080401400C04014097
:1037980014040140C0CA8936EFF3108372B60021C1
:1037A800024A1068116083F310887047D40A002019
:1037B80003230A490A6813400ED00B6002231A42F9
:1037C80003D00749086803430B60D30704D50423D3
:1037D800034A11680B4313607047C0461404014044
:1037E800D40A00200A490B4B0A6813400ED00B601C
:1037F800D30604D501230849086803430B609304E2
:1038080004D50823044A11680B4313607047C04667
:103818001404014010200000D40A002030B5002410
:10382800A24201D1002005E0035D651C0C5DA342A6
:1038380001D0181B30BD2C00F2E7002310B59A42C6
:1038480000D110BDCC5CC4540133F8E70300121852
:10385800934200D1704719700133F9E74641554C3E
:10386800543A52455345540D0A004541524C593A71
:1038780052455345545C725C6E005253543A53544B
:103888004152540D0A005253543A4D41494E0D0AC3
:10389800004541524C593A4D41494E5C725C6E00AC
:1038A8004D3A524144494F5F4259504153530D0AD2
:1038B8000000000001010300A90A00080E00000032
:1038C80000000000020101000000000001000000EB
:1038D80000000000030101000000000001000000DA
:1038E800000000000401020000000000A600000023
:1038F80000000000050101000000000001000000B8
:103908000000000006010100A50A000800000000F0
:10391800000000000708060000000000FF0000008B
:103928000000000008010100A50A000801000000CD
:103938000000000009010100000000000100000073
:10394800000000000A010300000000000000000061
:10395800000000000B0405020000000000100E002B
:10396800000000000C01030000000000100000002F
:10397800000000000D0204000000000064000000C8
:10398800000000000E010100A50A00080000000068
:10399800000000001002040000000000F401000014
:1039A80000000000110103000000000004000000F6
:1039B8000000000013020400000000009001000055
:1039C8000000000080010301000000000100000069
:1039D8000000000081010301000000000100000058
:1039E800000000008201010100000000000000004A
:1039F800000000002E00433A4449535041544348C4
:103A08000D0A00433A4241445F5645520D0A0043AD
:103A18003A50494E470D0A00433A5645525F4449C9
:103A280053500D0A004F53452D4C69666554726119
:103A3800634C4F52412D4D75726174614657006455
:103A48006576004641494C004154004154490020E4
:103A58000041542B5645523F00433A41545F564566
:103A6800525F444953500D0A0046573D00205645C1
:103A78005253494F4E3D00204749543D0020505273
:103A88004F544F3D0020534348454D413D0020438E
:103A980041503D30780041542B524144494F3F003A
:103AA8004552524F520D0A00524144494F3D0020A1
:103AB80056455253494F4E3D307800205354415497
:103AC800453D0041542B535441543F00484F5354F3
:103AD8005F44524F5050454400484F53545F45523D
:103AE800524F525300484F53545F51554555455F07
:103AF80046554C4C00484F53545F4952515F494416
:103B08004C4500484F53545F4952515F4854004850
:103B18004F53545F4952515F544300484F53545FC9
:103B28004952515F544500484F53545F52585F42C1
:103B38005954455300484F53545F52585F4C5055A1
:103B480041525400484F53545F52585F55534152A5
:103B5800543100484F53545F50415253455F4F4BC7
:103B680000484F53545F50415253455F45525200ED
:103B7800484F53545F554152545F4552525F4C5021
:103B88005541525400484F53545F554152545F4574
:103B980052525F55534152543100524144494F5F8C
:103BA80044494F3000524144494F5F44494F310026
:103BB800524144494F5F44494F3200524144494FB2
:103BC8005F44494F3300524144494F5F52585F4F59
:103BD8004B00524144494F5F54585F4F4B0052418C
:103BE80044494F5F4352435F455252005354415436
:103BF800450041542B48454C500041542B48454CF6
:103C0800503F004154204154492041542B564552BD
:103C18003F2041542B524144494F3F2041542B539C
:103C28005441543F2041542B48454C502041542B7B
:103C380042494E0D0A0041542B42494E004F4B2039
:103C480042494E0D0A00433A53454E445F424F4F96
:103C5800540D0A00433A53454E445F4641554C546F
:103C68000D0A00433A53454E445F52454144590DAD
:103C78000A00433A434C4B5F4853455F33324D0D7E
:103C88000A00433A434C4B5F4853495F31364D0D68
:103C98000A00433A494E49545F444F4E450D0A00C5
:103CA800483A52585F4C5055415254310D0A004819
:103CB8003A52585F5553415254310D0A00483A451B
:103CC80052525F4C5055415254310D0A00483A4502
:103CD80052525F5553415254310D0A00483A5052DE
:103CE8004F435F4652414D450D0A00483A434F4203
:103CF800535F4552520D0A00483A434F42535F4FB3
:103D080056460D0A00483A50415253455F455252B3
:103D18000D0A00483A5645525F5245515F52580DB8
:103D28000A00483A4652414D455F4F4B0D0A00483C
:103D38003A515F46554C4C0D0A00483A41545F448D
:103D4800495350415443480D0A00483A52585F526B
:103D5800494E475F4F56460D0A0001800000000299
:103D680081000000038340000104850000000586EF
:083D78000000000687A0000016
:103D80001249134B70B50C68186872B600230326ED
:103D9000104A114D1360114A1360114A1360114A01
:103DA0001360114A1360114A13602A6801331A43E1
:103DB0002A600F4D2A68B24313432B600D4B1960E4
:103DC00084F30888804730BFFDE7C0460000F01F3D
:103DD0000400F01F0044004034100240044400403E
:103DE0000844004010E000E014E000E018E000E0CB
:103DF0000000014008ED00E00122524BF0B51968C7
:103E000085B00A431A60042219681142FCD00321CC
:103E10004D4B1A688A43110001220A430C211A6093
:103E20001A680A40042AFBD1052400254749484B5B
:103E3000FA200B60474A484B15601C601C0040008C
:103E400001904F38FF38454F009002910392802037
:103E5000019B009A80029B1A414A0193AB0099583A
:103E6000404A002613680343136001233E4A10684A
:103E70000343A0201360F022C005036893431A0097
:103E8000A023134303600C20384A13688343384847
:103E900013600368374A1A408823DB011343036029
:103EA000354B3E601E60354B48081E60344BC018D1
:103EB000FCF71CF91F22334B31001860324B1A609B
:103EC0000D233B603300314E009A8A4216D80023FE
:103ED000294A3B601360294A01351360032D06D13E
:103EE000029A23601360039A136005B0F0BDA62305
:103EF0000093022DABD1019B0093A8E7802022689C
:103F000040020240501E824120208918204A126837
:103F10000242D9D01248326884469C446046007BF5
:103F2000D2B290420AD10133082BCDD10023029A9C
:103F300023601360039A1360FFF722FFA53A5342F0
:103F40005341C1E7001002400C10024014E000E0B1
:103F50007F3E000018E000E010E000E00044004078
:103F6000C4000008381002402C1002400400005029
:103F700020000050FF00FFFF0444004008440040C0
:103F80000024F4000C44004020440040244400403D
:043F90001C4400408D
:083F9400C8C2FF7F010000001C
:083F9C00010000000024F40004
:040000050800057971
:00000001FF
