:020000040800F2
:1000000000500020750500080D050008F5040008E3
:1000100000000000000000000000000000000000E0
:1000200000000000000000000000000009050008BA
:100030000000000000000000090500089D090008FC
:100040000905000809050008090500080905000858
:1000500009050008B131000809050008E53100086C
:100060000905000809050008090500080905000838
:100070000905000809050008090500080905000828
:100080000905000809050008090500080905000818
:100090000905000809050008090500080905000808
:1000A000090500080905000875240008090500086D
:1000B000B123000809050008090500080905000822
:1000C00000100E0000C2010080250000A55AA55AAC
:0400D0005AA55AA52E
:1000D40003B47146490840004900095E49008E4452
:1000E40003BC7047002243088B4274D303098B423C
:1000F4005FD3030A8B4244D3030B8B4228D3030CF4
:100104008B420DD3FF22090212BA030C8B4202D395
:100114001212090265D0030B8B4219D300E0090ABD
:10012400C30B8B4201D3CB03C01A5241830B8B42C6
:1001340001D38B03C01A5241430B8B4201D34B03AF
:10014400C01A5241030B8B4201D30B03C01A524114
:10015400C30A8B4201D3CB02C01A5241830A8B4299
:1001640001D38B02C01A5241430A8B4201D34B0282
:10017400C01A5241030A8B4201D30B02C01A5241E6
:10018400CDD2C3098B4201D3CB01C01A524183099A
:100194008B4201D38B01C01A524143098B4201D3D4
:1001A4004B01C01A524103098B4201D30B01C01AFF
:1001B4005241C3088B4201D3CB00C01A5241830879
:1001C4008B4201D38B00C01A524143088B4201D3A6
:1001D4004B00C01A5241411A00D201465241104606
:1001E4007047FFE701B5002000F006F802BDC046E5
:1001F4000029F7D076E770477047C0469140031C4A
:1002040090409C46203A9340194352426346D3405F
:1002140019437047002B11D1002A0FD1002900D1B6
:10022400002802D00021C943081C07B4024802A1D7
:100234004018029003BDC046C1FFFFFF03B46846E7
:1002440001B5029800F006F8019B9E4602B00CBC72
:100254007047C046F0B54F464646D646C0B5040082
:1002640082B00D00914698468B422FD82CD041463F
:10027400484600F0B1F829000600200000F0ACF870
:10028400331A9C46203B9A4600D576E04B465246AC
:1002940093401F004B46624693401E00AF4228D84D
:1002A40025D05346A41BBD41002B00DA7BE000227D
:1002B40000230092019301235246934001930123AA
:1002C40062469340009318E08242D0D90022002372
:1002D400009201930A9B002B01D01C605D60009882
:1002E400019902B01CBC90469946A246F0BDA342B7
:1002F400D7D900220023009201936346002BE9D052
:10030400FB079846414672080A437B0866460EE09E
:10031400AB4201D1A2420CD8A41A9D410120241958
:100324006D410021013E24184D41002E06D0AB4200
:10033400EED9013E24196D41002EF8D1009801999F
:10034400534600196941002B23DB2B005246D3404E
:100354002A006446E2401C0053461500002B2DDBA6
:1003640026005746BE40330026006746BE40320092
:10037400801A994100900191ACE7624620239B1AB0
:100384004A46DA406146130042468A4017001F433A
:1003940080E7624620239B1A2A0066469A4023007F
:1003A400F3401343D4E76246202300219B1A002222
:1003B400009101920122DA40019280E720236246F3
:1003C40026009B1ADE402F00B0466646B7404646DC
:1003D4003B003343C8E7C04610B5002903D100F001
:1003E40007F8203002E0081C00F002F810BDC046F7
:1003F4001C2101231B04984201D3000C10391B0A51
:10040400984201D3000A08391B09984201D3000914
:10041400043902A2105C40187047C046040302026B
:100424000101010100000000000000000023C25C83
:100434000133002AFBD1581E704700000123184ADB
:1004440011680B4313608023164ADB0211680B43C7
:10045400154913600B68154A1A4080231B01134386
:100464000B60A021F022C9050B6893431A00A02356
:1004740013430B600E490F4A0B681A40CC23DB016F
:1004840013430B6000230C4A0C4913600B600C49A6
:100494000B600C4B0C491960092313607047C0466C
:1004A4002C100240381002404C100240FFF3FFFFB2
:1004B40020000050FF00FFFF0048004004480040B7
:1004C400084800400C48004055410300802130B5E5
:1004D400054A064C0378002B00D130BD0130156865
:1004E4000D42FCD02360F5E71C480040284800403A
:1004F400042172460A4202D1EFF3088001E0EFF3CF
:10050400098015E030BFFDE707B5FFF797FF0748FF
:1005140000F0DCF900210220019100910B000A0097
:1005240000F00AFA00F000FA30BFFDE75C32000880
:1005340073B5002813D046698569C469FFF77EFF47
:10054400094800F0C3F90021330001912A00012079
:10055400009400F0F1F900F0E7F930BFFDE7040082
:1005640006000500EAE7C0465C3200087047000058
:1005740080221F4B5200196870B50A431A6080220A
:10058400D20019681142FCD003211A4B1A688A431D
:10059400110001220A430C211A601A680A40042A35
:1005A400FBD1FFF74BFF1448FFF790FF134800F00F
:1005B4008DF9002312481349134C1A188A4210D398
:1005C4000021124B124A93420FD3124800F07EF9D5
:1005D4001148FFF77BFFFFF7C9FF00F01FF830BF9A
:1005E400FDE7E55804331560E7E702C3EBE7C046CF
:1005F400001002400C1002406A3200087A320008EF
:1006040000000020080000207439000820000020A9
:10061400B0080020863200089132000810B5324C30
:10062400A54400F069F803F0CFF800F0A1F800F059
:10063400FFF8E120000301F083FD2C4801F0FCFCED
:1006440002F076FC011E0BD1032001F06FF828485C
:1006540001F0F2FC00240AE044A800F09BFC20E036
:1006640002F0C4F9041EF2D0224801F0E5FC02F0C5
:10067400CFFB0100200000F051FC00F0D3F800286B
:1006840005D000F0CFF80100082001F04FF801F088
:1006940091FC01F071FE002803D00021062001F036
:1006A40045F844A801F088FC0028D5D102F072FD79
:1006B400040001F00DF86946200002F0ABFA0028AE
:1006C40002D0684601F017F802F0FEFA002808D1BB
:1006D40002A9200002F0A2F9002802D002A801F029
:1006E40033F830BFD3E7C046B0FDFFFFA0320008A7
:1006F400F3320008CB32000810B513480378002BFE
:1007040020D1124903330A68940012D4013B5400E7
:100714000FD40233D4000CD40233540109D4013B66
:10072400140106D40233940103D40133D40100D458
:10073400D30F074A137080230A681B0413430B600A
:100744000123037010BDC046210000207410024034
:100754002000002010B5044B1B78002B01D1FFF7BB
:10076400CBFF024B187810BD210000202000002090
:10077400A022244BD202196810B50A4380218902B1
:1007840008001A60204A1C680C4202D1013A002A6F
:10079400F9D11A68024217D003201C4A1168814318
:1007A4000800022101430C2011601168014008294E
:1007B400FBD11A6816490A401A60164B164A1A6089
:1007C4000022164B1A7010BD8022196852000A4389
:1007D4001A608022D20019681142FCD003210B4B0D
:1007E4001A688A43110001220A430C211A601A680C
:1007F4000A40042AFBD1074B094A1A60074B01221D
:10080400E0E7C0460010024001350C000C10024025
:10081400FFFEFFFF040000200048E8010000002064
:100824000024F400014B18787047C04600000020F3
:10083400FA21084B10B518688900FFF753FC002211
:10084400054B01381860054B1A60054B07321A60D6
:1008540010BDC0460400002014E000E018E000E0F1
:1008640010E000E0014B18687047C04624000020E7
:1008740070B50C4B0C481D68026819688D42FAD19A
:100884000A4B0B491C680B4B01341868A41AFFF778
:1008940029FC01002000FFF725FCFA239B006B4391
:1008A400C01870BD2400002018E000E014E000E04F
:1008B40040420F0004000020034A116813685B1AC9
:1008C4008342FBD37047C0462400002030B5002883
:1008D4000FD009220A4B1B681340934209D180218F
:1008E400084B094C0278002A04D14032196811429D
:1008F400FCD030BD1D680D42FCD001302260F1E710
:10090400004800401C48004028480040044B0901AE
:10091400C318C9B2197001238340024A1360704797
:1009240000E400E000E100E0014B024A1A60FEE747
:100934000CED00E00400FA0530B5074C074D2560C6
:10094400207161710021E180A260E360039B236157
:10095400049B636130BDC04608000020EC5D07FACB
:1009640010B5021E13D00A4B0A491C6800208C42A1
:100974000DD1197911705979517099685160D968FC
:1009840091601969D160596918601161013010BD15
:1009940008000020EC5D07FA024A13680133136073
:1009A4007047C046240000200420704710B502237D
:1009B400012903D1007802F04BFA0023180010BD7E
:1009C400F8B501260A20134D704333015919124B0F
:1009D4000F00C2181400103F3F780A3C0F392770EB
:1009E400083B0F781C18093A1770002108222000D0
:1009F40002F02AFC290033010839C9183A00200002
:100A0400013602F018FC152EDCD10022034B1A70BB
:100A1400F8BDC0461C33000829000020280000202F
:100A2400F0B5002589B00290039117000021082237
:100A340004A802F009FC0822002106A802F004FC24
:100A4400664A2B019B1819780298814200D197E0DD
:100A54000135142DF5D10124200009B0F0BD04ABFB
:100A64001B78012B22D8022304AA13700A276F4390
:100A74005B4B0237FF183200390006A802F0DBFB9B
:100A8400320004A9380002F0D6FB544B2D015B1947
:100A94005B68002B5DD0310038009847041E58D0A5
:100AA400320006A9380002F0C6FBD5E7112BDDD9C8
:100AB4001123D9E704AB1B78012BD7D90324CBE747
:100AC40004AB1B7803247833DBB2782BCED9C3E78D
:100AD40004AB1B78072BC9D9F0E79622049B92013B
:100AE4009342C3D0E12252029342BFD0E1221203C7
:100AF4009342BBD0E2E704AB1B78013B3F2BB5D953
:100B0400DCE704AB5A781B7812021343354A323BB4
:100B14009BB203249342A9D99EE704AB5A781B786D
:100B2400120213430A3B304AF2E704AB1B78013B41
:100B3400092B9BD9C2E704AB5A781B7812021343E2
:100B4400323B2A4AE4E7049B059A032413438DD1DC
:100B540082E7274C2378002B0BD129001F4B083147
:100B640059183200380002F057FB002801D0012345
:100B74002370019B00249B0700D46DE705346BE7C9
:100B8400DA7806240192D20700D565E75E7802245C
:100B9400BE4200D060E7039B002B00D15CE73A0023
:100BA400190004A802F047FB02980138122800D962
:100BB4005CE7FFF78DFA54FF7FFF7FFF85FF7FFF20
:100BC4007FFFC8FF7FFF7FFF8DFF92FFA0FFA6FF7F
:100BD4007FFF5BFFB2FFBAFF5BFFC0FF1C3300085F
:100BE40029000020561300007E1300009E07000019
:100BF40028000020F8B50E0000271C00144B390112
:100C0400C9180D78854210D00137142FF7D101236C
:100C14001800F8BD0A2179430E4B0231C9182A0085
:100C2400300002F008FB25700FE00223002EEFD005
:100C34000223002CECD04D789542E9D88228E9D1E2
:100C4400054B1B783370012323700023E0E7C04673
:100C54001C330008290000202800002070B505007E
:100C640004A80678059C181E0BD0201E09D000206D
:100C7400032E06D9D8701D7059709A700423013060
:100C8400237070BDF0B5050005A80778069E081E00
:100C940011D0181E0FD0301E0DD00020082A0AD8FB
:100CA400941CE4B2BC4206D81D705A70C5B2AA4264
:100CB40002D801203470F0BD0F5C1D18AF700130F4
:100CC400F4E710B504004218537890781B0200042E
:100CD4001843635C1843D3781B06184310BD0B0AF2
:100CE400017043700B0C090E8370C170704770B5AE
:100CF400C288C4B00400012A09D8022302784178CA
:100D040080880093013301F0A9F944B070BD0C262A
:100D1400037A03AD2B70437AFF366E44737002334B
:100D24009A4205D002784178808800930323EAE749
:100D340001F0CAFF002806D00023227800936178CE
:100D4400A0880733DFE77278002A05D021000D2040
:100D54000A31684402F06FFA280001F0C9FE031E4C
:100D6400D3D1009322786178A0880833CBE70000C0
:100D740010B5024801F060F910BDC04619370008EB
:100D840070B5094C200001F057F9084D280001F016
:100D940053F9200001F050F9280001F04DF920002A
:100DA40001F04AF970BDC046E93500085C3400081A
:100DB4000F2307B5034001A8092B06D8303303706D
:100DC4000023437001F038F907BD3733F7E730B536
:100DD400040089B002AD18220021280002F034FA80
:100DE400237861682B70637803A86B70FFF777FF33
:100DF400A16804A8FFF773FFE16805A8FFF76FFF78
:100E0400216906A8FFF76BFFFFF72CFD010007A877
:100E1400FFF765FF0022182311000093F1202B0037
:100E240001F0F4F809B030BDF0B5060000250A273A
:100E340085B0ECB2002E02D00A2D04D12C00002C77
:100E440010D105B0F0BD30003900FFF7D1F96B4681
:100E540030310433595530003900FFF743F9013577
:100E64000600E6E76A46013CE4B201AB1B5D684656
:100E740013700023537001F0DFF8E0E7F0B50500CC
:100E84000027BBB28B4210D2EC5D202C17D0092C6A
:100E940015D04C1E2C192678202E01D0092E04D1F1
:100EA400013989B2013C8B42F5D30026ED19945DDA
:100EB400002C06D15B1A58425841C0B2F0BD01372C
:100EC400DFE78B4211D2A85D0700613F192F01D8DB
:100ED4002038C0B22700613F192F01D8203CE4B26A
:100EE400013301369BB28442E1D00020E6E70000E2
:100EF40010B50C0001F0A0F8064801F09DF8002C94
:100F040003D1054801F098F810BD2000FFF78CFFCD
:100F1400FAE7C046D2340008E935000870B51A4E25
:100F24001A4D8AB029703070FFF74AFD00F040FC7A
:100F3400FFF710FC337805AC63702B782070A37036
:100F44000123E3702371FFF76DFC06230022607117
:100F540011000093F020230001F058F82000FFF75F
:100F6400FFFC002802D02000FFF731FF084B0022CD
:100F740003937F230493773B0093110003ABF22088
:100F840001F044F80AB070BDF1000020F200002026
:100F940001010101F0B504009FB0002800D18FE0E9
:100FA40002784578012A04D001238088009329001F
:100FB4003BE0202D00D1DEE014D8022D00D181E0E9
:100FC40008D8002D34D0012D3CD0A08800950223F0
:100FD4000122ECE7032D00D18CE0102DF5D1FFF7B1
:100FE40086FE6DE0312D00D19DE00BD8212D00D17E
:100FF40006E1302DE9D1C388012B00D186E0A08819
:101004000092C6E0402D00D177E0412DDDD1602172
:1010140006A800F041FC0300A088002B00D06FE07C
:1010240060332278617800935D3B01F017F847E064
:10103400030082788188C08808330090280000F07B
:10104400E5FF3DE08F48FFF741FC042001F0A0F9E3
:101054008D48FFF7EBF9C5B28C48FFF7E7F92F1C71
:10106400C0B2282D00D92827FFB2031C102800D9AC
:101074001023DAB20392022206ADFF320692002652
:10108400AB717F233A002B726F717F490C372E713D
:101094006E72AE72EE7209A8EE7102F0CCF8E81925
:1010A400039A7A4902F0C7F8039B8120FF18A188AC
:1010B40000972B00320000F0A9FF082001F068F926
:1010C4001FB0F0BD724B06A81968724B1E68724BB4
:1010D4001D68FFF704FE310007A8FFF700FE290092
:1010E40008A8FFF7FCFD0C23A1880093002206AB9F
:1010F4008220A4E7FFF718FCE2E700F059FBDFE7E2
:101104000093010006AB0022C12098E7007A06ADE7
:10111400287001F023FE02236870A1880093002246
:101124002B00B0208BE7C388022B04D00223A088B5
:10113400009301333BE7037A1E2B10D81D2B02D2F8
:101144009A1F032A11D81800617A01F019FE0222AD
:10115400230000920833A1880022B1206FE7312BCD
:10116400F1D0372BEFD0262BEDD00093A0880823A5
:101174000122312159E70A2702ABFF1800233B70F3
:10118400C0880128D2D9637A991C884203D0A088E8
:10119400009103230BE72100257A1A000A31280065
:1011A400FFF73EFC061E03D0031FDBB2012B09D858
:1011B4003B00082206A92800FFF71CFD002801D0E7
:1011C40000233B703A780B2702ABFF18042305A9D0
:1011D400009301970B0028003100FFF73FFD030047
:1011E400A088002B05D10433009322786178013B59
:1011F4001BE73B78009305AB01000022A0201EE70B
:101204000B2602ABF61800233370C388012B00D0E1
:10121400F5E61221077A02A80918330008223800DB
:10122400FFF7E8FC05AD01000A2300280ED0009367
:10123400019506AB00223800FFF710FD0300A088DB
:10124400002BD0D02B78009306ABD5E7122102A84F
:10125400327809180093019506AB3800FFF712FDA8
:101264000300A088002B06D1337822780233009340
:1012740061780323D9E62B7801000093002206ABA2
:10128400A120DCE65E3400086B34000885340008D5
:101294005000F81F5400F81F5800F81F70B50400E0
:1012A40098B00D00002806D0D54AFFF7E7FD0028C6
:1012B40003D0FFF75DFD18B070BDD24A29002000AD
:1012C400FFF7DCFD00280FD0CF4800F0B5FECF4C6F
:1012D400200000F0B1FEFFF753FD200000F0ACFE4B
:1012E400CB4800F0A9FE36E0CA4A29002000FFF7E7
:1012F400C5FD002833D0C848FFF7E8FA102001F0F4
:1013040047F8C64800F098FEBF4800F095FEC44870
:1013140000F092FEFFF734FDC24800F08DFEBC4899
:1013240000F08AFEC04800F087FE0120FFF77CFD34
:10133400BE4800F081FE0120FFF776FDBC4800F0B6
:101344007BFE1C247F252800E040043CC0B2FFF74C
:101354002FFD231DF7D1B74800F06EFEA9E7B64A6A
:1013640029002000FFF78AFD061E2BD06021684665
:1013740000F092FA602801D0B0483DE1B04800F096
:101384005BFEB04BB0481B78002B00D1AF4800F097
:1013940053FEAF4800F050FEAE4B1C782009FFF717
:1013A40007FD2000FFF704FDAB4800F045FE402197
:1013B4006846FFF786FC002801D1A84891E7FFF7AB
:1013C40033FDC8E7A64A29002000FFF757FD00288F
:1013D40000D1F8E06021684600F05EFA6028CBD1C5
:1013E40031006846FFF76DFC01009E48FFF780FD61
:1013F400864C200000F020FE04216846FFF761FCC3
:1014040001009948FFF774FD200000F015FE082143
:101414006846FFF756FC01009448FFF769FD854DC7
:10142400280000F009FE0C216846FFF74AFC010081
:101434008F48FFF75DFD200000F0FEFD1021684697
:10144400FFF73FFC01008B48FFF752FD200000F03E
:10145400F3FD14216846FFF734FC01008648FFF7CA
:1014640047FD200000F0E8FD18216846FFF729FC3D
:1014740001008248FFF73CFD280000F0DDFD442117
:101484006846FFF71EFC01007D48FFF731FD200090
:1014940000F0D2FD48216846FFF713FC01007948AB
:1014A400FFF726FD200000F0C7FD4C216846FFF73A
:1014B40008FC01007448FFF71BFD280000F0BCFD88
:1014C40050216846FFF7FDFB01007048FFF710FD4F
:1014D400200000F0B1FD54216846FFF7F2FB010043
:1014E4006B48FFF705FD200000F0A6FD5821684673
:1014F400FFF7E7FB01006748FFF7FAFC200000F064
:101504009BFD5C216846FFF7DCFB01006248FFF7A6
:10151400EFFC280000F090FD1C216846FFF7D1FB8A
:1015240001005E48FFF7E4FC200000F085FD202167
:101534006846FFF7C6FB01005948FFF7D9FC2000B5
:1015440000F07AFD24216846FFF7BBFB01005548F3
:10155400FFF7CEFC200000F06FFD28216846FFF75E
:10156400B0FB01005048FFF7C3FC280000F064FD05
:1015740030216846FFF7A5FB01004C48FFF7B8FC93
:10158400200000F059FD34216846FFF79AFB010062
:101594004748FFF7ADFC200000F04EFD2C216846C3
:1015A400FFF78FFB01004348FFF7A2FC200000F087
:1015B40043FD40216846FFF784FB01003E48FFF7E6
:1015C40097FC2800C8E63D4A29002000FFF756FC96
:1015D400002806D13A4A29002000FFF74FFC0028D2
:1015E40001D03848B8E6384A29002000FFF746FC05
:1015F400002800D1C0E6354800F01EFD5BE6C04679
:101604008E340008913400086B34000895340008C7
:1016140085340008973400089F340008AF3400086C
:10162400B3340008BD340008C3340008CB340008C8
:10163400D4340008C5360008DC340008E634000859
:10164400EE340008F1000020A435000889340008B5
:10165400F5340008F200002001350008E9350008DF
:1016640009350008123500081F3500082B3500081D
:101674003B35000849350008553500086135000838
:101684006D3500087B3500088A3500089935000857
:10169400A7350008B6350008CB350008E03500084A
:1016A400EB350008F6350008013600080C36000852
:1016B4001836000824360008323600083836000888
:1016C40040360008493600087C3600088336000896
:1016D4001FB5040000F0BEF8002C0BD0210003A8B5
:1016E400FFF7FDFA042300220093110003ABC0208E
:1016F40000F08CFC1FBD30B5040085B0002813D069
:10170400037802AD2B70437841680A2068446B70FB
:10171400FFF7E5FAA3780022AB71072311000093C9
:1017240090202B0000F072FC05B030BD7FB5002284
:1017340001AB18701800597002920392049205923A
:10174400FFF745FB07B000BD70B50500C4B0002825
:1017540024D00600FF36737802AC2370B37863702C
:101764000300FE3304229B5EA3709BB21B0AE3704A
:101774000300FC33996803A8FFF7B1FA7278002AD2
:1017840003D0290004A801F056FD0022737811004B
:10179400083300939120230000F038FC44B070BD5E
:1017A4000B0A017043700B0C090E8370C1707047F3
:1017B40000230B4A10B513600A4A13600A4A1360E7
:1017C4000A4A13600A4A13600A4A13600A4A1360F9
:1017D4000A4A13600A4A136000F056FC10BDC04662
:1017E400F8000020FC00002000010020040100207B
:1017F400F400002008010020140100201001002042
:101804000C010020024A1368013313607047C0467C
:1018140008010020024A1368013313607047C04670
:10182400F4000020024A1368013313607047C04675
:1018340014010020024A1368013313607047C04644
:1018440010010020024A1368013313607047C04638
:101854000C010020C30703D50B4A1368013313603E
:10186400830703D5094A136801331360430703D57B
:10187400074A136801331360030703D5054A136845
:10188400013313607047C046F8000020FC000020BC
:10189400000100200401002010B5041E00D1A6E0C0
:1018A40000205F2900D8A2E060220100200001F09E
:1018B400CBFC00F00DFD01002000FFF771FF00F0EC
:1018C4000DFD0100201DFFF76BFF00F00DFD010071
:1018D40020000830FFF764FF00F00CFD0100200039
:1018E4000C30FFF75DFF00F00BFD0100200010300D
:1018F400FFF756FF00F00AFD010020001430FFF747
:101904004FFF00F009FD010020001830FFF748FFE9
:101914002000374B1C301968FFF742FF2000354B7D
:1019240020301968FFF73CFF2000334B243019683E
:10193400FFF736FF2000314B28301968FFF730FFDE
:1019440020002F4B2C301968FFF72AFF20002D4B65
:1019540030301968FFF724FF20002B4B343019680E
:10196400FFF71EFF2000294B38301968FFF718FFD6
:101974002000274B3C301968FFF712FF00F0F8FFF6
:10198400010020004030FFF70BFF00F0CBFC01000A
:1019940020004430FFF704FF00F0CAFC01002000DF
:1019A4004830FFF7FDFE00F0C9FC010020004C3078
:1019B400FFF7F6FE00F0C8FC010020005030FFF7EE
:1019C400EFFE00F0C7FC010020005430FFF7E8FEF2
:1019D40000F0C6FC010020005830FFF7E1FE00F0E3
:1019E400C5FC010020005C30FFF7DAFE602010BD6A
:1019F400F8000020FC000020000100200401002069
:101A0400F40000200801002014010020100100202F
:101A14000C010020064B1B681B0601D5054B186002
:101A2400054B1B681B0601D5044B18607047C04664
:101A34001C480040284800401C3801402838014018
:101A4400F0B50022082504000A4E0B4893B28B42DD
:101A540000D3F0BDA35C1B0258402B0007B240002A
:101A640080B2002F00DA7040013BDBB2002BF5D1CD
:101A74000132EBE721100000FFFF0000802307493B
:101A84000A681A42FCD0064B0649186080230A688B
:101A94001A42FCD0044B18607047C0461C480040F2
:101AA400284800401C3801402838014070B5040023
:101AB4004518AC420AD1402307490A681A42FCD0AF
:101AC400402306490A681A42FCD070BD2078FFF70B
:101AD400D5FF0134EDE7C0461C4800401C380140E6
:101AE400F0B5674C674BA544002422001888904247
:101AF40017D823003822093BFF329BB2934248D9BE
:101B04006148FEF7E3FE614A136801331360604ADB
:101B140013680133136002235E4A11780B43137078
:101B240092E05D4B511C9D5C89B2002D00D1A5E073
:101B34006E1EF3B202AE0A0001932300A419002121
:101B44002600554FD719019CA14212D1FF2D0ED06A
:101B540090420CD94021FF318B4200D98EE0A2ACD7
:101B6400591CE3184D4C1B1900241C708BB21C002B
:101B7400BDE7904200D181E04024FF34A34200D964
:101B84007CE07C5C01320133745492B29BB201312B
:101B9400D9E702AB9D795B792D021D439542AFD8FD
:101BA4002B0009339BB29C42AAD1A11E89B202A880
:101BB400FFF746FFA2AB3A4A1B193A499A18127822
:101BC4005B181B7812021343834299D102AB1B7832
:101BD40052AC237002AB5B78E580637002AB9B78F8
:101BE400A37002AB1A79DB7812021343A380002D91
:101BF40005D002AB2A00D91D54A801F01CFB65785E
:101C0400012D06D12848FEF761FE224B1A781543B0
:101C14001D702648FEF75AFE254A136801331360E7
:101C2400EFF3108672B6234D2B78032B10D9224A7A
:101C3400136801331360214A13680133136086F378
:101C440010881F48FEF742FEA3239B009D44F0BD6D
:101C5400A0221C4F52003B781B4853432100C0185C
:101C640001F0E9FA03223B78013313403B702B78EF
:101C74000133DBB22B7086F31088E5E7134840E7A5
:101C840074FDFFFFC0020020F4360008D4070020D2
:101C9400E8070020C30200207C01002080FDFFFF34
:101CA4007FFDFFFF7EFDFFFF0237000811370008AC
:101CB400EC070020C8070020F0070020D007002010
:101CC4001E370008C9070020C80200202937000871
:101CD40070B5164D2E78002E05D0002802D1144B75
:101CE4002870188070BD124C2388002809D1002B5D
:101CF40004D01048FEF7EAFDFFF7F2FE002323802C
:101D0400F0E7A122520093420AD90B48FEF7DEFD08
:101D140001230A4A2B701368268001331360E1E71C
:101D24005A1C2280064AD054DCE7C046C202002076
:101D3400C0020020C8360008D7360008D4070020A7
:101D44007C010020F0B53E4CA544AAAC26880124B1
:101D540003ADAA70E970320A090A2C7068702971FF
:101D64006E71AA710634002E0AD0002B08D00B2005
:101D7400190002AB3200C01801F05DFA3619B4B292
:101D840021002800FFF75CFE03AB1855A31C9BB28F
:101D94000134A4B2000A019303AB185501220020B8
:101DA40014000300019E81B28E4212D8A4A9CB185C
:101DB400453BFF3B1A700020FFF760FE53A821004B
:101DC400FFF774FE0020FFF759FEA5239B009D44F6
:101DD400F0BD295C8C4600290FD1A4A9CB18453B42
:101DE400FF3B1A70A1235B009C4224D823000122EC
:101DF400611C89B201300C00D4E7A12149008C4256
:101E040019D86746A4AE3619453E0132611CFF3E1F
:101E1400D2B289B23770FF2AECD1A4AEF318453B95
:101E2400FF3B1A704423FF33994204D002340B0061
:101E3400FE3AA1B2DEE7034A136801331360C4E734
:101E44006CFDFFFFD407002070B503244600B440A6
:101E54000223A025E443B340ED052A68124E224034
:101E64001A432A60012585403268AA430F4D326027
:101E74002A68144023432B60072809D80F228000C6
:101E8400824081400A4C236893431943216070BD0A
:101E94000F240838C0B2800084408140054A13688A
:101EA400A34319431160F2E70400005008000050F6
:101EB400200000502400005010B50024074A138865
:101EC400A34204D800231380054A137010BD054BA8
:101ED400185D0134FFF7FCFEA4B2EFE77A0100209D
:101EE400180100201A010020F8B52B4B04001B78C0
:101EF400002B17D1294F3B78002B19D1284B1B8875
:101F0400002B31D1274B1B78002B2DD122002033FD
:101F14009A43412A28D1244B244A1C70012313805C
:101F24003B7004E000231C4A13700A28E2D1F8BD78
:101F34000D2C01D00A2C13D100251C4E1A4A3388CB
:101F44000D3CD55463425C411948FEF7BFFC31880F
:101F54001548FFF7A3F9104B35803D701C70E6E778
:101F6400002C05D1FFF7A8FF2000FFF7B1FEDEE744
:101F74000E4A1388012B04D12021200088435428C1
:101F8400F0D1210020395E29ECD85E2BEAD8591C07
:101F94001180054AD454CAE7190100201801002011
:101FA400C0020020C20200201A0100207A01002091
:101FB400E43600087047000070B5EFF3108572B680
:101FC4000F4C2378DBB2002B03D185F31088180063
:101FD40070BDA0220B4E520033780B495343C918ED
:101FE40001F029F903223378013313403370237845
:101FF400013BDBB2237085F310880120E8E7C0467B
:10200400C8070020CA070020C802002037B53825B9
:1020140006AC2488FF35AC4204D9064A1368013360
:10202400136037BD002C01D0002BF6D00094FFF7CD
:1020340089FEF6E7D407002010B5041E04D1064A31
:1020440013680133136010BDFEF7F0F981B220006C
:10205400FFF72CFDF7E7C046D407002030B585B064
:1020640008AC258802ACA3700523E5702D0A217005
:10207400627025710100009300222300FE20FFF707
:1020840061FE05B030BD0000EFF3108272B600238C
:1020940016490B6016490B6016490B6016490B6014
:1020A40016490B6016490B6016490B6016490B6004
:1020B40016490B6016490B6016490B6016490B60F4
:1020C40016490B6016490B6016490B6016490B70D4
:1020D40016490B7016490B7016490B7016490B7094
:1020E40016490B7082F310887047C046D007002051
:1020F400D4070020F0070020DC070020D8070020C8
:10210400E0070020E4070020F4070020F80700207F
:10211400FC070020EC070020E8070020000800204E
:1021240004080020C4020020CB070020C3020020C2
:102134000A0800200B0800200808002009080020D5
:102144008023454ADB01116870B50B43136080237B
:10215400424ADB02116801240B43414913600B68B6
:10216400404A06001A4080231B0113433E4A0B6079
:1021740013680621234313600220FFF765FE06213E
:102184000320FFF761FEC022384D04212B6809208B
:1021940093431A00402313432B60FFF755FE0A2094
:1021A4000421FFF751FE2B68314A20001A40802396
:1021B4005B0313432B6000232E4A2F4D2B601360C7
:1021C4002E4A13609E4205D02D4B7008C018310072
:1021D400FDF788FF1F222B4B2B4C18602B4B012043
:1021E4001A6000232A4A236013602A4A13609E421D
:1021F4000AD0294B7008C0183100FDF773FF274A35
:1022040003075B0F104018431F22254B1860254B12
:102214001A600023244A1370244A1370244A13704A
:10222400244A1380244A1370244A1370244A1380C6
:10223400244A1370244A1370FFF726FF3D232B60B2
:10224400224B012123601C20FEF760FB01211A2090
:10225400FEF75CFB70BDC0463410024038100240EB
:102264004C100240FFF3FFFF2C1002400C00005002
:10227400FFFFCFFF044800400048004008480040EA
:10228400000024F40C48004000380140204800407D
:1022940004380140083801400048E801F0FF00001C
:1022A4000C38014020380140C9070020CA0700202B
:1022B400C8070020C0020020C2020020CC07002072
:1022C4007A01002018010020190100203D8000003F
:1022D400014B18687047C046D0070020014B1868AE
:1022E4007047C046D4070020014B18687047C046A9
:1022F400F0070020014B18687047C046DC07002037
:10230400014B18687047C046D8070020014B186875
:102314007047C046E0070020014B18687047C0466C
:10232400E4070020014B18687047C046F4070020FA
:10233400014B18687047C046F8070020014B186825
:102344007047C046FC070020014B18687047C04620
:10235400EC070020014B18687047C046E8070020CE
:10236400014B18687047C04600080020014B1868EC
:102374007047C04604080020EFF3108372B60021B2
:10238400024A1068116083F310887047C402002069
:10239400002808D0EFF3108372B603490A7810437B
:1023A400087083F310887047C3020020F8B5102327
:1023B400224C26681E4205D0214A1360214A136824
:1023C40001331360012720222368134218D13307F5
:1023D40015D01D4B1A78002A04D101321B481A70FB
:1023E400FEF774FA0F22164B1A60194A194B1B6830
:1023F400136801331360184A136801331360F8BD7E
:10240400144B1D68154BEDB21A78002A03D11448F9
:102414001F70FEF75BFA134A280013680133136038
:10242400114A136801331360104A13783B43137045
:10243400FFF7F0FA2800FFF757FDC4E71C480040F7
:1024440020480040DC070020080800209B360008D4
:10245400D407002024480040000800200A08002077
:102464008C360008F4070020F8070020CB07002072
:10247400F8B51023234C26681E4205D0224A136067
:10248400224A136801331360012720222368134270
:1024940018D1330715D01E4B1A78002A04D1013203
:1024A4001C481A70FEF712FA0F22174B1A601A4AC8
:1024B4001A4B1B68136801331360194A13680133FC
:1024C4001360F8BD154B1D68164BEDB21A78002A3F
:1024D40003D115481F70FEF7F9F9144A2800136850
:1024E40001331360124A1368013313600223114A43
:1024F40011780B431370FFF78DFA2800FFF7F4FCF3
:10250400C3E7C0461C38014020380140DC070020E6
:1025140009080020B9360008D407002024380140F7
:10252400040800200B080020AB360008F407002044
:10253400FC070020CB070020F0B587B004901D20D5
:1025440000F00CFC04001E2000F008FC050026200E
:1025540000F004FC0590202000F000FC060021207F
:1025640000F0FCFB270001212A092309AD083602EB
:102574000F400D400643DBB2D2B202970395019699
:10258400082B50D8083B591E8B4128495B420B400D
:1025940027495B18151C0C2A00D90C25EAB2062A17
:1025A40000D20625019AEDB2002A01D10832019227
:1025B4002A00204800211E00FDF720FE012252427D
:1025C400D3170027801859413B0080197941320004
:1025D400FDF720FE049B07005800039B401B9B0053
:1025E4000730C0180523029A5B425343C018800089
:1025F400082300280FDD059B24071907C90F49008C
:10260400691A89004B1E1818FDF76CFD640F043419
:1026140044432300083301980430C0187843BF08AA
:10262400C01907B0F0BD044BB4E7C046B817FEFFAD
:1026340090D0030040420F0020A1070070B50400B1
:10264400080016001D00FFF777FF02220F2C17D891
:102654000C4BE400E2580C49B21A8A4203D9002117
:102664001A19E65051601B195968084C0122641A62
:10267400844205D3091859602A1E01D0002228601B
:10268400100070BD0C080020E7030000801A06004B
:102694000F2807D8C2000548801843688B4202D827
:1026A4000023436070475B1AFBE7C0460C08002018
:1026B40030B50F2813D80C4BC000C4580B4D141B55
:1026C400AC4203D90024C2501A185460002906D021
:1026D4001B185A680648841A8C4201D2586030BDCF
:1026E40052185A60FBE7C0460C080020E7030000BC
:1026F400801A060010B5084C2378002B01D0002066
:1027040010BDFF21122000F03BFB00F053F900281C
:10271400F5D001232370F3E78C08002070B50D4E2B
:102724003378002B02D10325280070BD122000F05D
:1027340015FB002504004307F6D50100122000F024
:102744001FFB357000F021F9A842ECD001231C4096
:10275400E518E9E78C08002070B50C4D2A78131CA5
:10276400062A00D90623DAB20A23040093409842C9
:1027740000D91C00FEF776F8054B04191C602B7871
:10278400FF2B01D001332B7070BDC0468D08002093
:102794009008002073B56B46DE1D9D1D99710023C2
:1027A4000C003370012233002900FEF723FA0028BD
:1027B40003D13378012B00D12C78200076BD0000A2
:1027C400F0B5012185B00320FFF7E4FFA621060040
:1027D4000420FFF7DFFF002302AA03ADD41CD3704B
:1027E40001902B800222230029001020FEF702FA18
:1027F400002823D12378022B20D16C782B78240253
:102804001C4304211120FFF7C5FF0500071E00D15A
:102814000127FEF72DF800900220002E0CD0FEF7C1
:1028240021F8284E3368C21A0BD59BB280B283427A
:1028340007D0FEF7FFFF032005B0F0BDFA246400C3
:10284400DFE7002D24D0FFF755FF1F4A009B944675
:1028540063441D00002801D10420EDE7FFF75EFF6B
:10286400022806D12000FFF777FFFEF7E3FF0120DF
:10287400E2E70328F0D0012803D0FDF7F9FF401B5D
:10288400ECD4FDF7F5FF451B02D400F07EF8E3E736
:1028940000F089F80028DFD03800FEF70DF81B207F
:1028A40000F05CFA050000F070F86B461B799D3D62
:1028B4005BB22DB2AB42D5DB0020044B3060187004
:1028C400BAE7C04690080020204E00008D08002082
:1028D400002301280CD00133022809D00133032836
:1028E40006D00133042803D00538431E9841031D44
:1028F400052043430148C0187047C04636370008D6
:1029040070B5041E03D1FF22164B1A7070BD8021CE
:102914000079154A154B890200281DD00220106049
:10292400042219601A60FDF7A3FF0500FDF7A0FF5C
:10293400401B0928FAD9A178402000F021FAE17857
:10294400412000F01DFA0120617800F019FA227884
:10295400044B01201A70D9E7116002221A60802208
:10296400D202DFE794080020180000501808005035
:10297400014B18787047C0469408002010B5012018
:10298400FFF7A6FFFFF7BCFF10BD10B50220FFF74D
:102994009FFFFFF7B5FF10BD10B50320FFF798FFA9
:1029A400FFF7AEFF10BD10B50420FFF791FFFFF74E
:1029B400A7FF10BD10B5FFF7E8FF002804D00620DC
:1029C400FFF786FFFFF79CFF10BD00000022064BB7
:1029D40010B51A70FFF7D2FF002804D00120FDF7CC
:1029E4006BFFFFF7D2FF10BD9408002070B5FFF70E
:1029F400DAFF051E0CD01E2000F0B0F904240440B8
:102A040006D121000520FEF791FE2500FFF7BDFF4A
:102A1400280070BD10B5FFF7B8FF10BDF0B50D006C
:102A240085B00027C30749D5B94247D0FDF720FF39
:102A34002B00FC339860122000F090F9202604004B
:102A44000640BE4206D0FEF7E5FE2100122000F04B
:102A540097F933E04306F8D5132000F07FF9070017
:102A6400102000F07BF90290192000F077F943B2AE
:102A74001A20019300F072F9029903900D2000F0DE
:102A84007FF9002F04D03A002900300000F08CF9BF
:102A9400019A2B00D01703221040019AFF338018AB
:102AA40080105F709870039BFE359D3BAB80FEF7F2
:102AB400A9FE2100122000F063F90127380005B0B7
:102AC400F0BD000010B5FFF760FF064C2378002B23
:102AD40001D0FFF78BFF0023034A23701370034ACE
:102AE400136010BDA0080020AA080020A40800203C
:102AF400F7B50400FFF73CFF002C02D1002630009C
:102B0400FEBD3B4B1B78002BF8D13A4A0438C0B2C7
:102B14001370394A01280BD801331370FFF77AFF79
:102B2400FFF74EFEFD23184208D0FFF7CBFFE5E781
:102B34001370FFF72AFF0028F2D1DFE727002D4B9F
:102B4400FF371E787B780193FDF78CFE2B4D020036
:102B54002B0030000199FFF771FD061E04D00128F7
:102B6400E3D1FEF76FFEE0E701000E2000F008F964
:102B740031000D2000F004F97978222000F000F9EA
:102B84007A78002A03D0611C300000F027F9FF2175
:102B9400122000F0F5F8FFF7FFFE061E07D1154BD3
:102BA40029681878FFF774FDFFF78CFFA7E72278F0
:102BB400134B09201A7000F0D1F80F231840114B61
:102BC40002301870104C2B682360002B03D17878E6
:102BD400FFF7B2FC2060FDF74BFE0C4A23689B18FC
:102BE40018180B4B024A18600123137087E7C0467C
:102BF400AA08002095080020A0080020A4080020AE
:102C0400A8080020A90800209C08002050C3000048
:102C14009808002070B50D1E01D1002070BD244B12
:102C24001C78012CF9D1204223D0122000F096F810
:102C340006000100122000F0A3F8330719D500267E
:102C44001C4B6E701B782B701B4B1B78AB701B4B93
:102C54001B686B601A4B1D78FDF704FE31000200FF
:102C64002800FFF725FDFEF7DDFDFFF72BFF200011
:102C7400D4E7FDF7FDFD134B1B68C01ACDD4012426
:102C8400FF21122000F07CF80A4B6C701B782B702B
:102C9400094B1B78AB70094B1B686B60084B1D78A4
:102CA400FDF7E0FD002102002800FFF701FDDCE74D
:102CB400AA080020A8080020A90800209C080020D9
:102CC4009508002098080020024B1878431E98416C
:102CD400C0B27047AA0800200323012270B54C003B
:102CE400A3401500DB43A5408A4006681E403543D7
:102CF4000560456895430222A240456081681940F9
:102D04000A438260C2681340C36070BD094B02214C
:102D14001A0010B51C680C42FCD00121064B187037
:102D240010680842FCD0802110680842FCD1187851
:102D3400C0B210BD083001400C300140802310B5F2
:102D4400054C5B0223600220FDF7B6FD0123082039
:102D54002360FDF7B1FD10BD18080050802310B5A5
:102D6400064C1B0623607F231840FFF7CFFF00208B
:102D7400FFF7CCFF80231B02236010BD1800005016
:102D8400802370B5074C1B06236080230D00184375
:102D9400FFF7BCFF2800FFF7B9FF80231B02236065
:102DA40070BDC04618000050802370B50A4D1B0644
:102DB4002B607F230C0016001840FFF7A7FFA6190D
:102DC400B44203D180231B022B6070BD0020FFF7A7
:102DD4009DFF20700134F3E718000050802370B584
:102DE4000A4D1B062B6080230C0016001843FFF7C6
:102DF4008DFFA619B44203D180231B022B6070BD42
:102E04002078FFF783FF0134F4E7C0461800005030
:102E140010B54220FFF7A2FF10BD000010B50B4A09
:102E24000023410BC004FDF7F5F90400010CC9B2FD
:102E34000620FFF7A5FF210AC9B20720FFF7A0FF6C
:102E4400E1B20820FFF79CFF10BDC0460048E8012E
:102E540010B5011C112809D91121802302395B42C4
:102E64001943C9B20920FFF78BFF10BDC3B2022B6F
:102E7400F3D20221F1E7F423FF3370B504000D000F
:102E84000920994204D8F0308842804140420730FA
:102E9400111C082A32D908210439000149000143D0
:102EA400C9B21D20FFF76CFF211C0C2C2BD90C215F
:102EB4000423090119431E20C9B2FFF761FF26202C
:102EC400FFF74CFF0A2C23D97D2D21D80C21014377
:102ED400C9B22620FFF754FF07253120062C1CD841
:102EE400FFF73CFF0521A8430143C9B23120FFF796
:102EF40047FF0C213720FFF743FF70BDD2B2052AEC
:102F0400CAD20521C8E7E3B2062BD1D20621CFE706
:102F1400F7210840F3390143DBE7FFF71FFF0321E3
:102F2400A8430143C9B23120FFF72AFF0A21E1E790
:102F34000721794AF8B51368A0270B431360802250
:102F4400FF053B68754C12012340754813433B60F1
:102F5400036819318B43734903600B68724D234036
:102F64001A430A60714A13681C40714B14601C6850
:102F74002C401C60802440233E686E4DA4012E40EA
:102F840026433E6006689E4306600E68684B2E40EA
:102F940034430C601468254015601C68664D2C4051
:102FA4001C60802480233E68644D24022E40264306
:102FB4003E6006689E43066008685D4B28402043D7
:102FC4000860116838000D4015601A680F2112015D
:102FD40012091A60FFF780FE594A5A4D1460012401
:102FE400594E28000021FFF777FE34602100380095
:102FF400FFF772FE21002800FFF76EFE2800022171
:10300400FFF76AFE80234E4A9B021360022333605B
:1030140080234E4ADB02336013684D480326034085
:1030240013604C4B196801400C20196011688143EE
:10303400116019688143196011680020B14311605F
:103044001A684549B2431A602A680A402A60434A0A
:1030540013680B4013608022414B520119680A43E4
:103064001A604049404A10600860C5208000106022
:10307400B8204001086040201168014311601A68BB
:103084003A4922431A600F220B6830389343234392
:103094000B60F021364B1D688D4328431860186877
:1030A40090430443334A1C60136833488B43D0393C
:1030B4000B43324913600A68314B1A430A603149A1
:1030C4000A681A430A6030490A6802400A602F4AB3
:1030D400310013600520FDF719FC31000720FDF7CE
:1030E40015FCFFF72BFEFFF771FC041E02D1002430
:1030F4002000F8BDFFF78CFE0138C0B2FD28F6D8D9
:103104002348FFF78BFE0522FA210720FFF7B3FEC1
:103114000E20FFF79DFEEBE72C100240FFF3FFFFAC
:103124000400005008000050FFFF0FFF0C00005087
:1031340020000050FFCFFFFFFFFFFFF0FF3FFFFF26
:1031440018000050000800501808005000040050F7
:10315400FFFCFFFF0C040050FFFFFFF30C080050BE
:103164003410024004300140003001400C000140A2
:103174000800014014000140ECDFFFFF000401409F
:1031840013200000080401400C0401401404014011
:10319400C0CA8936EFF3108372B60021024A106860
:1031A400116083F310887047AC08002003230A4998
:1031B4000A6813400ED00B6002231A4203D0074959
:1031C400086803430B60D30704D50423034A11683A
:1031D4000B4313607047C04614040140AC08002040
:1031E4000A490B4B0A6813400ED00B60D30604D572
:1031F40001230849086803430B60930404D508239A
:10320400044A11680B4313607047C046140401401C
:1032140010200000AC08002030B50024A24201D1E7
:10322400002005E0035D651C0C5DA34201D0181B62
:1032340030BD2C00F2E7002310B59A4200D110BD36
:10324400CC5CC4540133F8E703001218934200D154
:10325400704719700133F9E74641554C543A5245C9
:103264005345540D0A004541524C593A5245534571
:10327400545C725C6E005253543A53544152540D90
:103284000A005253543A4D41494E0D0A00454152E9
:103294004C593A4D41494E5C725C6E004C545F424D
:1032A4004F4F545F48454152544245415420737432
:1032B4006167653D706F73745F756172745F696E89
:1032C40069745C725C6E004C545F424F4F545F48AB
:1032D40045415254424541542073746167653D72BF
:1032E4006164696F5F72656164795C725C6E004CE5
:1032F400545F424F4F545F484541525442454154F4
:103304002073746167653D726164696F5F6661759E
:103314006C745C725C6E000001010300B10900086A
:103324000E00000000000000020101000000000087
:103334000100000000000000030101000000000083
:103344000100000000000000040102000000000071
:10335400A6000000000000000501010000000000BC
:10336400010000000000000006010100AD09000892
:103374000000000000000000070806000000000034
:10338400FF0000000000000008010100AD09000872
:10339400010000000000000009010100000000001D
:1033A40001000000000000000A010300000000000A
:1033B40000000000000000000B04050200000000F3
:1033C40000100E00000000000C01030000000000CB
:1033D40010000000000000000D02040000000000C6
:1033E40064000000000000000E010100AD090008A7
:1033F40000000000000000001002040000000000B3
:10340400F4010000000000001101030000000000AE
:10341400040000000000000013020400000000008B
:103424009001000000000000800103010000000082
:103434000100000000000000810103010000000001
:1034440001000000000000008201010100000000F2
:1034540000000000000000002E00433A5645525F71
:10346400444953500D0A004F53452D4C6966655429
:103474007261634C4F52412D4D75726174614657B0
:1034840000646576004641494C004154004154496A
:1034940000200041542B5645523F00433A41545FAB
:1034A4005645525F444953500D0A0046573D00208B
:1034B40056455253494F4E3D00204749543D002044
:1034C40050524F544F3D0020534348454D413D0019
:1034D400204341503D30780041542B524144494FE0
:1034E4003F004552524F520D0A00524144494F3D4C
:1034F400002056455253494F4E3D307800205354D6
:103504004154453D0041542B535441543F00484FCE
:1035140053545F44524F5050454400484F53545FF6
:103524004552524F525300484F53545F51554555DD
:10353400455F46554C4C00484F53545F4952515FC8
:1035440049444C4500484F53545F4952515F4854D5
:1035540000484F53545F4952515F544300484F53FE
:10356400545F4952515F544500484F53545F525879
:103574005F425954455300484F53545F52585F4C6F
:10358400505541525400484F53545F52585F55535D
:103594004152543100484F53545F50415253455F98
:1035A4004F4B00484F53545F50415253455F45526F
:1035B4005200484F53545F554152545F4552525F35
:1035C4004C505541525400484F53545F5541525446
:1035D4005F4552525F555341525431005241444960
:1035E4004F5F44494F3000524144494F5F44494F73
:1035F4003100524144494F5F44494F3200524144E3
:10360400494F5F44494F3300524144494F5F525838
:103614005F4F4B00524144494F5F54585F4F4B003A
:10362400524144494F5F4352435F45525200535401
:103634004154450041542B48454C500041542B48BB
:10364400454C503F004154204154492041542B568D
:1036540045523F2041542B524144494F3F2041544D
:103664002B535441543F2041542B48454C50204146
:10367400542B42494E0D0A0041542B42494E004FEF
:103684004B2042494E0D0A00483A52585F4C50555F
:10369400415254310D0A00483A4552525F4C50553C
:1036A400415254310D0A00483A52585F5553415221
:1036B40054310D0A00483A4552525F555341525411
:1036C400310D0A00483A50524F435F4652414D452E
:1036D4000D0A00483A434F42535F4F56460D0A00C5
:1036E400483A41545F44495350415443480D0A00F9
:1036F400483A50415253455F4552520D0A00483AE8
:103704005645525F5245515F52580D0A00483A4699
:1037140052414D455F4F4B0D0A00483A515F4655A3
:103724004C4C0D0A00483A434F42535F4552520DE8
:103734000A000180000000028100000003834000B1
:1037440001048500000005860000000687A0000033
:103754001249134B70B50C68186872B6002303261F
:10376400104A114D1360114A1360114A1360114A33
:103774001360114A1360114A13602A6801331A4313
:103784002A600F4D2A68B24313432B600D4B196016
:1037940084F30888804730BFFDE7C0460000F01F6F
:1037A4000400F01F00440040341002400444004070
:1037B4000844004010E000E014E000E018E000E0FD
:1037C4000000014008ED00E08022534B52001968CC
:1037D400F0B50A431A60802285B0D20019681142FC
:1037E400FCD003214D4B1A688A43110001220A437D
:1037F4000C211A601A680A40042AFBD1052400250A
:103804004749484BFA200B60474A484B15601C60F7
:103814001C00400001904F38FF38454F0090029142
:1038240003928020019B009A80029B1A414A0193D3
:10383400AB009958404A00261368034313600123E0
:103844003E4A10680343A0201360F022C0050368B9
:1038540093431A00A023134303600C20384A1368CF
:103864008343384813600368374A1A408823DB01CE
:1038740013430360354B3E601E60354B48081E60A1
:10388400344BC018FCF72EFC1F22334B3100186058
:10389400324B1A600D233B603300314E009A8A424A
:1038A40016D80023294A3B601360294A0135136066
:1038B400032D06D1029A23601360039A136005B0A6
:1038C400F0BDA6230093022DABD1019B0093A8E782
:1038D4008020226840020240501E82412020891824
:1038E400204A12680242D9D01248326884469C4465
:1038F4006046007BD2B290420AD10133082BCDD16D
:103904000023029A23601360039A1360FFF720FFD9
:10391400A53A53425341C1E7001002400C10024043
:1039240014E000E07F3E000018E000E010E000E05A
:1039340000440040C0000008381002402C1002402F
:103944000400005020000050FF00FFFF044400402A
:10395400084400400024F4000C440040204400408B
:08396400244400401C44004013
:08396C00ECC8FF7F0100000020
:08397400010000000024F40032
:040000050800057575
:00000001FF
