:020000040800F2
:100000000050002005040008A1030008890300082F
:1000100000000000000000000000000000000000E0
:100020000000000000000000000000009D03000828
:1000300000000000000000009D03000865090008A2
:100040009D0300089D0300089D0300089D03000810
:100050009D030008994F00089D030008D14F000838
:100060009D0300089D0300089D0300089D030008F0
:100070009D0300089D0300089D0300089D030008E0
:100080009D0300089D0300089D0300080000000078
:100090009D0300089D0300089D0300089D030008C0
:1000A0009D0300089D0300089D030008BD31000862
:1000B0009D030008DD3000089D0300089D03000833
:0400C0009D03000894
:1000C400A55AA55A5AA55AA500100E0000C201004F
:0400D4008025000083
:1000D80002B4714649084900095C49008E4402BCD3
:1000E8007047C046002243088B4274D303098B42F1
:1000F8005FD3030A8B4244D3030B8B4228D3030CF0
:100108008B420DD3FF22090212BA030C8B4202D391
:100118001212090265D0030B8B4219D300E0090AB9
:10012800C30B8B4201D3CB03C01A5241830B8B42C2
:1001380001D38B03C01A5241430B8B4201D34B03AB
:10014800C01A5241030B8B4201D30B03C01A524110
:10015800C30A8B4201D3CB02C01A5241830A8B4295
:1001680001D38B02C01A5241430A8B4201D34B027E
:10017800C01A5241030A8B4201D30B02C01A5241E2
:10018800CDD2C3098B4201D3CB01C01A5241830996
:100198008B4201D38B01C01A524143098B4201D3D0
:1001A8004B01C01A524103098B4201D30B01C01AFB
:1001B8005241C3088B4201D3CB00C01A5241830875
:1001C8008B4201D38B00C01A524143088B4201D3A2
:1001D8004B00C01A5241411A00D201465241104602
:1001E8007047FFE701B5002000F006F802BDC046E1
:1001F8000029F7D076E770477047C046D0400B001B
:10020800D1409C46203AD34018435242634693401B
:10021800184370479140030090409C46203A934011
:10022800194352426346D34019437047002B11D1FA
:10023800002A0FD1002900D1002802D00021C9438B
:10024800080007B4024802A14018029003BDC04646
:10025800A9FFFFFF03B4684601B5029804F0D2FE77
:10026800019B9E4602B00CBC7047C04610B50029E1
:1002780003D100F007F8203002E0080000F002F88F
:1002880010BDC0461C2101231B04984201D3000C59
:1002980010391B0A984201D3000A08391B099842F1
:1002A80001D30009043902A2105C40187047C04607
:1002B8000403020201010101000000000000000027
:1002C8000023C25C0133002AFBD1581E704700008E
:1002D8000123174A11680B4313608023154ADB0278
:1002E80011680B43144913600A68144B1A408023A1
:1002F8001B0113430B60A021F023C9050A689A4328
:10030800503B13430B600E490E4B0A681A40CC232E
:10031800DB0113430B6000230B4A0C4913600B608D
:100328000B490B600B4B0C4919600923136070478C
:100338002C100240381002404C100240FFF3FFFF1F
:1003480020000050FF00FFFF004800400448004024
:10035800084800400C48004055410300802130B552
:10036800054A064C0378002B00D130BD01301568D2
:100378000D42FCD02360F5E71C48004028480040A7
:10038800042172460A4202D1EFF3088001E0EFF33C
:10039800098015E030BFFDE707B5FFF799FF07486B
:1003A80000F064FA002102200B000A00019100917C
:1003B80000F0A2FA00F098FA30BFFDE7E251000819
:1003C80073B504000600051E02D046698569C46934
:1003D800FFF77EFF074800F049FA002133002A00A2
:1003E80001200191009400F087FA00F07DFA30BFF7
:1003F800FDE7C046E25100087047000001221C4B8F
:1004080010B519680A431A60042219681142FCD011
:100418000323184A11689943023B0B430C211360CC
:1004280013680B40042BFBD1FFF752FF1248FFF76C
:1004380095FF124800F01AFA114A124B12498B42E2
:1004480010D30021114B124A93420ED3114800F0E9
:100458000DFA1148FFF782FFFFF7CEFF00F01EF8F4
:1004680030BFFDE701CA01C3E9E702C3ECE7C046B4
:10047800001002400C100240F05100080052000821
:100488007C590008000000201400002030000020E3
:10049800DC1900200C52000817520008F0B5654C12
:1004A800A54400F0D3F805F097F900F00BF900F037
:1004B8008FF9E120000302F081FC04F029FC041EFE
:1004C80000D1ABE003F0E0FC040004F042FB0100C3
:1004D800200000F08BFF00F095F9059000F072F90C
:1004E800002805D000F06EF90100082001F002FC98
:1004F800002501272E00049503950195009500F02D
:1005080081F9040002F0B8F902F068FA02F004FB7D
:1005180002F0B6FD064302F0CFFD009BF6B2184389
:10052800C3B20093019B002B07D1002E06D03100E7
:10053800092001F0DFFB00F047FF0197002D08D1EB
:10054800009B002B06D019000C2001F0D3FB00F013
:100558003BFF3D00049B002B0ED102F03DFD00281F
:100568000BD002F039FDFF2800D9FF20C1B20B20C3
:1005780001F0C0FB00F028FF0497039B002B11D16A
:10058800019B002B0FD1059B2B4AE31A93420AD9F2
:1005980002F00AFD002806D101990A3001F0AAFBF1
:1005A80000F012FF039702F05FFD002803D000213E
:1005B800062001F09FFB4EA802F018FB002835D159
:1005C80004F0DAFC029001F039FB029806A904F065
:1005D80069F9002802D006A801F034FB04F0CAF932
:1005E800002808D1029808A903F02AFD002802D0A3
:1005F80008A801F08DFB01F03DFB200003F014FE7C
:10060800200003F019FE200003F0C8FD00F050FDA3
:100618000178200001F026FD30BF70E701000320BB
:1006280001F068FB054800F021F94EE74EA800F0FC
:1006380045FFC0E784FDFFFFB70B00002652000806
:10064800014B18687047C0460400002010B51348D5
:100658000378002B20D1124903330A68940012D47E
:10066800013B54000FD40233D4000CD4023354019C
:1006780009D4013B140106D40233940103D4013395
:10068800D40100D4D30F074A137080230A681B04CF
:1006980013430B600123037010BDC04630000020D7
:1006A800741002403100002010B5044B1B78002B59
:1006B80001D1FFF7CBFF024B187810BD30000020A6
:1006C800310000200123A0202F4AC005116882B004
:1006D8000B43136001682D4B194080235B040B43C7
:1006E8002B4903600B682B4803400B6080232A4981
:1006F8005B010B60022110680143116027492848FB
:100708000A680240134340220B6026490B68934352
:100718000B60254B1A600023FA2201931201019BFA
:1007280093422DD3A022214BD20219680A4380217B
:100738001A601F4A89021868084202D1013A002A41
:10074800F9D1012219680A431A6004221968114272
:10075800FCD00322174908689043023A02430C2050
:100768000A600A680240042AFBD1134A134911603F
:1007780001221968124B490C8A431A7002B070475B
:10078800019B01330193CAE72C100240FFFFFFFCD5
:1007980004000050FFEFFFFF180000500004005055
:1007A800FFCFFFFF0404005018040050001002405F
:1007B80001350C000C100240040000200024F40055
:1007C80000000020014B18787047C0460000002048
:1007D800FA21084B10B518688900FFF783FC00223E
:1007E800054B01381860054B1A60054B07321A6033
:1007F80010BDC0460400002014E000E018E000E04E
:1008080010E000E0014B18687047C0463400002033
:1008180070B50C4B0C481D68026819688D42FAD1F6
:100828000A4B0B491C680B4B01341868A41AFFF7D4
:1008380059FC01002000FFF755FCFA239B006B438D
:10084800C01870BD3400002018E000E014E000E09B
:1008580040420F0004000020034A116813685B1A25
:100868008342FBD37047C0463400002030B50028CF
:100878000FD009220A4B1B681340934209D18021EB
:10088800084B094C0278002A04D1403219681142F9
:10089800FCD030BD1D680D42FCD001302260F1E76C
:1008A800004800401C48004028480040032302003C
:1008B80070B5FF2504001A409A402E009C4323007F
:1008C8008901964029409140054C064A1B191C682D
:1008D800B4432143196001238340136070BDC046AF
:1008E80000E400E000E100E0014B024A1A60FEE784
:1008F8000CED00E00400FA0530B5074C074D256003
:10090800207161710021E180A260E360039B236193
:10091800049B636130BDC04614000020EC5D07FAFB
:10092800030010B5002813D00A4A0B4914680020A8
:100938008C420DD1117919705179597091685960AB
:10094800D16899601169D9605169106019610130E5
:1009580010BDC04614000020EC5D07FA024A136877
:10096800013313607047C0463400002004207047EC
:10097800030041780278090211438278C078120492
:100988000A430006597910431A79090211439A79E2
:1009980012040A43D9790906114370470023064A0D
:1009A8001901515C814205D00133192BF8D101207E
:1009B800404270471800FCE738520008030010B5A1
:1009C8000220012903D1187804F0E2F8002010BDB4
:1009D80010B500F06DFB041E07D0007800F056FA41
:1009E8001422617DA25600F06FFA10BDF0B51A4BC3
:1009F8008DB01A4C1A4D019323786778AE1C2B7072
:100A0800082200216F70300004F0D6FB21003A0064
:100A18003000083104F0D8FB019B10340A359C42A1
:100A2800EAD100240021282202A804F0C5FB02AB69
:100A3800FF221C70002320000492059300F030FA76
:100A480002AA084B06901000938200F0A5FA064B04
:100A58001C700DB0F0BDC046C853000838520008DD
:100A68003900002002110000380000200023F0B5F2
:100A780093B007000D00160004930593069307939F
:100A8800FFF78CFF01240190002800DAF6E0A44B60
:100A980002019B18DA7805340292D20700D5EDE0FE
:100AA8005B78043CB34200D0E8E0002D00D1E5E0DB
:100AB8003200290004A804F087FB781E13281CD8EC
:100AC800FFF706FB0A44444A4444824444515664AE
:100AD8006A441B72771B7D8804AB1B78012B31D8C5
:100AE800022304AA1370FFF773FF002805D004AB94
:100AF8001B78834201D904AB18700A25019B320088
:100B08005D43884B06A8ED18290004F05DFB320010
:100B1800280004A904F058FB814B0393019B1F0193
:100B2800039BDB195B68002B00D1E1E03100280052
:100B38009847041E00D1DBE03200280006A904F023
:100B480043FB9BE0112BCED91123CAE704AB1B78DA
:100B5800012BD2D9032491E004AB1B787833DBB2A4
:100B6800782BCAD9F6E704AB1B78072BC5D9F1E770
:100B78009622049B92019342BFD0E12252029342F3
:100B8800BBD0E12212039342E4D1B6E704AB1B7851
:100B9800013B3F2BB1D9DDE704AB1B88624A323BEE
:100BA8009BB29342A9D9D5E704AB1B885F4A0A3B9D
:100BB800F6E704AB1B78013B092B9ED9CAE704ABC7
:100BC8001B885B4A323BEBE704A8FFF7D1FE0843DA
:100BD80093D1BFE704AB1B78022BBBD808AF282200
:100BE8000021380004F0E8FA04AB1878387000F0F7
:100BF80057F90C900720FFF7D1FE002800DA75E0BE
:100C08000A2460434B4D02304019FFF7B1FE0A90A9
:100C18000B911520FFF7C2FE002867DB60432818F8
:100C2800837816203B75FFF7B9FE00285EDB60432A
:100C38002818837817207B75FFF7B0FE002855DB4E
:100C4800604302304019FFF793FE0E900F91182071
:100C5800FFF7A4FE002849DB444302346019FFF77C
:100C680087FE109011910121380000F0B3F9002897
:100C780007D000F01FF9041E00D13EE7200013B092
:100C8800F0BD00F0C1F90028F3D1FFF7A1FE07007D
:100C98000120FFF783FE041E28DB002F26D00A223E
:100CA80013004343EB1899780B1CB94200D93B1C3D
:100CB8006243D8B21700AA18937003F069FF1E4B5D
:100CC80003931B78002B00D017E7154B24011A1942
:100CD800023708345278E118E81904F05FFA00285E
:100CE80000D10AE70123039A137006E70424C5E735
:100CF800114C2378002B0AD1039B083732002800B7
:100D0800D91904F04BFA002801D0012323700223DB
:100D1800029C029A1C401A42B0D00524AEE7C04695
:100D2800385200083B000020561300007E130000D4
:100D38009E0700003900002038000020F7B51E008B
:100D480007000C000192FFF729FE03000120002B89
:100D580013DB0018002C10D0002E0ED00C4A1901FD
:100D680052185578019A954207D8822F06D1012545
:100D7800084B1B78237000203570FEBD0A215943AB
:100D8800054B2A002000C91804F01EFAF3E7C046F4
:100D980038520008380000203B000020F8B5030056
:100DA8000C00002841D0081E3FD01F00FF3779787B
:100DB80000200D001035954237D82170BA781E00F2
:100DC80062701A00FE320421525EFC36A27092B2A2
:100DD800120AE270B268110A22716171110C120EC6
:100DE800A171E2717A78824204D02000190008309B
:100DF80004F0EAF97D78797D2B000833E0180029A2
:100E080014D0012202707A7A04334270BA7AE41854
:100E180082707A7CC27033691A0A237062701A0C65
:100E28001B0EA270E37028001030F8BD082204F0F1
:100E3800C3F9F8E703001000012B08D10A00803A33
:100E4800D2B2012A01D985290ED118000CE0002A56
:100E58000AD00020402B07D8252B06D8092B0BD801
:100E6800053098428041404270470748263BDBB234
:100E7800D84001231840F7E7002001221D3BDBB2D0
:100E88009A424041C0B2EFE7012822040300112032
:100E9800002B04D0013B0020012B00D81E307047E6
:100EA80003000020022B02D8014A9B009858704783
:100EB800D453000803000420092B01D8014AD05C50
:100EC8007047C046C85300080023062A01DD063AC9
:100ED80053B2C01A884200DD0800012800DC002057
:100EE800C0B27047F8B505000E00092400281AD0D2
:100EF8000478022C41D81427C757FBB21E2B3ED8C2
:100F08002000FFF7C3FF3A00697DFFF7DDFF0028E7
:100F180037D0012C09D0022C26D0EB68AC681C43D2
:100F280063425C4164002000F8BD002E2DD0802172
:100F3800EA68AB68C9028A4225D20021180010432A
:100F480009D102243129EED92C69114BE418631E0A
:100F58009C41A400E7E71800204009185B08D00767
:100F6800C9B203435208E9E7002E0ED0AB68EA681D
:100F78001343D8D02C69074BE8E70124D3E70524AD
:100F8800D1E70624CFE70324CDE70724CBE7C04603
:100F9800702FFCFFE05EF8FF70B50B4D04000100F8
:100FA80028222800002C0AD004F00EF9282200215B
:100FB800064804F001F90022054B1A7070BD04F0D0
:100FC800FBF82C70F2E7C0466001002038010020D1
:100FD8003301002070B50500FFF784FF2822041EA6
:100FE800074807D0002104F0E7F80023054A20004D
:100FF800137070BD290004F0E7F80123F6E7C04636
:10100800380100203301002073B5244D08202B78C7
:10101800002B24D0224C234E28223100200004F03B
:10102800D3F802F0E0FE2378012B19D1226A636A13
:10103800A069E1690024009402F06CFB0522FA2102
:10104800072003F061FE184802F024F903F03AF98A
:1010580028220021300004F0AFF80020287076BD67
:10106800022B0DD102F04CFB03F02CF9FA210720DA
:101078000522490003F048FE0C4802F00BF9E7E7A7
:10108800002BE5D102F03CFB03F01CF907200522F8
:10109800FA2103F039FE0448EFE7C0463301002087
:1010A8006001002038010020801A0600F07E0E0042
:1010B800004870476001002070B5050004A8067854
:1010C800059C181E0BD0201E09D00020032E06D91F
:1010D800D8701D7059709A7004230130237070BD48
:1010E800F0B5050005A80778069C081E12D0181E42
:1010F80010D0201E0ED00020082A0BD8961CF6B25D
:10110800BE4207D81D705A700233C5B2AA4202D82F
:1011180001202670F0BD0D5C1D540130F5E7030079
:1011280010B54218507894785B5C24040002204380
:101138001843D3781B06184310BD0B0A017043707F
:101148000B0C090E8370C17070470000F0B5C188A0
:101158000400C7B0012908D80223027841788088A2
:101168000093013301F094FD53E00C25037A05AE9A
:101178003370427A02ABFF35ED18931C6A709942BE
:1011880005D002784178808800930323EAE7002A93
:1011980006D001000D2002AB0A31C01804F014F883
:1011A8001D4F3B78002B0BD0A3883D780393032D6C
:1011B8001AD9002322786178039800930733D1E77E
:1011C80003F0D8FB0028EFD1687803F0DBFB002898
:1011D800EAD1300003F0C6F9031E1AD122786178EB
:1011E800A08800930833BDE703220C4B0C4C1B78F6
:1011F8003100EB1813400232FF3253430222E41845
:101208002000FF3203F0E0FF039BFE340135A3808A
:101218003D7047B0F0BDC04688010020890100201C
:101228008A01002010B5024801F020FD10BDC0461B
:10123800165700080F2307B518400300373309284D
:1012480000D8073B6A461371002301A8537101F0C7
:101258000DFD07BD30B5040089B002AD182200218C
:10126800280003F0A9FF2388616803A82B80FFF7F3
:1012780064FFA16804A8FFF760FFE16805A8FFF70D
:101288005CFF216906A8FFF758FFFFF7BBFA0100CA
:1012980007A8FFF752FF0022182311000093F1203E
:1012A8002B0001F0CDFC09B030BD0000F0B50024E2
:1012B80085B0050001AEA04206D1124801F0D6FC67
:1012C80005B0F0BD0A2C0FD028000A21FEF790FFC8
:1012D8003031A15528000A21FEF704FF2F00013400
:1012E8000500092FEED8E4B26A46013CE4B2335D4A
:1012F800684613700023537001F0B8FC002CF3D13A
:10130800DEE7C046E955000810B50C0001F0AEFC58
:10131800034801F0ABFC2000FFF7C8FF10BDC04632
:10132800D2540008F0B50027BEB2B14204D9C45D5A
:10133800202C11D0092C0FD04C1E0419B1420DD805
:101348000024C719135D301980B2002B0FD1081A79
:1013580043425841C0B2F0BD0137E5E72578202D5A
:1013680001D0092DECD1013989B2013CE6E781426F
:101378000FD93D5D28006138192801D8203DEDB20C
:1013880018006138192801D8203BDBB20134AB4280
:10139800D8D00020DFE7000070B5094C200001F02C
:1013A80065FC084D280001F061FC200001F05EFC9E
:1013B800280001F05BFC200001F058FC70BDC0461D
:1013C800E9550008E053000800B5A5B0842103A83A
:1013D80000F0E2FE002806D0002200901100C12093
:1013E80003AB01F02DFC25B000BD0000F0B50025D1
:1013F800274B284F284E1D70284B8BB031701D701D
:101408003870FFF7F3FA00F053FE2548FFF72EFA7D
:10141800FFF74AF93B7805AC637033782070A37006
:101428000123E370DB182371FFF7CCF90623607101
:101438002A00F02000932900230001F001FC20007D
:10144800FFF76EFAA84205D01648FFF70FFA2000FA
:10145800FFF700FF1448FFF709FA144B0022039323
:101468007F230493773B1100F220009303AB01F034
:10147800E7FBFFF7A7F9002807D10D48FFF7F6F9B2
:101488000C48FFF7F3F90BB0F0BD0B48F6E7C04680
:10149800890100209B0500209A0500208801002072
:1014A800E2530008F0530008FF530008010102014D
:1014B8000E5400082E5400081E540008F0B504000D
:1014C800ABB0002800D197E0BD48FFF7CFF92278EC
:1014D800012A0AD0BB48FFF7C9F9012322786178AD
:1014E800A088009301F0D4FB86E06178202900D120
:1014F800E1E010D8032906D8481E02282FD8FEF7A5
:10150800E7FD3B7D9500102900D192E0A0880223D9
:1015180001220091E6E7312900D1A5E00BD8212965
:1015280000D10CE13029F1D1E388012B00D18DE005
:10153800A0880092CEE0402900D17EE04129E5D183
:10154800842109A800F028FE0300A088002B00D001
:1015580076E08433227861780093813BC2E79A4829
:10156800FFF784F9E0882300A278A1880090002082
:10157800083301F065FB3FE09448FFF777F9042052
:1015880001F08CFD924B18000493FEF799FE0500BC
:10159800904B2F1C1800EDB20593FEF791FE282DF5
:1015A80000D92827031CC0B2FFB2102800D9102385
:1015B800DAB20392884A09AD00260992AB717F23FB
:1015C8003A006F710C3704992E71EE71FFB20CA8B6
:1015D8000B9303F0F9FD039A0599E81903F0F4FD5C
:1015E800039B8120DF19A1882B003200009701F0AE
:1015F80027FB082001F052FD2BB0F0BD774B09A85E
:101608001968774B1E68774B1D68FFF796FD310008
:101618000AA8FFF792FD29000BA8FFF78EFD0C23FF
:10162800A18800220093822009ABA2E7FFF75CF9AA
:10163800E2E72000FFF78AFDDEE700F039FDDBE78F
:10164800010000930022C12009AB92E7207A04AB85
:10165800187503F02DFA04AB58750223A1880022EF
:101668000093B02009AB84E7E388022B04D002235F
:10167800A0880093013335E7617A207AFFF7DAFB17
:10168800237A002805D122786178A088009308235E
:1016980028E71800617A03F01DFA237A012B02D19A
:1016A800607A02F07FFB02222300A188B120009219
:1016B800083300225DE70E2704ABFF1800233B70B8
:1016C800E0880128D3D9637A267A9D1CA84203D0E2
:1016D800A0880095032305E721001A0030000A318D
:1016E800FFF7C4F9051E03D0031FDBB2012B09D88D
:1016F8003B000822300009A9FFF720FB002801D091
:1017080000233B703A780F2704ABFF180423290005
:101718000093300008AB0197FFF7CEFC0300A088C8
:10172800002B05D10433227861780093013BD9E678
:101738003B78009308AB01000022A02019E70F2690
:1017480004ABF61800233370E388012B00D0EFE6D2
:101758001621277A04A80918330008223800FFF751
:10176800EDFA08AD01000A2300280ED000930022EC
:1017780009AB38000195FFF79FFC0300A088002BF8
:10178800D0D02B78009309ABD5E7162104A832787E
:1017980009180093380009AB0195FFF7A1FC030075
:1017A800A088002B05D13378227802336178009322
:1017B80090E72B78010000930022A12009ABD8E61E
:1017C8003C54000849540008555400085E54000869
:1017D8006B54000885540008010200005000F81FEF
:1017E8005400F81F5800F81F70B504000D00A2B08F
:1017F800002806D0DE4AFFF795FD002803D0FFF742
:1018080011FD22B070BD29002000DA4AFFF78AFDD9
:10181800002812D0D84801F029FAD84C200001F04D
:1018280025FAFFF7B9FD200001F020FAD44801F0AD
:101838001DFAD44801F01AFAE1E729002000D24A3B
:10184800FFF770FD002830D0D048FFF70FF81020C0
:1018580001F024FCCE4801F009FAC74801F006FA65
:10186800CC4801F003FAFFF797FDCB4801F0FEF9E9
:10187800C34801F0FBF9C94801F0F8F90120FFF766
:1018880015FDC74801F0F2F90220FFF70FFDC54822
:1018980001F0ECF91C247F252800E040043CC0B28C
:1018A800FFF7C8FC231DF7D1C3E729002000BE4A73
:1018B800FFF738FD061E27D0842101A800F06CFC34
:1018C800842801D0B9484FE1B94801F0CFF9B94BA4
:1018D800B9481B78002B00D0B84801F0C7F9B848C0
:1018E80001F0C4F9B74B1C782009FFF7A3FC2000CE
:1018F800FFF7A0FCB44801F0B9F9402101A8FFF7AF
:101908000EFCFFF7D3FC94E729002000AF4AFFF74D
:1019180009FD002800D10EE1842101A800F03CFC5B
:101928008428CFD1310001A8FFF7F9FBA84B0100AB
:101938001800FFF7E9FC914C200001F097F9042109
:1019480001A8FFF7ECFBA34B01001800FFF7DCFC34
:10195800200001F08BF9082101A8FFF7E0FB9E4B5E
:1019680001001800FFF7D0FC864D280001F07EF931
:101978000C2101A8FFF7D3FB984B01001800FFF7D3
:10198800C3FC200001F072F9102101A8FFF7C7FB82
:10199800934B01001800FFF7B7FC200001F066F92F
:1019A800142101A8FFF7BBFB8E4B01001800FFF7BD
:1019B800ABFC200001F05AF9182101A8FFF7AFFB92
:1019C800894B01001800FFF79FFC280001F04EF931
:1019D800442101A8FFF7A3FB844B01001800FFF77F
:1019E80093FC200001F042F9482101A8FFF797FB7A
:1019F8007F4B01001800FFF787FC200001F036F943
:101A08004C2101A8FFF78BFB7A4B01001800FFF768
:101A18007BFC280001F02AF9502101A8FFF77FFB81
:101A2800754B01001800FFF76FFC200001F01EF94C
:101A3800542101A8FFF773FB704B01001800FFF752
:101A480063FC200001F012F9582101A8FFF767FB99
:101A58006B4B01001800FFF757FC200001F006F956
:101A68005C2101A8FFF75BFB664B01001800FFF73C
:101A78004BFC280001F0FAF81C2101A8FFF74FFBE6
:101A8800614B01001800FFF73FFC200001F0EEF861
:101A9800202101A8FFF743FB5C4B01001800FFF76A
:101AA80033FC200001F0E2F8242101A8FFF737FBFE
:101AB800574B01001800FFF727FC200001F0D6F86B
:101AC800282101A8FFF72BFB524B01001800FFF754
:101AD8001BFC280001F0CAF8302101A8FFF71FFB02
:101AE8004D4B01001800FFF70FFC200001F0BEF875
:101AF800342101A8FFF713FB484B01001800FFF73A
:101B080003FC200001F0B2F82C2101A8FFF707FB25
:101B1800434B01001800FFF7F7FB200001F0A6F87F
:101B2800402101A8FFF7FBFA3E4B01001800FFF720
:101B3800EBFB28007EE6290020003B4AFFF7F2FB7A
:101B4800002806D129002000384AFFF7EBFB0028BF
:101B580001D037486EE629002000364AFFF7E2FB3D
:101B6800002800D1AEE6344801F080F849E6C046C6
:101B78008E540008915400086B54000895540008CE
:101B880085540008C5560008975400089F5400085B
:101B9800AF540008B3540008BD540008C3540008EB
:101BA800CB540008D4540008DC540008E65400085C
:101BB800EE5400089B05002089540008A45500082D
:101BC800F55400089A050020015500080955000839
:101BD800125500081F5500082B5500083B550008F2
:101BE8004955000855550008615500086D5500080D
:101BF8007B5500088A55000899550008A755000824
:101C0800B6550008CB550008E0550008EB5500080C
:101C1800F6550008015600080C560008185600082A
:101C28002456000832560008385600084056000866
:101C3800495600087C5600088356000810B500F085
:101C480089FA10BD1FB5041E12D0038841680A2006
:101C58006A4668441381FFF770FA6A46A3789020B1
:101C68009373072300220093110002AB00F0E8FFF2
:101C78001FBD0000F0B5C5B01B4E3378002B01D155
:101C880045B0F0BD02F076FE0028F9D18222174F48
:101C980052003B78164D5343EB18FF33587802F047
:101CA80071FE0028ECD1822302223C785B0063435A
:101CB800ED182900FF3203A803F086FA0323013444
:101CC8001C403378FE35013B03A8AD883C70337067
:101CD80002F048FC0028D3D10090082301221021EB
:101CE800280000F0D5FFC7E78801002089010020FF
:101CF8008A0100207FB56B4618715971002301A82D
:101D08000293039304930593FFF7A4FA07B000BD69
:101D180000B5C7B000280DD0882202A95200FFF7ED
:101D28003DF8002806D0002200901100912002AB57
:101D380000F086FF47B000BD030010B500282BD087
:101D4800081E29D0012008701A784A705A788A70BB
:101D58009A78CA70DA780A715A68140A4A718C71CA
:101D6800140C120ECC710A729A68140A4A728C7298
:101D7800140C120ECC720A73DA68140A4A738C7344
:101D8800140C120E0A74CC731B691A0A4B748A74E9
:101D98001A0C1B0ECA740B7510BD0000002804D065
:101DA800FF2803D0431E052B01D970470720044A9A
:101DB8004000835A03498B42F7D001338352F4E73A
:101DC8009E050020FFFF000010B500280AD0020081
:101DD8000021054B10321C88048002301980023320
:101DE8009042F8D110BDC0469E050020054A06491C
:101DF80013888B4201D001331380002801D0034B94
:101E0800187070479C050020FFFF000008000020A4
:101E1800F0B58BB00E00141E039003D100252800E6
:101E28000BB0F0BD100004A9FFF786FF051EF5D022
:101E380067783800FFF7B2FF002F02D1A07801F0D1
:101E480045FD6078FFF7D2FF152332000093C320C9
:101E5800039904AB00F0F4FEE1E700000021044A16
:101E680013881180181CFF2B00D9FF20C0B27047BF
:101E78009C050020FF22024B18781A707047C04654
:101E8800080000200300F0B500286AD0081E68D0BA
:101E980001220A705A784A709A788A70DA78CA7079
:101EA8001A790A715A794A7100228A71CA719A6834
:101EB800100A0A724872100C120E8872CA72DA6816
:101EC800100A0A734873100C120E8873CA731A69C1
:101ED800100A0A744874100C120ECA7414228874FA
:101EE800985C88540132462AFAD14C1C985A885476
:101EF800000AA0540232AA2AF8D1985A8854000A33
:101F0800A0540232BA2AF8D11A00BA3210780A005C
:101F1800BA3210701A00BB3210780A00BB32107047
:101F2800BC331A780B000C0008000826BC331A7062
:101F38000C4D0D4BBD3402781202534032001FB2D3
:101F48005B009BB2002F00DA6B40013AD2B2002A44
:101F5800F5D101308442EED101202370BE311B0A35
:101F68000B70F0BD21100000FFFF0000F0B5384CE9
:101F78000500A5440392022234ACFF32A3700F007F
:101F8800228001F075FC0023E070322802D8323339
:101F98001B1ADBB22371FFF76DFF0026039B6071EC
:101FA800A76039A864AFE680E560236101F09EFC74
:101FB800380001F061FE7300FB58181E0AD0254A4C
:101FC8009818FA239B0498423FD2FA218900FEF719
:101FD80089F880B2872302AA5B009B1898530236BF
:101FE800642EE8D1B92040008018FFF7EDFEFFF716
:101FF80035FFC12302AA5B009B1818708423164E74
:1020080002A93278FF335B181A70144B200003932F
:102018001B7863AF04A93B70FFF734FF041E0FD091
:10202800BF233A78C4200093A9B204AB00F008FE9D
:102038000023039A13703378FF2B01D001333370D8
:102048002000A5239B009D44F0BD0548C2E7C0467B
:102058006CFDFFFFE7030000B80500200900002021
:10206800FFFF000070B50B4E0B0032680A490400F0
:10207800821A8A4201D8002070BD084D01002868E4
:10208800FFF774FF0028F6D02B68346001332B600B
:10209800F2E7C046B40500205FEA0000B005002062
:1020A8000B0A017043700B0C090E8370C1707047E6
:1020B80000230B4A10B513600A4A13600A4A1360DA
:1020C8000A4A13600A4A13600A4A13600A4A1360EC
:1020D8000A4A13600A4A136000F0F0FD10BDC046BA
:1020E800DC050020D8050020D4050020D0050020FC
:1020F800CC050020C8050020C4050020C00500202C
:10210800BC050020024A1368013313607047C046BB
:10211800C8050020024A1368013313607047C0469F
:10212800CC050020024A1368013313607047C0468B
:10213800C4050020024A1368013313607047C04683
:10214800C0050020024A1368013313607047C04677
:10215800BC050020C30703D50B4A1368013313607D
:10216800830703D5094A136801331360430703D56E
:10217800074A136801331360000703D5054A13683B
:10218800013313607047C046DC050020D8050020E5
:10219800D4050020D005002010B5041E00D1E5E0CC
:1021A8000020832900D8E1E084220100200003F008
:1021B80003F800F0CFFE01002000FFF771FF00F0E8
:1021C800CFFE0100201DFFF76BFF00F0CFFE0100DE
:1021D80020000830FFF764FF00F0CEFE0100200069
:1021E8000C30FFF75DFF00F0CDFE0100200010303D
:1021F800FFF756FF00F0CCFE010020001430FFF777
:102208004FFF00F0CBFE010020001830FFF748FF19
:102218002000574B1C301968FFF742FF2000554B30
:1022280020301968FFF73CFF2000534B2430196811
:10223800FFF736FF2000514B28301968FFF730FFB1
:1022480020004F4B2C301968FFF72AFF20004D4B18
:1022580030301968FFF724FF20004B4B34301968E1
:10226800FFF71EFF2000494B38301968FFF718FFA9
:102278002000474B3C301968FFF712FF01F08CFD36
:10228800010020004030FFF70BFF00F08DFE010039
:1022980020004430FFF704FF00F08CFE010020000E
:1022A8004830FFF7FDFE00F08BFE010020004C30A7
:1022B800FFF7F6FE00F08AFE010020005030FFF71D
:1022C800EFFE00F089FE010020005430FFF7E8FE21
:1022D80000F088FE010020005830FFF7E1FE00F012
:1022E80087FE010020005C30FFF7DAFE00F086FE72
:1022F800010020006030FFF7D3FE00F085FE0100EA
:1023080020006430FFF7CCFE00F084FE01002000BE
:102318006830FFF7C5FE00F083FE010020006C3036
:10232800FFF7BEFE00F082FE010020007030FFF7CC
:10233800B7FE00F081FE010020007430FFF7B0FE08
:1023480000F080FE010020007830FFF7A9FE00F0C1
:102358007FFE010020007C30FFF7A2FE00F07EFE29
:10236800010020008030FFF79BFE842010BDC0468E
:10237800DC050020D8050020D4050020D005002069
:10238800CC050020C8050020C4050020C005002099
:10239800BC050020024A1368034313607047C04617
:1023A800E4050020F0B50022082504000A4E0B4879
:1023B80093B2994200D8F0BDA35C1B0258402B0091
:1023C80007B2400080B2002F00DA7040013BDBB258
:1023D800002BF5D10132EBE721100000FFFF0000D0
:1023E800802303490A681A42FCD0024B18607047E0
:1023F8001C4800402848004070B504004518AC420D
:1024080005D1402304490A681A42FCD070BD2078DF
:10241800FFF7E6FF0134F2E71C480040F0B5454CF1
:102428000D00A5441900AAAB1E88012303AC237034
:10243800E570330A2D0A257160700725A270667150
:10244800A371002E09D0002907D00B2002AB32005F
:10245800C01802F0B9FE7619B5B229002000FFF7BE
:10246800A1FFAB1C60550135000AADB260550020D4
:1024780001249BB24426019322000300FF3603A9DE
:10248800095C8C4600292BD1A22189005B1802A97E
:102498005B18453BFF3B1A70B44246D0411C621C96
:1024A8008BB20093230094B201220199009D013060
:1024B800A942E4D8A22189005B1802A95B18453B10
:1024C800FF3B00201A70FFF78BFF53A82100FFF78E
:1024D80093FF0020FFF784FFA5239B009D44F0BDD8
:1024E800B44222D0A227411C89B2BF000091E7194B
:1024F80002A97F186146453F0132651CFF3FD2B2F1
:10250800ADB23970FF2A0ED1A22189005B1802A949
:102518005B18453BFF3B1A70B54206D002342B00CE
:10252800A4B2FE3AC1E72C00BFE7034A136801339F
:102538001360D1E76CFDFFFF48080020F0B56C4C34
:102548006C4BA5440024220018886B4B01939042E1
:102558006AD823009C22093B9BB25200934200D3C5
:10256800ADE004A98D7904AB5B792D021D4395423A
:1025780000D3A4E02B0009339BB29C4200D09EE01C
:10258800A11E89B204A8FFF70DFFA0239B00E41841
:1025980004ABE418594BE3181A78594B1202E418A3
:1025A80023781343834200D089E004AB9B7804AAC4
:1025B80054AC1288A37004AB2280DA781B79E580CA
:1025C8001B021343A380002D05D004AB2A00D91D9C
:1025D80056A802F0F9FD6578012D07D1802040004A
:1025E800FFF7D8FE474B1A7815431D7080208000EE
:1025F800FFF7D0FE444A136801331360EFF31086E7
:1026080072B6424D2B78032B5BD9414A13680133CC
:102618001360404A13680133136086F310888020E2
:10262800C000FFF7B7FE15E00199531C8D5C9BB203
:10263800002D3BD12020FFF7ADFE374A1368013348
:102648001360364A13680133136002232D4A117848
:102658000B431370A5239B009D44F0BD9042E9D025
:10266800A0267600B342E5D2039B029E5B5C013252
:102678007354390092B24F1C6318FEB29BB2B54234
:10268800ECD8FF2D10D090420ED9A02149008B42E2
:10269800D0D2A024A400591C1B1904AC1B19204C2F
:1026A8001B1900241C708BB21C0050E71A0004AEE2
:1026B800A3190293019B00219B180393DBE7802059
:1026C800B9E7A022174F52003B781748534321001F
:1026D800C01802F079FD03223B78013313403B70A8
:1026E8002B780133DBB22B7086F31088B2E7C04633
:1026F8006CFDFFFFBA0D0020BC0D00207FFDFFFF21
:102708007EFDFFFFF007002024080020500800206D
:10271800440800204C080020480800202008002019
:1027280080FDFFFF520800205408002070B5164DA8
:102738002E78002E05D0002802D1144B287018805E
:1027480070BD124C2388002809D1002B04D010300A
:10275800FFF720FEFFF7F2FE00232380F0E7A12217
:10276800520093420AD94020FFF714FE0123084A79
:102778002B701368268001331360E1E75A1C22800E
:10278800044AD054DCE7C046B90D0020BA0D002039
:1027980048080020BC0D002070B503240223A025A2
:1027A8004600B440B340ED052A68134EA2431A43CD
:1027B8002A60012585403268AA43104D32602A6894
:1027C800A24313432B60072809D80F2280008240B8
:1027D80081400B4C236893431943216070BD0F243B
:1027E8000838C0B2800084408140064A1368A34379
:1027F80019431160F2E7C046040000500800005079
:1028080020000050240000500B4A10B513880B4CD0
:1028180099B224880133DB05DB0DA34208D180205F
:10282800074A4001136801331360FFF7B3FD10BD79
:10283800044C60541380FAE7EE050020EC050020F4
:10284800E8050020F005002010B50024074A138889
:10285800A34204D800231380054A137010BD054B0A
:10286800185D0134FFF762FFA4B2EFE7560D0020B0
:10287800550D0020580D0020F8B50F252026EFF340
:10288800108472B6404B1A68404B1B682A4229D004
:10289800D30703D53E490B6801330B60930703D573
:1028A8003C490B6801330B60530703D53A490B6861
:1028B80001330B60120703D5384A136801331360DC
:1028C8000420FFF767FD364B364A1D60364B1B6800
:1028D800136801331360354A13680133136084F3B6
:1028E8001088CCE72B4225D0DA0703D530490A688F
:1028F80001320A609A0703D52E490A6801320A6034
:102908005A0703D52C490A6801320A601B0703D508
:102918002A4A1368013313600820FFF73BFD0F2292
:10292800274B1A601F4A274B1B6813680133136033
:10293800254AD1E7324214D00120244A1A4B1F6895
:10294800136801331360224A136801331360214A64
:10295800137803431370FFF71DFDF8B2FFF754FF18
:10296800BDE733420DD0194A164B02201F68136881
:1029780001331360184A136801331360154A13783A
:10298800E7E784F31088F8BD1C4800401C38014074
:1029980014080020100800200C0800200808002057
:1029A8002048004048080020244800401C08002017
:1029B8000408002000080020FC070020F807002079
:1029C8002038014024380140180800203008002031
:1029D8002C080020F107002028080020F7B5444AF9
:1029E8004448118800888BB2814266D04249434EE0
:1029F800CC5C0133DB05DB0D13803378E4B2002BAC
:102A08000FD13F4B1B78002B42D00D2C13D00A2C32
:102A180011D0002C27D1FFF717FF2000FFF786FE03
:102A2800DDE7002333700A2CD9D0354B1B78002BF7
:102A38002ED00D2CEDD180200027324B324D019342
:102A48001B8800010093EF54FFF7A4FC28000099AD
:102A5800FEF7CAFE019B0D3C1F80294B1F70634285
:102A68005C413470BBE7274A1388012B09D1202128
:102A7800200088435428CED1591C1180224AD454AE
:102A8800ADE7210020395E29C5D85E2BC3D8F3E70E
:102A98001E4B1B88002BC0D11D4B1B78002BBCD1B3
:102AA800230020229343412BB7D1174B1F3A1C70A8
:102AB800144B1A80124B1A7091E7164B1A78002A99
:102AC80015D0EFF3108272B60021197082F31088C6
:102AD8000B4B1B788B420AD10C490D4B0A88002AF4
:102AE80002D11A78002A02D000220A801A70F7BD93
:102AF800EC050020EE050020F0050020540D002014
:102B0800550D0020560D0020580D0020BA0D00204C
:102B1800B90D0020E005002010B5EFF3108272B661
:102B28000021244B1C68196082F310888C4240D025
:102B3800E30702D52048FDF799FEA30702D51F48F1
:102B4800FDF794FE630702D51D48FDF78FFE2307A6
:102B580002D51C48FDF78AFEE30602D51A48FDF7A0
:102B680085FEA30602D51948FDF780FE630602D547
:102B78001748FDF77BFE230602D51648FDF776FEBB
:102B8800E30502D51448FDF771FEA30502D51348E5
:102B9800FDF76CFE630502D51148FDF767FE2305B6
:102BA80002D51048FDF762FEE40402D50E48FDF791
:102BB8005DFE10BDE40500208C5600089B560008F9
:102BC800A9560008B9560008C8560008D756000884
:102BD800E4560008F1560008FF5600080E57000892
:102BE8001B570008265700083657000870B5EFF342
:102BF800108572B60F4C2278D3B2002A03D185F320
:102C08001088180070BDA0220B4E520033780B4973
:102C18005343C91802F0D8FA03223378013313401A
:102C280033702378013BDBB2237085F310880120D1
:102C3800E8E7C0465008002051080020540800204A
:102C480037B59C2506AC24886D00AC4204D3064AEF
:102C580013680133136037BD002C01D0002BF6D068
:102C68000094FFF7DBFBF6E74808002010B5041EC8
:102C780004D1064A13680133136010BDFDF720FB29
:102C880081B22000FFF7B8FBF7E7C04648080020EC
:102C980030B585B008AC258802ACA3700523E57073
:102CA8002D0A217062700100257100220093FE2018
:102CB8002300FFF7B3FB05B030BD0000EFF3108130
:102CC80072B600231F4A13601F4A13601F4A13601D
:102CD8001F4A13601F4A13601F4A13601F4A13607C
:102CE8001F4A13601F4A13601F4A13601F4A13606C
:102CF8001F4A13601F4A13601F4A13601F4A13605C
:102D08001F4A13601F4A13601F4A13601F4A13604B
:102D18001F4A13601F4A13601F4A13601F4A13603B
:102D28001F4A13701F4A13701F4A13801F4A1380CB
:102D38001F4A13601F4A13701F4A136081F31088DB
:102D48007047C0464C08002048080020440800206E
:102D5800400800203C0800203808002034080020E3
:102D6800300800202C080020280800202408002013
:102D7800200800201C080020180800201408002043
:102D8800100800200C080020080800200408002073
:102D980000080020FC070020F8070020F4070020A6
:102DA800F1070020F0070020EE050020EC050020C8
:102DB800E8050020E0050020E4050020F8B58023A0
:102DC800484ADB01116801240B4313608023464AFB
:102DD800DB02116805000B43444913600A68444B41
:102DE80002201A408023DB001343424A0B60136819
:102DF800062123431360FFF7CFFC06210320FFF7CA
:102E0800CBFCC0233C4E0421326809209A43803B06
:102E180013433360FFF7C0FC04210A20FFF7BCFC12
:102E28003268364B364F1A4080235B0313433360B6
:102E38000026344B1E60344B1E60344B1E60B54276
:102E480031D1334B334A1C601F231360324B3D6032
:102E58001D60324B1D601F22314B1C60314B1A60C4
:102E68000023314A1370314A1370314A1370314AC2
:102E78001380314A1370314A1370314A1380314A32
:102E88001370314A1370FFF719FF3D231D4A0121C2
:102E980013602E4B1D203B60FDF708FD01211B2010
:102EA800FDF704FDF8BDFDF7CBFB6C080002290017
:102EB8000019FDF717F9164B164A18601F231360FF
:102EC800154B3E601E60154B1E60FDF7B9FB4000B8
:102ED80000192900FDF706F91D4B0407640F184077
:102EE8000443B8E734100240381002404C10024046
:102EF800FFF3FFFF2C1002400C000050FFFFCFFF34
:102F0800003801400048004004480040084800409C
:102F18000C4800402048004004380140083801406F
:102F28000C38014020380140520800205108002088
:102F380050080020BA0D0020B90D0020B80D00205F
:102F4800560D0020550D0020540D00203D80000036
:102F5800F0FF0000014B18687047C0464C0800207D
:102F6800014B18687047C04648080020014B186894
:102F78007047C04644080020014B18687047C04697
:102F880040080020014B18687047C0463C080020E4
:102F9800014B18687047C04638080020014B186874
:102FA8007047C04634080020014B18687047C04677
:102FB80030080020014B18687047C0462C080020D4
:102FC800014B18687047C04628080020014B186854
:102FD8007047C04624080020014B18687047C04657
:102FE80020080020014B18687047C0461C080020C4
:102FF800014B18687047C04618080020014B186834
:103008007047C04614080020014B18687047C04636
:1030180010080020014B18687047C0460C080020B3
:10302800014B18687047C04608080020014B186813
:103038007047C04604080020014B18687047C04616
:1030480000080020014B18687047C046FC070020A4
:10305800014B18687047C046F8070020014B1868F4
:103068007047C046E8050020EFF3108272B60021D1
:10307800024B1868196082F310887047F407002023
:10308800EFF3108272B60021034B18781970C0B2A2
:1030980082F310887047C046F1070020002808D046
:1030A800EFF3108172B6034A13780343137081F368
:1030B80010887047F0070020EFF3108272B60021E5
:1030C800034B18781970C0B282F310887047C04655
:1030D800F00700201022F8B5284D2B68134208D0BD
:1030E80027490A6027490A6801320A600121264AED
:1030F80011701A0719D1202601272B6833423CD0BA
:10310800224A234B01201C68136801331360214AAB
:10311800136801331360204A13783B431370FFF799
:1031280039F9E0B2FFF770FBE7E7DA0703D51B4987
:103138000A6801320A609A0703D519490A680132F8
:103148000A605A0703D517490A6801320A601B0743
:1031580003D5154A1368013313600420FFF71AF9E1
:103168000F22074B1A60114A094B1B681368013379
:1031780013600F4A136801331360F8BD1C48004000
:103188002048004040080020E005002030080020CA
:10319800244800402C080020F107002014080020D3
:1031A800100800200C08002008080020480800200B
:1031B8001C0800201022F8B5284D2B68134208D0AF
:1031C80027490A6027490A6801320A600121264A0C
:1031D80011701A0719D1202602272B6833423CD0D8
:1031E800224A234B02201C68136801331360214ACA
:1031F800136801331360204A13783B431370FFF7B9
:10320800C9F8E0B2FFF700FBE7E7DA0703D51B4987
:103218000A6801320A609A0703D519490A68013217
:103228000A605A0703D517490A6801320A601B0762
:1032380003D5154A1368013313600820FFF7AAF86D
:103248000F22074B1A60114A094B1B681368013398
:1032580013600F4A136801331360F8BD1C3801402E
:103268002038014040080020E005002030080020F8
:103278002438014028080020F10700200408002015
:1032880000080020FC070020F8070020480800205C
:1032980018080020054B064A984200D91800054B2B
:1032A800984200D2180010607047C046F07E0E00A9
:1032B8000C00002010270000F0B587B002930CAB7B
:1032C8001B78040003930DAB1B78080004930EAB26
:1032D8001D880FAB1B7801920593002945D0002D5E
:1032E80000D10835211C0C2C41D90C21CCB2060088
:1032F800220000212348FCF78DFF002702000B0065
:1033080001204042C11780197941801859413B007A
:103318003200FCF78BFF029B039A5B001B1B920099
:1033280007339B180522049952424A439B18070009
:103338009B000820002B13DD059A5100611A8900B3
:1033480000D10131481EC018FCF7CCFE6B460200C4
:103358001879019B082B0FD90820C0B250430830B8
:1033680004352D187D43BF08E81907B0F0BDE3B256
:10337800062BBBD20621B9E7C1B20529EDD205203B
:10338800EBE7C04640420F007FB5099D0E000024C0
:103398000A2803D97D21B1426441E4B2FA21039499
:1033A80008248900714302940126002400960194A0
:1033B800FFF782FF0300A54200D028600020834267
:1033C80003D02000089A9A426041304004B070BD92
:1033D800F0B587B005901D2001F06AFB06001E209D
:1033E80001F066FB0500262001F062FB07002020A3
:1033F80001F05EFB0400212001F05AFB8446012005
:103408002B09FF08AD08310932070540064007407F
:1034180060462402520F0443C9B2DBB20432A4B29C
:10342800082914D80839484241410C48494201400A
:103438000918181C0C2B0CD90C20059B0397029417
:1034480001960095C0B2FFF737FF07B0F0BD0449F9
:10345800EFE7DBB2062BF0D20620EEE748E80100E2
:1034680020A1070070B5040008001D001600FFF732
:10347800AFFF03000220312C18D8FA200D49E400D0
:1034880062588000B21A824203D300200A1966509B
:103498005060094809194A6804680120A41A9C4226
:1034A80004D3D2184A60002D01D1002070BD2B60D2
:1034B800FBE7C046000F00200C000020312807D889
:1034C800054BC0001B185A688A4202D800225A606D
:1034D8007047521AFBE7C046000F002030B531286C
:1034E80015D8FA250C4BC000C458AD00141BAC42CB
:1034F80003D30024C2501A185460002907D0074A81
:103508001B1814685A68A01A884201D25C6030BD42
:1035180052185A60FBE7C046000F00200C0000203C
:1035280010B5084C2378002B01D0002010BDFF21D6
:10353800122001F0CFFA00F06BFC0028F5D001232F
:103548002370F3E79010002010B5064B1A78002A74
:1035580007D00022FF2112201A7001F0BBFA00F0F8
:1035680042FC10BD9010002070B50E4D2B78002B3A
:1035780001D1032070BD122001F09AFA042304003F
:1035880018401C42F6D02100122001F0A3FA0023B3
:103598002B7000F028FC0028EBD001231C40E01819
:1035A800E8E7C04690100020031E14D0081E12D071
:1035B800012008701A784A705A788A701A7ACA7084
:1035C8005A680A715A68120A4A715A68120C8A7142
:1035D8005B681B0ECB71704703000120002B1AD0CB
:1035E800002A18D00018072915D91978013001299F
:1035F80011D15978117099785170D9781172587918
:103608001979000208439979DB79090401430020FC
:103618001B060B435360704703000020312B03D86F
:1036280002485843024BC0187047C04620A1070003
:1036380030DFCE35F0B507000E00002489B00092C7
:10364800019303AD220038003100FCF7D7FD2200BA
:10365800287001990098FCF7D1FD083428720135CB
:10366800402CEFD10E9B064807930023054A03AC74
:10367800195D013348405043142BF9D109B0F0BD0E
:10368800C59D1C8193010001F7B5002304000D00BE
:10369800EB540133322BFBD1002C00D10C4C2E0003
:1036A800012731367F1B630363405A0C53405C018A
:1036B8005C403378B91920000193FCF799FD6B5CE5
:1036C800013E7370019B6B54B542ECD1F7BDC04607
:1036D800B979379E37B5084C2569A268E368206830
:1036E80061680095FFF7A6FF04496061FFF7CCFF0A
:1036F80000234A34237037BD98100020B0100020F2
:10370800C42210B500210248520001F055FD10BD39
:1037180098100020F7B51500C4220D4C07000E00C4
:10372800200000215200019301F046FD019B322246
:10373800E360089B2760236123004C336660A56023
:103748001A80FFF7C7FF01234B3400202370FEBD0A
:1037580098100020F7B5214B009001911B780120AB
:103768001F4C002B16D0009B0018002B12D00029EC
:1037780010D0270032254A373B78312B04D92369EA
:1037880001332361FFF7A6FF3B78E218167E312E3E
:1037980001D90720FEBD01333B7032000120002112
:1037A800FCF738FD236D1840636D1940084304D0B9
:1037B800013DEDB2002DDFD1EBE73000FFF72CFF24
:1037C8000028E6D0009B4C341E70019B18602388AB
:1037D800002B01D0013B23800020DBE7E310002011
:1037E8009810002070B50A4A030012780D000120D5
:1037F800084C002A0BD00230322908D82361FFF781
:1038080069FF230000204A334C341D70208070BDAE
:10381800E31000209810002070B5134B02221B788B
:10382800124D002B10D0013231290DD82B004A330C
:103838001B783124002B01D0013BDCB22B69834279
:1038480004D100228C4208D1100070BDC31ADA17C7
:103858009B1853400422012BF6D10131C9B2FFF75E
:10386800C1FF0122F0E7C046E310002098100020B5
:1038780073B5002601246442E5170C4B1A6D5B6D85
:103888001100194303D13220801BC0B276BD10004D
:1038980019000019694100900191009801991040A0
:1038A8001940013602000B00F6B2E9E79810002033
:1038B800312807D8044A163080008358591C01D093
:1038C800013383507047C04698100020312808D82B
:1038D800044A90304000835A03498B4201D0013397
:1038E8008352704798100020FFFF000070B5002831
:1038F8000FD00400FF260025064B323419880A1C15
:10390800FF2900D9321C027001301D800233A04209
:10391800F4D170BDB8110020014B18697047C0463A
:1039280098100020014B18787047C046E21000201C
:10393800014B18787047C046E31000200022024B64
:103948001A605A601A727047201200200122024B36
:10395800186059601A72704720120020014B187ABB
:103968007047C0462012002010B5044CC8212368B7
:10397800C01AFCF7B7FB6368C01810BD20120020FE
:10398800044B10B51B68C821C01AFCF731FC0800AD
:1039980010BDC04620120020F531FF3170B5841AE1
:1039A8000800FA2189001E00FCF79CFB0123034D47
:1039B800241A6E602C602B7270BDC0462012002045
:1039C80070B50B4D2A78131C062A00D906230A2441
:1039D800DBB29C40844200D90400FCF713FF054B7E
:1039E800001918602B78FF2B01D001332B7070BDA4
:1039F8002C1200203012002013B56B466A469971CC
:103A080000230C00D37169466B4601220733063147
:103A1800FDF794F9002805D16B46DB79012B01D11C
:103A28006B469C79200016BDF0B5012185B00320B6
:103A3800FFF7E2FFA62107000420FFF7DDFF0023C0
:103A480002AA9380D370130001900222102003333E
:103A580003A9FDF773F900281FD102ABDB78022B0D
:103A68001BD102AB9E8804211120FFF7C5FF05007A
:103A7800FCF7CEFE04000220002F0CD0FCF7C2FE9B
:103A8800284F3B68C21A0BD59BB280B2834207D03D
:103A9800FEF750FB032005B0F0BDFA267600E2E7FA
:103AA800002D21D0FFF73CFD1F4BE418002814D04F
:103AB800FFF75AFD022806D13000FFF781FFFEF715
:103AC80039FB0120E7E7032807D0012807D1FCF7D5
:103AD8009FFE001B08D4FFF737FD0420DBE7FCF747
:103AE80097FE001BE4D4F2E700F08BF90028F4D02D
:103AF800281C002D00D10120C0B2FCF7ADFE1B2010
:103B080000F0D6FF040000F06EF96B461B799D3C6F
:103B18005BB224B2A342CFDB0020044B386018709C
:103B2800B9E7C04630120020204E00002C120020B9
:103B3800F0B5040000203F2C17D80E4D4B1EAB42A9
:103B480013D80D4B0D4EDD7A002D0BD09D7AA54272
:103B580008D11D68551BA94204D9C7435D68AF4207
:103B680004D340190C33B342EDD1F0BD01204042DB
:103B7800FBE7C0461F4E0000341200203418002016
:103B8800F7B50D001900099B0400089E0192002B4F
:103B980003D00123099A5B42138001223F2C2AD8C3
:103BA800264F4B1E0232BB4225D8013A002D22D0A7
:103BB800002E20D0B5421ED8019A2000FFF7B8FF8A
:103BC8000422361AAE4216D31D4A00231100CE7ABB
:103BD800002E12D00133DBB20C31802BF7D1002339
:103BE8001168019E711AB94207D80133DBB20C3251
:103BF800802BF5D105221000FEBD0C275F43104E27
:103C0800F1190A898C720132D205D20D0A819446C3
:103C1800019A8134BA510127FF34A4004D60CF7254
:103C2800A1592D18A94200D2A5510999002903D0FC
:103C38006246D2011A430A800022DCE71F4E0000C8
:103C4800341200200A4B10B5984210D07F240C2261
:103C580004406243074B9B18DA7A002A07D01A8976
:103C6800C009824203D15A688A4200D9596010BDFE
:103C7800FFFF00003412002010B5002808D00021F2
:103C8800421C044BFF321C6810C002C39042FAD198
:103C980010BDC04634180020002301280CD0013381
:103CA800022809D00133032806D00133042803D0A1
:103CB8000538431E9841031D05205843014BC01881
:103CC8007047C0464657000870B50400FCF7A0FDD1
:103CD8000500FCF79DFD401BA042FAD370BD000013
:103CE800F8B50400FF23002831D080210079264A46
:103CF800264B890200282DD002201060042219606A
:103D08001A600A20FFF7E0FF4020A17800F0E2FEE9
:103D18004120E17800F0DEFE6178012000F0DAFE53
:103D2800FCF776FD1A4B0727C618012000F0C0FEE5
:103D3800050063786B403B4207D0FCF769FD801BA8
:103D48000ED463786B403B4219D101202378114A85
:103D58001370F8BD116002221A608022D202CFE7E8
:103D6800C820FFF7B1FF6178012000F0B3FE3220D0
:103D7800FFF7AAFF012000F09BFE0500D9E7290004
:103D88000420FDF7B7FFE0E71800005018080050BE
:103D98008813000034190020014B18787047C0467A
:103DA8003419002007230340581E00B506280FD8F1
:103DB800FCF78EF904040504080A0C000223054ADE
:103DC800137000BD0423FAE70523F8E70623F6E796
:103DD8000123F4E73419002010B50120FFF75CFF38
:103DE800FFF77EFF10BD10B50220FFF755FFFFF764
:103DF80077FF10BD10B50320FFF74EFFFFF770FFE8
:103E080010BD10B50420FFF747FFFFF769FF10BD8D
:103E180010B5FFF7E8FF002804D00620FFF73CFFA5
:103E2800FFF75EFF10BD000010B500240F4B4B20BC
:103E38001C7000F03DFE10210143C9B24B2000F078
:103E480049FE0220FCF708FD2100012000F042FE97
:103E58000120FCF701FDFFF7BFFFA04204D00120BD
:103E6800FCF7FAFCFFF7BFFF10BDC046341900206D
:103E780070B5FCF7CDFCFA250400AD00FCF7C8FCD2
:103E8800001BA842FAD370BD10B5FFF7BAFF041E95
:103E98000CD01E2000F00CFE04230100194018422B
:103EA80005D10520FDF726FFFFF79DFF0024200020
:103EB80010BD00007FB501380C0003281AD8FCF7A4
:103EC80007F902041A2500F0E5FA002502A8057092
:103ED80000F0E6FA0400A8420CD0224B1D70224BD9
:103EE8001D70FFF780FF200000F038FEFFF7C0FFCD
:103EF800FFF7CAFF7FBD00231C4A1370194A1370CD
:103F0800194A137001221A4B1A70F3E7174D02A8C9
:103F18002B7801AE037003234370124B1B78837018
:103F2800114B1B78C370124B1B78037100F082FA97
:103F38003080C1B20D20FDF7DDFE7378002B02D072
:103F4800FFF751FFD6E701202B78210001332B70B2
:103F5800084B1870084B1C60084B1C60FFF7AAFF41
:103F6800C8E7C04651190020501900203619002012
:103F780035190020401900203C190020381900206C
:103F8800F0B58BB0040015000391FFF7D1FC0028B1
:103F98003AD000F0EFFC0290002835D11C4B1D4EA2
:103FA80001931B7805A81C4F037033680474836061
:103FB8003B684560C360039B437400F0CDF904ABD4
:103FC8001880019BC4B22100187800F01BFA019BED
:103FD8001B78022B09D1012C07D1FFF7AFFC0F4B3F
:103FE800029A1A7035603D6006E0022C0ED0042358
:103FF80022009A43012AF5D004AB5B78019A290084
:1040080020001370FFF756FF0BB0F0BD3560F3E7E3
:10401800401900203C1900203819002041190020BF
:1040280010B50400FCF7EEFB02231B1B0200210065
:10403800D8B2FFF7A5FF10BD10B5FFF7D4FE10BD2D
:10404800F0B501260C0089B030421CD000291AD0E6
:104058004E4B1E70FCF7DCFB2300FC3398601220EB
:1040680000F026FD2023070005001F4018420DD050
:10407800FEF750F80020FFF7D3FF454B1E702900CC
:10408800122000F027FD002009B0F0BD4306F6D548
:10409800132000F00DFD0190102000F009FD0290A2
:1040A800192000F005FD46B21A2000F001FD029922
:1040B80003900D2000F00EFD019B002B04D01A0088
:1040C8002100380000F017FD27000322019BFF376D
:1040D8007B70F31713403A009B199B10BB70039B2E
:1040E800013A9D3B9380002305AE320020000199E0
:1040F8007B750297FFF770FA002803D00020FFF7BE
:104108008FFFBCE7230032000933FF3383CA83C320
:104118000123029A706853757178FFF77DFB0700D9
:1041280000F0EEF8012F15D8FCF76CFB322273680B
:104138000290534377780198DF19FFF749F93B005C
:104148000100327A0298FFF727FC0122114B1F6009
:10415800114B1A700120FFF763FF019B083BDBB28C
:10416800002B09D1FF346370FDF7CCFF1220290022
:1041780000F0B0FC012087E72200117A11700132AB
:10418800111BC9B28B42F8D8ECE7C0465119002080
:1041980050190020441900204119002073B51F4B05
:1041A80005001B78022B03D000221D4B1A7073BD2B
:1041B800FFF7D4FB0028FAD1194B1A4E1A78002AB7
:1041C80002D135600132F1E700F0D4FB0400FFF7BB
:1041D800AFFB431E98412200C3B23168280000F0AB
:1041E8009BF8040000F0ACF8002C03D0042CDED1BE
:1041F8003560DCE76B4601A9D81C01940470FFF711
:10420800A9FA0028F4D1FFF7EEFD019800F0A6FC0A
:10421800FFF72EFEFFF738FEEAE7C04640190020F8
:10422800481900204C190020002110B50200080090
:10423800FFF7A6FE10BD0000F7B50400FFF78EFBE0
:10424800002838D01C4B1B78022B34D100F092FB8D
:10425800002830D12000FFF787FB184E0400337880
:10426800174F002B02D03B68834224D03221200014
:10427800FBF7BEFF2000CDB23221FBF733FF290048
:10428800FFF7B0FA6B46D81C002301A9037001930D
:10429800FFF760FA00280BD1019B002B08D0FFF72D
:1042A800A2FD019800F05AFCFFF7E2FDFFF7ECFDD4
:1042B80001233C603370F7BD4019002041190020EC
:1042C8004419002010B50024074B1C70074B1C70C4
:1042D800074B1C70074B1C70074B1C70FFF72EFB1D
:1042E800064B1C7010BDC04640190020361900202E
:1042F80051190020501900204819002041190020A8
:10430800042806D8034A80008358591C01D0013379
:10431800835070475419002010B504000120002B69
:104328000CD00018002A09D1611A0230002905DBD7
:10433800BE2301385B00994200D3100010BD000075
:10434800042806D8034A80008358591C01D0013339
:10435800835070476819002082B001AB002806D14D
:10436800188018785B781B02184302B07047027CEB
:104378000178012A0FD0012923D0022917D1002A58
:1043880007D142688168521A0FD4FA21C9008A42BB
:1043980010D2802228E00222407C121AD2B20129CF
:1043A8000AD0022903D1012AF3D1134A07E0C02217
:1043B800002919D1022211E0012A04D10F4A1A80DA
:1043C800CFE7022A02D180225200F8E74268C1688A
:1043D800511A02D48068121A02D50622FF32EEE77B
:1043E8000748814202D9C1229200E8E7FA21490030
:1043F8008A42E8D38122E7E70502000003020000B1
:104408002F75000010B5032806D8084A8000835885
:104418005C1C01D001338350052906D8044A890061
:104428008B58581C01D001338B5010BD94190020B3
:104438007C19002037B5002828D00022037841785D
:10444800C5788B4252411C1CD2B20F2B00D90F24C5
:1044580001798078D301E4B2DBB200280CD00029BE
:1044680001D040210B43002D0DD12343FF210A40E9
:104478000B40100218433EBD002901D040210B43D8
:104488002021002D00D010210B43EEE780230122CC
:10449800ECE700000022014B1A707047A4190020B5
:1044A800F8B50400051E0BD0064F3E783000FFF724
:1044B800B3F832210500701CFBF79AFE267039709C
:1044C8002800F8BDA419002070B586B006000D00BC
:1044D800FCF7EEFD031E00D0037801AC2370104BEF
:1044E80066701B780495A3700E4B1E780E4BE67011
:1044F8001B6802930D4B1B680393FCF783F90C4967
:1045080002003000FFF714FB0A4D0590220000213D
:104518002888FDF77DFC2B8801332B8006B070BD01
:10452800BC190020C4190020B8190020C0190020A7
:1045380010270000A619002010B5FFF754FC064C00
:104548002378002B01D0FFF79FFC0023034A237038
:104558001370034A136010BDD4190020D719002026
:10456800C8190020F0B58FB00390FFF715FC039B26
:104578000590002B16D0B74B1978002912D1039B50
:10458800B54EFF335F78B54D0837B54CFF2F0DD9C1
:10459800B44B31701970B44B296021601970FF2039
:1045A800FFF792FF002420000FB0F0BDFCF780FD5C
:1045B800002803D002220378934335D10023A94A67
:1045C80033701370A94A2B601370A74A23601370C5
:1045D800059BA74A043BDBB2012B78D80123137053
:1045E800FFF72AFD9E4B186800280BD000F0B6FA9A
:1045F800FCF70EF9FA250400AD00FCF709F9001BD9
:10460800A842FAD3FFF710FA0225A843C0B200283F
:1046180064D0944B1878FFF74BF900212800FFF776
:1046280053FFFFF789FFBDE7FCF7ECF80400FFF73D
:1046380095F900280AD1FFF76FF90500FFF772F91D
:104648003221694309182000FFF780F92000FFF79D
:104658008BF932210500FBF7CBFD2800CEB23221C1
:10466800FBF740FD3100FFF7BDF82000FFF788F9A0
:10467800804B241A1C607C4B002404930123049A69
:104688000BA9137006AB1C7309A80B94FFF762F80B
:10469800714E724D724B734AA04207D01C60049B46
:1046A800210034702C6014701C7078E706A9097B0F
:1046B80011700B9A1A60FFF735F93123002801D0E1
:1046C8000138C3B23370FFF727F9286080E7002369
:1046D8001370FFF788FB002884D163E7FFB2380026
:1046E800FEF776FE644B0400984204D9FDF72AFDD4
:1046F8002100012093E75B4B604E1C7804933060E7
:10470800FCF780F85E4B0200390020000693FEF7A4
:10471800A9FE0590002806D0012801D1FDF712FD59
:10472800042031687BE7FCF7C3FC0122554C524258
:1047380000281DD00378AB431AD0049B22801D7833
:1047480033680793FCF75EF84F4B0200009328008C
:104758004E4B07990194FFF713FA002809D0049BE0
:104768001878069B1968FEF7A9FE0320316856E7FA
:10477800228000210E2000F0ADF900210D2000F06C
:10478800A9F93900222000F0A5F9FCF791FC0028CE
:1047980001D003780593059B0BAC23702E4B1B7837
:1047A80063702E4B1B6863602F4B1878002808D065
:1047B800FCF728F82F4B1B68C01AFF2800D9FF20E8
:1047C800C0B22A4B2072187009A92000FEF7ECFE2F
:1047D8000822002009A900F0A5F9039BFF335A78A5
:1047E800002A04D0039B0020591C00F09BF9FF21EC
:1047F800122000F06FF9FFF7FDFA214D041E08D1D1
:10480800184B29681878FEF759FE1C4B06201968C2
:1048180005E7039A1E4B127809201A7000F048F930
:104828000F221C4B1040023018702B681A4D2B6059
:10483800002B03D13800FEF7CBFD2860FBF7E8FF1B
:104848002B681649164A5B181B1813600122014B86
:104858001A70A8E6D7190020BC190020B819002042
:10486800C0190020C4190020AC190020B419002078
:10487800D4190020B019002060CC0500A819002028
:10488800C819002010000020801A06001027000018
:10489800D6190020D5190020D0190020F0490200AF
:1048A800CC19002070B50C1E01D1002070BD2A4B18
:1048B8001B78012BF9D118422CD0122000F0F8F8FF
:1048C80005000100122000F005F92D0722D500256A
:1048D800224B234E1B7865702370224B1B78A370E4
:1048E80033686360204B1C78FBF78CFF29000200BB
:1048F8002000FEF7F3FDFDF715FC1C4B3168188806
:10490800FFF7A0F928003168FFF7DEFDFFF714FE76
:104918000120CBE7FBF77CFF154B1B68C01AC4D4FA
:10492800FF21122000F0D6F80C4B0D4D1B78237098
:10493800012363700B4B1B78A3702B6863600A4BD1
:104948001C78FBF75FFF002102002000FEF7C6FD80
:1049580005202968D8E7C046D7190020D6190020B5
:10496800D0190020D5190020C419002010000020FB
:10497800CC190020024B1878431E9841C0B27047EA
:10498800D719002070B50500FCF792FB002801D16B
:10499800002070BD0378012BFAD1FEF7DFFF002855
:1049A800F6D0FBF72FFFFA24FEF7EAFFA4004443F2
:1049B8000B2802D80948001BEBE72B1CF72D01D95F
:1049C800074B1B780833D8B2FEF702FD054B064AA1
:1049D800E3181B189342DBD90448ECE7E02E0000EB
:1049E80064570008983A0000400D0300203C03007B
:1049F8000122032370B515004C00A340A5408A404E
:104A080006689E4335430560456895430222A240E7
:104A18004560816899430A438260C2689A43C260CC
:104A280070BD032349008B4002689A430260C26844
:104A38009A43C260704700000222084B196811426D
:104A4800FCD00121064A107018680842FCD0802169
:104A580018680842FCD11078C0B27047083001408D
:104A68000C3001408022044B002802D112021A6047
:104A780070471206FBE7C0461800005010B50A4CF4
:104A880000212000FFF7B4FF8022084B52021A6071
:104A98000120FBF7E1FE00212000FFF7C2FF0620FE
:104AA800FBF7DAFE10BDC046000800501808005099
:104AB80010B504000120FFF7D5FF7F202040FFF745
:104AC800BBFF0020FFF7B8FF04000020FFF7CAFF74
:104AD800200010BD70B5040001200D00FFF7C2FFD3
:104AE80080202043FFF7A8FF2800FFF7A5FF00203C
:104AF800FFF7B8FF70BD70B5050001200C00160067
:104B0800FFF7B0FF7F202840FFF796FFA619002087
:104B1800B44202D1FFF7A6FF70BDFFF78DFF2070EA
:104B28000134F4E770B5050001200C001600FFF70A
:104B380099FF80202843FFF77FFFA619B44203D1CD
:104B48000020FFF78FFF70BD2078FFF775FF013455
:104B5800F4E710B54220FFF7ABFF10BD10B50023F6
:104B68000A4A410BC004FBF761FB0400010CC9B2FF
:104B78000620FFF7AFFF210A0720C9B2FFF7AAFFF7
:104B88000820E1B2FFF7A6FF10BDC0460048E801C3
:104B980010B5011C112809D91121802302395B4263
:104BA80019430920C9B2FFF795FF10BDC3B2022B04
:104BB800F3D20221F1E70000F0B5FA230D00092134
:104BC8008DB006005B0004919D4205D2FB3BAB42D1
:104BD8009B415B420733049300230793331C0C2E3D
:104BE80039D90C23DBB20393171C082A38D90827B4
:104BF800FBB2059307AB0193414B2900009303983F
:104C0800FF23FAB2FEF7C0FB041E2ED1FA2292004F
:104C18006A43039908AB19705A80110C120E5A7125
:104C2800FF229A71079A1971110ADA711972110C17
:104C3800120E9A726022DA72324A59729A810F22DF
:104C4800987301005F7000920200C220FDF7F8FF20
:104C580020000DB0F0BDF1B20629C3D20623C1E78A
:104C6800D3B2052BC4D20527C2E704270599049BB4
:104C780004391B01490019431D20C9B2FFF72AFF57
:104C8800039B1E2019013943C9B2FFF723FF2620D1
:104C9800FFF70EFF0A2E19D97D2D12D80C210143DA
:104CA800C9B22620FFF716FF3120FFF701FF0723BF
:104CB800032198430143C9B23120FFF70BFF0A21B2
:104CC80019E0F723390018400143EAE7F7233900D0
:104CD800184001432620FFF7FDFE062EE4D83120B8
:104CE800FFF7E6FE0723052198430143C9B23120A7
:104CF800FFF7F0FE0C213720FFF7ECFEA8E7C046CF
:104D080060CC0500CC05000010B5FFF755FF10BDBD
:104D1800F8B50723794A8024116808200B431360EB
:104D2800C0227749774F0B68774E934323430B6034
:104D380076490B6883430B60754976480B68934343
:104D480023430B607449A0240B68E4059343734A1A
:104D58000B60136872490B4013608022402123685E
:104D680092013B401343236003688B436D49036002
:104D78000B683B401A436C4B0A601A683A401A6049
:104D88006A4A1568354015602568694E35408026A1
:104D98003602B4463543802625600568B54305606C
:104DA80065460868624E30402843802508601968C7
:104DB8006D013140012619601168200009010909B7
:104DC80011601A680F213A402A431A60FFF710FE53
:104DD800584F0020FFF746FE00215748FFF708FE0E
:104DE800310020003E60FFF703FE31005248FFF714
:104DF800FFFD02215048FFF7FBFD80224F4B920236
:104E08001A6002233B608023DB023B6004213C489C
:104E1800FFF707FE31003A48FFF703FE0021384844
:104E2800FFF7FFFD44480D21FFF7FBFD444A4548C5
:104E380013681D4315601368802180240368194096
:104E48002342F9D1B820404B400119603F49713CD9
:104E58000860C5218900196040211868014319605C
:104E680001231168F0201943116039490A68A243E7
:104E78001A430A601021374A15688543294311608F
:104E88001168A1430B431360202333490A68824306
:104E980013430B603149324B0A6832481A430A609F
:104EA80031490A681A430A6030490A6802400A60B0
:104EB8002F4A032113600520FBF7F8FC0321072084
:104EC800FBF7F4FCFFF7DAFDFEF7AEFF041E02D194
:104ED80000242000F8BDFFF73CFE0138C0B2FD28D1
:104EE800F6D82448FFF73AFE0522FA210720FFF7F3
:104EF80063FE0E20FFF74CFEEBE7C0462C10024085
:104F080000040050FFCFFFFFFFFFFFF00404005034
:104F180008040050040000500C0400502004005005
:104F2800FF0FFFFF080000500C0000502000005049
:104F3800FF3FFFFF180800500008005018000050FD
:104F48003410024008300140003001400430014074
:104F58000C00014008000140140001400004014019
:104F680013200000ECDFFFFF080401400C0401409F
:104F780014040140C0CA8936EFF3108272B60021CA
:104F8800024B1868196082F310887047D8190020FE
:104F98000B4A03211368180008400B420ED010601A
:104FA8000222134203D00749086802430A60DB075C
:104FB80004D50423034A11680B4313607047C046A5
:104FC80014040140D81900200B4A0C491368180032
:104FD80008400B420ED01060DA0604D501220849B9
:104FE800086802430A609B0404D50823044A116830
:104FF8000B4313607047C0461404014010200000A2
:10500800D8190020F0B557464E464546DE46E0B56D
:1050180004000D009246994683B08B4230D82DD0BB
:1050280049465046FBF722F9290006002000FBF705
:105038001DF9331A9846203B34D49B4653465A46AA
:10504800934042461F00534693401E00AF423BD850
:10505800AF4200D179E05B46A41BBD41002B00DACA
:1050680076E0002200230092019301235A469340E0
:105078000193012342469340009329E08242CFD90D
:1050880000220023009201930C9B002B01D01C608E
:105098005D600098019903B0F0BCBB46B246A946D2
:1050A800A046F0BD42469B4620239B1A5246DA4052
:1050B800414613004A468A40170042461F4353465A
:1050C80093401E00AF42C3D90022002300920193EF
:1050D8004346002BD8D0FB0772081A4346467B0884
:1050E8000EE0AB4201D1A2420CD8A41A9D41012086
:1050F80024196D410021013E24184D41002E06D08F
:10510800AB42EED9013E24196D41002EF8D100982A
:1051180001995B4600196941002B24DB2B005A4694
:105128004446D3402A00E2401C005B461500002B91
:105138002ADB26009E40330026004746BE40320048
:10514800801A9941009001919EE7A342BCD882E75A
:105158004246202300219B1A00220091019201223D
:10516800DA40019285E7424620239B1A2A004646E8
:105178009A402300F340444613432A00E2401C00AF
:105188005B461500002BD4DA42462F002023260068
:1051980097409B1ADE403B003343CDE730B50024EF
:1051A8000139A24201D1002005E0035D01340D5D03
:1051B800AB42F6D0581B30BD03008218934200D191
:1051C800704719700133F9E7002310B59A4200D1EE
:1051D80010BDCC5CC4540133F8E74641554C543AF1
:1051E80052455345540D0A004541524C593A5245CF
:1051F8005345545C725C6E005253543A53544152B6
:10520800540D0A005253543A4D41494E0D0A004577
:1052180041524C593A4D41494E5C725C6E004D3AD0
:10522800524144494F5F4259504153530D0A0000BF
:1052380001010300C50900080E000000000000007D
:105248000201010000000000010000000000000051
:105258000301010000000000010000000000000040
:105268000401020000000000A60000000000000089
:10527800050101000000000001000000000000001E
:105288000601010075090008000000000000000088
:105298000708060000000000FF00000000000000F2
:1052A8000801010075090008010000000000000065
:1052B80009010100000000000100000000000000DA
:1052C8000A010300000000000000000000000000C8
:1052D8000B0405020000000000100E000000000092
:1052E8000C01030000000000100000000000000096
:1052F8000D0204000000000064000000000000002F
:105308000E010100750900080000000000000000FF
:105318001002040000000000F4010000000000007A
:10532800110103000000000004000000000000005C
:1053380013020400000000009001000000000000BB
:10534800140103000000000000000000000000003D
:10535800150102000000000002000000000000002B
:10536800160103000000000011000000000000000A
:105378001708060000000000000000000000000000
:1053880018080600000000000000000000000000EF
:10539800800103010000000001000000000000007F
:1053A800810103010000000002000000000000006D
:1053B8008201010100000000000000000000000060
:1053C800000308090A0B0C070D0E000048E801004D
:1053D80090D0030020A107002E00433A53454E44C5
:1053E8005F424F4F540D0A00433A53454E445F46BF
:1053F80041554C540D0A00433A53454E445F5245BB
:105408004144590D0A00433A434C4B5F4853455FAA
:1054180033324D0D0A00433A434C4B5F4853495FC2
:1054280031364D0D0A00433A494E49545F444F4EB8
:10543800450D0A00433A44495350415443480D0A24
:1054480000433A4241445F5645520D0A00433A50E0
:10545800494E470D0A00433A5645525F4449535056
:105468000D0A004F53452D4C696665547261634CB3
:105478004F52412D4D7572617461465700646576CF
:10548800004641494C004154004154490020004124
:10549800542B5645523F00433A41545F5645525F9C
:1054A800444953500D0A0046573D00205645525373
:1054B800494F4E3D00204749543D002050524F541B
:1054C8004F3D0020534348454D413D002043415046
:1054D8003D30780041542B524144494F3F004552DA
:1054E800524F520D0A00524144494F3D0020564543
:1054F8005253494F4E3D3078002053544154453D56
:105508000041542B535441543F00484F53545F4477
:10551800524F5050454400484F53545F4552524FE4
:10552800525300484F53545F51554555455F4655B2
:105538004C4C00484F53545F4952515F49444C45C5
:1055480000484F53545F4952515F485400484F53E5
:10555800545F4952515F544300484F53545F495276
:10556800515F544500484F53545F52585F42595455
:10557800455300484F53545F52585F4C5055415261
:105588005400484F53545F52585F55534152543159
:1055980000484F53545F50415253455F4F4B0048AA
:1055A8004F53545F50415253455F45525200484F44
:1055B80053545F554152545F4552525F4C505541C8
:1055C800525400484F53545F554152545F4552520C
:1055D8005F55534152543100524144494F5F444949
:1055E8004F3000524144494F5F44494F31005241C6
:1055F80044494F5F44494F3200524144494F5F4448
:10560800494F3300524144494F5F52585F4F4B0056
:10561800524144494F5F54585F4F4B0052414449EF
:105628004F5F4352435F4552520053544154450023
:1056380041542B48454C500041542B48454C503F51
:10564800004154204154492041542B5645523F2093
:1056580041542B524144494F3F2041542B5354410C
:10566800543F2041542B48454C502041542B42492B
:105678004E0D0A0041542B42494E004F4B204249DF
:105688004E0D0A00483A52585F4C50554152543119
:105698000D0A00483A52585F5553415254310D0A89
:1056A80000483A4552525F4C5055415254310D0A08
:1056B80000483A4552525F5553415254310D0A0041
:1056C800483A50524F435F4652414D450D0A0048F3
:1056D8003A434F42535F4552520D0A00483A434FEE
:1056E80042535F4F56460D0A00483A5041525345BF
:1056F8005F4552520D0A00483A5645525F5245518D
:105708005F52580D0A00483A4652414D455F4F4B8B
:105718000D0A00483A515F46554C4C0D0A00483A6C
:1057280041545F44495350415443480D0A00483A94
:1057380052585F52494E475F4F56460D0A00018046
:10574800000000028100000003834000010485007E
:10575800000005860000000687A00000F700000092
:105768001249134B70B50C68186872B600230326EB
:10577800104A114D1360114A1360114A1360114AFF
:105788001360114A1360114A13602A6801331A43DF
:105798002A600F4D2A68B24313432B600D4B1960E2
:1057A80084F30888804730BFFDE7C0460000F01F3B
:1057B8000400F01F0044004034100240044400403C
:1057C8000844004010E000E014E000E018E000E0C9
:1057D8000000014008ED00E001224F4BF0B51968C8
:1057E80085B00A431A60042219681142FCD00323C9
:1057F8004A4A11689943023B0B430C211360136812
:105808000B40042BFBD1464B464E05223360002348
:10581800454D464C2B602260F032FF3201930392D3
:10582800A63302938020019B414A9B00D158414AEC
:105838008002136800270343136001233E4A10685F
:105848000343A0201360F023C00502689A43503B2D
:10585800134303600C20394A1368834338481360A4
:105868000268384B1A408823DB0113430360364A29
:10587800364B48081F601760354A1760354A80184C
:10588800FAF730FC1F21344B344A186011600D229E
:105898002E4B39001A603B00314F029A8A421BD8BE
:1058A80000232A4A1360284A1360294A1360019A80
:1058B80001320192032A04D1236033602B6005B0C2
:1058C800F0BD039B029A9B1A0393A6230293019BA4
:1058D800022BA7D1039BA4E7802022684002024044
:1058E800501E8241202089181E4A12680242D4D0D4
:1058F8001D483A68C05CD2B2904208D10133082BE7
:10590800CBD10023236033602B60FFF729FFA53A32
:1059180053425341C1E7C046001002400C100240F8
:105928007F3E000014E000E018E000E010E000E036
:10593800CC000008381002402C100240040000502F
:1059480020000050FF00FFFF0444004000440040D6
:10595800084400400024F4000C4400402044004067
:0C596800244400401C440040C40000081F
:0859740098F6FF7F010000001E
:10597C00010000000024F400FF010000801A060062
:04598C00FFFF000019
:0400000508000405E6
:00000001FF
