:020000040800F2
:100000000050002005040008A1030008890300082F
:1000100000000000000000000000000000000000E0
:100020000000000000000000000000009D03000828
:1000300000000000000000009D030008DD0900082A
:100040009D0300089D0300089D0300089D03000810
:100050009D030008715400089D030008A95400087E
:100060009D0300089D0300089D0300089D030008F0
:100070009D0300089D0300089D0300089D030008E0
:100080009D0300089D0300089D0300080000000078
:100090009D0300089D0300089D0300089D030008C0
:1000A0009D0300089D0300089D030008E533000838
:1000B0009D030008053300089D0300089D03000808
:0400C0009D03000894
:1000C400A55AA55A5AA55AA500100E0000C201004F
:0400D4008025000083
:1000D80002B4714649084900095C49008E4402BCD3
:1000E8007047C046002243088B4274D303098B42F1
:1000F8005FD3030A8B4244D3030B8B4228D3030CF0
:100108008B420DD3FF22090212BA030C8B4202D391
:100118001212090265D0030B8B4219D300E0090AB9
:10012800C30B8B4201D3CB03C01A5241830B8B42C2
:1001380001D38B03C01A5241430B8B4201D34B03AB
:10014800C01A5241030B8B4201D30B03C01A524110
:10015800C30A8B4201D3CB02C01A5241830A8B4295
:1001680001D38B02C01A5241430A8B4201D34B027E
:10017800C01A5241030A8B4201D30B02C01A5241E2
:10018800CDD2C3098B4201D3CB01C01A5241830996
:100198008B4201D38B01C01A524143098B4201D3D0
:1001A8004B01C01A524103098B4201D30B01C01AFB
:1001B8005241C3088B4201D3CB00C01A5241830875
:1001C8008B4201D38B00C01A524143088B4201D3A2
:1001D8004B00C01A5241411A00D201465241104602
:1001E8007047FFE701B5002000F006F802BDC046E1
:1001F8000029F7D076E770477047C046D0400B001B
:10020800D1409C46203AD34018435242634693401B
:10021800184370479140030090409C46203A934011
:10022800194352426346D34019437047002B11D1FA
:10023800002A0FD1002900D1002802D00021C9438B
:10024800080007B4024802A14018029003BDC04646
:10025800A9FFFFFF03B4684601B5029805F044F909
:10026800019B9E4602B00CBC7047C04610B50029E1
:1002780003D100F007F8203002E0080000F002F88F
:1002880010BDC0461C2101231B04984201D3000C59
:1002980010391B0A984201D3000A08391B099842F1
:1002A80001D30009043902A2105C40187047C04607
:1002B8000403020201010101000000000000000027
:1002C8000023C25C0133002AFBD1581E704700008E
:1002D8000123174A11680B4313608023154ADB0278
:1002E80011680B43144913600A68144B1A408023A1
:1002F8001B0113430B60A021F023C9050A689A4328
:10030800503B13430B600E490E4B0A681A40CC232E
:10031800DB0113430B6000230B4A0C4913600B608D
:100328000B490B600B4B0C4919600923136070478C
:100338002C100240381002404C100240FFF3FFFF1F
:1003480020000050FF00FFFF004800400448004024
:10035800084800400C48004055410300802130B552
:10036800054A064C0378002B00D130BD01301568D2
:100378000D42FCD02360F5E71C48004028480040A7
:10038800042172460A4202D1EFF3088001E0EFF33C
:10039800098015E030BFFDE707B5FFF799FF07486B
:1003A80000F0A0FA002102200B000A000191009140
:1003B80000F0DEFA00F0D4FA30BFFDE7C6560008B8
:1003C80073B504000600051E02D046698569C46934
:1003D800FFF77EFF074800F085FA002133002A0066
:1003E80001200191009400F0C3FA00F0B9FA30BF7F
:1003F800FDE7C046C65600087047000001221C4BA6
:1004080010B519680A431A60042219681142FCD011
:100418000323184A11689943023B0B430C211360CC
:1004280013680B40042BFBD1FFF752FF1248FFF76C
:1004380095FF124800F056FA114A124B12498B42A6
:1004480010D30021114B124A93420ED3114800F0E9
:1004580049FA1148FFF782FFFFF7CEFF00F01EF8B8
:1004680030BFFDE701CA01C3E9E702C3ECE7C046B4
:10047800001002400C100240D4560008E456000850
:10048800605E0008000000201400002030000020FA
:10049800241A0020F0560008FB560008F0B5834CDB
:1004A800A54400F00FF905F009FC00F047F900F049
:1004B800CBF9E120000302F095FD04F083FE041E51
:1004C80000D1E6E003F0FEFD040004F09CFD01000D
:1004D800200000F0C7FF00F0D1F9089000F0AEF955
:1004E800002805D000F0AAF90100082001F050FC0E
:1004F800002601270696059604960396029600F0B4
:10050800BDF9019002F0CCFA02F07CFB02F018FC75
:1005180002F0CAFE029B1843C3B2029302F0E0FE47
:10052800039B1843C3B20393049B002B08D1029B7F
:10053800002B06D01900092001F02AFC00F080FFEA
:100548000497002E08D1039B002B06D019000C201D
:1005580001F01EFC00F074FF3E00069B002B0ED13C
:1005680002F04EFE00280BD002F04AFEFF2800D908
:10057800FF20C1B20B2001F00BFC00F061FF0697D1
:10058800059B002B12D1049B002B10D1089A019BCC
:100598009B1A474A93420AD902F01AFE002806D14C
:1005A80004990A3001F0F4FB00F04AFF059702F0C5
:1005B8006FFE002803D00021062001F0E9FB52A8B5
:1005C80002F028FC051E6CD104F030FF040004F092
:1005D80039FF0990200001F077FB20000AA904F0F8
:1005E80063FB0790002802D00AA801F071FB3C4287
:1005F8000DD004F019FC002809D120000CA903F043
:100608004DFE002802D00CA801F0D0FB3D002A00C6
:100618000799099801F0C8FF01F026FE01F070FB68
:10062800002823D004F000FC00281FD104F016FF96
:1006380000281BD004F0FAFE050004F003FF0400B4
:10064800280001F041FB3D4208D028000CA903F026
:1006580025FE002802D00CA801F0A8FB200001F01C
:100668000FFE012C02D9601E01F0FEFD01F050FBC7
:10067800019803F065FF019803F06AFF019803F001
:1006880019FF00F051FD0178019801F039FD30BFE4
:1006980035E70100032001F07BFB064800F022F952
:1006A80013E752A800F046FF89E7C04674FDFFFF34
:1006B800B70B00000A570008014B18687047C0467E
:1006C8000400002010B513480378002B20D11249EC
:1006D80003330A68940012D4013B54000FD4023348
:1006E800D4000CD40233540109D4013B140106D4BC
:1006F8000233940103D40133D40100D4D30F074A41
:10070800137080230A681B0413430B6001230370D2
:1007180010BDC04630000020741002403100002097
:1007280010B5044B1B78002B01D1FFF7CBFF024B10
:10073800187810BD30000020310000200123A020CF
:100748002F4AC005116882B00B43136001682D4B16
:10075800194080235B040B432B4903600B682B482B
:1007680003400B6080232A495B010B60022110685B
:1007780001431160274928480A6802401343402270
:100788000B6026490B6893430B60254B1A600023C6
:10079800FA2201931201019B93422DD3A022214BEF
:1007A800D20219680A4380211A601F4A8902186810
:1007B800084202D1013A002AF9D1012219680A43F4
:1007C8001A60042219681142FCD0032217490868EC
:1007D8009043023A02430C200A600A680240042A45
:1007E800FBD1134A1349116001221968124B490CB5
:1007F8008A431A7002B07047019B01330193CAE71C
:100808002C100240FFFFFFFC04000050FFEFFFFF29
:100818001800005000040050FFCFFFFF04040050F0
:10082800180400500010024001350C000C10024062
:10083800040000200024F40000000020014B187878
:100848007047C04600000020FA21084B10B5186810
:100858008900FFF747FC0022054B01381860054B5B
:100868001A60054B07321A6010BDC046040000200C
:1008780014E000E018E000E010E000E0014B186828
:100888007047C0463400002070B50C4B0C481D68FA
:10089800026819688D42FAD10A4B0B491C680B4B48
:1008A80001341868A41AFFF71DFC01002000FFF7A7
:1008B80019FCFA239B006B43C01870BD340000205C
:1008C80018E000E014E000E040420F0004000020BF
:1008D800034A116813685B1A8342FBD37047C0460A
:1008E8003400002030B500280FD009220A4B1B68BD
:1008F8001340934209D18021084B094C0278002A01
:1009080004D1403219681142FCD030BD1D680D4237
:10091800FCD001302260F1E7004800401C4800404C
:10092800284800400323020070B5FF2504001A4040
:100938009A402E009C43230089019640294091400B
:10094800054C064A1B191C68B4432143196001234E
:100958008340136070BDC04600E400E000E100E0A1
:10096800014B024A1A60FEE70CED00E00400FA05AC
:1009780030B5074C074D2560207161710021E18079
:10098800A260E360039B2361049B636130BDC046A2
:1009980014000020EC5D07FA030010B5002813D0FE
:1009A8000A4A0B49146800208C420DD1117919703C
:1009B8005179597091685960D16899601169D96005
:1009C800516910601961013010BDC0461400002043
:1009D800EC5D07FA024A1368013313607047C0469A
:1009E800340000200420704703004178027809028F
:1009F80011438278C07812040A43000659791043DB
:100A08001A79090211439A7912040A43D979090615
:100A1800114370470023064A1901515C814205D0F1
:100A28000133192BF8D10120404270471800FCE728
:100A38001C570008030010B50220012903D11878BB
:100A480004F000FB002010BD10B500F06DFB041E83
:100A580007D0007800F056FA1422617DA25600F003
:100A68006FFA10BDF0B51A4B8DB01A4C1A4D0193A0
:100A780023786778AE1C2B70082200216F70300035
:100A880004F00CFE21003A003000083104F00EFE9C
:100A9800019B10340A359C42EAD100240021282207
:100AA80002A804F0FBFD02ABFF221C70002320000B
:100AB8000492059300F030FA02AA084B0690100041
:100AC800938200F0A5FA064B1C700DB0F0BDC0462D
:100AD800AC5800081C57000839000020021100001B
:100AE800380000200023F0B593B007000D00160071
:100AF8000493059306930793FFF78CFF0124019055
:100B0800002800DAF6E0A44B02019B18DA780534D5
:100B18000292D20700D5EDE05B78043CB34200D0E6
:100B2800E8E0002D00D1E5E03200290004A804F037
:100B3800BDFD781E13281CD8FFF7CAFA0A44444A98
:100B480044448244445156646A441B72771B7D882E
:100B580004AB1B78012B31D8022304AA1370FFF7CA
:100B680073FF002805D004AB1B78834201D904AB7E
:100B780018700A25019B32005D43884B06A8ED18C2
:100B8800290004F093FD3200280004A904F08EFD2A
:100B9800814B0393019B1F01039BDB195B68002BAF
:100BA80000D1E1E0310028009847041E00D1DBE0C5
:100BB8003200280006A904F079FD9BE0112BCED95C
:100BC8001123CAE704AB1B78012BD2D9032491E087
:100BD80004AB1B787833DBB2782BCAD9F6E704ABC1
:100BE8001B78072BC5D9F1E79622049B9201934203
:100BF800BFD0E12252029342BBD0E12212039342BA
:100C0800E4D1B6E704AB1B78013B3F2BB1D9DDE754
:100C180004AB1B88624A323B9BB29342A9D9D5E701
:100C280004AB1B885F4A0A3BF6E704AB1B78013B21
:100C3800092B9ED9CAE704AB1B885B4A323BEBE71A
:100C480004A8FFF7D1FE084393D1BFE704AB1B7894
:100C5800022BBBD808AF28220021380004F01EFD63
:100C680004AB1878387000F057F90C900720FFF79C
:100C7800D1FE002800DA75E00A2460434B4D0230AB
:100C88004019FFF7B1FE0A900B911520FFF7C2FE3D
:100C9800002867DB60432818837816203B75FFF728
:100CA800B9FE00285EDB60432818837817207B751F
:100CB800FFF7B0FE002855DB604302304019FFF70C
:100CC80093FE0E900F911820FFF7A4FE002849DB31
:100CD800444302346019FFF787FE109011910121F7
:100CE800380000F0B3F9002807D000F01FF9041EFF
:100CF80000D13EE7200013B0F0BD00F0C1F9002894
:100D0800F3D1FFF7A1FE07000120FFF783FE041EC1
:100D180028DB002F26D00A2213004343EB189978CA
:100D28000B1CB94200D93B1C6243D8B21700AA1861
:100D3800937004F087F91E4B03931B78002B00D0A7
:100D480017E7154B24011A19023708345278E118AD
:100D5800E81904F095FC002800D10AE70123039A5A
:100D6800137006E70424C5E7114C2378002B0AD139
:100D7800039B083732002800D91904F081FC0028A9
:100D880001D0012323700223029C029A1C401A42BC
:100D9800B0D00524AEE7C0461C5700083B00002031
:100DA800561300007E1300009E0700003900002043
:100DB80038000020F7B51E0007000C000192FFF76D
:100DC80029FE03000120002B13DB0018002C10D093
:100DD800002E0ED00C4A190152185578019A9542E6
:100DE80007D8822F06D10125084B1B7823700020D5
:100DF8003570FEBD0A215943054B2A002000C91849
:100E080004F054FCF3E7C0461C57000838000020E3
:100E18003B000020F8B503000C00002841D0081E54
:100E28003FD01F00FF37797800200D00103595421C
:100E380037D82170BA781E0062701A00FE32042179
:100E4800525EFC36A27092B2120AE270B268110ABF
:100E580022716171110C120EA171E2717A788242CD
:100E680004D020001900083004F020FC7D78797D3A
:100E78002B000833E018002914D0012202707A7A76
:100E880004334270BA7AE41882707A7CC27033698B
:100E98001A0A237062701A0C1B0EA270E3702800E5
:100EA8001030F8BD082204F0F9FBF8E70300100041
:100EB800012B08D10A00803AD2B2012A01D985292A
:100EC8000ED118000CE0002A0AD00020402B07D8C9
:100ED800252B06D8092B0BD8053098428041404273
:100EE80070470748263BDBB2D84001231840F7E794
:100EF800002001221D3BDBB29A424041C0B2EFE71D
:100F08000128220403001120002B04D0013B0020FB
:100F1800012B00D81E30704703000020022B02D896
:100F2800014A9B0098587047B858000803000420ED
:100F3800092B01D8014AD05C7047C046AC5800085C
:100F48000023062A01DD063A53B2C01A884200DDA2
:100F58000800012800DC0020C0B27047F8B5050081
:100F68000E00092400281AD00478022C41D814272E
:100F7800C757FBB21E2B3ED82000FFF7C3FF3A002D
:100F8800697DFFF7DDFF002837D0012C09D0022C3E
:100F980026D0EB68AC681C4363425C4164002000C7
:100FA800F8BD002E2DD08021EA68AB68C9028A42BC
:100FB80025D200211800104309D102243129EED985
:100FC8002C69114BE418631E9C41A400E7E7180044
:100FD800204009185B08D007C9B203435208E9E763
:100FE800002E0ED0AB68EA681343D8D02C69074BA3
:100FF800E8E70124D3E70524D1E70624CFE7032453
:10100800CDE70724CBE7C046702FFCFFE05EF8FF72
:1010180070B50B4D0400010028222800002C0AD0CE
:1010280004F044FB28220021064804F037FB002284
:10103800054B1A7070BD04F031FB2C70F2E7C04606
:1010480060010020380100203301002070B5050040
:10105800FFF784FF2822041E074807D0002104F068
:101068001DFB0023054A2000137070BD290004F001
:101078001DFB0123F6E7C04638010020330100209C
:1010880073B5244D08202B78002B24D0224C234EF6
:1010980028223100200004F009FB02F0C2FF237867
:1010A800012B19D1226A636AA069E16900240094BE
:1010B80002F044FC0522FA21072004F07FF81848C2
:1010C80002F0FCF903F08AFA28220021300004F02B
:1010D800E5FA0020287076BD022B0DD102F024FC21
:1010E80003F07CFAFA2107200522490004F066F88B
:1010F8000C4802F0E3F9E7E7002BE5D102F014FC15
:1011080003F06CFA07200522FA2104F057F8044886
:10111800EFE7C046330100206001002038010020BD
:10112800801A0600F07E0E0000487047600100201B
:1011380070B5050004A80678059C181E0BD0201E63
:1011480009D00020032E06D9D8701D7059709A70E6
:1011580004230130237070BDF0B5050005A8077899
:10116800069C081E12D0181E10D0201E0ED000207B
:10117800082A0BD8961CF6B2BE4207D81D705A70C2
:101188000233C5B2AA4202D801202670F0BD0D5C18
:101198001D540130F5E7030010B5421850789478D3
:1011A8005B5C2404000220431843D3781B061843D1
:1011B80010BD0B0A017043700B0C090E8370C170CF
:1011C80070470000F0B5C1880400C7B0012908D8ED
:1011D80002230278417880880093013301F06CFE85
:1011E80053E00C25037A05AE3370427A02ABFF3523
:1011F800ED18931C6A70994205D00278417880886E
:1012080000930323EAE7002A06D001000D2002AB71
:101218000A31C01804F04AFA1D4F3B78002B0BD056
:10122800A3883D780393032D1AD900232278617887
:10123800039800930733D1E703F0F6FD0028EFD1B8
:10124800687803F0F9FD0028EAD1300003F054FB78
:10125800031E1AD122786178A08800930833BDE76D
:1012680003220C4B0C4C1B783100EB181340023254
:10127800FF3253430222E4182000FF3204F016FA2A
:10128800039BFE340135A3803D7047B0F0BDC046D6
:1012980088010020890100208A01002010B5024839
:1012A80001F0F8FD10BDC046FA5B00080F2307B532
:1012B800184003003733092800D8073B6A461371E2
:1012C800002301A8537101F0E5FD07BD30B5040006
:1012D80089B002AD18220021280004F0DFF9238824
:1012E800616803A82B80FFF764FFA16804A8FFF7D3
:1012F80060FFE16805A8FFF75CFF216906A8FFF712
:1013080058FFFFF7BBFA010007A8FFF752FF0022BA
:10131800182311000093F1202B0001F0A5FD09B05E
:1013280030BD0000F0B5002485B0050001AEA04234
:1013380006D1124801F0AEFD05B0F0BD0A2C0FD061
:1013480028000A21FEF754FF3031A15528000A2150
:10135800FEF7C8FE2F0001340500092FEED8E4B2CD
:101368006A46013CE4B2335D68461370002353704B
:1013780001F090FD002CF3D1DEE7C046CD5A0008FD
:1013880010B50C0001F086FD034801F083FD200034
:10139800FFF7C8FF10BDC046B6590008F0B50027D2
:1013A800BEB2B14204D9C45D202C11D0092C0FD093
:1013B8004C1E0419B1420DD80024C719135D301909
:1013C80080B2002B0FD1081A43425841C0B2F0BD79
:1013D8000137E5E72578202D01D0092DECD1013919
:1013E80089B2013CE6E781420FD93D5D28006138AA
:1013F800192801D8203DEDB218006138192801D804
:10140800203BDBB20134AB42D8D00020DFE700003C
:1014180070B5094C200001F03DFD084D280001F091
:1014280039FD200001F036FD280001F033FD2000D1
:1014380001F030FD70BDC046CD5A0008C458000800
:1014480000B5ADB0A82102A800F070FF002806D0B2
:10145800002200901100C12002AB01F005FD2DB063
:1014680000BD0000F0B50025274B284F284E1D7001
:10147800284B8BB031701D703870FFF7F3FA00F00D
:1014880065FE2548FFF72EFAFFF74AF93B7805ACC9
:10149800637033782070A3700123E370DB18237125
:1014A800FFF7CCF9062360712A00F0200093290089
:1014B800230001F0D9FC2000FFF76EFAA84205D0FE
:1014C8001648FFF70FFA2000FFF700FF1448FFF750
:1014D80009FA144B002203937F230493773B1100EE
:1014E800F220009303AB01F0BFFCFFF7A7F9002837
:1014F80007D10D48FFF7F6F90C48FFF7F3F90BB0E1
:10150800F0BD0B48F6E7C046890100209B05002086
:101518009A05002088010020C6580008D458000801
:10152800E358000801010201F258000812590008A6
:1015380002590008F0B50400B3B0002800D197E0C4
:10154800BE48FFF7CFF92278012A0AD0BC48FFF736
:10155800C9F9012322786178A088009301F0ACFCD6
:1015680086E06178202900D1EAE010D8032906D85E
:10157800481E02282FD8FEF7ABFD3B7D95001029A9
:1015880000D192E0A088022301220091E6E73129E8
:1015980000D1A5E00BD8212900D115E13029F1D1DE
:1015A800E388012B00D18DE0A0880092D7E0402984
:1015B80000D17EE04129E5D1A82108A800F0B6FEB7
:1015C8000300A088002B00D076E0A8332278617849
:1015D8000093A53BC2E79B48FFF784F9E088230006
:1015E800A278A18800900020083301F03DFC3FE07C
:1015F8009548FFF777F9042001F064FE934B180033
:101608000493FEF75DFE0500914B2F1C1800EDB208
:101618000593FEF755FE282D00D92827031CC0B2D4
:10162800FFB2102800D91023DAB20392894A08AD14
:1016380000260892AB717F233A006F710C3704992A
:101648002E71EE71FFB20BA80A9304F02FF8039ADB
:101658000599E81904F02AF8039B8120DF19A1886D
:101668002B003200009701F0FFFB082001F02AFE52
:1016780033B0F0BD784B08A81968784B1E68784BD2
:101688001D68FFF796FD310009A8FFF792FD2900B4
:101698000AA8FFF78EFD0C23A18800220093822060
:1016A80008ABA2E7FFF75CF9E2E72000FFF78AFD45
:1016B800DEE700F04BFDDBE7010000930022C120CC
:1016C80008AB92E7207A04AB187403F04BFC04AB28
:1016D80058740223A18800220093B02008AB84E745
:1016E800E388022B04D00223A0880093013335E756
:1016F8000022617A207AFFF7D9FB237A002805D1E6
:1017080022786178A0880093082327E71800617A77
:1017180003F03AFC237A012B0AD1607A02F060FCCC
:101728000722637A1340053B012B01D802F0AEFD76
:1017380002222300A188B12000920833002254E736
:101748000A2704ABFF1800233B70E0880128CAD998
:10175800637A267A9D1CA84203D0A08800950323AB
:10176800FCE621001A0030000A31FFF7BBF9051E1C
:1017780003D0031FDBB2012B09D83B00082230003D
:1017880008A9FFF717FB002801D000233B703A781F
:101798000B2704ABFF18042329000093300007AB84
:1017A8000197FFF7C5FC0300A088002B05D104337F
:1017B800227861780093013BD0E63B78009307AB31
:1017C80001000022A02010E70B2604ABF618002326
:1017D8003370E388012B00D0E6E61221277A04A8AB
:1017E8000918330008223800FFF7E4FA07AD0100B2
:1017F8000A2300280ED00093002208AB3800019578
:10180800FFF796FC0300A088002BD0D02B7800931C
:1018180008ABD5E7122104A83278091800933800DC
:1018280008AB0195FFF798FC0300A088002B19D19D
:101838003378227802336178009390E720590008C2
:101848002D59000839590008425900084F59000815
:1018580069590008010200005000F81F5400F81FE1
:101868005800F81F2B78010000930022A12008AB34
:10187800BBE6C04670B504000D00AAB0002806D02B
:10188800DE4AFFF78BFD002803D0FFF707FD2AB0DB
:1018980070BD29002000DA4AFFF780FD002812D029
:1018A800D84801F0F7FAD84C200001F0F3FAFFF716
:1018B800AFFD200001F0EEFAD44801F0EBFAD4486D
:1018C80001F0E8FAE1E729002000D24AFFF766FDB7
:1018D800002830D0D048FFF705F8102001F0F2FCBE
:1018E800CE4801F0D7FAC74801F0D4FACC4801F045
:1018F800D1FAFFF78DFDCB4801F0CCFAC34801F0CF
:10190800C9FAC94801F0C6FA0120FFF70BFDC7481C
:1019180001F0C0FA0220FFF705FDC54801F0BAFA48
:101928001C247F252800E040043CC0B2FFF7BEFC21
:10193800231DF7D1C3E729002000BE4AFFF72EFD7B
:10194800061E27D0A821684600F0F0FCA82801D080
:10195800B9484FE1B94801F09DFAB94BB9481B782D
:10196800002B00D0B84801F095FAB84801F092FA77
:10197800B74B1C782009FFF799FC2000FFF796FC6D
:10198800B44801F087FA40216846FFF704FCFFF7E6
:10199800C9FC94E729002000AF4AFFF7FFFC0028A4
:1019A80000D10EE1A821684600F0C0FCA828CFD1DC
:1019B80031006846FFF7EFFBA84B01001800FFF75E
:1019C800DFFC914C200001F065FA04216846FFF71E
:1019D800E2FBA34B01001800FFF7D2FC200001F046
:1019E80059FA08216846FFF7D6FB9E4B01001800FC
:1019F800FFF7C6FC864D280001F04CFA0C2168461A
:101A0800FFF7C9FB984B01001800FFF7B9FC20004D
:101A180001F040FA10216846FFF7BDFB934B010027
:101A28001800FFF7ADFC200001F034FA14216846D5
:101A3800FFF7B1FB8E4B01001800FFF7A1FC200057
:101A480001F028FA18216846FFF7A5FB894B010029
:101A58001800FFF795FC280001F01CFA442168469D
:101A6800FFF799FB844B01001800FFF789FC200061
:101A780001F010FA48216846FFF78DFB7F4B010003
:101A88001800FFF77DFC200001F004FA4C2168469D
:101A9800FFF781FB7A4B01001800FFF771FC280063
:101AA80001F0F8F950216846FFF775FB754B010006
:101AB8001800FFF765FC200001F0ECF95421684696
:101AC800FFF769FB704B01001800FFF759FC200075
:101AD80001F0E0F958216846FFF75DFB6B4B010008
:101AE8001800FFF74DFC200001F0D4F95C2168468E
:101AF800FFF751FB664B01001800FFF741FC280077
:101B080001F0C8F91C216846FFF745FB614B01004D
:101B18001800FFF735FC200001F0BCF920216846C9
:101B2800FFF739FB5C4B01001800FFF729FC200088
:101B380001F0B0F924216846FFF72DFB574B01004F
:101B48001800FFF71DFC200001F0A4F928216846C1
:101B5800FFF721FB524B01001800FFF711FC28008A
:101B680001F098F930216846FFF715FB4D4B01004D
:101B78001800FFF705FC200001F08CF934216846B5
:101B8800FFF709FB484B01001800FFF7F9FB20009D
:101B980001F080F92C216846FFF7FDFA434B01005C
:101BA8001800FFF7EDFB200001F074F940216846AA
:101BB800FFF7F1FA3E4B01001800FFF7E1FB2800A0
:101BC8007EE6290020003B4AFFF7E8FB002806D103
:101BD80029002000384AFFF7E1FB002801D03748E8
:101BE8006EE629002000364AFFF7D8FB002800D10E
:101BF800AEE6344801F04EF949E6C046725900088D
:101C0800755900084F5900087959000869590008A2
:101C1800A95B00087B5900088359000893590008FC
:101C280097590008A1590008A7590008AF5900089A
:101C3800B8590008C0590008CA590008D259000804
:101C48009B0500206D590008885A0008D9590008DA
:101C58009A050020E5590008ED590008F6590008D2
:101C6800035A00080F5A00081F5A00082D5A000886
:101C7800395A0008455A0008515A00085F5A0008A6
:101C88006E5A00087D5A00088B5A00089A5A0008B4
:101C9800AF5A0008C45A0008CF5A0008DA5A000898
:101CA800E55A0008F05A0008FC5A0008085B0008CA
:101CB800165B00081C5B0008245B00082D5B00080D
:101CC800605B0008675B000810B500F0E5FA10BD1E
:101CD8001FB5041E12D0038841680A206A4668446A
:101CE8001381FFF766FA6A46A37890209373072357
:101CF80000220093110002AB01F0B6F81FBD0000EE
:101D0800024B1878431E9841C0B2704788010020E2
:101D1800F0B5C5B01B4E3378002B01D145B0F0BDEE
:101D280003F082F80028F9D18222174F52003B783D
:101D3800164D5343EB18FF33587803F07DF800280D
:101D4800ECD1822302223C785B006343ED18290022
:101D5800FF3203A803F0AAFC032301341C403378A4
:101D6800FE35013B03A8AD883C70337002F0C4FD1A
:101D78000028D3D10090082301221021280001F067
:101D88009BF8C7E788010020890100208A0100200C
:101D98007FB56B4618715971002301A8029303930C
:101DA80004930593FFF792FA07B000BD00B5C7B0DA
:101DB80000280DD0882202A95200FFF72BF800282E
:101DC80006D0002200901100912002AB01F04CF8DF
:101DD80047B000BD030010B500282BD0081E29D03D
:101DE800012008701A784A705A788A709A78CA70EE
:101DF800DA780A715A68140A4A718C71140C120E36
:101E0800CC710A729A68140A4A728C72140C120EF7
:101E1800CC720A73DA68140A4A738C73140C120EA3
:101E28000A74CC731B691A0A4B748A741A0C1B0E39
:101E3800CA740B7510BD0000002804D0FF2803D019
:101E4800431E052B01D970470720044A4000835AD6
:101E580003498B42F7D001338352F4E79E050020F3
:101E6800FFFF000010B500280AD002000021054B32
:101E780010321C8804800230198002339042F8D155
:101E880010BDC0469E050020054A064913888B42AE
:101E980001D001331380002801D0034B187070471C
:101EA8009C050020FFFF000008000020F0B58BB063
:101EB8000E00141E039003D1002528000BB0F0BDBE
:101EC800100004A9FFF786FF051EF5D067783800D3
:101ED800FFF7B2FF002F02D1A07801F00FFE607863
:101EE800FFF7D2FF152332000093C320039904ABF8
:101EF80000F0BAFFE1E700000021044A13881180CE
:101F0800181CFF2B00D9FF20C0B270479C05002089
:101F1800FF22024B18781A707047C046080000204C
:101F28000300F0B500286AD0081E68D001220A70A4
:101F38005A784A709A788A70DA78CA701A790A7167
:101F48005A794A7100228A71CA719A68100A0A720B
:101F58004872100C120E8872CA72DA68100A0A7374
:101F68004873100C120E8873CA731A69100A0A741F
:101F78004874100C120ECA7414228874985C885421
:101F88000132462AFAD14C1C985A8854000AA054A7
:101F98000232AA2AF8D1985A8854000AA054023268
:101FA800BA2AF8D11A00BA3210780A00BA32107078
:101FB8001A00BB3210780A00BB321070BC331A7892
:101FC8000B000C0008000826BC331A700C4D0D4B92
:101FD800BD3402781202534032001FB25B009BB23C
:101FE800002F00DA6B40013AD2B2002AF5D1013055
:101FF8008442EED101202370BE311B0A0B70F0BD64
:1020080021100000FFFF0000F0B5384C0500A54482
:102018000392022234ACFF32A3700F00228001F039
:102028003FFD0023E070322802D832331B1ADBB29E
:102038002371FFF76DFF0026039B6071A76039A825
:1020480064AFE680E560236101F068FD380001F0C7
:1020580031FF7300FB58181E0AD0254A9818FA2336
:102068009B0498423FD2FA218900FEF73BF880B2E0
:10207800872302AA5B009B1898530236642EE8D186
:10208800B92040008018FFF7EDFEFFF735FFC123A8
:1020980002AA5B009B1818708423164E02A9327896
:1020A800FF335B181A70144B200003931B7863AF3F
:1020B80004A93B70FFF734FF041E0FD0BF233A7802
:1020C800C4200093A9B204AB00F0CEFE0023039A0B
:1020D80013703378FF2B01D0013333702000A52310
:1020E8009B009D44F0BD0548C2E7C0466CFDFFFF5C
:1020F800E7030000B805002009000020FFFF0000EA
:1021080070B50B4E0B0032680A490400821A8A42E5
:1021180001D8002070BD084D01002868FFF774FF42
:102128000028F6D02B68346001332B60F2E7C046F4
:10213800B40500205FEA0000B00500200B0A01701A
:1021480043700B0C090E8370C17070470023144A4A
:1021580010B51360134A1360134A1360134A1360CF
:10216800134A1360134A1360134A1360134A136027
:10217800134A1360134A1360134A1360134A136017
:10218800134A1360134A1360134A1360134A136007
:10219800134A1360134A136000F0A4FE10BDC04632
:1021A80000060020FC050020F8050020F4050020AA
:1021B800F0050020EC050020E8050020E4050020DB
:1021C800E0050020DC050020D8050020D40500200B
:1021D800D0050020CC050020C8050020C40500203B
:1021E800C0050020BC050020024A136801331360B3
:1021F8007047C046DC050020024A136801331360AB
:102208007047C046D8050020024A1368013313609E
:102218007047C046D4050020024A13680133136092
:102228007047C046EC050020024A1368013313606A
:102238007047C046F0050020024A13680133136056
:102248007047C046E8050020024A1368013313604E
:102258007047C046E4050020024A13680133136042
:102268007047C046E0050020C143044A13681818A7
:10227800994201D20120404210607047D0050020E9
:10228800C143044A13681818994201D201204042F8
:1022980010607047CC050020C30703D50B4A1368AC
:1022A80001331360830703D5094A136801331360A8
:1022B800430703D5074A136801331360000703D5A2
:1022C800054A1368013313607047C04600060020B2
:1022D800FC050020F8050020F4050020034A1368D7
:1022E800591C01D0013313607047C046C80500204F
:1022F8000B4B30B51C68844200D21860C543094CAA
:1023080023689D4209D31B182360002A04D0064B7A
:102318001A688A4200D2196030BD01235B42F3E794
:10232800C4050020C0050020BC05002010B5041E0F
:1023380000D115E10020A72900D811E1A822010049
:10234800200003F0ABF900F019FF01002000FFF7AF
:10235800F5FE00F019FF0100201DFFF7EFFE00F069
:1023680019FF010020000830FFF7E8FE00F018FF11
:10237800010020000C30FFF7E1FE00F017FF01001C
:1023880020001030FFF7DAFE00F016FF01002000F1
:102398001430FFF7D3FE00F015FF010020001830BD
:1023A800FFF7CCFE20006F4B1C301968FFF7C6FE04
:1023B80020006D4B20301968FFF7C0FE20006B4BE2
:1023C80024301968FFF7BAFE2000694B28301968D5
:1023D800FFF7B4FE2000674B2C301968FFF7AEFEFC
:1023E8002000654B30301968FFF7A8FE2000634BCA
:1023F80034301968FFF7A2FE2000614B38301968A5
:10240800FFF79CFE20005F4B3C301968FFF796FEF3
:1024180001F0E0FD010020004030FFF78FFE00F0E2
:10242800D7FE010020004430FFF788FE00F0D6FEFA
:10243800010020004830FFF781FE00F0D5FE0100C2
:1024480020004C30FFF77AFE00F0D4FE0100200097
:102458005030FFF773FE00F0D3FE01002000543027
:10246800FFF76CFE00F0D2FE010020005830FFF7A5
:1024780065FE00F0D1FE010020005C30FFF75EFE33
:1024880000F0D0FE010020006030FFF757FE00F09A
:10249800CFFE010020006430FFF750FE00F0CEFEB2
:1024A800010020006830FFF749FE00F0CDFE010072
:1024B80020006C30FFF742FE00F0CCFE0100200047
:1024C8007030FFF73BFE00F0CBFE010020007430B7
:1024D800FFF734FE00F0CAFE010020007830FFF755
:1024E8002DFE00F0C9FE010020007C30FFF726FE1B
:1024F80000F0C8FE010020008030FFF71FFE20001A
:10250800214B84301968FFF719FE20001F4B8830D3
:102518001968FFF713FE20001D4B8C301968FFF770
:102528000DFE20001B4B90301968FFF707FE2000B6
:10253800194B94301968FFF701FE2000174B9830AB
:102548001968FFF7FBFD2000154B9C301968FFF751
:10255800F5FD2000134BA0301968FFF7EFFDA82008
:1025680010BDC04600060020FC050020F80500202C
:10257800F4050020F0050020EC050020E805002007
:10258800E4050020E0050020DC050020D805002037
:10259800D4050020D0050020C8050020C40500206F
:1025A800C0050020BC0500200300501E82418A1887
:1025B80000209A4200D2981A70470000024A136815
:1025C800034313607047C04608060020F0B5002298
:1025D800082504000A4E0B4893B2994200D8F0BD72
:1025E800A35C1B0258402B0007B2400080B2002FAA
:1025F80000DA7040013BDBB2002BF5D10132EBE78A
:1026080021100000FFFF0000802303490A681A42D6
:10261800FCD0024B186070471C4800402848004016
:1026280070B504004518AC4205D1402304490A6836
:102638001A42FCD070BD2078FFF7E6FF0134F2E7BC
:102648001C480040F0B5454C0D00A5441900AAAB44
:102658001E88012303AC2370E570330A2D0A257107
:1026680060700725A2706671A371002E09D0002939
:1026780007D00B2002AB3200C01803F017F8761908
:10268800B5B229002000FFF7A1FFAB1C605501354A
:10269800000AADB26055002001249BB24426019384
:1026A80022000300FF3603A9095C8C4600292BD1C0
:1026B800A22189005B1802A95B18453BFF3B1A70F1
:1026C800B44246D0411C621C8BB20093230094B2E2
:1026D80001220199009D0130A942E4D8A221890074
:1026E8005B1802A95B18453BFF3B00201A70FFF7F7
:1026F8008BFF53A82100FFF793FF0020FFF784FF0B
:10270800A5239B009D44F0BDB44222D0A227411CC2
:1027180089B2BF000091E71902A97F186146453FB9
:102728000132651CFF3FD2B2ADB23970FF2A0ED11B
:10273800A22189005B1802A95B18453BFF3B1A7070
:10274800B54206D002342B00A4B2FE3AC1E72C00F1
:10275800BFE7034A136801331360D1E76CFDFFFF3D
:102768006C080020F0B56C4C6C4BA544002422008A
:1027780018886B4B019390426AD823009C22093B2E
:102788009BB25200934200D3ADE004A98D7904AB0B
:102798005B792D021D43954200D3A4E02B00093339
:1027A8009BB29C4200D09EE0A11E89B204A8FFF70C
:1027B8000DFFA0239B00E41804ABE418594BE31861
:1027C8001A78594B1202E41823781343834200D035
:1027D80089E004AB9B7804AA54AC1288A37004ABBC
:1027E8002280DA781B79E5801B021343A380002D31
:1027F80005D004AB2A00D91D56A802F057FF65780A
:10280800012D07D180204000FFF7D8FE474B1A78EA
:1028180015431D7080208000FFF7D0FE444A1368DE
:1028280001331360EFF3108672B6424D2B78032BF9
:102838005BD9414A136801331360404A1368013376
:10284800136086F310888020C000FFF7B7FE15E0FC
:102858000199531C8D5C9BB2002D3BD12020FFF7C2
:10286800ADFE374A136801331360364A13680133E3
:10287800136002232D4A11780B431370A5239B0084
:102888009D44F0BD9042E9D0A0267600B342E5D23F
:10289800039B029E5B5C01327354390092B24F1C59
:1028A8006318FEB29BB2B542ECD8FF2D10D090420F
:1028B8000ED9A02149008B42D0D2A024A400591CD3
:1028C8001B1904AC1B19204C1B1900241C708BB25B
:1028D8001C0050E71A0004AEA3190293019B0021C3
:1028E8009B180393DBE78020B9E7A022174F52001B
:1028F8003B78174853432100C01802F0D7FE032243
:102908003B78013313403B702B780133DBB22B70DB
:1029180086F31088B2E7C0466CFDFFFFDE0D00208D
:10292800E00D00207FFDFFFF7EFDFFFF1408002063
:10293800480800207408002068080020700800205B
:102948006C0800204408002080FDFFFF7608002066
:102958007808002070B5164D2E78002E05D0002876
:1029680002D1144B2870188070BD124C238800289F
:1029780009D1002B04D01030FFF720FEFFF7F2FE3C
:1029880000232380F0E7A122520093420AD9402075
:10299800FFF714FE0123084A2B70136826800133C1
:1029A8001360E1E75A1C2280044AD054DCE7C04691
:1029B800DD0D0020DE0D00206C080020E00D002059
:1029C80070B503240223A0254600B440B340ED05AA
:1029D8002A68134EA2431A432A60012585403268AB
:1029E800AA43104D32602A68A24313432B6007287C
:1029F80009D80F228000824081400B4C2368934302
:102A08001943216070BD0F240838C0B2800084408B
:102A18008140064A1368A34319431160F2E7C04690
:102A2800040000500800005020000050240000500E
:102A38000B4A10B513880B4C99B224880133DB0577
:102A4800DB0DA34208D18020074A400113680133F7
:102A58001360FFF7B3FD10BD044C60541380FAE710
:102A680012060020100600200C0600201406002084
:102A780010B50024074A1388A34204D80023138002
:102A8800054A137010BD054B185D0134FFF762FF4E
:102A9800A4B2EFE77A0D0020790D00207C0D00200C
:102AA800F8B50F252026EFF3108472B6404B1A684C
:102AB800404B1B682A4229D0D30703D53E490B68EF
:102AC80001330B60930703D53C490B6801330B6056
:102AD800530703D53A490B6801330B60120703D536
:102AE800384A1368013313600420FFF767FD364B3B
:102AF800364A1D60364B1B68136801331360354A2C
:102B080013680133136084F31088CCE72B4225D077
:102B1800DA0703D530490A6801320A609A0703D5F3
:102B28002E490A6801320A605A0703D52C490A68F7
:102B380001320A601B0703D52A4A13680133136060
:102B48000820FFF73BFD0F22274B1A601F4A274B2F
:102B58001B68136801331360254AD1E7324214D049
:102B68000120244A1A4B1F68136801331360224A54
:102B7800136801331360214A137803431370FFF776
:102B88001DFDF8B2FFF754FFBDE733420DD0194AD7
:102B9800164B02201F68136801331360184A136824
:102BA80001331360154A1378E7E784F31088F8BDFA
:102BB8001C4800401C380140380800203408002018
:102BC800300800202C080020204800406C08002015
:102BD800244800404008002028080020240800203D
:102BE800200800201C08002020380140243801401B
:102BF8003C08002054080020500800201508002038
:102C08004C080020F7B5444A4448118800888BB224
:102C1800814266D04249434ECC5C0133DB05DB0D73
:102C280013803378E4B2002B0FD13F4B1B78002B75
:102C380042D00D2C13D00A2C11D0002C27D1FFF72D
:102C480017FF2000FFF786FEDDE7002333700A2C0C
:102C5800D9D0354B1B78002B2ED00D2CEDD18020F0
:102C68000027324B324D01931B8800010093EF542B
:102C7800FFF7A4FC28000099FEF7FCFD019B0D3C22
:102C88001F80294B1F7063425C413470BBE7274AA1
:102C98001388012B09D12021200088435428CED144
:102CA800591C1180224AD454ADE7210020395E29ED
:102CB800C5D85E2BC3D8F3E71E4B1B88002BC0D1A9
:102CC8001D4B1B78002BBCD1230020229343412BA2
:102CD800B7D1174B1F3A1C70144B1A80124B1A703D
:102CE80091E7164B1A78002A15D0EFF3108272B6C6
:102CF8000021197082F310880B4B1B788B420AD184
:102D08000C490D4B0A88002A02D11A78002A02D0F1
:102D180000220A801A70F7BD100600201206002053
:102D280014060020780D0020790D00207A0D00206F
:102D38007C0D0020DE0D0020DD0D002004060020A3
:102D480010B5EFF3108272B60021244B1C6819608D
:102D580082F310888C4240D0E30702D52048FDF763
:102D6800C1FDA30702D51F48FDF7BCFD630702D5C7
:102D78001D48FDF7B7FD230702D51C48FDF7B2FD36
:102D8800E30602D51A48FDF7ADFDA30602D519489A
:102D9800FDF7A8FD630602D51748FDF7A3FD230636
:102DA80002D51648FDF79EFDE30502D51448FDF748
:102DB80099FDA30502D51348FDF794FD630502D5D7
:102DC8001148FDF78FFD230502D51048FDF78AFD50
:102DD800E40402D50E48FDF785FD10BD0806002065
:102DE800705B00087F5B00088D5B00089D5B000836
:102DF800AC5B0008BB5B0008C85B0008D55B00083B
:102E0800E35B0008F25B0008FF5B00080A5C00084F
:102E18001A5C000870B5EFF3108572B60F4C227873
:102E2800D3B2002A03D185F31088180070BDA02200
:102E38000B4E520033780B495343C91802F036FC45
:102E4800032233780133134033702378013BDBB21C
:102E5800237085F310880120E8E7C0467408002035
:102E6800750800207808002037B59C2506AC248812
:102E78006D00AC4204D3064A13680133136037BDB2
:102E8800002C01D0002BF6D00094FFF7DBFBF6E70F
:102E98006C08002010B5041E04D1064A13680133DB
:102EA800136010BDFDF70CFA81B22000FFF7B8FBE4
:102EB800F7E7C0466C08002030B585B008AC258817
:102EC80002ACA3700523E5702D0A21706270010021
:102ED800257100220093FE202300FFF7B3FB05B005
:102EE80030BD0000EFF3108172B600231F4A136053
:102EF8001F4A13601F4A13601F4A13601F4A13605A
:102F08001F4A13601F4A13601F4A13601F4A136049
:102F18001F4A13601F4A13601F4A13601F4A136039
:102F28001F4A13601F4A13601F4A13601F4A136029
:102F38001F4A13601F4A13601F4A13601F4A136019
:102F48001F4A13601F4A13601F4A13701F4A1370E9
:102F58001F4A13801F4A13801F4A13601F4A1370A9
:102F68001F4A136081F310887047C046700800201C
:102F78006C08002068080020640800206008002011
:102F88005C08002058080020540800205008002041
:102F98004C08002048080020440800204008002071
:102FA8003C080020380800203408002030080020A1
:102FB8002C080020280800202408002020080020D1
:102FC8001C080020180800201508002014080020FC
:102FD80012060020100600200C060020040600201F
:102FE80008060020F8B58023484ADB01116801244F
:102FF8000B4313608023464ADB02116805000B432C
:10300800444913600A68444B02201A408023DB00BD
:103018001343424A0B601368062123431360FFF7EA
:10302800CFFC06210320FFF7CBFCC0233C4E042134
:10303800326809209A43803B13433360FFF7C0FC92
:1030480004210A20FFF7BCFC3268364B364F1A4081
:1030580080235B03134333600026344B1E60344BDC
:103068001E60344B1E60B54231D1334B334A1C606D
:103078001F231360324B3D601D60324B1D601F22C1
:10308800314B1C60314B1A600023314A1370314AAE
:103098001370314A1370314A1380314A1370314A20
:1030A8001370314A1380314A1370314A1370FFF795
:1030B80019FF3D231D4A012113602E4B1D203B6043
:1030C800FDF730FC01211B20FDF72CFCF8BDFDF7B6
:1030D800F3FA6C08000229000019FDF703F8164BF3
:1030E800164A18601F231360154B3E601E60154B6F
:1030F8001E60FDF7E1FA400000192900FCF7F2FF15
:103108001D4B0407640F18400443B8E7341002400D
:10311800381002404C100240FFF3FFFF2C10024011
:103128000C000050FFFFCFFF00380140004800406E
:1031380004480040084800400C480040204800402F
:1031480004380140083801400C380140203801405B
:10315800760800207508002074080020DE0D002085
:10316800DD0D0020DC0D00207A0D0020790D0020F7
:10317800780D00203D800000F0FF0000014B18682A
:103188007047C04670080020014B18687047C04659
:103198006C080020014B18687047C046680800207A
:1031A800014B18687047C04664080020014B186836
:1031B8007047C04660080020014B18687047C04639
:1031C8005C080020014B18687047C046580800206A
:1031D800014B18687047C04654080020014B186816
:1031E8007047C04650080020014B18687047C04619
:1031F8004C080020014B18687047C046480800205A
:10320800014B18687047C04644080020014B1868F5
:103218007047C04640080020014B18687047C046F8
:103228003C080020014B18687047C0463808002049
:10323800014B18687047C04634080020014B1868D5
:103248007047C04630080020014B18687047C046D8
:103258002C080020014B18687047C0462808002039
:10326800014B18687047C04624080020014B1868B5
:103278007047C04620080020014B18687047C046B8
:103288001C080020014B18687047C0460C06002037
:10329800EFF3108272B60021024B1868196082F3AE
:1032A8001088704718080020EFF3108272B60021CA
:1032B800034B18781970C0B282F310887047C04663
:1032C80015080020002808D0EFF3108172B6034AD1
:1032D80013780343137081F3108870471408002093
:1032E800EFF3108272B60021034B18781970C0B240
:1032F80082F310887047C046140800201022F8B5E1
:10330800284D2B68134208D027490A6027490A68C4
:1033180001320A600121264A11701A0719D12026A4
:1033280001272B6833423CD0224A234B01201C68DA
:10333800136801331360214A136801331360204A6C
:1033480013783B431370FFF739F9E0B2FFF770FBCE
:10335800E7E7DA0703D51B490A6801320A609A07CA
:1033680003D519490A6801320A605A0703D5174973
:103378000A6801320A601B0703D5154A136801332E
:1033880013600420FFF71AF90F22074B1A60114A3D
:10339800094B1B681368013313600F4A1368013324
:1033A8001360F8BD1C480040204800406408002015
:1033B800040600205408002024480040500800203B
:1033C80015080020380800203408002030080020A4
:1033D8002C0800206C080020400800201022F8B5B6
:1033E800284D2B68134208D027490A6027490A68E4
:1033F80001320A600121264A11701A0719D12026C4
:1034080002272B6833423CD0224A234B02201C68F7
:10341800136801331360214A136801331360204A8B
:1034280013783B431370FFF7C9F8E0B2FFF700FBCE
:10343800E7E7DA0703D51B490A6801320A609A07E9
:1034480003D519490A6801320A605A0703D5174992
:103458000A6801320A601B0703D5154A136801334D
:1034680013600820FFF7AAF80F22074B1A60114AC9
:10347800094B1B681368013313600F4A1368013343
:103488001360F8BD1C380140203801406408002052
:103498000406002054080020243801404C0800206D
:1034A80015080020280800202408002020080020F3
:1034B8001C0800206C0800203C080020054B064A28
:1034C800984200D91800054B984200D218001060A5
:1034D8007047C046F07E0E000C0000201027000048
:1034E800F0B587B002930CAB1B78040003930DABC7
:1034F8001B78080004930EAB1D880FAB1B78019254
:103508000593002945D0002D00D10835211C0C2C2D
:1035180041D90C21CCB20600220000212348FCF737
:1035280079FE002702000B0001204042C1178019D4
:103538007941801859413B003200FCF777FE029B25
:10354800039A5B001B1B920007339B180522049902
:1035580052424A439B1807009B000820002B13DDAA
:10356800059A5100611A890000D10131481EC0181E
:10357800FCF7B8FD6B4602001879019B082B0FD9A0
:103588000820C0B25043083004352D187D43BF08C9
:10359800E81907B0F0BDE3B2062BBBD20621B9E7A4
:1035A800C1B20529EDD20520EBE7C04640420F0025
:1035B8007FB5099D0E0000240A2803D97D21B14258
:1035C8006441E4B2FA210394082489007143029407
:1035D8000126002400960194FFF782FF0300A5420C
:1035E80000D028600020834203D02000089A9A4225
:1035F8006041304004B070BDF0B587B005901D2023
:1036080001F0B0FC06001E2001F0ACFC05002620ED
:1036180001F0A8FC0700202001F0A4FC04002120F0
:1036280001F0A0FC844601202B09FF08AD083109F0
:10363800320705400640074060462402520F044303
:10364800C9B2DBB20432A4B2082914D808394842F6
:1036580041410C48494201400918181C0C2B0CD94F
:103668000C20059B0397029401960095C0B2FFF7C2
:1036780037FF07B0F0BD0449EFE7DBB2062BF0D205
:103688000620EEE748E8010020A1070070B5040015
:1036980008001D001600FFF7AFFF03000220312CC1
:1036A80018D8FA200D49E40062588000B21A824204
:1036B80003D300200A1966505060094809194A685E
:1036C80004680120A41A9C4204D3D2184A60002D31
:1036D80001D1002070BD2B60FBE7C046240F0020FD
:1036E8000C000020312807D8054BC0001B185A6869
:1036F8008A4202D800225A607047521AFBE7C04635
:10370800240F002030B5312815D8FA250C4BC000FD
:10371800C458AD00141BAC4203D30024C2501A187D
:103728005460002907D0074A1B1814685A68A01A61
:10373800884201D25C6030BD52185A60FBE7C0462F
:10374800240F00200C00002010B5084C2378002B13
:1037580001D0002010BDFF21122001F015FC00F05F
:1037680075FC0028F5D001232370F3E7B41000207E
:1037780010B5064B1A78002A07D00022FF21122024
:103788001A7001F001FC00F04CFC10BDB4100020D0
:1037980070B50E4D2B78002B01D1032070BD12207F
:1037A80001F0E0FB0423040018401C42F6D021007D
:1037B800122001F0E9FB00232B7000F032FC0028F6
:1037C800EBD001231C40E018E8E7C046B410002005
:1037D800031E14D0081E12D0012008701A784A70EF
:1037E8005A788A701A7ACA705A680A715A68120A1C
:1037F8004A715A68120C8A715B681B0ECB7170474C
:1038080003000120002B1AD0002A18D0001807291D
:1038180015D919780130012911D159781170997881
:103828005170D97811725879197900020843997939
:10383800DB790904014300201B060B4353607047E2
:1038480003000020312B03D802485843024BC0180C
:103858007047C04620A1070030DFCE35F0B507001D
:103868000E00002489B00092019303AD22003800B5
:103878003100FCF7C3FC2200287001990098FCF77E
:10388800BDFC083428720135402CEFD10E9B064848
:1038980007930023054A03AC195D013348405043A0
:1038A800142BF9D109B0F0BDC59D1C81930100010D
:1038B800F7B5002304000D00EB540133322BFBD184
:1038C800002C00D10C4C2E00012731367F1B6303DE
:1038D80063405A0C53405C015C403378B9192000AE
:1038E8000193FCF785FC6B5C013E7370019B6B5484
:1038F800B542ECD1F7BDC046B979379E37B5084C0B
:103908002569A268E368206861680095FFF7A6FF4B
:1039180004496061FFF7CCFF00234A34237037BDA8
:10392800B8100020D0100020C42210B50021024891
:10393800520001F0B3FE10BDB8100020F7B5150015
:10394800C4220D4C07000E002000002152000193F4
:1039580001F0A4FE019B3222E360089B27602361EB
:1039680023004C336660A5601A80FFF7C7FF012368
:103978004B3400202370FEBDB8100020F7B5214B52
:10398800009001911B7801201F4C002B16D0009B42
:103998000018002B12D0002910D0270032254A37F2
:1039A8003B78312B04D9236901332361FFF7A6FF44
:1039B8003B78E218167E312E01D90720FEBD01336F
:1039C8003B70320001200021FCF724FC236D1840D5
:1039D800636D1940084304D0013DEDB2002DDFD1DD
:1039E800EBE73000FFF72CFF0028E6D0009B4C34B3
:1039F8001E70019B18602388002B01D0013B238097
:103A08000020DBE703110020B810002070B50A4A37
:103A1800030012780D000120084C002A0BD0023058
:103A2800322908D82361FFF769FF230000204A33B1
:103A38004C341D70208070BD03110020B810002088
:103A480070B5154B154C1D780223002D21D001337C
:103A580031291ED823004A331B783125002B01D089
:103A6800013BDDB22469844202D100238D4210D08B
:103A78000523022A0DD0002A06D0041BE317E418F8
:103A88005C400423012C04DC0131C9B2FFF7BEFFFE
:103A98000123180070BDC04603110020B810002093
:103AA80073B5002601246442E5170C4B1A6D5B6D53
:103AB8001100194303D13220801BC0B276BD10001B
:103AC800190000196941009001910098019910406E
:103AD8001940013602000B00F6B2E9E7B8100020E1
:103AE800312807D8044A163080008358591C01D061
:103AF800013383507047C046B8100020312808D8D9
:103B0800044A90304000835A03498B4201D0013364
:103B180083527047B8100020FFFF000070B50028DE
:103B28000FD00400FF260025064B323419880A1CE2
:103B3800FF2900D9321C027001301D800233A042D7
:103B4800F4D170BDD8110020014B18697047C046E8
:103B5800B8100020014B18787047C04602110020A9
:103B6800014B18787047C046031100200022024B11
:103B78001A605A601A727047401200200122024BE4
:103B8800186059601A72704740120020014B187A69
:103B98007047C0464012002010B5044CC821236865
:103BA800C01AFCF79FFA6368C01810BD40120020C5
:103BB800044B10B51B68C821C01AFCF719FB080094
:103BC80010BDC04640120020F531FF3170B5841A8F
:103BD8000800FA2189001E00FCF784FA0123034D2E
:103BE800241A6E602C602B7270BDC04640120020F3
:103BF800014B1B68C01A70474012002070B50B4D6E
:103C08002A78131C062A00D906230A24DBB29C4012
:103C1800844200D90400FCF731FE054B00191860F6
:103C28002B78FF2B01D001332B7070BD4C12002074
:103C38005012002013B56B466A46997100230C0098
:103C4800D37169466B46012207330631FDF7B2F896
:103C5800002805D16B46DB79012B01D16B469C7995
:103C6800200016BDF0B5012185B00320FFF7E2FF63
:103C7800A62107000420FFF7DDFF002302AA938096
:103C8800D3701300019002221020033303A9FDF71B
:103C980091F800281FD102ABDB78022B1BD102ABB5
:103CA8009E8804211120FFF7C5FF0500FCF7ECFDF5
:103CB80004000220002F0CD0FCF7E0FD284F3B68E1
:103CC800C21A0BD59BB280B2834207D0FEF7BCFA6A
:103CD800032005B0F0BDFA267600E2E7002D21D0DA
:103CE800FFF732FD1F4BE418002814D0FFF750FDF2
:103CF800022806D13000FFF781FFFEF7A5FA012060
:103D0800E7E7032807D0012807D1FCF7BDFD001B12
:103D180008D4FFF72DFD0420DBE7FCF7B5FD001BF9
:103D2800E4D4F2E700F08BF90028F4D0281C002D29
:103D380000D10120C0B2FCF7CBFD1B2001F012F925
:103D4800040000F06EF96B461B799D3C5BB224B20F
:103D5800A342CFDB0020044B38601870B9E7C04697
:103D680050120020204E00004C120020F0B5040034
:103D780000203F2C17D80E4D4B1EAB4213D80D4BCD
:103D88000D4EDD7A002D0BD09D7AA54208D11D6815
:103D9800551BA94204D9C7435D68AF4204D34019F3
:103DA8000C33B342EDD1F0BD01204042FBE7C046E1
:103DB8001F4E00005412002054180020F7B50D00C3
:103DC8001900099B0400089E0192002B03D00123CF
:103DD800099A5B42138001223F2C2AD8264F4B1E9A
:103DE8000232BB4225D8013A002D22D0002E20D025
:103DF800B5421ED8019A2000FFF7B8FF0422361AF0
:103E0800AE4216D31D4A00231100CE7A002E12D0DE
:103E18000133DBB20C31802BF7D100231168019EEE
:103E2800711AB94207D80133DBB20C32802BF5D1B5
:103E380005221000FEBD0C275F43104EF1190A89B8
:103E48008C720132D205D20D0A819446019A8134CE
:103E5800BA510127FF34A4004D60CF72A1592D1823
:103E6800A94200D2A5510999002903D06246D2017E
:103E78001A430A800022DCE71F4E0000541200207B
:103E88000A4B10B5984210D07F240C22044062439C
:103E9800074B9B18DA7A002A07D01A89C009824290
:103EA80003D15A688A4200D9596010BDFFFF00004B
:103EB8005412002010B5002808D00021421C044BE1
:103EC800FF321C6810C002C39042FAD110BDC04630
:103ED80054180020002301280CD00133022809D0EF
:103EE8000133032806D00133042803D00538431EC4
:103EF8009841031D05205843014BC0187047C04620
:103F08002A5C000870B50400FCF7BEFC0500FCF74D
:103F1800BBFC401BA042FAD370BD0000F8B50400FA
:103F2800FF23002830D0802200792649264B9202B0
:103F380000282CD00A601A6004221A600A20FFF7B1
:103F4800E1FF4020A17801F01FF84120E17801F05D
:103F58001BF86178012001F017F8FCF795FC1B4B62
:103F68000727C618012000F0FDFF050063786B40A5
:103F78003B4207D0FCF788FC801B0ED463786B406B
:103F88003B4219D101202378114A1370F8BD022051
:103F980008601A608022D202CFE7C820FFF7B2FF7C
:103FA8006178012000F0F0FF3220FFF7ABFF01201D
:103FB80000F0D8FF0500D9E729000420FDF7E8FE46
:103FC800E0E7C046180000501808005088130000A9
:103FD80054190020014B18787047C0465419002026
:103FE80007230340581E00B506280FD8FCF770F8C1
:103FF80004040504080A0C000223054A137000BDD6
:104008000423FAE70523F8E70623F6E70123F4E794
:104018005419002010B50120FFF75CFFFFF77EFF61
:1040280010BD10B50220FFF755FFFFF777FF10BD51
:1040380010B50320FFF74EFFFFF770FF10BD10B556
:104048000420FFF747FFFFF769FF10BD10B5FFF722
:10405800E8FF002804D00620FFF73CFFFFF75EFFCB
:1040680010BD000010B500240F4B4B201C7000F051
:1040780079FF10210143C9B24B2000F085FF0220CF
:10408800FCF726FC2100012000F07EFF0120FCF750
:104098001FFCFFF7BFFFA04204D00120FCF718FC6B
:1040A800FFF7BFFF10BDC0465419002070B5FCF7DC
:1040B800EBFBFA250400AD00FCF7E6FB001BA84269
:1040C800FAD370BD10B5FFF7BAFF041E0FD0094828
:1040D80000F0A6FA1E2000F045FF04230100194055
:1040E800184205D10520FDF753FEFFF79AFF00247B
:1040F800200010BD611900207FB501380C0003288D
:104108001AD8FBF7E5FF02041A2500F06BFB00251F
:1041180002A8057000F06CFB0400A8420CD0224BEA
:104128001D70224B1D70FFF77CFF200000F070FF10
:10413800FFF7BCFFFFF7C6FF7FBD00231C4A1370C3
:10414800194A1370194A137001221A4B1A70F3E7AF
:10415800174D02A82B7801AE037003234370124B4E
:104168001B788370114B1B78C370124B1B7803713B
:1041780000F008FB3080C1B20D20FDF709FE73780E
:10418800002B02D0FFF74DFFD6E701202B78210046
:1041980001332B70084B1870084B1C60084B1C60CF
:1041A800FFF7AAFFC8E7C046751900207419002058
:1041B8005619002055190020601900205C190020AC
:1041C80058190020F0B58BB0040015000391FFF7D3
:1041D800C7FC00283CD000F027FE0290002837D109
:1041E8001D4B1E4E01931B7805A81D4F03703368A5
:1041F800047483603B684560C360039B437400F0AC
:1042080053FA04AB1880019BC4B22100187800F05F
:10421800A1FA019B1B78022B0BD1012C09D1FFF7C6
:10422800A5FC104B029A1A700F4B1A7035603D604E
:1042380006E0022C0ED0042322009A43012AF5D06E
:1042480004AB5B78019A290020001370FFF754FF34
:104258000BB0F0BD3560F3E7601900205C19002051
:1042680058190020641900206319002010B50400B3
:10427800FCF704FB02231B1B02002100D8B2FFF746
:10428800A1FF10BD10B5FFF7CCFE10BD10B5024858
:1042980000F0C6F910BDC046611900200123F0B531
:1042A8000C008BB0184250D000294ED07A4A1370B7
:1042B800FCF7EAFA2300FC339860122000F052FE63
:1042C8000500830644D5FDF7AFFF132000F04AFE32
:1042D8000700102000F046FE3E1C0390FB2F01D97A
:1042E8006E4B1E783A006E480399F6B200F09EF9BC
:1042F800002801D0FDF7F2FF012319202370657013
:10430800A77000F02FFEE0701A2000F02BFE039932
:1043180020710D2000F038FE002F04D0320000205C
:10432800611D00F042FE0022053623001100C52061
:104338000096FEF799FD0020FFF798FF0122594BE0
:104348001A702900122000F01FFE00200BB0F0BDEB
:104358004306F6D5132000F005FE0390102000F068
:1043680001FE0700039A39004D4800F05FF9002864
:1043780001D0FDF7B3FF192000F0F4FD46B21A2072
:1043880000F0F0FD390005900D2000F0FDFD039BC5
:10439800002B04D01A002100002000F006FE2700A0
:1043A8000322039BFF377B70F31713403A009B19D6
:1043B8009B10BB70059B013A9D3B9380002307AE81
:1043C8003200200003997B750497FFF719FA0590CE
:1043D800002803D00020FFF749FFB2E7230032008E
:1043E8000933FF3383CA83C30123049A5375FFF744
:1043F800CDFB021E0DD02C4B1A78002A09D0FCF7F1
:104408003DFAFFF7F5FBFA23059FDB0083427F4166
:104418007A1C71787068FFF713FB070000F018F931
:10442800012F19D8FCF72AFA3222736805905343F2
:10443800727803989B180493FFF7DEF8327A01002C
:10444800049B0598FFF7C0FB184B049A1A600122D9
:10445800174B1A70144B1A7001230020BB424041BD
:10446800C0B2FFF703FF039B083BDBB2002B09D167
:10447800FF346370FDF7D0FE1220290000F084FDA0
:10448800012063E72200117A11700132111BC9B2B1
:104498008B42F8D8ECE7C04675190020485C000844
:1044A8006119002074190020631900206819002080
:1044B8006419002073B51F4B05001B78022B03D02D
:1044C80000221D4B1A7073BDFFF760FB0028FAD15C
:1044D800194B1A4E1A78002A02D135600132F1E7D9
:1044E80000F0A2FC0400FFF73BFB431E98412200AA
:1044F800C3B23168280000F0B7F8040000F0C8F82B
:10450800002C03D0042CDED13560DCE76B4601A912
:10451800D81C01940470FFF731FA0028F4D1FFF792
:1045280080FD019800F074FDFFF7C0FDFFF7CAFD9C
:10453800EAE7C046601900206C19002070190020B5
:10454800002110B502000800FFF73CFE10BD000076
:10455800F7B50400FFF71AFB002838D01C4B1B786E
:10456800022B34D100F060FC002830D12000FFF786
:1045780013FB184E04003378174F002B02D03B680A
:10458800834224D032212000FBF732FE2000CDB236
:104598003221FBF7A7FD2900FFF738FA6B46D81C34
:1045A800002301A903700193FFF7E8F900280BD154
:1045B800019B002B08D0FFF734FD019800F028FD7F
:1045C800FFF774FDFFF77EFD01233C603370F7BDF4
:1045D80060190020641900206819002010B5002413
:1045E800084B1C70084B1C70084B1C70084B1C7047
:1045F800084B1C70FFF7BAFA074B1C70074B1C706E
:1046080010BDC046601900205619002075190020F9
:10461800741900206C190020641900206319002007
:10462800002802D0002303704370704710B5041EA1
:104638000CD003780020834204D063785B1A581E9C
:104648008341D8B2012389186170237010BD00001E
:10465800052806D8034A80008358591C01D0013325
:10466800835070477819002010B504000120002BF2
:104678000CD00018002A09D1611A0230002905DB84
:10468800BE2301385B00994200D3100010BD000022
:10469800042806D8034A80008358591C01D00133E6
:1046A800835070479019002082B001AB002806D1D2
:1046B800188018785B781B02184302B07047027C98
:1046C8000178012A0FD0012923D0022917D1002A05
:1046D80007D142688168521A0FD4FA21C9008A4268
:1046E80010D2802228E00222407C121AD2B201297C
:1046F8000AD0022903D1012AF3D1134A07E0C022C4
:10470800002919D1022211E0012A04D10F4A1A8086
:10471800CFE7022A02D180225200F8E74268C16836
:10472800511A02D48068121A02D50622FF32EEE727
:104738000748814202D9C1229200E8E7FA214900DC
:104748008A42E8D38122E7E705020000030200005D
:104758002F75000010B5032806D8084A8000835832
:104768005C1C01D001338350052906D8044A89000E
:104778008B58581C01D001338B5010BDBC19002038
:10478800A419002037B5002828D0002203784178E2
:10479800C5788B4252411C1CD2B20F2B00D90F2472
:1047A80001798078D301E4B2DBB200280CD000296B
:1047B80001D040210B43002D0DD12343FF210A4096
:1047C8000B40100218433EBD002901D040210B4385
:1047D8002021002D00D010210B43EEE78023012279
:1047E800ECE700000022014B1A707047CC1900203A
:1047F800F8B50400051E0BD0064F3E783000FFF7D1
:104808001FF832210500701CFBF7F2FC2670397086
:104818002800F8BDCC19002070B586B006000D0040
:10482800FCF782FC031E00D0037801AC2370104B08
:1048380066701B780495A3700E4B1E780E4BE670BD
:104848001B6802930D4B1B680393FCF717F80C4980
:1048580002003000FFF78AFA0A4D05902200002175
:104868002888FDF723FB2B8801332B8006B070BD09
:10487800E4190020EC190020E0190020E8190020B4
:1048880010270000CE19002070B5FFF7CAFB134CA3
:10489800134E2378134D002B17D0FFF713FCFBF7AB
:1048A800F3FF030000203278824202D00E4A1068DB
:1048B800181A00212A788A4202D00C490968591A24
:1048C800531E9A41D2B2FDF713FD0023084A3370F4
:1048D8001370084A2B702370136070BD181A0020DB
:1048E800101A0020081A0020141A00200C1A0020A0
:1048F8001B1A0020F0190020F0B58FB00390FFF7C5
:1049080069FB039B0590002B16D0CD4B1978002925
:1049180012D1039BCB4EFF335F78CB4D0837CB4C7E
:10492800FF2F0DD9CA4B31701970CA4B296021600D
:104938001970FF20FFF770FF002420000FB0F0BDB2
:10494800FCF7F2FB002803D00222037893433CD102
:104958000023BF4A33701370BF4A2B601370BD4ADF
:1049680023601370059BBD4A043BDBB2012B00D9C1
:1049780085E001241470FFF785FCFBF785FFB84B31
:104988001860B84B1C70B14B186800280BD000F0A9
:104998003FFBFBF779FFFA250400AD00FBF774FF36
:1049A800001BA842FAD3FFF75DF90225A843C0B25D
:1049B80000286CD0A64B1878FFF792F80021280041
:1049C800FFF72AFFFFF760FFB6E7FBF757FF040082
:1049D800FFF7DCF800280AD1FFF7B6F80500FFF763
:1049E800B9F83221694309182000FFF7C7F82000F9
:1049F800FFF7D2F832210500FBF7FAFB2800CEB208
:104A08003221FBF76FFB3100FFF700F82000FFF7BA
:104A1800CFF82900201AFFF7B1F82000FFF7C8F8EF
:104A2800914B241A1C608B4B002404930123049A95
:104A38000BA9137006AB1C7309A80B94FEF79EFF15
:104A4800804E814D814B824AA04207D01C60049B56
:104A5800210034702C6014701C706AE706A9097B69
:104A680011700B9A1A60FFF775F83123002801D0EE
:104A78000138C3B23370FFF767F8286072E7002384
:104A88001370FFF7CEFA002800D07CE754E7FFB296
:104A98003800FEF7B1FD754B0400984204D9FDF7C4
:104AA800DBFB210001208BE7694B714E1C780493D6
:104AB8003060FBF7E3FE6F4B0200390020000693DD
:104AC800FEF7E4FD0590002806D0012801D1FDF786
:104AD800C3FB0420316873E7FCF726FB0122664C10
:104AE800524200281DD00378AB431AD0049B228081
:104AF8001D7833680793FBF7C1FE604B02000093F3
:104B080028005F4B07990194FFF758F9002809D04E
:104B1800049B1878069B1968FEF7E4FD03203168AA
:104B28004EE7228000210E2000F02EFA00210D20F1
:104B380000F02AFA3900222000F026FAFCF7F4FAED
:104B4800002801D003780593059B0BAC23703D4BDF
:104B58001B7863703C4B1B6863603E4B18780028D9
:104B680008D0FBF78BFE404B1B68C01AFF2800D902
:104B7800FF20C0B2384B09AD187029002072200000
:104B8800FEF726FE08220020290000F025FA002260
:104B98001F203C4B4343A95C0132CB18082AF9D1AA
:104BA800394C039D2360FF356A78002A0CD0039B9B
:104BB8000020591C00F010FA1F20039A6978236816
:104BC8008918914214D12360304BFF2112201F70A5
:104BD80000F0DAF9FFF72CFA264D041E0DD11C4B14
:104BE80029681878FEF77EFD214B06201968E7E64C
:104BF800434355780132EB18E3E7039A244B1278C4
:104C080009201A7000F0AEF90F22224B1040023032
:104C180018702B68204D2B60002B03D13800FEF74D
:104C2800EBFC2860FBF730FE1C4B1D4918602B6815
:104C38001C4A5B18181810600122014B1A707CE698
:104C48001B1A0020E4190020E0190020E8190020B0
:104C5800EC190020D4190020DC190020181A0020B3
:104C6800141A0020101A0020D819002060CC050062
:104C7800D0190020F019002010000020801A06002A
:104C88001027000005150000041A0020001A002053
:104C98001A1A0020191A0020F8190020FC190020FF
:104CA800F0490200F4190020F0B50C008BB000297F
:104CB80002D100200BB0F0BD4D4B1E78012EF8D16B
:104CC800304272D0122000F04DF905000100122088
:104CD80000F05AF92D0768D5FBF7D6FD454B18604B
:104CE800454B1E70FBF7D0FD444B454F1B68C01A5F
:104CF800444BC0183B68984206D2FDF785FA424BF0
:104D08000E201978FDF744F8404B00210D201E783D
:104D180000F03AF93E4D002E27D13E4B3A4E1B6823
:104D28009D423BD1FDF760FA00253378657023700A
:104D3800394B1B78A3703B686360384B1C78FBF7D2
:104D48009DFD290002002000FEF7DCFCFDF774FA47
:104D5800334B39681888FFF793F828003968FFF74C
:104D68005BFDFFF791FD0120A4E7331C202E00D93D
:104D78002023DBB21A00002002A9019300F015F9E4
:104D880000231F22554302AAD25C01990133551909
:104D9800DAB28A42F5D3761AF6B2BCE7FDF72CFAF6
:104DA8000D203178FCF7F4FFBEE7FBF76DFD1D4BD6
:104DB8001B68C01A00D57CE7FF21122000F0E4F838
:104DC800114B0F4D1B78237001236370124B1B7816
:104DD800A3702B686360114B1C78FBF74FFD002113
:104DE80002002000FEF78EFC05202968B7E7C046C0
:104DF8001B1A00200C1A0020081A0020FC19002099
:104E0800F8190020881300001A1A0020001A002040
:104E180005150000041A0020191A0020EC190020BA
:104E280010000020F4190020024B1878431E984106
:104E3800C0B270471B1A002070B50500FCF774F962
:104E4800002801D1002070BD0378012BFAD1FEF7AC
:104E58009DFE0028F6D0FBF711FDFA24FEF7A8FE08
:104E6800A40044430B2802D80948001BEBE72B1C7D
:104E7800F72D01D9074B1B780833D8B2FEF7BCFBD6
:104E8800054B064AE3181B189342DBD90448ECE7A4
:104E9800E02E0000495C0008983A0000400D03002D
:104EA800203C03000122032370B515004C00A340E9
:104EB800A5408A4006689E4335430560456895438A
:104EC8000222A2404560816899430A438260C26811
:104ED8009A43C26070BD032349008B4002689A431D
:104EE8000260C2689A43C260704700000222084B01
:104EF80019681142FCD00121064A1070186808424E
:104F0800FCD0802118680842FCD11078C0B27047E4
:104F1800083001400C3001408022044B002802D1A7
:104F280012021A6070471206FBE7C04618000050CC
:104F380010B50A4C00212000FFF7B4FF8022084B6F
:104F480052021A600120FBF7C3FC00212000FFF782
:104F5800C2FF0620FBF7BCFC10BDC046000800508D
:104F68001808005010B504000120FFF7D5FF7F2076
:104F78002040FFF7BBFF0020FFF7B8FF0400002028
:104F8800FFF7CAFF200010BD70B5040001200D0016
:104F9800FFF7C2FF80202043FFF7A8FF2800FFF794
:104FA800A5FF0020FFF7B8FF70BD70B50500012010
:104FB8000C001600FFF7B0FF7F202840FFF796FF90
:104FC800A6190020B44202D1FFF7A6FF70BDFFF773
:104FD8008DFF20700134F4E770B5050001200C0046
:104FE8001600FFF799FF80202843FFF77FFFA619D7
:104FF800B44203D10020FFF78FFF70BD2078FFF780
:1050080075FF0134F4E710B54220FFF7ABFF10BD80
:1050180010B500230A4A410BC004FBF707F9040046
:10502800010CC9B20620FFF7AFFF210A0720C9B259
:10503800FFF7AAFF0820E1B2FFF7A6FF10BDC046A0
:105048000048E80110B5011C112809D91121802355
:1050580002395B4219430920C9B2FFF795FF10BD19
:10506800C3B2022BF3D20221F1E70000F0B5FA2314
:105078000D0009218DB006005B0004919D4205D208
:10508800FB3BAB429B415B420733049300230793EE
:10509800331C0C2E39D90C23DBB20393171C082AB6
:1050A80038D90827FBB2059307AB0193414B290078
:1050B80000930398FF23FAB2FEF77AFA041E2ED162
:1050C800FA2292006A43039908AB19705A80110CAE
:1050D800120E5A71FF229A71079A1971110ADA7120
:1050E8001972110C120E9A726022DA72324A5972CF
:1050F8009A810F22987301005F7000920200C2200B
:10510800FDF7B2FE20000DB0F0BDF1B20629C3D202
:105118000623C1E7D3B2052BC4D20527C2E704276B
:105128000599049B04391B01490019431D20C9B284
:10513800FFF72AFF039B1E2019013943C9B2FFF765
:1051480023FF2620FFF70EFF0A2E19D97D2D12D82E
:105158000C210143C9B22620FFF716FF3120FFF7C3
:1051680001FF0723032198430143C9B23120FFF708
:105178000BFF0A2119E0F723390018400143EAE739
:10518800F7233900184001432620FFF7FDFE062EBD
:10519800E4D83120FFF7E6FE0723052198430143B1
:1051A800C9B23120FFF7F0FE0C213720FFF7ECFEE3
:1051B800A8E7C04660CC0500CC05000010B5FFF795
:1051C80055FF10BDF8B50723794A802411680820D7
:1051D8000B431360C0227749774F0B68774E934390
:1051E80023430B6076490B6883430B607549764807
:1051F8000B68934323430B607449A0240B68E405B0
:105208009343734A0B60136872490B401360802202
:105218004021236892013B401343236003688B437A
:105228006D4903600B683B401A436C4B0A601A686F
:105238003A401A606A4A1568354015602568694E13
:10524800354080263602B4463543802625600568F9
:10525800B543056065460868624E3040284380259E
:10526800086019686D013140012619601168200035
:105278000901090911601A680F213A402A431A6086
:10528800FFF710FE584F0020FFF746FE0021574851
:10529800FFF708FE310020003E60FFF703FE3100F3
:1052A8005248FFF7FFFD02215048FFF7FBFD02229D
:1052B8004F4B04211A6080239B023B608023DB0252
:1052C8003B603C48FFF707FE31003A48FFF703FE12
:1052D80000213848FFF7FFFD44480D21FFF7FBFD8B
:1052E800444A454813681D4315601368802180248B
:1052F800036819402342F9D1B820404B4001196096
:105308003F49713C0860C52189001960402118682F
:105318000143196001231168F020194311603949CC
:105328000A68A2431A430A601021374A1568854360
:10533800294311601168A1430B43136020233349AB
:105348000A68824313430B603149324B0A6832487A
:105358001A430A6031490A681A430A6030490A68E0
:1053680002400A602F4A032113600520FBF7DAFA8E
:1053780003210720FBF7D6FAFFF7DAFDFEF772FEE6
:10538800041E02D100242000F8BDFFF73CFE0138BE
:10539800C0B2FD28F6D82448FFF73AFE0522FA21C4
:1053A8000720FFF763FE0E20FFF74CFEEBE7C04631
:1053B8002C10024000040050FFCFFFFFFFFFFFF05A
:1053C8000404005008040050040000500C0400506D
:1053D80020040050FF0FFFFF080000500C00005091
:1053E80020000050FF3FFFFF180800500008005041
:1053F80018000050341002400830014000300140CD
:10540800043001400C000140080001401400014034
:105418000004014013200000ECDFFFFF08040140F6
:105428000C04014014040140C0CA8936EFF310820D
:1054380072B60021024B1868196082F31088704711
:10544800201A0020EFF3108272B60021024B186870
:10545800196082F3108870471C1A0020014B1868E5
:105468007047C0461C1A00200B4A03211368180015
:1054780008400B420ED010600222134203D00749A5
:10548800086802430A60DB0704D50423034A11684D
:105498000B4313607047C04614040140201A0020D3
:1054A8000D4A0E491368180008400B4212D01060CC
:1054B800DA0608D501220A49086802430A60094940
:1054C8000A6801320A609B0404D50823044A11685B
:1054D8000B4313607047C0461404014010200000BD
:1054E800201A00201C1A0020F0B557464E464546A3
:1054F800DE46E0B504000D009246994683B08B4223
:1055080030D82DD049465046FAF7B0FE290006009B
:105518002000FAF7ABFE331A9846203B34D49B465A
:1055280053465A46934042461F00534693401E0036
:10553800AF423BD8AF4200D179E05B46A41BBD41E6
:10554800002B00DA76E00022002300920193012369
:105558005A4693400193012342469340009329E021
:105568008242CFD900220023009201930C9B002B8A
:1055780001D01C605D600098019903B0F0BCBB4687
:10558800B246A946A046F0BD42469B4620239B1A38
:105598005246DA40414613004A468A4017004246BE
:1055A8001F43534693401E00AF42C3D90022002335
:1055B800009201934346002BD8D0FB0772081A4388
:1055C80046467B080EE0AB4201D1A2420CD8A41A91
:1055D8009D41012024196D410021013E24184D41AF
:1055E800002E06D0AB42EED9013E24196D41002EA3
:1055F800F8D1009801995B4600196941002B24DB1A
:105608002B005A464446D3402A00E2401C005B4621
:105618001500002B2ADB26009E4033002600474653
:10562800BE403200801A9941009001919EE7A34242
:10563800BCD882E74246202300219B1A0022009111
:1056480001920122DA40019285E7424620239B1A03
:105658002A0046469A402300F340444613432A0052
:10566800E2401C005B461500002BD4DA42462F00AE
:105678002023260097409B1ADE403B003343CDE7AA
:1056880030B500240139A24201D1002005E0035DB4
:1056980001340D5DAB42F6D0581B30BD03008218B3
:1056A800934200D1704719700133F9E7002310B510
:1056B8009A4200D110BDCC5CC4540133F8E746418E
:1056C800554C543A52455345540D0A004541524CE5
:1056D800593A52455345545C725C6E005253543AE1
:1056E80053544152540D0A005253543A4D41494EB5
:1056F8000D0A004541524C593A4D41494E5C725C85
:105708006E004D3A524144494F5F425950415353FC
:105718000D0A0000010103003D0A00080E00000008
:10572800000000000201010000000000010000006C
:10573800000000000301010000000000010000005B
:10574800000000000401020000000000A6000000A4
:105758000000000005010100000000000100000039
:105768000000000006010100ED090008000000002B
:10577800000000000708060000000000FF0000000D
:105788000000000008010100ED0900080100000008
:1057980000000000090101000000000001000000F5
:1057A800000000000A0103000000000000000000E3
:1057B800000000000B0405020000000000100E00AD
:1057C800000000000C0103000000000010000000B1
:1057D800000000000D02040000000000640000004A
:1057E800000000000E010100ED09000800000000A3
:1057F800000000001002040000000000F401000096
:105808000000000011010300000000000400000077
:1058180000000000130204000000000090010000D6
:105828000000000014010300000000000000000058
:105838000000000015010200000000000200000046
:105848000000000016010300000000001100000025
:10585800000000001708060000000000000000001B
:10586800000000001808060000000000000000000A
:10587800000000008001030100000000010000009A
:105888000000000081010301000000000200000088
:10589800000000008201010100000000000000007B
:1058A80000000000000308090A0B0C070D0E000099
:1058B80048E8010090D0030020A107002E00433AD9
:1058C80053454E445F424F4F540D0A00433A5345E7
:1058D8004E445F4641554C540D0A00433A53454ED9
:1058E800445F52454144590D0A00433A434C4B5FCB
:1058F8004853455F33324D0D0A00433A434C4B5FE2
:105908004853495F31364D0D0A00433A494E4954D0
:105918005F444F4E450D0A00433A444953504154A1
:1059280043480D0A00433A4241445F5645520D0A26
:1059380000433A50494E470D0A00433A5645525FD4
:10594800444953500D0A004F53452D4C6966655420
:105958007261634C4F52412D4D75726174614657A7
:1059680000646576004641494C0041540041544961
:1059780000200041542B5645523F00433A41545FA2
:105988005645525F444953500D0A0046573D002082
:1059980056455253494F4E3D00204749543D00203B
:1059A80050524F544F3D0020534348454D413D0010
:1059B800204341503D30780041542B524144494FD7
:1059C8003F004552524F520D0A00524144494F3D43
:1059D800002056455253494F4E3D307800205354CD
:1059E8004154453D0041542B535441543F00484FC6
:1059F80053545F44524F5050454400484F53545FEE
:105A08004552524F525300484F53545F51554555D4
:105A1800455F46554C4C00484F53545F4952515FBF
:105A280049444C4500484F53545F4952515F4854CC
:105A380000484F53545F4952515F544300484F53F5
:105A4800545F4952515F544500484F53545F525870
:105A58005F425954455300484F53545F52585F4C66
:105A6800505541525400484F53545F52585F555354
:105A78004152543100484F53545F50415253455F8F
:105A88004F4B00484F53545F50415253455F455266
:105A98005200484F53545F554152545F4552525F2C
:105AA8004C505541525400484F53545F554152543D
:105AB8005F4552525F555341525431005241444957
:105AC8004F5F44494F3000524144494F5F44494F6A
