:020000040800F2
:100000000050002005040008A1030008890300082F
:1000100000000000000000000000000000000000E0
:100020000000000000000000000000009D03000828
:1000300000000000000000009D030008DD0900082A
:100040009D0300089D0300089D0300089D03000810
:100050009D0300081D5700089D0300085557000820
:100060009D0300089D0300089D0300089D030008F0
:100070009D0300089D0300089D0300089D030008E0
:100080009D0300089D0300089D0300080000000078
:100090009D0300089D0300089D0300089D030008C0
:1000A0009D0300089D0300089D030008D934000843
:1000B0009D030008F93300089D0300089D03000814
:0400C0009D03000894
:1000C400A55AA55A5AA55AA500100E0000C201004F
:0400D4008025000083
:1000D80002B4714649084900095C49008E4402BCD3
:1000E8007047C046002243088B4274D303098B42F1
:1000F8005FD3030A8B4244D3030B8B4228D3030CF0
:100108008B420DD3FF22090212BA030C8B4202D391
:100118001212090265D0030B8B4219D300E0090AB9
:10012800C30B8B4201D3CB03C01A5241830B8B42C2
:1001380001D38B03C01A5241430B8B4201D34B03AB
:10014800C01A5241030B8B4201D30B03C01A524110
:10015800C30A8B4201D3CB02C01A5241830A8B4295
:1001680001D38B02C01A5241430A8B4201D34B027E
:10017800C01A5241030A8B4201D30B02C01A5241E2
:10018800CDD2C3098B4201D3CB01C01A5241830996
:100198008B4201D38B01C01A524143098B4201D3D0
:1001A8004B01C01A524103098B4201D30B01C01AFB
:1001B8005241C3088B4201D3CB00C01A5241830875
:1001C8008B4201D38B00C01A524143088B4201D3A2
:1001D8004B00C01A5241411A00D201465241104602
:1001E8007047FFE701B5002000F006F802BDC046E1
:1001F8000029F7D076E770477047C046D0400B001B
:10020800D1409C46203AD34018435242634693401B
:10021800184370479140030090409C46203A934011
:10022800194352426346D34019437047002B11D1FA
:10023800002A0FD1002900D1002802D00021C9438B
:10024800080007B4024802A14018029003BDC04646
:10025800A9FFFFFF03B4684601B5029805F09AFAB2
:10026800019B9E4602B00CBC7047C04610B50029E1
:1002780003D100F007F8203002E0080000F002F88F
:1002880010BDC0461C2101231B04984201D3000C59
:1002980010391B0A984201D3000A08391B099842F1
:1002A80001D30009043902A2105C40187047C04607
:1002B8000403020201010101000000000000000027
:1002C8000023C25C0133002AFBD1581E704700008E
:1002D8000123174A11680B4313608023154ADB0278
:1002E80011680B43144913600A68144B1A408023A1
:1002F8001B0113430B60A021F023C9050A689A4328
:10030800503B13430B600E490E4B0A681A40CC232E
:10031800DB0113430B6000230B4A0C4913600B608D
:100328000B490B600B4B0C4919600923136070478C
:100338002C100240381002404C100240FFF3FFFF1F
:1003480020000050FF00FFFF004800400448004024
:10035800084800400C48004055410300802130B552
:10036800054A064C0378002B00D130BD01301568D2
:100378000D42FCD02360F5E71C48004028480040A7
:10038800042172460A4202D1EFF3088001E0EFF33C
:10039800098015E030BFFDE707B5FFF799FF07486B
:1003A80000F0A0FA002102200B000A000191009140
:1003B80000F0DEFA00F0D4FA30BFFDE77259000809
:1003C80073B504000600051E02D046698569C46934
:1003D800FFF77EFF074800F085FA002133002A0066
:1003E80001200191009400F0C3FA00F0B9FA30BF7F
:1003F800FDE7C046725900087047000001221C4BF7
:1004080010B519680A431A60042219681142FCD011
:100418000323184A11689943023B0B430C211360CC
:1004280013680B40042BFBD1FFF752FF1248FFF76C
:1004380095FF124800F056FA114A124B12498B42A6
:1004480010D30021114B124A93420ED3114800F0E9
:1004580049FA1148FFF782FFFFF7CEFF00F01EF8B8
:1004680030BFFDE701CA01C3E9E702C3ECE7C046B4
:10047800001002400C1002408059000890590008F2
:100488000C6100080000002014000020300000204B
:10049800581A00209C590008A7590008F0B5834C49
:1004A800A54400F00FF905F05FFD00F047F900F0F2
:1004B800CBF9E120000302F00FFE04F0D9FF041E7F
:1004C80000D1E6E003F046FF040004F0F2FE01006C
:1004D800200000F0C7FF00F0D1F9089000F0AEF955
:1004E800002805D000F0AAF90100082001F050FC0E
:1004F800002601270696059604960396029600F0B4
:10050800BDF9019002F046FB02F0F6FB02F092FC06
:1005180002F044FF029B1843C3B2029302F05AFF51
:10052800039B1843C3B20393049B002B08D1029B7F
:10053800002B06D01900092001F02AFC00F080FFEA
:100548000497002E08D1039B002B06D019000C201D
:1005580001F01EFC00F074FF3E00069B002B0ED13C
:1005680002F0C8FE00280BD002F0C4FEFF2800D914
:10057800FF20C1B20B2001F00BFC00F061FF0697D1
:10058800059B002B12D1049B002B10D1089A019BCC
:100598009B1A474A93420AD902F094FE002806D1D2
:1005A80004990A3001F0F4FB00F04AFF059702F0C5
:1005B800E9FE002803D00021062001F0E9FB52A83B
:1005C80002F0A2FC051E6CD105F086F8040005F0C7
:1005D8008FF80990200001F077FB20000AA904F0A9
:1005E800A9FC0790002802D00AA801F071FB3C4240
:1005F8000DD004F06FFD002809D120000CA903F0EC
:1006080097FF002802D00CA801F0D0FB3D002A007B
:100618000799099802F042F801F03EFE01F070FBDC
:10062800002823D004F056FD00281FD105F06CF8EF
:1006380000281BD005F050F8050005F059F8040013
:10064800280001F041FB3D4208D028000CA903F026
:100658006FFF002802D00CA801F0A8FB200001F0D1
:1006680027FE012C02D9601E01F016FE01F050FB96
:10067800019804F0ADF8019804F0B2F8019804F07C
:1006880061F800F051FD0178019801F039FD30BFA3
:1006980035E70100032001F07BFB064800F022F952
:1006A80013E752A800F046FF89E7C04674FDFFFF34
:1006B800B70B0000B6590008014B18687047C046D0
:1006C8000400002010B513480378002B20D11249EC
:1006D80003330A68940012D4013B54000FD4023348
:1006E800D4000CD40233540109D4013B140106D4BC
:1006F8000233940103D40133D40100D4D30F074A41
:10070800137080230A681B0413430B6001230370D2
:1007180010BDC04630000020741002403100002097
:1007280010B5044B1B78002B01D1FFF7CBFF024B10
:10073800187810BD30000020310000200123A020CF
:100748002F4AC005116882B00B43136001682D4B16
:10075800194080235B040B432B4903600B682B482B
:1007680003400B6080232A495B010B60022110685B
:1007780001431160274928480A6802401343402270
:100788000B6026490B6893430B60254B1A600023C6
:10079800FA2201931201019B93422DD3A022214BEF
:1007A800D20219680A4380211A601F4A8902186810
:1007B800084202D1013A002AF9D1012219680A43F4
:1007C8001A60042219681142FCD0032217490868EC
:1007D8009043023A02430C200A600A680240042A45
:1007E800FBD1134A1349116001221968124B490CB5
:1007F8008A431A7002B07047019B01330193CAE71C
:100808002C100240FFFFFFFC04000050FFEFFFFF29
:100818001800005000040050FFCFFFFF04040050F0
:10082800180400500010024001350C000C10024062
:10083800040000200024F40000000020014B187878
:100848007047C04600000020FA21084B10B5186810
:100858008900FFF747FC0022054B01381860054B5B
:100868001A60054B07321A6010BDC046040000200C
:1008780014E000E018E000E010E000E0014B186828
:100888007047C0463400002070B50C4B0C481D68FA
:10089800026819688D42FAD10A4B0B491C680B4B48
:1008A80001341868A41AFFF71DFC01002000FFF7A7
:1008B80019FCFA239B006B43C01870BD340000205C
:1008C80018E000E014E000E040420F0004000020BF
:1008D800034A116813685B1A8342FBD37047C0460A
:1008E8003400002030B500280FD009220A4B1B68BD
:1008F8001340934209D18021084B094C0278002A01
:1009080004D1403219681142FCD030BD1D680D4237
:10091800FCD001302260F1E7004800401C4800404C
:10092800284800400323020070B5FF2504001A4040
:100938009A402E009C43230089019640294091400B
:10094800054C064A1B191C68B4432143196001234E
:100958008340136070BDC04600E400E000E100E0A1
:10096800014B024A1A60FEE70CED00E00400FA05AC
:1009780030B5074C074D2560207161710021E18079
:10098800A260E360039B2361049B636130BDC046A2
:1009980014000020EC5D07FA030010B5002813D0FE
:1009A8000A4A0B49146800208C420DD1117919703C
:1009B8005179597091685960D16899601169D96005
:1009C800516910601961013010BDC0461400002043
:1009D800EC5D07FA024A1368013313607047C0469A
:1009E800340000200420704703004178027809028F
:1009F80011438278C07812040A43000659791043DB
:100A08001A79090211439A7912040A43D979090615
:100A1800114370470023064A1901515C814205D0F1
:100A28000133192BF8D10120404270471800FCE728
:100A3800C8590008030010B50220012903D118780D
:100A480004F056FC002010BD10B500F06DFB041E2C
:100A580007D0007800F056FA1422617DA25600F003
:100A68006FFA10BDF0B51A4B8DB01A4C1A4D0193A0
:100A780023786778AE1C2B70082200216F70300035
:100A880004F062FF21003A003000083104F064FFEE
:100A9800019B10340A359C42EAD100240021282207
:100AA80002A804F051FF02ABFF221C7000232000B3
:100AB8000492059300F030FA02AA084B0690100041
:100AC800938200F0A5FA064B1C700DB0F0BDC0462D
:100AD800585B0008C85900083900002002110000BE
:100AE800380000200023F0B593B007000D00160071
:100AF8000493059306930793FFF78CFF0124019055
:100B0800002800DAF6E0A44B02019B18DA780534D5
:100B18000292D20700D5EDE05B78043CB34200D0E6
:100B2800E8E0002D00D1E5E03200290004A804F037
:100B380013FF781E13281CD8FFF7CAFA0A44444A40
:100B480044448244445156646A441B72771B7D882E
:100B580004AB1B78012B31D8022304AA1370FFF7CA
:100B680073FF002805D004AB1B78834201D904AB7E
:100B780018700A25019B32005D43884B06A8ED18C2
:100B8800290004F0E9FE3200280004A904F0E4FE7C
:100B9800814B0393019B1F01039BDB195B68002BAF
:100BA80000D1E1E0310028009847041E00D1DBE0C5
:100BB8003200280006A904F0CFFE9BE0112BCED905
:100BC8001123CAE704AB1B78012BD2D9032491E087
:100BD80004AB1B787833DBB2782BCAD9F6E704ABC1
:100BE8001B78072BC5D9F1E79622049B9201934203
:100BF800BFD0E12252029342BBD0E12212039342BA
:100C0800E4D1B6E704AB1B78013B3F2BB1D9DDE754
:100C180004AB1B88624A323B9BB29342A9D9D5E701
:100C280004AB1B885F4A0A3BF6E704AB1B78013B21
:100C3800092B9ED9CAE704AB1B885B4A323BEBE71A
:100C480004A8FFF7D1FE084393D1BFE704AB1B7894
:100C5800022BBBD808AF28220021380004F074FE0C
:100C680004AB1878387000F057F90C900720FFF79C
:100C7800D1FE002800DA75E00A2460434B4D0230AB
:100C88004019FFF7B1FE0A900B911520FFF7C2FE3D
:100C9800002867DB60432818837816203B75FFF728
:100CA800B9FE00285EDB60432818837817207B751F
:100CB800FFF7B0FE002855DB604302304019FFF70C
:100CC80093FE0E900F911820FFF7A4FE002849DB31
:100CD800444302346019FFF787FE109011910121F7
:100CE800380000F0B3F9002807D000F01FF9041EFF
:100CF80000D13EE7200013B0F0BD00F0C1F9002894
:100D0800F3D1FFF7A1FE07000120FFF783FE041EC1
:100D180028DB002F26D00A2213004343EB189978CA
:100D28000B1CB94200D93B1C6243D8B21700AA1861
:100D3800937004F0DDFA1E4B03931B78002B00D050
:100D480017E7154B24011A19023708345278E118AD
:100D5800E81904F0EBFD002800D10AE70123039A03
:100D6800137006E70424C5E7114C2378002B0AD139
:100D7800039B083732002800D91904F0D7FD002852
:100D880001D0012323700223029C029A1C401A42BC
:100D9800B0D00524AEE7C046C85900083B00002083
:100DA800561300007E1300009E0700003900002043
:100DB80038000020F7B51E0007000C000192FFF76D
:100DC80029FE03000120002B13DB0018002C10D093
:100DD800002E0ED00C4A190152185578019A9542E6
:100DE80007D8822F06D10125084B1B7823700020D5
:100DF8003570FEBD0A215943054B2A002000C91849
:100E080004F0AAFDF3E7C046C859000838000020DE
:100E18003B000020F8B503000C00002841D0081E54
:100E28003FD01F00FF37797800200D00103595421C
:100E380037D82170BA781E0062701A00FE32042179
:100E4800525EFC36A27092B2120AE270B268110ABF
:100E580022716171110C120EA171E2717A788242CD
:100E680004D020001900083004F076FD7D78797DE3
:100E78002B000833E018002914D0012202707A7A76
:100E880004334270BA7AE41882707A7CC27033698B
:100E98001A0A237062701A0C1B0EA270E3702800E5
:100EA8001030F8BD082204F04FFDF8E703001000E9
:100EB800012B08D10A00803AD2B2012A01D985292A
:100EC8000ED118000CE0002A0AD00020402B07D8C9
:100ED800252B06D8092B0BD8053098428041404273
:100EE80070470748263BDBB2D84001231840F7E794
:100EF800002001221D3BDBB29A424041C0B2EFE71D
:100F08000128220403001120002B04D0013B0020FB
:100F1800012B00D81E30704703000020022B02D896
:100F2800014A9B0098587047645B0008030004203E
:100F3800092B01D8014AD05C7047C046585B0008AD
:100F48000023062A01DD063A53B2C01A884200DDA2
:100F58000800012800DC0020C0B27047F8B5050081
:100F68000E00092400281AD00478022C41D814272E
:100F7800C757FBB21E2B3ED82000FFF7C3FF3A002D
:100F8800697DFFF7DDFF002837D0012C09D0022C3E
:100F980026D0EB68AC681C4363425C4164002000C7
:100FA800F8BD002E2DD08021EA68AB68C9028A42BC
:100FB80025D200211800104309D102243129EED985
:100FC8002C69114BE418631E9C41A400E7E7180044
:100FD800204009185B08D007C9B203435208E9E763
:100FE800002E0ED0AB68EA681343D8D02C69074BA3
:100FF800E8E70124D3E70524D1E70624CFE7032453
:10100800CDE70724CBE7C046702FFCFFE05EF8FF72
:1010180070B50B4D0400010028222800002C0AD0CE
:1010280004F09AFC28220021064804F08DFC0022D6
:10103800054B1A7070BD04F087FC2C70F2E7C046AF
:1010480060010020380100203301002070B5050040
:10105800FFF784FF2822041E074807D0002104F068
:1010680073FC0023054A2000137070BD290004F0AA
:1010780073FC0123F6E7C046380100203301002045
:1010880073B5244D08202B78002B24D0224C234EF6
:1010980028223100200004F05FFC03F00AF92378CD
:1010A800012B19D1226A636AA069E16900240094BE
:1010B80002F0BEFC0522FA21072004F0D5F91848F1
:1010C80002F076FA03F0D2FB28220021300004F067
:1010D8003BFC0020287076BD022B0DD102F09EFC4F
:1010E80003F0C4FBFA2107200522490004F0BCF9EB
:1010F8000C4802F05DFAE7E7002BE5D102F08EFC20
:1011080003F0B4FB07200522FA2104F0ADF90448E6
:10111800EFE7C046330100206001002038010020BD
:10112800801A0600F07E0E0000487047600100201B
:1011380070B5050004A80678059C181E0BD0201E63
:1011480009D00020032E06D9D8701D7059709A70E6
:1011580004230130237070BDF0B5050005A8077899
:10116800069C081E12D0181E10D0201E0ED000207B
:10117800082A0BD8961CF6B2BE4207D81D705A70C2
:101188000233C5B2AA4202D801202670F0BD0D5C18
:101198001D540130F5E7030010B5421850789478D3
:1011A8005B5C2404000220431843D3781B061843D1
:1011B80010BD0B0A017043700B0C090E8370C170CF
:1011C80070470000F0B5C1880400C7B0012908D8ED
:1011D80002230278417880880093013301F0E6FE0B
:1011E80053E00C25037A05AE3370427A02ABFF3523
:1011F800ED18931C6A70994205D00278417880886E
:1012080000930323EAE7002A06D001000D2002AB71
:101218000A31C01804F0A0FB1D4F3B78002B0BD0FF
:10122800A3883D780393032D1AD900232278617887
:10123800039800930733D1E703F04CFF0028EFD160
:10124800687803F04FFF0028EAD1300003F098FCDB
:10125800031E1AD122786178A08800930833BDE76D
:1012680003220C4B0C4C1B783100EB181340023254
:10127800FF3253430222E4182000FF3204F06CFBD3
:10128800039BFE340135A3803D7047B0F0BDC046D6
:1012980088010020890100208A01002010B5024839
:1012A80001F072FE10BDC046A65E00080F2307B508
:1012B800184003003733092800D8073B6A461371E2
:1012C800002301A8537101F05FFE07BD30B504008B
:1012D80089B002AD18220021280004F035FB2388CC
:1012E800616803A82B80FFF764FFA16804A8FFF7D3
:1012F80060FFE16805A8FFF75CFF216906A8FFF712
:1013080058FFFFF7BBFA010007A8FFF752FF0022BA
:10131800182311000093F1202B0001F01FFE09B0E3
:1013280030BD0000F0B5002485B0050001AEA04234
:1013380006D1124801F028FE05B0F0BD0A2C0FD0E6
:1013480028000A21FEF754FF3031A15528000A2150
:10135800FEF7C8FE2F0001340500092FEED8E4B2CD
:101368006A46013CE4B2335D68461370002353704B
:1013780001F00AFE002CF3D1DEE7C046795D0008D3
:1013880010B50C0001F000FE034801F0FDFD20003F
:10139800FFF7C8FF10BDC046625C0008F0B5002723
:1013A800BEB2B14204D9C45D202C11D0092C0FD093
:1013B8004C1E0419B1420DD80024C719135D301909
:1013C80080B2002B0FD1081A43425841C0B2F0BD79
:1013D8000137E5E72578202D01D0092DECD1013919
:1013E80089B2013CE6E781420FD93D5D28006138AA
:1013F800192801D8203DEDB218006138192801D804
:10140800203BDBB20134AB42D8D00020DFE700003C
:1014180070B5094C200001F0B7FD084D280001F017
:10142800B3FD200001F0B0FD280001F0ADFD200063
:1014380001F0AAFD70BDC046795D0008705B000828
:1014480000B5B7B0D02102A800F0B4FF002806D03C
:10145800002200901100C12002AB01F07FFD37B0DF
:1014680000BD0000F0B50025274B284F284E1D7001
:10147800284B8BB031701D703870FFF7F3FA00F00D
:1014880065FE2548FFF72EFAFFF74AF93B7805ACC9
:10149800637033782070A3700123E370DB18237125
:1014A800FFF7CCF9062360712A00F0200093290089
:1014B800230001F053FD2000FFF76EFAA84205D083
:1014C8001648FFF70FFA2000FFF700FF1448FFF750
:1014D80009FA144B002203937F230493773B1100EE
:1014E800F220009303AB01F039FDFFF7A7F90028BC
:1014F80007D10D48FFF7F6F90C48FFF7F3F90BB0E1
:10150800F0BD0B48F6E7C046890100209B05002086
:101518009A05002088010020725B0008805B0008A3
:101528008F5B0008010102019E5B0008BE5B00089A
:10153800AE5B0008F0B50400BDB0002800D197E00C
:10154800BE48FFF7CFF92278012A0AD0BC48FFF736
:10155800C9F9012322786178A088009301F026FD5B
:1015680086E06178202900D1EAE010D8032906D85E
:10157800481E02282FD8FEF7ABFD3B7D95001029A9
:1015880000D192E0A088022301220091E6E73129E8
:1015980000D1A5E00BD8212900D115E13029F1D1DE
:1015A800E388012B00D18DE0A0880092D7E0402984
:1015B80000D17EE04129E5D1D02108A800F0FAFE4B
:1015C8000300A088002B00D076E0D0332278617821
:1015D8000093CD3BC2E79B48FFF784F9E0882300DE
:1015E800A278A18800900020083301F0B7FC3FE002
:1015F8009548FFF777F9042001F0DEFE934B1800B9
:101608000493FEF75DFE0500914B2F1C1800EDB208
:101618000593FEF755FE282D00D92827031CC0B2D4
:10162800FFB2102800D91023DAB20392894A08AD14
:1016380000260892AB717F233A006F710C3704992A
:101648002E71EE71FFB20BA80A9304F085F9039A84
:101658000599E81904F080F9039B8120DF19A18816
:101668002B003200009701F079FC082001F0A4FE5D
:101678003DB0F0BD784B08A81968784B1E68784BC8
:101688001D68FFF796FD310009A8FFF792FD2900B4
:101698000AA8FFF78EFD0C23A18800220093822060
:1016A80008ABA2E7FFF75CF9E2E72000FFF78AFD45
:1016B800DEE700F04BFDDBE7010000930022C120CC
:1016C80008AB92E7207A04AB187403F0A1FD04ABD1
:1016D80058740223A18800220093B02008AB84E745
:1016E800E388022B04D00223A0880093013335E756
:1016F8000022617A207AFFF7D9FB237A002805D1E6
:1017080022786178A0880093082327E71800617A77
:1017180003F090FD237A012B0AD1607A02F0A8FD2C
:101728000722637A1340053B012B01D802F0F8FE2B
:1017380002222300A188B12000920833002254E736
:101748000A2704ABFF1800233B70E0880128CAD998
:10175800637A267A9D1CA84203D0A08800950323AB
:10176800FCE621001A0030000A31FFF7BBF9051E1C
:1017780003D0031FDBB2012B09D83B00082230003D
:1017880008A9FFF717FB002801D000233B703A781F
:101798000B2704ABFF18042329000093300007AB84
:1017A8000197FFF7C5FC0300A088002B05D104337F
:1017B800227861780093013BD0E63B78009307AB31
:1017C80001000022A02010E70B2604ABF618002326
:1017D8003370E388012B00D0E6E61221277A04A8AB
:1017E8000918330008223800FFF7E4FA07AD0100B2
:1017F8000A2300280ED00093002208AB3800019578
:10180800FFF796FC0300A088002BD0D02B7800931C
:1018180008ABD5E7122104A83278091800933800DC
:1018280008AB0195FFF798FC0300A088002B19D19D
:101838003378227802336178009390E7CC5B000814
:10184800D95B0008E55B0008EE5B0008FB5B00085D
:10185800155C0008010200005000F81F5400F81F32
:101868005800F81F2B78010000930022A12008AB34
:10187800BBE6C04670B504000D00B4B0002806D021
:10188800DE4AFFF78BFD002803D0FFF707FD34B0D1
:1018980070BD29002000DA4AFFF780FD002812D029
:1018A800D84801F071FBD84C200001F06DFBFFF720
:1018B800AFFD200001F068FBD44801F065FBD44877
:1018C80001F062FBE1E729002000D24AFFF766FD3C
:1018D800002830D0D048FFF705F8102001F06CFD43
:1018E800CE4801F051FBC74801F04EFBCC4801F04F
:1018F8004BFBFFF78DFDCB4801F046FBC34801F0D9
:1019080043FBC94801F040FB0120FFF70BFDC74826
:1019180001F03AFB0220FFF705FDC54801F034FB52
:101928001C247F252800E040043CC0B2FFF7BEFC21
:10193800231DF7D1C3E729002000BE4AFFF72EFD7B
:10194800061E27D0D021684600F034FDD02801D0EB
:10195800B9484FE1B94801F017FBB94BB9481B78B2
:10196800002B00D0B84801F00FFBB84801F00CFB81
:10197800B74B1C782009FFF799FC2000FFF796FC6D
:10198800B44801F001FB40216846FFF704FCFFF76B
:10199800C9FC94E729002000AF4AFFF7FFFC0028A4
:1019A80000D10EE1D021684600F004FDD028CFD147
:1019B80031006846FFF7EFFBA84B01001800FFF75E
:1019C800DFFC914C200001F0DFFA04216846FFF7A4
:1019D800E2FBA34B01001800FFF7D2FC200001F046
:1019E800D3FA08216846FFF7D6FB9E4B0100180082
:1019F800FFF7C6FC864D280001F0C6FA0C216846A0
:101A0800FFF7C9FB984B01001800FFF7B9FC20004D
:101A180001F0BAFA10216846FFF7BDFB934B0100AD
:101A28001800FFF7ADFC200001F0AEFA142168465B
:101A3800FFF7B1FB8E4B01001800FFF7A1FC200057
:101A480001F0A2FA18216846FFF7A5FB894B0100AF
:101A58001800FFF795FC280001F096FA4421684623
:101A6800FFF799FB844B01001800FFF789FC200061
:101A780001F08AFA48216846FFF78DFB7F4B010089
:101A88001800FFF77DFC200001F07EFA4C21684623
:101A9800FFF781FB7A4B01001800FFF771FC280063
:101AA80001F072FA50216846FFF775FB754B01008B
:101AB8001800FFF765FC200001F066FA542168461B
:101AC800FFF769FB704B01001800FFF759FC200075
:101AD80001F05AFA58216846FFF75DFB6B4B01008D
:101AE8001800FFF74DFC200001F04EFA5C21684613
:101AF800FFF751FB664B01001800FFF741FC280077
:101B080001F042FA1C216846FFF745FB614B0100D2
:101B18001800FFF735FC200001F036FA202168464E
:101B2800FFF739FB5C4B01001800FFF729FC200088
:101B380001F02AFA24216846FFF72DFB574B0100D4
:101B48001800FFF71DFC200001F01EFA2821684646
:101B5800FFF721FB524B01001800FFF711FC28008A
:101B680001F012FA30216846FFF715FB4D4B0100D2
:101B78001800FFF705FC200001F006FA342168463A
:101B8800FFF709FB484B01001800FFF7F9FB20009D
:101B980001F0FAF92C216846FFF7FDFA434B0100E2
:101BA8001800FFF7EDFB200001F0EEF94021684630
:101BB800FFF7F1FA3E4B01001800FFF7E1FB2800A0
:101BC8007EE6290020003B4AFFF7E8FB002806D103
:101BD80029002000384AFFF7E1FB002801D03748E8
:101BE8006EE629002000364AFFF7D8FB002800D10E
:101BF800AEE6344801F0C8F949E6C0461E5C000864
:101C0800215C0008FB5B0008255C0008155C0008E7
:101C1800555E0008275C00082F5C00083F5C000840
:101C2800435C00084D5C0008535C00085B5C0008DE
:101C3800645C00086C5C0008765C00087E5C000848
:101C48009B050020195C0008345D0008855C0008CD
:101C58009A050020915C0008995C0008A25C0008C5
:101C6800AF5C0008BB5C0008CB5C0008D95C0008CE
:101C7800E55C0008F15C0008FD5C00080B5D0008ED
:101C88001A5D0008295D0008375D0008465D0008F8
:101C98005B5D0008705D00087B5D0008865D0008DC
:101CA800915D00089C5D0008A85D0008B45D00080F
:101CB800C25D0008C85D0008D05D0008D95D000855
:101CC8000C5E0008135E000810B500F0FDFA10BDA8
:101CD8001FB5041E12D0038841680A206A4668446A
:101CE8001381FFF766FA6A46A37890209373072357
:101CF80000220093110002AB01F030F91FBD000073
:101D0800024B1878431E9841C0B2704788010020E2
:101D1800F0B5C5B01B4E3378002B01D145B0F0BDEE
:101D280003F0D8F90028F9D18222174F52003B78E6
:101D3800164D5343EB18FF33587803F0D3F90028B6
:101D4800ECD1822302223C785B006343ED18290022
:101D5800FF3203A803F000FE032301341C4033784C
:101D6800FE35013B03A8AD883C70337002F008FFD4
:101D78000028D3D10090082301221021280001F067
:101D880015F9C7E788010020890100208A01002091
:101D98007FB56B4618715971002301A8029303930C
:101DA80004930593FFF792FA07B000BD00B5C7B0DA
:101DB80000280DD0882202A95200FFF72BF800282E
:101DC80006D0002200901100912002AB01F0C6F865
:101DD80047B000BD030010B500282BD0081E29D03D
:101DE800012008701A784A705A788A709A78CA70EE
:101DF800DA780A715A68140A4A718C71140C120E36
:101E0800CC710A729A68140A4A728C72140C120EF7
:101E1800CC720A73DA68140A4A738C73140C120EA3
:101E28000A74CC731B691A0A4B748A741A0C1B0E39
:101E3800CA740B7510BD0000002804D0FF2803D019
:101E4800431E052B01D970470720044A4000835AD6
:101E580003498B42F7D001338352F4E79E050020F3
:101E6800FFFF000010B500280AD002000021054B32
:101E780010321C8804800230198002339042F8D155
:101E880010BDC0469E050020054A064913888B42AE
:101E980001D001331380002801D0034B187070471C
:101EA8009C050020FFFF000008000020F0B58BB063
:101EB8000E00141E039003D1002528000BB0F0BDBE
:101EC800100004A9FFF786FF051EF5D067783800D3
:101ED800FFF7B2FF002F02D1A07801F089FE6078E9
:101EE800FFF7D2FF152332000093C320039904ABF8
:101EF80001F034F8E1E700000021044A138811805A
:101F0800181CFF2B00D9FF20C0B270479C05002089
:101F1800FF22024B18781A707047C046080000204C
:101F28000300F0B500286AD0081E68D001220A70A4
:101F38005A784A709A788A70DA78CA701A790A7167
:101F48005A794A7100228A71CA719A68100A0A720B
:101F58004872100C120E8872CA72DA68100A0A7374
:101F68004873100C120E8873CA731A69100A0A741F
:101F78004874100C120ECA7414228874985C885421
:101F88000132462AFAD14C1C985A8854000AA054A7
:101F98000232AA2AF8D1985A8854000AA054023268
:101FA800BA2AF8D11A00BA3210780A00BA32107078
:101FB8001A00BB3210780A00BB321070BC331A7892
:101FC8000B000C0008000826BC331A700C4D0D4B92
:101FD800BD3402781202534032001FB25B009BB23C
:101FE800002F00DA6B40013AD2B2002AF5D1013055
:101FF8008442EED101202370BE311B0A0B70F0BD64
:1020080021100000FFFF0000F0B5384C0500A54482
:102018000392022234ACFF32A3700F00228001F039
:10202800B9FD0023E070322802D832331B1ADBB224
:102038002371FFF76DFF0026039B6071A76039A825
:1020480064AFE680E560236101F0E2FD380002F04C
:1020580079F87300FB58181E0AD0254A9818FA23F5
:102068009B0498423FD2FA218900FEF73BF880B2E0
:10207800872302AA5B009B1898530236642EE8D186
:10208800B92040008018FFF7EDFEFFF735FFC123A8
:1020980002AA5B009B1818708423164E02A9327896
:1020A800FF335B181A70144B200003931B7863AF3F
:1020B80004A93B70FFF734FF041E0FD0BF233A7802
:1020C800C4200093A9B204AB00F048FF0023039A90
:1020D80013703378FF2B01D0013333702000A52310
:1020E8009B009D44F0BD0548C2E7C0466CFDFFFF5C
:1020F800E7030000B805002009000020FFFF0000EA
:1021080070B50B4E0B0032680A490400821A8A42E5
:1021180001D8002070BD084D01002868FFF774FF42
:102128000028F6D02B68346001332B60F2E7C046F4
:10213800B40500205FEA0000B00500200B0A01701A
:1021480043700B0C090E8370C170704700231B4A43
:1021580010B513601A4A13601A4A13601A4A1360BA
:102168001A4A13601A4A13601A4A13601A4A13600B
:102178001A4A13601A4A13601A4A13601A4A1360FB
:102188001A4A13601A4A13601A4A13601A4A1360EB
:102198001A4A13601A4A13601A4A1360536093600C
:1021A800D36013615361184A1360184A1360184AC0
:1021B8001360184A136000F00FFF10BD28060020B6
:1021C80024060020200600201C06002018060020F7
:1021D80014060020100600200C0600200806002027
:1021E8000406002000060020FC050020F805002059
:1021F800F4050020F0050020EC050020E80500208B
:10220800E4050020CC050020C8050020C4050020F6
:10221800C0050020BC050020024A13680133136082
:102228007047C04604060020024A13680133136051
:102238007047C04600060020024A13680133136045
:102248007047C046FC050020024A1368013313603A
:102258007047C04614060020024A13680133136011
:102268007047C04618060020024A136801331360FD
:102278007047C04610060020024A136801331360F5
:102288007047C0460C060020024A136801331360E9
:102298007047C04608060020C143044A136818184E
:1022A800994201D20120404210607047F805002091
:1022B800C143044A13681818994201D201204042C8
:1022C80010607047F4050020C30703D50B4A136854
:1022D80001331360830703D5094A13680133136078
:1022E800430703D5074A136801331360000703D572
:1022F800054A1368013313607047C046280600205A
:1023080024060020200600201C060020034A13682B
:10231800591C01D0013313607047C046F0050020F6
:102328000B4B30B51C68844200D21860C543094C79
:1023380023689D4209D31B182360002A04D0064B4A
:102348001A688A4200D2196030BD01235B42F3E764
:10235800EC050020E8050020E4050020052806D843
:10236800034A80008358591C01D0013383507047B9
:10237800CC050020044A002800D1044A1368591CDF
:1023880001D0013313607047C8050020C405002040
:10239800034A1368591C01D0013313607047C046C3
:1023A800C0050020024B1A68824200D218607047AC
:1023B800BC050020F8B5041E00D13FE10020CF295C
:1023C80000D83BE1D0220100200003F0BDFA00F064
:1023D8004FFF01002000FFF7B1FE00F04FFF231D63
:1023E80001001800FFF7AAFE00F04EFF01002000D0
:1023F8000830FFF7A3FE00F04DFF010020000C306D
:10240800FFF79CFE00F04CFF010020001030FFF7A2
:1024180095FE00F04BFF010020001430FFF78EFE00
:1024280000F04AFF010020001830FFF787FE200067
:10243800834B1C301968FFF781FE2000814B203048
:102448001968FFF77BFE20007F4B24301968FFF7DF
:1024580075FE20007D4B28301968FFF76FFE2000BD
:102468007B4B2C301968FFF769FE2000794B303020
:102478001968FFF763FE2000774B34301968FFF7BF
:102488005DFE2000754B38301968FFF757FE2000B5
:10249800734B3C301968FFF751FE01F0E3FE010071
:1024A80020004030FFF74AFE00F00CFF010020003A
:1024B8004430FFF743FE00F00BFF010020004830D6
:1024C800FFF73CFE00F00AFF010020004C30FFF748
:1024D80035FE00F009FF010020005030FFF72EFE06
:1024E80000F008FF010020005430FFF727FE00F03D
:1024F80007FF010020005830FFF720FE00F006FF1C
:10250800010020005C30FFF719FE00F005FF010014
:1025180020006030FFF712FE00F004FF01002000E9
:102528006430FFF70BFE00F003FF01002000683065
:10253800FFF704FE00F002FF010020006C30FFF7F7
:10254800FDFD00F001FF010020007030FFF7F6FDEF
:1025580000F000FF010020007430FFF7EFFD00F0ED
:10256800FFFE010020007830FFF7E8FD00F0FEFED6
:10257800010020007C30FFF7E1FD00F0FDFE0100C6
:1025880020008030FFF7DAFD2000364B84301968D0
:10259800FFF7D4FD2000344B88301968FFF7CEFDD3
:1025A8002000324B8C301968FFF7C8FD2000304BF3
:1025B80090301968FFF7C2FD20002E4B943019683F
:1025C800FFF7BCFD20002C4B98301968FFF7B6FDCB
:1025D80020002A4B9C301968FFF7B0FD2000284BDB
:1025E800A0301968FFF7AAFD200025002700254B19
:1025F800A4301968FFF7A2FD234EA835C03728007C
:1026080002CE0435FFF79AFDBD42F8D11F4B2800D2
:102618001968FFF793FD20001D4BC4301968FFF7B8
:102628008DFD20001B4BC8301968FFF787FD20007F
:10263800194BCC301968FFF781FDD020F8BDC04692
:102648002806002024060020200600201C06002062
:102658001806002014060020100600200C06002092
:10266800080600200406002000060020FC050020C3
:10267800F8050020F4050020F0050020EC050020F6
:10268800E8050020E4050020CC050020C80500204E
:10269800C4050020C0050020BC0500200300501E12
:1026A80082418A1800209A4200D2981A7047000086
:1026B800024A1368034313607047C046300600207F
:1026C800F0B50022082504000A4E0B4893B299423F
:1026D80000D8F0BDA35C1B0258402B0007B2400095
:1026E80080B2002F00DA7040013BDBB2002BF5D13D
:1026F8000132EBE721100000FFFF000080230349AF
:102708000A681A42FCD0024B186070471C48004007
:102718002848004070B504004518AC4205D1402354
:1027280004490A681A42FCD070BD2078FFF7E6FF1A
:102738000134F2E71C480040F0B5454C0D00A544B3
:102748001900AAAB1E88012303AC2370E570330A75
:102758002D0A257160700725A2706671A371002E7D
:1027680009D0002907D00B2002AB3200C01803F0B3
:10277800F3F87619B5B229002000FFF7A1FFAB1CCA
:1027880060550135000AADB26055002001249BB2A6
:102798004426019322000300FF3603A9095C8C46F6
:1027A80000292BD1A22189005B1802A95B18453B9F
:1027B800FF3B1A70B44246D0411C621C8BB2009396
:1027C800230094B201220199009D0130A942E4D866
:1027D800A22189005B1802A95B18453BFF3B00203A
:1027E8001A70FFF78BFF53A82100FFF793FF002013
:1027F800FFF784FFA5239B009D44F0BDB44222D07F
:10280800A227411C89B2BF000091E71902A97F18CD
:102818006146453F0132651CFF3FD2B2ADB2397007
:10282800FF2A0ED1A22189005B1802A95B18453B3B
:10283800FF3B1A70B54206D002342B00A4B2FE3A10
:10284800C1E72C00BFE7034A136801331360D1E7DF
:102858006CFDFFFF94080020F0B56C4C6C4BA54450
:102868000024220018886B4B019390426AD82300F9
:102878009C22093B9BB25200934200D3ADE004A9CD
:102888008D7904AB5B792D021D43954200D3A4E0FA
:102898002B0009339BB29C4200D09EE0A11E89B256
:1028A80004A8FFF70DFFA0239B00E41804ABE4186D
:1028B800594BE3181A78594B1202E418237813433A
:1028C800834200D089E004AB9B7804AA54AC1288F8
:1028D800A37004AB2280DA781B79E5801B021343CE
:1028E800A380002D05D004AB2A00D91D56A803F0FB
:1028F80033F86578012D07D180204000FFF7D8FE16
:10290800474B1A7815431D7080208000FFF7D0FED2
:10291800444A136801331360EFF3108672B6424DD0
:102928002B78032B5BD9414A136801331360404A63
:1029380013680133136086F310888020C000FFF706
:10294800B7FE15E00199531C8D5C9BB2002D3BD15D
:102958002020FFF7ADFE374A136801331360364A6B
:1029680013680133136002232D4A11780B43137047
:10297800A5239B009D44F0BD9042E9D0A026760097
:10298800B342E5D2039B029E5B5C0132735439006B
:1029980092B24F1C6318FEB29BB2B542ECD8FF2D21
:1029A80010D090420ED9A02149008B42D0D2A02449
:1029B800A400591C1B1904AC1B19204C1B1900241A
:1029C8001C708BB21C0050E71A0004AEA3190293C6
:1029D800019B00219B180393DBE78020B9E7A02225
:1029E800174F52003B78174853432100C01802F094
:1029F800B3FF03223B78013313403B702B7801333C
:102A0800DBB22B7086F31088B2E7C0466CFDFFFF7F
:102A1800060E0020080E00207FFDFFFF7EFDFFFF51
:102A28003C080020700800209C0800209008002026
:102A380098080020940800206C08002080FDFFFF03
:102A48009E080020A008002070B5164D2E78002E94
:102A580005D0002802D1144B2870188070BD124C84
:102A68002388002809D1002B04D01030FFF720FE5E
:102A7800FFF7F2FE00232380F0E7A12252009342E1
:102A88000AD94020FFF714FE0123084A2B70136867
:102A9800268001331360E1E75A1C2280044AD0548F
:102AA800DCE7C046050E0020060E00209408002032
:102AB800080E002070B503240223A0254600B44068
:102AC800B340ED052A68134EA2431A432A60012534
:102AD80085403268AA43104D32602A68A2431343E6
:102AE8002B60072809D80F228000824081400B4CB8
:102AF800236893431943216070BD0F240838C0B27E
:102B0800800084408140064A1368A343194311603A
:102B1800F2E7C046040000500800005020000050B2
:102B2800240000500B4A10B513880B4C99B2248826
:102B38000133DB05DB0DA34208D18020074A4001A1
:102B4800136801331360FFF7B3FD10BD044C6054E4
:102B58001380FAE73A0600203806002034060020E1
:102B68003C06002010B50024074A1388A34204D865
:102B780000231380054A137010BD054B185D0134FE
:102B8800FFF762FFA4B2EFE7A20D0020A10D00201D
:102B9800A40D0020F8B50F252026EFF3108472B697
:102BA800404B1A68404B1B682A4229D0D30703D5EB
:102BB8003E490B6801330B60930703D53C490B680A
:102BC80001330B60530703D53A490B6801330B6097
:102BD800120703D5384A1368013313600420FFF73E
:102BE80067FD364B364A1D60364B1B681368013348
:102BF8001360354A13680133136084F31088CCE7F7
:102C08002B4225D0DA0703D530490A6801320A6019
:102C18009A0703D52E490A6801320A605A0703D574
:102C28002C490A6801320A601B0703D52A4A13682F
:102C3800013313600820FFF73BFD0F22274B1A6072
:102C48001F4A274B1B68136801331360254AD1E7D5
:102C5800324214D00120244A1A4B1F6813680133EA
:102C68001360224A136801331360214A137803431F
:102C78001370FFF71DFDF8B2FFF754FFBDE73342AD
:102C88000DD0194A164B02201F68136801331360D0
:102C9800184A136801331360154A1378E7E784F379
:102CA8001088F8BD1C4800401C380140600800200E
:102CB8005C080020580800205408002020480040E4
:102CC800940800202448004068080020500800208C
:102CD8004C08002048080020440800202038014003
:102CE80024380140640800207C080020780800206F
:102CF8003D08002074080020F7B5444A444811886C
:102D080000888BB2814266D04249434ECC5C013385
:102D1800DB05DB0D13803378E4B2002B0FD13F4B7A
:102D28001B78002B42D00D2C13D00A2C11D0002C6C
:102D380027D1FFF717FF2000FFF786FEDDE7002306
:102D480033700A2CD9D0354B1B78002B2ED00D2C84
:102D5800EDD180200027324B324D01931B880001B2
:102D68000093EF54FFF7A4FC28000099FEF782FDBA
:102D7800019B0D3C1F80294B1F7063425C413470DE
:102D8800BBE7274A1388012B09D12021200088435B
:102D98005428CED1591C1180224AD454ADE72100C1
:102DA80020395E29C5D85E2BC3D8F3E71E4B1B8894
:102DB800002BC0D11D4B1B78002BBCD12300202237
:102DC8009343412BB7D1174B1F3A1C70144B1A80F1
:102DD800124B1A7091E7164B1A78002A15D0EFF3A8
:102DE800108272B60021197082F310880B4B1B7881
:102DF8008B420AD10C490D4B0A88002A02D11A7855
:102E0800002A02D000220A801A70F7BD3806002076
:102E18003A0600203C060020A00D0020A10D00204D
:102E2800A20D0020A40D0020060E0020050E002093
:102E38002C06002010B5EFF3108272B60021244B47
:102E48001C68196082F310888C4240D0E30702D5D1
:102E58002048FDF747FDA30702D51F48FDF742FDAF
:102E6800630702D51D48FDF73DFD230702D51C4821
:102E7800FDF738FDE30602D51A48FDF733FDA30632
:102E880002D51948FDF72EFD630602D51748FDF750
:102E980029FD230602D51648FDF724FDE30502D5D2
:102EA8001448FDF71FFDA30502D51348FDF71AFDC9
:102EB800630502D51148FDF715FD230502D5104815
:102EC800FDF710FDE40402D50E48FDF70BFD10BD1B
:102ED800300600201C5E00082B5E0008395E0008E2
:102EE800495E0008585E0008675E0008745E0008C6
:102EF800815E00088F5E00089E5E0008AB5E0008D9
:102F0800B65E0008C65E000870B5EFF3108572B6AD
:102F18000F4C2278D3B2002A03D185F31088180009
:102F280070BDA0220B4E520033780B495343C91889
:102F380002F012FD032233780133134033702378F3
:102F4800013BDBB2237085F310880120E8E7C04617
:102F58009C0800209D080020A008002037B59C256B
:102F680006AC24886D00AC4204D3064A13680133CA
:102F7800136037BD002C01D0002BF6D00094FFF76A
:102F8800DBFBF6E79408002010B5041E04D1064ABE
:102F980013680133136010BDFDF792F981B2200068
:102FA800FFF7B8FBF7E7C0469408002030B585B0B6
:102FB80008AC258802ACA3700523E5702D0A2170A2
:102FC80062700100257100220093FE202300FFF7A4
:102FD800B3FB05B030BD0000EFF3108172B60023DB
:102FE8001F4A13601F4A13601F4A13601F4A136069
:102FF8001F4A13601F4A13601F4A13601F4A136059
:103008001F4A13601F4A13601F4A13601F4A136048
:103018001F4A13601F4A13601F4A13601F4A136038
:103028001F4A13601F4A13601F4A13601F4A136028
:103038001F4A13601F4A13601F4A13601F4A137008
:103048001F4A13701F4A13801F4A13801F4A1360B8
:103058001F4A13701F4A136081F310887047C046D7
:103068009808002094080020900800208C08002070
:103078008808002084080020800800207C080020A0
:103088007808002074080020700800206C080020D0
:103098006808002064080020600800205C08002000
:1030A8005808002054080020500800204C08002030
:1030B8004808002044080020400800203D0800205F
:1030C8003C0800203A06002038060020340600207C
:1030D8002C06002030060020F8B58023484ADB0182
:1030E800116801240B4313608023464ADB021168F0
:1030F80005000B43444913600A68444B02201A40F8
:103108008023DB001343424A0B60136806212343E4
:103118001360FFF7CFFC06210320FFF7CBFCC02389
:103128003C4E0421326809209A43803B13433360A4
:10313800FFF7C0FC04210A20FFF7BCFC3268364BBD
:10314800364F1A4080235B03134333600026344B09
:103158001E60344B1E60344B1E60B54231D1334B78
:10316800334A1C601F231360324B3D601D60324B95
:103178001D601F22314B1C60314B1A600023314AFD
:103188001370314A1370314A1370314A1380314A2F
:103198001370314A1370314A1380314A1370314A1F
:1031A8001370FFF719FF3D231D4A012113602E4BB1
:1031B8001D203B60FDF7B6FB01211B20FDF7B2FB8C
:1031C800F8BDFDF779FA6C08000229000019FCF730
:1031D80089FF164B164A18601F231360154B3E6073
:1031E8001E60154B1E60FDF767FA400000192900A4
:1031F800FCF778FF1D4B0407640F18400443B8E739
:1032080034100240381002404C100240FFF3FFFF18
:103218002C1002400C000050FFFFCFFF0038014087
:103228000048004004480040084800400C4800405E
:103238002048004004380140083801400C3801405B
:10324800203801409E0800209D0800209C0800208E
:10325800060E0020050E0020040E0020A20D0020FE
:10326800A10D0020A00D00203D800000F0FF00000F
:10327800014B18687047C04698080020014B186831
:103288007047C04694080020014B18687047C04634
:1032980090080020014B18687047C0468C08002031
:1032A800014B18687047C04688080020014B186811
:1032B8007047C04684080020014B18687047C04614
:1032C80080080020014B18687047C0467C08002021
:1032D800014B18687047C04678080020014B1868F1
:1032E8007047C04674080020014B18687047C046F4
:1032F80070080020014B18687047C0466C08002011
:10330800014B18687047C04668080020014B1868D0
:103318007047C04664080020014B18687047C046D3
:1033280060080020014B18687047C0465C08002000
:10333800014B18687047C04658080020014B1868B0
:103348007047C04654080020014B18687047C046B3
:1033580050080020014B18687047C0464C080020F0
:10336800014B18687047C04648080020014B186890
:103378007047C04644080020014B18687047C04693
:1033880034060020EFF3108272B60021024B186851
:10339800196082F31088704740080020EFF310820C
:1033A80072B60021034B18781970C0B282F31088E6
:1033B8007047C0463D080020002808D0EFF3108170
:1033C80072B6034A13780343137081F31088704769
:1033D8003C080020EFF3108272B60021034B1878E6
:1033E8001970C0B282F310887047C0463C080020AC
:1033F8001022F8B5284D2B68134208D027490A60D7
:1034080027490A6801320A600121264A11701A0701
:1034180019D1202601272B6833423CD0224A234B5E
:1034280001201C68136801331360214A13680133B3
:103438001360204A13783B431370FFF739F9E0B261
:10344800FFF770FBE7E7DA0703D51B490A68013283
:103458000A609A0703D519490A6801320A605A07AF
:1034680003D517490A6801320A601B0703D5154AB4
:103478001368013313600420FFF71AF90F22074B72
:103488001A60114A094B1B681368013313600F4A0D
:10349800136801331360F8BD1C4800402048004001
:1034A8008C0800202C0600207C08002024480040BE
:1034B800780800203D080020600800205C080020F3
:1034C80058080020540800209408002068080020AC
:1034D8001022F8B5284D2B68134208D027490A60F6
:1034E80027490A6801320A600121264A11701A0721
:1034F80019D1202602272B6833423CD0224A234B7D
:1035080002201C68136801331360214A13680133D1
:103518001360204A13783B431370FFF7C9F8E0B2F1
:10352800FFF700FBE7E7DA0703D51B490A68013212
:103538000A609A0703D519490A6801320A605A07CE
:1035480003D517490A6801320A601B0703D5154AD3
:103558001368013313600820FFF7AAF80F22074BFE
:103568001A60114A094B1B681368013313600F4A2C
:10357800136801331360F8BD1C380140203801403E
:103588008C0800202C0600207C08002024380140EC
:10359800740800203D080020500800204C08002036
:1035A80048080020440800209408002064080020EF
:1035B800054B064A984200D91800054B984200D29C
:1035C800180010607047C046F07E0E000C00002006
:1035D80010270000F0B587B002930CAB1B780400ED
:1035E80003930DAB1B78080004930EAB1D880FAB3B
:1035F8001B7801920593002945D0002D00D108358C
:10360800211C0C2C41D90C21CCB20600220000212F
:103618002348FCF7FFFD002702000B000120404271
:10362800C11780197941801859413B003200FCF7D5
:10363800FDFD029B039A5B001B1B920007339B183E
:103648000522049952424A439B1807009B00082010
:10365800002B13DD059A5100611A890000D1013150
:10366800481EC018FCF73EFD6B4602001879019B06
:10367800082B0FD90820C0B25043083004352D1844
:103688007D43BF08E81907B0F0BDE3B2062BBBD2F3
:103698000621B9E7C1B20529EDD20520EBE7C046FE
:1036A80040420F007FB5099D0E0000240A2803D967
:1036B8007D21B1426441E4B2FA21039408248900CF
:1036C800714302940126002400960194FFF782FFBB
:1036D8000300A54200D028600020834203D02000C8
:1036E800089A9A426041304004B070BDF0B587B086
:1036F80005901D2001F08CFD06001E2001F088FDBC
:103708000500262001F084FD0700202001F080FD3F
:103718000400212001F07CFD844601202B09FF08CC
:10372800AD083109320705400640074060462402CB
:10373800520F0443C9B2DBB20432A4B2082914D828
:103748000839484241410C48494201400918181CAF
:103758000C2B0CD90C20059B03970294019600951D
:10376800C0B2FFF737FF07B0F0BD0449EFE7DBB29F
:10377800062BF0D20620EEE748E8010020A107005A
:1037880070B5040008001D001600FFF7AFFF030026
:103798000220312C18D8FA200D49E4006258800024
:1037A800B21A824203D300200A19665050600948B1
:1037B80009194A6804680120A41A9C4204D3D21843
:1037C8004A60002D01D1002070BD2B60FBE7C04688
:1037D8004C0F00200C000020312807D8054BC000F2
:1037E8001B185A688A4202D800225A607047521A37
:1037F800FBE7C0464C0F002030B5312815D8FA2514
:103808000C4BC000C458AD00141BAC4203D30024B9
:10381800C2501A185460002907D0074A1B181468A8
:103828005A68A01A884201D25C6030BD52185A60AA
:10383800FBE7C0464C0F00200C00002010B5084CD8
:103848002378002B01D0002010BDFF21122001F0A9
:10385800F1FC00F043FD0028F5D001232370F3E7C5
:10386800DC10002010B5064B1A78002A07D0002279
:10387800FF2112201A7001F0DDFC00F01AFD10BDC6
:10388800DC10002070B50E4D2B78002B01D10320E1
:1038980070BD122001F0BCFC0423040018401C4237
:1038A800F6D02100122001F0C5FC00232B7000F097
:1038B80000FD0028EBD001231C40E018E8E7C046D3
:1038C800DC100020031E14D0081E12D0012008703E
:1038D8001A784A705A788A701A7ACA705A680A71BD
:1038E8005A68120A4A715A68120C8A715B681B0E70
:1038F800CB71704703000120002B1AD0002A18D082
:103908000018072915D919780130012911D15978DA
:10391800117099785170D978117258791979000213
:1039280008439979DB790904014300201B060B43FE
:103938005360704703000020312B03D802485843D6
:10394800024BC0187047C04620A1070030DFCE35B3
:10395800F0B507000E00002489B00092019303AD72
:10396800220038003100FCF749FC22002870019938
:103978000098FCF743FC083428720135402CEFD13D
:103988000E9B064807930023054A03AC195D0133D3
:1039980048405043142BF9D109B0F0BDC59D1C8196
:1039A80093010001F7B5002304000D00EB54013327
:1039B800322BFBD1002C00D10C4C2E0001273136C4
:1039C8007F1B630363405A0C53405C015C403378AF
:1039D800B91920000193FCF70BFC6B5C013E737076
:1039E800019B6B54B542ECD1F7BDC046B979379EFF
:1039F80037B5084C2569A268E368206861680095B6
:103A0800FFF7A6FF04496061FFF7CCFF00234A34A3
:103A1800237037BDE0100020F8100020C42210B534
:103A280000210248520001F08FFF10BDE010002075
:103A3800F7B51500C4220D4C07000E002000002128
:103A48005200019301F080FF019B3222E360089B42
:103A58002760236123004C336660A5601A80FFF756
:103A6800C7FF01234B3400202370FEBDE010002067
:103A7800F7B5214B009001911B7801201F4C002BBA
:103A880016D0009B0018002B12D0002910D0270058
:103A980032254A373B78312B04D923690133236116
:103AA800FFF7A6FF3B78E218167E312E01D90720D2
:103AB800FEBD01333B70320001200021FCF7AAFB58
:103AC800236D1840636D1940084304D0013DEDB2E1
:103AD800002DDFD1EBE73000FFF72CFF0028E6D000
:103AE800009B4C341E70019B18602388002B01D06A
:103AF800013B23800020DBE72B110020E010002091
:103B080070B50A4A030012780D000120084C002AFB
:103B18000BD00230322908D82361FFF769FF230050
:103B280000204A334C341D70208070BD2B110020BA
:103B3800E010002070B5154B154C1D780223002DA0
:103B480021D0013331291ED823004A331B7831256F
:103B5800002B01D0013BDDB22469844202D100234D
:103B68008D4210D00523022A0DD0002A06D0041B4E
:103B7800E317E4185C400423012C04DC0131C9B2CA
:103B8800FFF7BEFF0123180070BDC0462B110020AF
:103B9800E010002073B5002601246442E5170C4BA1
:103BA8001A6D5B6D1100194303D13220801BC0B21E
:103BB80076BD100019000019694100900191009824
:103BC800019910401940013602000B00F6B2E9E7EE
:103BD800E0100020312807D8044A163080008358A6
:103BE800591C01D0013383507047C046E0100020B3
:103BF800312808D8044A90304000835A03498B4240
:103C080001D0013383527047E0100020FFFF00000D
:103C180070B500280FD00400FF260025064B32346B
:103C280019880A1CFF2900D9321C027001301D8036
:103C38000233A042F4D170BD00120020014B186974
:103C48007047C046E0100020014B18787047C04606
:103C58002A110020014B18787047C0462B1100200C
:103C68000022024B1A605A601A72704768120020CC
:103C78000122024B186059601A72704768120020BE
:103C8800014B187A7047C0466812002010B5044CE2
:103C9800C8212368C01AFCF725FA6368C01810BD4C
:103CA80068120020044B10B51B68C821C01AFCF725
:103CB8009FFA080010BDC04668120020F531FF3198
:103CC80070B5841A0800FA2189001E00FCF70AFA68
:103CD8000123034D241A6E602C602B7270BDC04600
:103CE80068120020014B1B68C01A70476812002038
:103CF80070B5094DF5316C68FF311C1BC8235C4356
:103D0800041B0800FA212B688900E41AA41AFCF79E
:103D1800E9F9201AC00F70BD681200200022034B79
:103D28001A605A609A601A737047C046741200206D
:103D38000C4B1A7B002A12D01A680B49821A8A4245
:103D48000DD85A68511C01D001325A600122996875
:103D58001A735A6818608A4200D99A60704701221B
:103D6800F3E7C04674120020DB0500000022014B77
:103D78005A60704774120020014B58687047C0465B
:103D880074120020030010B5081E10D000208242D3
:103D98000DD10749087B002809D04C681000072C72
:103DA80005D909685B1A034999425241D0B210BD3E
:103DB80074120020DB05000010B5FFF751FFFFF774
:103DC800ADFF0022014B1A7010BDC04684120020BE
:103DD800F0B587B01600029103930090FFF750FFEB
:103DE8001B4D0100070004002A780098FFF7CAFF5E
:103DF8000190002815D03200039B02990098FFF724
:103E080077FF0600002F1ED02B78002B1BD00098C0
:103E1800FFF768FFFA230024DB0083426441013482
:103E280005E00126002F02D02C78002CEFD1FF23CB
:103E38002000019D1E40184036021D402D043043CD
:103E4800284307B0F0BD43425841441CEFE7C04641
:103E58008412002010B5FFF731FF0122024B1A70BF
:103E6800FFF784FF10BDC0468412002010B5064C31
:103E78002078002804D0FFF7F3FEFFF74FFF01205A
:103E88000023237010BDC0468412002070B50B4D6E
:103E98002A78131C062A00D906230A24DBB29C4080
:103EA800844200D90400FCF7E9FC054B00191860AE
:103EB8002B78FF2B01D001332B7070BD85120020A9
:103EC8008812002013B56B466A46997100230C00CE
:103ED800D37169466B46012207330631FCF76AFF46
:103EE800002805D16B46DB79012B01D16B469C7903
:103EF800200016BDF0B5012185B00320FFF7E2FFD1
:103F0800A62107000420FFF7DDFF002302AA938003
:103F1800D3701300019002221020033303A9FCF789
:103F280049FF00281FD102ABDB78022B1BD102AB63
:103F38009E8804211120FFF7C5FF0500FCF7A4FCAB
:103F480004000220002F0CD0FCF798FC284F3B6897
:103F5800C21A0BD59BB280B2834207D0FEF78CF908
:103F6800032005B0F0BDFA267600E2E7002D21D047
:103F7800FFF764FC1F4BE418002814D0FFF782FCFD
:103F8800022806D13000FFF781FFFEF775F90120FE
:103F9800E7E7032807D0012807D1FCF775FC001BC9
:103FA80008D4FFF75FFC0420DBE7FCF76DFC001B7F
:103FB800E4D4F2E700F08BF90028F4D0281C002D97
:103FC80000D10120C0B2FCF783FC1B2001F020F9CE
:103FD800040000F06EF96B461B799D3C5BB224B27D
:103FE800A342CFDB0020044B38601870B9E7C04605
:103FF80088120020204E000085120020F0B5040031
:1040080000203F2C17D80E4D4B1EAB4213D80D4B3A
:104018000D4EDD7A002D0BD09D7AA54208D11D6882
:10402800551BA94204D9C7435D68AF4204D3401960
:104038000C33B342EDD1F0BD01204042FBE7C0464E
:104048001F4E00008C1200208C180020F7B50D00C0
:104058001900099B0400089E0192002B03D001233C
:10406800099A5B42138001223F2C2AD8264F4B1E07
:104078000232BB4225D8013A002D22D0002E20D092
:10408800B5421ED8019A2000FFF7B8FF0422361A5D
:10409800AE4216D31D4A00231100CE7A002E12D04C
:1040A8000133DBB20C31802BF7D100231168019E5C
:1040B800711AB94207D80133DBB20C32802BF5D123
:1040C80005221000FEBD0C275F43104EF1190A8926
:1040D8008C720132D205D20D0A819446019A81343C
:1040E800BA510127FF34A4004D60CF72A1592D1891
:1040F800A94200D2A5510999002903D06246D201EC
:104108001A430A800022DCE71F4E00008C120020B0
:104118000A4B10B5984210D07F240C220440624309
:10412800074B9B18DA7A002A07D01A89C0098242FD
:1041380003D15A688A4200D9596010BDFFFF0000B8
:104148008C12002010B5002808D00021421C044B16
:10415800FF321C6810C002C39042FAD110BDC0469D
:104168008C180020002301280CD00133022809D024
:104178000133032806D00133042803D00538431E31
:104188009841031D05205843014BC0187047C0468D
:10419800D65E000870B50400FCF776FB0500FCF756
:1041A80073FB401BA042FAD370BD0000F8B50400B1
:1041B800FF23002830D0802200792649264B92021E
:1041C80000282CD00A601A6004221A600A20FFF71F
:1041D800E1FF4020A17801F02DF84120E17801F0BD
:1041E80029F86178012001F025F8FCF74DFB1B4BFD
:1041F8000727C618012001F00BF8050063786B400B
:104208003B4207D0FCF740FB801B0ED463786B4021
:104218003B4219D101202378114A1370F8BD0220BE
:1042280008601A608022D202CFE7C820FFF7B2FFE9
:104238006178012000F0FEFF3220FFF7ABFF01207C
:1042480000F0E6FF0500D9E729000420FDF7A0FDEE
:10425800E0E7C04618000050180800508813000016
:104268008C190020014B18787047C0468C19002023
:1042780007230340581E00B506280FD8FBF728FF70
:1042880004040504080A0C000223054A137000BD43
:104298000423FAE70523F8E70623F6E70123F4E702
:1042A8008C19002010B50120FFF75CFFFFF77EFF97
:1042B80010BD10B50220FFF755FFFFF777FF10BDBF
:1042C80010B50320FFF74EFFFFF770FF10BD10B5C4
:1042D8000420FFF747FFFFF769FF10BD10B5FFF790
:1042E800E8FF002804D00620FFF73CFFFFF75EFF39
:1042F80010BD000010B500240F4B4B201C7000F0BF
:1043080087FF10210143C9B24B2000F093FF022020
:10431800FCF7DEFA2100012000F08CFF0120FCF7F9
:10432800D7FAFFF7BFFFA04204D00120FCF7D0FA6C
:10433800FFF7BFFF10BDC0468C19002070B5FCF711
:10434800A3FAFA250400AD00FCF79EFA001BA84268
:10435800FAD370BD10B5FFF7BAFF041E0FD0094895
:1043680000F0A2FA1E2000F053FF042301001940B8
:10437800184205D10520FDF70BFDFFF79AFF002431
:10438800200010BD991900207FB501380C000328C2
:104398001AD8FBF79DFE02041A2500F067FB0025DA
:1043A80002A8057000F068FB0400A8420CD0224B5C
:1043B8001D70224B1D70FFF77CFF200000F07EFF70
:1043C800FFF7BCFFFFF7C6FF7FBD00231C4A137031
:1043D800194A1370194A137001221A4B1A70F3E71D
:1043E800174D02A82B7801AE037003234370124BBC
:1043F8001B788370114B1B78C370124B1B780371A9
:1044080000F004FB3080C1B20D20FDF7C1FC7378C9
:10441800002B02D0FFF74DFFD6E701202B782100B3
:1044280001332B70084B1870084B1C60084B1C603C
:10443800FFF7AAFFC8E7C046A9190020A81900205D
:104448008E1900208D190020981900209419002039
:1044580090190020F0B58BB0040015000391FFF708
:10446800F9FB00283FD000F035FE029000283AD131
:104478001F4B204E01931B7805A81F4F037033680C
:10448800047483603B684560C360039B437400F019
:104498004FFA04AB1880019BC4B22100187800F0D1
:1044A8009DFA019B1B78022B0ED1012C0CD1FFF732
:1044B800DDFC431E9841C0B2FDF75CFF0F4B029A2A
:1044C8001A7035603D6006E0022C0ED004232200ED
:1044D8009A43012AF5D004AB5B78019A29002000A1
:1044E8001370FFF751FF0BB0F0BD3560F3E7C0461E
:1044F8009819002094190020901900209B19002079
:1045080010B50400FCF7BAF902231B1B02002100B6
:10451800D8B2FFF79FFF10BD10B5FFF7CAFE10BD58
:1045280010B5024800F0C0F910BDC0469919002026
:104538000123F0B50C008DB0184252D0002950D09C
:104548007A4A1370FCF7A0F92300FC339860122014
:1045580000F05EFE030003909B0645D5FDF77CFE48
:10456800132000F055FE0600102000F051FE351C07
:104578000700FB2E01D96E4B1D78320039006D48BB
:10458800EDB200F097F9002801D0FDF7BFFE012336
:104598002370039B19206370A67000F039FEE07049
:1045A8001A2000F035FE390020710D2000F042FE7F
:1045B800002E04D02A000020611D00F04CFE0022CD
:1045C800053523001100C5200095FEF7C7FC002023
:1045D800FFF796FF0122584B1A701220039900F03A
:1045E80029FE00200DB0F0BD039B5B06F5D5132016
:1045F80000F00EFE0490102000F00AFE0600049A57
:1046080031004C4800F056F9002801D0FDF77EFE35
:10461800192000F0FDFD47B21A2000F0F9FD310025
:1046280005000D2000F006FE049B002B04D01A00A4
:104638002100002000F00FFE26000322049BFF3615
:104648007370FB171340DB199B10B37023009D3D5B
:10465800FE339D80002509AF3A0020000499757546
:10466800FFF748F9A84203D02800FFF749FFB4E74D
:1046780023003A000933FF3323CA23C30123737588
:10468800FCF7FCF832227B68069053437A7804984A
:104698009B180593FFF72AF8079001003A7A059BC3
:1046A8000698FFF795FB030408AE1B0E7370030210
:1046B8001B0E3070B370C2B279787868FFF73AFA97
:1046C800050000F009F92800FDF748FE012D0ED875
:1046D8007378002B05D03A7A059B07990698FFF75F
:1046E800B9FB164B059A1A600122154B1A70012363
:1046F8000020AB424041C0B2FFF702FF049B083BD9
:10470800DBB2002B09D1FF346370FDF79DFD122049
:10471800039900F08FFD012064E72200117A1170DF
:104728000132111BC9B28B42F8D8ECE7A919002055
:10473800F45E000899190020A81900209C1900208F
:104748009B19002073B51F4B05001B78022B03D063
:1047580000221D4B1A7073BDFFF792FA0028FAD198
:10476800194B1A4E1A78002A02D135600132F1E746
:1047780000F0B0FC0400FFF76DFA431E98412200D8
:10478800C3B23168280000F0B3F8040000F0C4F8A0
:10479800002C03D0042CDED13560DCE76B4601A980
:1047A800D81C01940470FFF763F90028F4D1FFF7CF
:1047B80080FD019800F082FDFFF7C0FDFFF7CAFDFC
:1047C800EAE7C04698190020A0190020A419002083
:1047D800002110B502000800FFF73CFE10BD0000E4
:1047E800F7B50400FFF74CFA002838D01C4B1B78AB
:1047F800022B34D100F06EFC002830D12000FFF7E6
:1048080045FA184E04003378174F002B02D03B6846
:10481800834224D032212000FBF7EAFC2000CDB2ED
:104828003221FBF75FFC2900FFF76AF96B46D81CB9
:10483800002301A903700193FFF71AF900280BD18F
:10484800019B002B08D0FFF734FD019800F036FDDE
:10485800FFF774FDFFF77EFD01233C603370F7BD61
:10486800981900209B1900209C19002010B50024DD
:10487800074B1C70074B1C70074B1C70074B1C70B8
:10488800074B1C70FFF798FA064B1C7010BDC0460A
:10489800981900208E190020A9190020A8190020B5
:1048A800A01900209B190020002802D000230370C3
:1048B8004370704710B5041E0CD003780020834263
:1048C80004D063785B1A581E8341D8B20123891833
:1048D8006170237010BD0000052806D8034A8000C7
:1048E8008358591C01D0013383507047AC190020FC
:1048F80010B504000120002B0CD00018002A09D1A3
:10490800611A0230002905DBBE2301385B00994299
:1049180000D3100010BD0000042806D8034A800008
:104928008358591C01D0013383507047C4190020A3
:1049380082B001AB002806D1188018785B781B027A
:10494800184302B07047027C0178012A0FD0012970
:1049580023D0022917D1002A07D142688168521A48
:104968000FD4FA21C9008A4210D2802228E00222FC
:10497800407C121AD2B201290AD0022903D1012A95
:10498800F3D1134A07E0C022002919D1022211E00D
:10499800012A04D10F4A1A80CFE7022A02D18022C5
:1049A8005200F8E74268C168511A02D48068121AA6
:1049B80002D50622FF32EEE70748814202D9C1221A
:1049C8009200E8E7FA2149008A42E8D38122E7E722
:1049D80005020000030200002F75000010B503282F
:1049E80006D8084A800083585C1C01D001338350E4
:1049F800052906D8044A89008B58581C01D0013370
:104A08008B5010BDF0190020D819002037B50028A8
:104A180028D0002203784178C5788B4252411C1C6B
:104A2800D2B20F2B00D90F2401798078D301E4B2D8
:104A3800DBB200280CD0002901D040210B43002D07
:104A48000DD12343FF210A400B40100218433EBDFD
:104A5800002901D040210B432021002D00D0102136
:104A68000B43EEE780230122ECE700000022014B14
:104A78001A707047001A0020F8B50400051E0BD004
:104A8800064F3E783000FEF755FF32210500701CB6
:104A9800FBF7AEFB267039702800F8BD001A00201D
:104AA80070B586B006000D00FCF73EFB031E00D073
:104AB800037801AC2370104B66701B780495A370C3
:104AC8000E4B1E780E4BE6701B6802930D4B1B684D
:104AD8000393FBF7D3FE0C4902003000FFF78EFA70
:104AE8000A4D0590220000212888FDF7DFF92B8860
:104AF80001332B8006B070BD181A0020201A002040
:104B0800141A00201C1A002010270000021A002086
:104B180070B5FFF7CEFB134C134E2378134D002BC3
:104B280017D0FFF717FCFBF7AFFE03000020327821
:104B3800824202D00E4A1068181A00212A788A4246
:104B480002D00C490968591A531E9A41D2B2FDF78E
:104B5800E7FB0023084A33701370084A2B70237050
:104B6800136070BD4C1A0020441A00203C1A002023
:104B7800481A0020401A00204F1A0020241A00204A
:104B8800F0B58FB00390FFF76DFB039B0590002BEA
:104B980016D0CE4B1978002912D1039BCC4EFF3387
:104BA8005F78CC4D0837CC4CFF2F0DD9CB4B3170EB
:104BB8001970CB4B296021601970FF20FFF770FF37
:104BC800002420000FB0F0BDFCF7AEFA002803D097
:104BD8000222037893433CD10023C04A33701370F8
:104BE800C04A2B601370BE4A23601370059BBE4AEF
:104BF800043BDBB2012B00D987E001241470FFF7D6
:104C08008BFCFBF741FEB94B1860B94B1C70B24BDB
:104C1800186800280BD000F051FBFBF735FEFA2589
:104C28000400AD00FBF730FE001BA842FAD3FFF7E3
:104C380061F90225A843C0B200286ED0A74B1878A6
:104C4800FEF7C8FF00212800FFF72AFFFFF760FFE3
:104C5800B6E7FBF713FE0400FFF712F800280CD1A3
:104C6800FEF7ECFF0500FEF7EFFF32216943091854
:104C78002000FEF7FDFFFDF78BFB2000FFF706F88D
:104C880032210500FBF7B4FA2800CEB23221FBF737
:104C980029FA3100FEF734FF2000FFF703F8290056
:104CA800201AFEF7E5FF2000FEF7FCFF914B241ABF
:104CB8001C608B4B002404930123049A0BA91370E6
:104CC80006AB1C7309A80B94FEF7D2FE804E814DEB
:104CD800814B824AA04207D01C60049B210034709B
:104CE8002C6014701C7068E706A9097B11700B9A78
:104CF8001A60FEF7A9FF3123002801D00138C3B29A
:104D08003370FEF79BFF286070E700231370FFF7EE
:104D1800D0FA002800D07AE752E7FFB23800FEF751
:104D2800E5FC754B0400984204D9FDF7ADFA210063
:104D3800012089E7694B714E1C7804933060FBF7BA
:104D48009DFD6F4B0200390020000693FEF718FD09
:104D58000590002806D0012801D1FDF795FA042016
:104D6800316871E7FCF7E0F90122664C52420028ED
:104D78001DD00378AB431AD0049B22801D7833687A
:104D88000793FBF77BFD604B0200009328005F4B05
:104D980007990194FFF75AF9002809D0049B18785D
:104DA800069B1968FEF718FD032031684CE722803E
:104DB80000210E2000F03EFA00210D2000F03AFA02
:104DC8003900222000F036FAFCF7AEF9002801D0AD
:104DD80003780593059B0BAC23703D4B1B786370E0
:104DE8003C4B1B6863603E4B1878002808D0FBF7E3
:104DF80045FD404B1B68C01AFF2800D9FF20C0B2F0
:104E0800384B09AD1870290020722000FEF75AFDB2
:104E180008220020290000F035FA00221F203C4B10
:104E28004343A95C0132CB18082AF9D1394C039DB8
:104E38002360FF356A78002A0CD0039B0020591C98
:104E480000F020FA1F20039A697823688918914294
:104E580014D12360304BFF2112201F7000F0EAF9B3
:104E6800FFF72EFA264D041E0DD11C4B2968187821
:104E7800FEF7B2FC214B06201968E5E64343557856
:104E88000132EB18E3E7039A244B127809201A70D1
:104E980000F0BEF90F22224B1040023018702B6828
:104EA800204D2B60002B03D13800FEF71FFC286033
:104EB800FBF7EAFC1C4B1D4918602B681C4A5B1861
:104EC800181810600122014B1A707AE64F1A002058
:104ED800181A0020141A00201C1A0020201A00207A
:104EE800081A0020101A00204C1A0020481A002026
:104EF800441A00200C1A002060CC0500041A002077
:104F0800241A002010000020801A06001027000034
:104F180005150000381A0020341A00204E1A002007
:104F28004D1A00202C1A0020301A0020F0490200E7
:104F3800281A0020F0B50C008BB0002902D10020FF
:104F48000BB0F0BD544B1E78012EF8D130427ED004
:104F5800122000F05DF905000100122000F06AF946
:104F68002D0774D5FBF790FC4C4B18604C4B1E700A
:104F7800FBF78AFC4B4B4C4F1B68C01A4B4BC018B5
:104F88003B68984206D2FDF757F9494B0E2019782D
:104F9800FCF7FEFE474B00210D201E7800F04AF971
:104FA800454D002E33D1454B414E1B689D4247D19C
:104FB800FDF732F90025337865702370404B1B7874
:104FC800A3703B6863603F4B1C78FBF757FC2900D4
:104FD80002002000FEF710FCFDF746F93A4B39684D
:104FE8001888FFF795F828003968FFF759FD374BFF
:104FF8001B78AB4207D0FBF741FCFEF799FEFEF7A2
:10500800BBFEFDF7CFF9FFF783FD012098E7331CBE
:10501800202E00D92023DBB21A00002002A9019318
:1050280000F019F900231F22554302AAD25C019906
:1050380001335519DAB28A42F5D3761AF6B2B0E7D7
:10504800FDF7F2F80D203178FCF7A2FEB2E7FBF786
:105058001BFC1F4B1B68C01A00D570E7FF211220EC
:1050680000F0E8F8124B104D1B7823700123637091
:10507800134B1B78A3702B686360124B1C78FBF7EB
:10508800FDFB002102002000FEF7B6FB0520296881
:10509800FFF706FDB7E7C0464F1A0020401A002068
:1050A8003C1A0020301A00202C1A00208813000017
:1050B8004E1A0020341A002005150000381A002066
:1050C8004D1A0020201A002010000020081A002085
:1050D800281A0020024B1878431E9841C0B2704726
:1050E8004F1A002070B50500FCF71EF8002801D102
:1050F800002070BD0378012BFAD1FEF7C1FD00280E
:10510800F6D0FBF7BBFBFA24FEF7CCFDA400444322
:105118000B2802D80948001BEBE72B1CF72D01D9F7
:10512800074B1B780833D8B2FEF7E0FA054B064A5E
:10513800E3181B189342DBD90448ECE7E02E000083
:10514800F55E0008983A0000400D0300203C03007B
:105158000122032370B515004C00A340A5408A40E6
:1051680006689E4335430560456895430222A24080
:105178004560816899430A438260C2689A43C26065
:1051880070BD032349008B4002689A430260C268DD
:105198009A43C260704700000222084B1968114206
:1051A800FCD00121064A107018680842FCD0802102
:1051B80018680842FCD11078C0B270470830014026
:1051C8000C3001408022044B002802D112021A60E0
:1051D80070471206FBE7C0461800005010B50A4C8D
:1051E80000212000FFF7B4FF8022084B52021A600A
:1051F8000120FBF76DFB00212000FFF7C2FF06200E
:10520800FBF766FB10BDC0460008005018080050A8
:1052180010B504000120FFF7D5FF7F202040FFF7DD
:10522800BBFF0020FFF7B8FF04000020FFF7CAFF0C
:10523800200010BD70B5040001200D00FFF7C2FF6B
:1052480080202043FFF7A8FF2800FFF7A5FF0020D4
:10525800FFF7B8FF70BD70B5050001200C001600FF
:10526800FFF7B0FF7F202840FFF796FFA619002020
:10527800B44202D1FFF7A6FF70BDFFF78DFF207083
:105288000134F4E770B5050001200C001600FFF7A3
:1052980099FF80202843FFF77FFFA619B44203D166
:1052A8000020FFF78FFF70BD2078FFF775FF0134EE
:1052B800F4E710B54220FFF7ABFF10BD10B500238F
:1052C8000A4A410BC004FAF7B1FF0400010CC9B245
:1052D8000620FFF7AFFF210A0720C9B2FFF7AAFF90
:1052E8000820E1B2FFF7A6FF10BDC0460048E8015C
:1052F80010B5011C112809D91121802302395B42FC
:1053080019430920C9B2FFF795FF10BDC3B2022B9C
:10531800F3D20221F1E70000F0B5FA230D000921CC
:105328008DB006005B0004919D4205D2FB3BAB4269
:105338009B415B420733049300230793331C0C2ED5
:1053480039D90C23DBB20393171C082A38D908274C
:10535800FBB2059307AB0193414B290000930398D7
:10536800FF23FAB2FEF79EF9041E2ED1FA2292000C
:105378006A43039908AB19705A80110C120E5A71BE
:10538800FF229A71079A1971110ADA711972110CB0
:10539800120E9A726022DA72324A59729A810F2278
:1053A800987301005F7000920200C220FDF7D6FDDD
:1053B80020000DB0F0BDF1B20629C3D20623C1E723
:1053C800D3B2052BC4D20527C2E704270599049B4D
:1053D80004391B01490019431D20C9B2FFF72AFFF0
:1053E800039B1E2019013943C9B2FFF723FF26206A
:1053F800FFF70EFF0A2E19D97D2D12D80C21014373
:10540800C9B22620FFF716FF3120FFF701FF072357
:10541800032198430143C9B23120FFF70BFF0A214A
:1054280019E0F723390018400143EAE7F723390068
:10543800184001432620FFF7FDFE062EE4D8312050
:10544800FFF7E6FE0723052198430143C9B231203F
:10545800FFF7F0FE0C213720FFF7ECFEA8E7C04667
:1054680060CC0500CC05000010B5FFF755FF10BD56
:10547800F8B50723794A8024116808200B43136084
:10548800C0227749774F0B68774E934323430B60CD
:1054980076490B6883430B60754976480B689343DC
:1054A80023430B607449A0240B68E4059343734AB3
:1054B8000B60136872490B401360802240212368F7
:1054C80092013B401343236003688B436D4903609B
:1054D8000B683B401A436C4B0A601A683A401A60E2
:1054E8006A4A1568354015602568694E354080263A
:1054F8003602B4463543802625600568B543056005
:1055080065460868624E304028438025086019685F
:105518006D0131400126196011682000090109094F
:1055280011601A680F213A402A431A60FFF710FEEB
:10553800584F0020FFF746FE00215748FFF708FEA6
:10554800310020003E60FFF703FE31005248FFF7AC
:10555800FFFD02215048FFF7FBFD02224F4B0421BB
:105568001A6080239B023B608023DB023B603C483F
:10557800FFF707FE31003A48FFF703FE00213848DD
:10558800FFF7FFFD44480D21FFF7FBFD444A45485E
:1055980013681D431560136880218024036819402F
:1055A8002342F9D1B820404B400119603F49713C72
:1055B8000860C521890019604021186801431960F5
:1055C80001231168F0201943116039490A68A24380
:1055D8001A430A601021374A156885432943116028
:1055E8001168A1430B431360202333490A6882439F
:1055F80013430B603149324B0A6832481A430A6038
:1056080031490A681A430A6030490A6802400A6048
:105618002F4A032113600520FBF784F90321072093
:10562800FBF780F9FFF7DAFDFEF764FE041E02D1EE
:1056380000242000F8BDFFF73CFE0138C0B2FD2869
:10564800F6D82448FFF73AFE0522FA210720FFF78B
:1056580063FE0E20FFF74CFEEBE7C0462C1002401D
:1056680000040050FFCFFFFFFFFFFFF004040050CD
:1056780008040050040000500C040050200400509E
:10568800FF0FFFFF080000500C00005020000050E2
:10569800FF3FFFFF18080050000800501800005096
:1056A800341002400830014000300140043001400D
:1056B8000C000140080001401400014000040140B2
:1056C80013200000ECDFFFFF080401400C04014038
:1056D80014040140C0CA8936EFF3108272B6002163
:1056E800024B1868196082F310887047541A00201A
:1056F800EFF3108272B60021024B1868196082F32A
:1057080010887047501A0020014B18687047C0462F
:10571800501A00200B4A03211368180008400B4256
:105728000ED010600222134203D0074908680243D2
:105738000A60DB0704D50423034A11680B4313608E
:105748007047C04614040140541A00200D4A0E49FF
:105758001368180008400B4212D01060DA0608D50A
:1057680001220A49086802430A6009490A680132A5
:105778000A609B0404D50823044A11680B4313608C
:105788007047C0461404014010200000541A00203D
:10579800501A0020F0B557464E464546DE46E0B55D
:1057A80004000D009246994683B08B4230D82DD024
:1057B80049465046FAF75AFD290006002000FAF734
:1057C80055FD331A9846203B34D49B4653465A46D7
:1057D800934042461F00534693401E00AF423BD8B9
:1057E800AF4200D179E05B46A41BBD41002B00DA33
:1057F80076E0002200230092019301235A46934049
:105808000193012342469340009329E08242CFD975
:1058180000220023009201930C9B002B01D01C60F6
:105828005D600098019903B0F0BCBB46B246A9463A
:10583800A046F0BD42469B4620239B1A5246DA40BA
:10584800414613004A468A40170042461F435346C2
:1058580093401E00AF42C3D9002200230092019357
:105868004346002BD8D0FB0772081A4346467B08EC
:105878000EE0AB4201D1A2420CD8A41A9D410120EE
:1058880024196D410021013E24184D41002E06D0F7
:10589800AB42EED9013E24196D41002EF8D1009893
:1058A80001995B4600196941002B24DB2B005A46FD
:1058B8004446D3402A00E2401C005B461500002BFA
:1058C8002ADB26009E40330026004746BE403200B1
:1058D800801A9941009001919EE7A342BCD882E7C3
:1058E8004246202300219B1A0022009101920122A6
:1058F800DA40019285E7424620239B1A2A00464651
:105908009A402300F340444613432A00E2401C0017
:105918005B461500002BD4DA42462F0020232600D0
:1059280097409B1ADE403B003343CDE730B5002457
:105938000139A24201D1002005E0035D01340D5D6B
:10594800AB42F6D0581B30BD03008218934200D1F9
:10595800704719700133F9E7002310B59A4200D156
:1059680010BDCC5CC4540133F8E74641554C543A59
:1059780052455345540D0A004541524C593A524537
:105988005345545C725C6E005253543A535441521E
:10599800540D0A005253543A4D41494E0D0A0045E0
:1059A80041524C593A4D41494E5C725C6E004D3A39
:1059B800524144494F5F4259504153530D0A000028
:1059C800010103003D0A00080E000000000000006D
:1059D80002010100000000000100000000000000BA
:1059E80003010100000000000100000000000000A9
:1059F8000401020000000000A600000000000000F2
:105A08000501010000000000010000000000000086
:105A180006010100ED090008000000000000000078
:105A28000708060000000000FF000000000000005A
:105A380008010100ED090008010000000000000055
:105A48000901010000000000010000000000000042
:105A58000A01030000000000000000000000000030
:105A68000B0405020000000000100E0000000000FA
:105A78000C010300000000001000000000000000FE
:105A88000D02040000000000640000000000000097
:105A98000E010100ED0900080000000000000000F0
:105AA8001002040000000000F401000000000000E3
:105AB80011010300000000000400000000000000C5
:105AC8001302040000000000900100000000000024
