:020000040800F2
:10000000005000209105000829050008110500088E
:1000100000000000000000000000000000000000E0
:10002000000000000000000000000000250500089E
:10003000000000000000000025050008CD0A0008AF
:1000400025050008250500082505000825050008E8
:1000500025050008E14A000825050008154B0008A1
:1000600025050008250500082505000825050008C8
:1000700025050008250500082505000825050008B8
:1000800025050008250500082505000800000000DA
:100090002505000825050008250500082505000898
:1000A0002505000825050008250500086930000819
:1000B00025050008892F00082505000825050008EA
:0400C000250500080A
:1000C40000100E0000C2010080250000A55AA55AA8
:0400D4005AA55AA52A
:1000D80002B4714649084900095C49008E4402BCD3
:1000E8007047C046002243088B4274D303098B42F1
:1000F8005FD3030A8B4244D3030B8B4228D3030CF0
:100108008B420DD3FF22090212BA030C8B4202D391
:100118001212090265D0030B8B4219D300E0090AB9
:10012800C30B8B4201D3CB03C01A5241830B8B42C2
:1001380001D38B03C01A5241430B8B4201D34B03AB
:10014800C01A5241030B8B4201D30B03C01A524110
:10015800C30A8B4201D3CB02C01A5241830A8B4295
:1001680001D38B02C01A5241430A8B4201D34B027E
:10017800C01A5241030A8B4201D30B02C01A5241E2
:10018800CDD2C3098B4201D3CB01C01A5241830996
:100198008B4201D38B01C01A524143098B4201D3D0
:1001A8004B01C01A524103098B4201D30B01C01AFB
:1001B8005241C3088B4201D3CB00C01A5241830875
:1001C8008B4201D38B00C01A524143088B4201D3A2
:1001D8004B00C01A5241411A00D201465241104602
:1001E8007047FFE701B5002000F006F802BDC046E1
:1001F8000029F7D076E770477047C046D0400B1CFF
:10020800D1409C46203AD34018435242634693401B
:10021800184370479140031C90409C46203A9340F5
:10022800194352426346D34019437047002B11D1FA
:10023800002A0FD1002900D1002802D00021C9438B
:10024800081C07B4024802A14018029003BDC0462A
:10025800A9FFFFFF03B4684601B5029800F006F84D
:10026800019B9E4602B00CBC7047C046F0B54F4695
:100278004646D646C0B5040082B00D009146984661
:100288008B422FD82CD04146484600F0B1F82900BF
:100298000600200000F0ACF8331A9C46203B9A4632
:1002A80000D576E04B46524693401F004B466246C7
:1002B80093401E00AF4228D825D05346A41BBD4109
:1002C800002B00DA7BE00022002300920193012337
:1002D800524693400193012362469340009318E0ED
:1002E8008242D0D900220023009201930A9B002B5E
:1002F80001D01C605D600098019902B01CBC90465A
:100308009946A246F0BDA342D7D900220023009205
:1003180001936346002BE9D0FB07984641467208D3
:100328000A437B0866460EE0AB4201D1A2420CD8D4
:10033800A41A9D41012024196D410021013E241871
:100348004D41002E06D0AB42EED9013E24196D4135
:10035800002EF8D100980199534600196941002BE5
:1003680023DB2B005246D3402A006446E2401C009F
:1003780053461500002B2DDB26005746BE403300A0
:1003880026006746BE403200801A994100900191CC
:10039800ACE7624620239B1A4A46DA4061461300BE
:1003A80042468A4017001F4380E7624620239B1A73
:1003B8002A0066469A402300F3401343D4E7624676
:1003C800202300219B1A0022009101920122DA4089
:1003D800019280E72023624626009B1ADE402F0008
:1003E800B0466646B74046463B003343C8E7C0467A
:1003F80010B5002903D100F007F8203002E0081CEE
:1004080000F002F810BDC0461C2101231B049842CD
:1004180001D3000C10391B0A984201D3000A08398D
:100428001B09984201D30009043902A2105C401844
:100438007047C046040302020101010100000000E8
:10044800000000000023C25C0133002AFBD1581EC3
:10045800704700000123184A11680B43136080237A
:10046800164ADB0211680B43154913600B68154ADD
:100478001A4080231B0113430B60A021F022C905F9
:100488000B6893431A00A02313430B600E490F4ACD
:100498000B681A40CC23DB0113430B6000230C4A82
:1004A8000C4913600B600C490B600C4B0C4919602C
:1004B800092313607047C0462C10024038100240D0
:1004C8004C100240FFF3FFFF20000050FF00FFFF29
:1004D8000048004004480040084800400C480040DC
:1004E80055410300802130B5054A064C0378002B9E
:1004F80000D130BD013015680D42FCD02360F5E70E
:100508001C48004028480040042172460A4202D193
:10051800EFF3088001E0EFF3098015E030BFFDE755
:1005280007B5FFF797FF074800F066FA0021022099
:10053800019100910B000A0000F094FA00F08AFA89
:1005480030BFFDE78C4B000873B5002813D046690F
:100558008569C469FFF77EFF094800F04DFA00215C
:10056800330001912A000120009400F07BFA00F08A
:1005780071FA30BFFDE7040006000500EAE7C0464F
:100588008C4B00087047000001221E4B70B519689B
:100598000A431A60042219681142FCD003211A4B3D
:1005A8001A688A43110001220A430C211A601A684A
:1005B8000A40042AFBD1FFF74DFF1448FFF792FFCA
:1005C800134800F019FA002312481349134C1A185B
:1005D8008A4210D30021124B124A93420FD3124879
:1005E80000F00AFA1148FFF77DFFFFF7CBFF00F094
:1005F8001FF830BFFDE7E55804331560E7E702C38D
:10060800EBE7C046001002400C1002409A4B00086D
:10061800AA4B0008000000200C000020105300081E
:100628002800002074150020B64B0008C14B0008B4
:10063800F0B5624CA54400F0CDF804F093FD00F04D
:1006480005F900F08BF9E120000302F011FB04F03A
:1006580007F9041E00D0ADE00100032001F094FA70
:10066800574800F0C9F904F025F80100200000F00F
:1006780045FE00F08DF9059000F06AF9002805D0D4
:1006880000F066F90100082001F07EFA0024260037
:10069800270004940394019400F07AF9050002F00D
:1006A8004BF802F0FBF802F091F902F03FFC074327
:1006B80002F058FC019BFFB21843C3B20193002E0D
:1006C80008D1002F06D03900092001F05DFA00F0AA
:1006D80003FE0136002C09D1019B002B06D019001E
:1006E8000C2001F051FA00F0F7FD0134049B002BB7
:1006F80010D102F0C7FB00280CD002F0C3FBFF2882
:1007080000D9FF20C1B20B2001F03EFA00F0E4FD51
:1007180001230493039B002B12D1002E10D1059BBB
:10072800284AEB1A93420BD902F094FB002807D110
:1007380031000A3001F028FA00F0CEFD01230393BE
:1007480002F0E8FB002803D00021062001F01CFA83
:100758004EA802F0A5F9002828D104F0B1F90290BA
:1007680001F0E4F907A9029803F082FE002802D0FC
:1007780007A801F0EEF903F0E3FE002808D109A963
:10078800029803F041FB002802D009A801F00AFAF8
:10079800280003F019FC280003F0CCFB00F038FC1B
:1007A8000178280001F0BCFB30BF75E74EA800F0C7
:1007B80003FECDE703F05EFA040054E784FDFFFF73
:1007C800D04B0008B70B0000014B18687047C046B3
:1007D8000400002010B513480378002B20D11249DB
:1007E80003330A68940012D4013B54000FD4023337
:1007F800D4000CD40233540109D4013B140106D4AB
:100808000233940103D40133D40100D4D30F074A2F
:10081800137080230A681B0413430B6001230370C1
:1008280010BDC04629000020741002402800002096
:1008380010B5044B1B78002B01D1FFF7CBFF024BFF
:10084800187810BD29000020280000200123A020CE
:100858002F4AC005116882B00B43136003682D4905
:10086800194080235B040B432B4903600B682B481A
:1008780003400B6080232A495B010B60022110684A
:1008880001431160274928480A680240134340225F
:100898000B6026490B6893430B60254B1A600023B5
:1008A800244A0193019B93422ED9A022224BD202C3
:1008B80019680A4380211A60204A89021868084288
:1008C80002D1013A002AF9D1012219680A431A60B3
:1008D800042219681142FCD00320194A1168814387
:1008E8000800012101430C2011601168014004290E
:1008F800FBD1144A144911601A680123520C93431E
:10090800124A137002B07047019B01330193C9E783
:100918002C100240FFFFFFFC04000050FFEFFFFF18
:100928001800005000040050FFCFFFFF04040050DF
:10093800180400509F0F00000010024001350C0001
:100948000C100240040000200024F40000000020E5
:10095800014B18787047C04600000020FA21084B68
:1009680010B518688900FFF7BDFB0022054B013858
:100978001860054B1A60054B07321A6010BDC04657
:100988000400002014E000E018E000E010E000E0BF
:10099800014B18687047C0462C00002070B50C4BFE
:1009A8000C481D68026819688D42FAD10A4B0B4938
:1009B8001C680B4B01341868A41AFFF793FB01005D
:1009C8002000FFF78FFBFA239B006B43C01870BD14
:1009D8002C00002018E000E014E000E040420F0086
:1009E80004000020034A116813685B1A8342FBD392
:1009F8007047C0462C00002030B500280FD00922CF
:100A08000A4B1B681340934209D18021084B094CBB
:100A18000278002A04D1403219681142FCD030BD56
:100A28001D680D42FCD001302260F1E7004800400B
:100A38001C48004028480040044B0901C318C9B2AB
:100A4800197001238340024A1360704700E400E0F4
:100A580000E100E0014B024A1A60FEE70CED00E0FD
:100A68000400FA0530B5074C074D25602071617107
:100A78000021E180A260E360039B2361049B636122
:100A880030BDC0460C000020EC5D07FA10B5021E10
:100A980013D00A4B0A491C6800208C420DD11979E1
:100AA80011705979517099685160D96891601969C4
:100AB800D160596918601161013010BD0C00002027
:100AC800EC5D07FA024A1368013313607047C046A9
:100AD8002C0000200420704703005A780078120286
:100AE80002439878197900040243D8780006104325
:100AF8005A7912020A43997909040A43D9790906ED
:100B08001143704703000020044A0101515C9942D7
:100B180003D001301728F8D118387047E44B000883
:100B280010B50223012903D1007803F0E3FD002367
:100B3800180010BDF0B5012587B00A201D4E684386
:100B48002B0199191C4B0F00C2181400103F3F7855
:100B58000A3C0F392770083B0F781C18093A1770A0
:100B680000210822200004F005F831002B01083983
:100B7800C9183A002000013503F0F3FF182DDCD125
:100B880000212A00684603F0F5FF00246B46FF2287
:100B98001C70002320000292039300F063F96A4658
:100BA800064B04909382684600F0D4F9044B1C70FD
:100BB80007B0F0BDE44B000831000020021100002E
:100BC80030000020F0B58FB0029003920F00082289
:100BD800002104A803F0CEFF0822002106A803F094
:100BE800C9FF0298FFF78EFF0124051E5DDB7E4BCF
:100BF80002019B18DA7805340192D20755D45E7841
:100C0800039B043C9E4250D1002F4ED03200390045
:100C180004A803F0A6FF02980138132812D8FFF79A
:100C280057FA0A37373D3737823737474C5A6037D4
:100C3800116C74117A8904AB1B78012B24D8022318
:100C480004AA13700A276F43684B0237FF18320053
:100C5800390006A803F085FF320004A9380003F024
:100C680080FF614B2D015B195B68002B00D1A4E06C
:100C7800310038009847041E00D19EE0320006A9D2
:100C8800380003F06EFF10E0112BDBD91123D7E7F2
:100C980004AB1B78012BD5D9032406E004AB1B78E1
:100CA80003247833DBB2782BCCD920000FB0F0BD09
:100CB80004AB1B78072BC5D9EEE79622049B92015B
:100CC8009342BFD0E12252029342BBD0E1221203E9
:100CD8009342B7D0E0E704AB1B78013B3F2BB1D977
:100CE800DAE704AB5A781B7812021343404A323BC6
:100CF8009BB203249342A5D9D7E704AB5A781B7853
:100D0800120213430A3B3B4AF2E704AB1B78013B50
:100D1800092B97D9C0E704AB5A781B781202134302
:100D2800323B354AE4E704A8FFF7D6FE084300D073
:100D380088E7B1E704AB1B78022BADD808AC1822C2
:100D48000021200003F016FF04AB1878207000F093
:100D580089F820610720FFF7D5FE002801DA04246E
:100D6800A3E70A277843214B0230C018FFF7B4FEE7
:100D7800A060E1601520FFF7C5FE0028EFDB78438F
:100D88001A4B1818837816202375FFF7BBFE002826
:100D9800E5DB4743154B0121DF19BB78200063755C
:100DA80000F0F6F8002805D000F066F8041E00D020
:100DB8007BE747E700F006F9F6E7104C2378002BAD
:100DC8000BD12900084B083159183200380003F0BC
:100DD800B9FE002801D001232370019B00249B0742
:100DE80000D462E7053460E7E44B000831000020D6
:100DF800561300007E1300009E07000030000020FC
:100E0800F7B51C0007000E000192FFF77BFE0123D7
:100E1800002814DBDB18002E11D0002C0FD00E4B4D
:100E280002019B185D78019A0223954207D8822F08
:100E380007D10A4B1B783370012323700023180055
:100E4800FEBD0A2141430648023109182A00300034
:100E580003F087FE2570F1E7E44B0008300000201E
:100E6800310000200023022802D8024B8000C3581A
:100E780018007047584D00080423092801D8024B70
:100E88001B5C18007047C046644D00080023062A02
:100E980000DD931FC01A814200DD0100012900DC3A
:100EA8000021C8B27047000070B504000E00092088
:100EB800002C1CD025780838022D18D81422A256E8
:100EC8000430D3B21E2B12D81F4B617D585DFFF73B
:100ED800DDFF03000620002B09D0012D08D0022DCC
:100EE80026D0E368A068184343425841400070BDCB
:100EF8000720002EFBD0E168A2688B0C9B04043805
:100F0800002BF4D11000084309D10230312BEED95F
:100F180020690E4BC018431E98418000E7E7100077
:100F280028401B185208C807DBB202434908E9E702
:100F38000720002EDBD0A368E26828001343D6D030
:100F48002069034BE6E7C046544D0008702FFCFFAC
:100F5800E05EF8FF70B50B4D040001001822280070
:100F6800002C0AD003F0FDFD18220021064803F0EA
:100F780001FE0022054B1A7070BD03F0FBFD2C70BA
:100F8800F2E7C04618010020380100203001002097
:100F980070B50600FFF788FF084D040018220848BE
:100FA800002C06D0002103F0E5FD00232B70200063
:100FB80070BD310003F0D5FD0123F7E730010020B3
:100FC8003801002073B50F4C08202378002B18D067
:100FD8000D4E0E4D18222900300003F0C2FD337863
:100FE800012B07D1002300220093002310001900D1
:100FF80002F0BAFA18220021280003F0BBFD0020F5
:10100800207076BD30010020180100203801002032
:10101800004870471801002070B5050004A806783C
:10102800059C181E0BD0201E09D00020032E06D9BF
:10103800D8701D7059709A7004230130237070BDE8
:10104800F0B5050005A80778069E081E11D0181EE1
:101058000FD0301E0DD00020082A0AD8941CE4B204
:10106800BC4206D81D705A70C5B2AA4202D80120E7
:101078003470F0BD0F5C1D18AF700130F4E710B587
:1010880004004218537890781B0200041843635CEC
:101098001843D3781B06184310BD0B0A0170437020
:1010A8000B0C090E8370C170704770B5C288C4B04C
:1010B8000400012A09D80223027841788088009325
:1010C800013301F03FFD44B070BD0C26037A03AD37
:1010D8002B70437AFF366E44737002339A4205D000
:1010E80002784178808800930323EAE703F028FA1E
:1010F800002806D00023227800936178A08807335F
:10110800DFE77278002A05D021000D200A316844F3
:1011180003F027FD280003F073F8031ED3D10093D2
:1011280022786178A0880833CBE7000010B5024820
:1011380001F0F6FC10BDC046A450000870B5094C7B
:10114800200001F0EDFC084D280001F0E9FC20002A
:1011580001F0E6FC280001F0E3FC200001F0E0FCCF
:1011680070BDC0461D4F00086E4D00080F2307B51F
:10117800034001A8092B06D83033037000234370BD
:1011880001F0CEFC07BD3733F7E730B5040089B06E
:1011980002AD18220021280003F0ECFC23786168D6
:1011A8002B70637803A86B70FFF777FFA16804A81A
:1011B800FFF773FFE16805A8FFF76FFF216906A82D
:1011C800FFF76BFFFFF7E4FB010007A8FFF765FFD8
:1011D8000022182311000093F1202B0001F08AFC53
:1011E80009B030BDF0B5060000250A2785B0ECB27D
:1011F800002E02D00A2D04D12C00002C10D105B0ED
:10120800F0BD30003900FEF7F3FF6B463031043390
:10121800595530003900FEF765FF01350600E6E74D
:101228006A46013CE4B201AB1B5D684613700023BB
:10123800537001F075FCE0E7F0B505000027BBB27C
:101248008B4210D2EC5D202C17D0092C15D04C1EE7
:101258002C192678202E01D0092E04D1013989B203
:10126800013C8B42F5D30026ED19945D002C06D184
:101278005B1A58425841C0B2F0BD0137DFE78B42D4
:1012880011D2A85D0700613F192F01D82038C0B2DC
:101298002700613F192F01D8203CE4B20133013601
:1012A8009BB28442E1D00020E6E7000010B50C00B4
:1012B80001F036FC064801F033FC002C03D1054848
:1012C80001F02EFC10BD2000FFF78CFFFAE7C046A6
:1012D800064E00081D4F000800B5A5B0842103A8DC
:1012E80000F0B8FE002806D00022009003AB1100E1
:1012F800C12001F0FFFB25B000BD000070B5254EF0
:10130800254D8AB029703070FFF714FC00F02EFECE
:101318002248FFF771FBFFF78BFA337805AC63704F
:101328002B782070A3700123E370DB182371FFF77B
:101338000FFB06230022607111000093F0202300A8
:1013480001F0D8FB2000FFF7A1FB002805D01448C6
:10135800FFF752FB2000FFF718FF1248FFF74CFB7E
:10136800114B002203937F230493773B00931100D2
:1013780003ABF22001F0BEFBFFF7EAFA002807D121
:101388000A48FFF739FB0A48FFF736FB0AB070BD79
:101398000848F6E75001002051010020C04F00081E
:1013A800CE4F0008DD4F000801010201EC4F000894
:1013B8000C500008FC4F0008F0B50400A9B0002844
:1013C80000D199E0B448FFF717FB2278012A0AD028
:1013D800B248FFF711FB012322786178A0880093B7
:1013E80001F0B0FB88E06578202D00D1E8E015D841
:1013F800022D00D182E008D8002D33D0012D3ED037
:10140800A088009502230122B0E0032D00D18DE0D1
:10141800102DF5D12000FFF748FE6DE0312D00D1E9
:101428009DE00BD8212D00D10FE1302DE8D1E388C4
:10143800012B00D186E0A0880092CFE0402D00D19A
:1014480077E0412DDCD1842107A800F003FE0300DA
:10145800A088002B00D06FE0843300932278617855
:10146800813BBDE78E48FFF7C7FAE088230000906C
:101478002800A278A188083301F03CFB3CE08948A9
:10148800FFF7BAFA042001F05FFD8748FEF7DAFF9C
:10149800C5B28648FEF7D6FF2F1CC0B2282D00D94A
:1014A8002827FFB2031C102800D91023DAB20392B0
:1014B8007F4A07AD07920026AB717F233A002B7253
:1014C8006F7179490C372E716E72AE72EE720AA87E
:1014D800EE7103F046FBE819039A744903F041FBE7
:1014E800039B8120FF18A18800972B00320001F090
:1014F80001FB082001F028FD29B0F0BD6D4B07A8BD
:1015080019686D4B1E686D4B1D68FFF7C6FD3100ED
:1015180008A8FFF7C2FD290009A8FFF7BEFD0C23A4
:10152800A1880093002207AB8220A5E7FFF792FA73
:10153800E2E700F01BFDDFE70093010007AB0022A4
:10154800C12099E7207A07AD287003F059F80223E3
:101558006870A188009300222B00B0208CE7E388F4
:10156800022B05D00223A08800930133290037E716
:10157800237A1E2B14D81D2B06D2012B04D0002B46
:1015880013D09A1F032A10D81800617A03F04AF87A
:101598000222230000920833A1880022B1206BE7C1
:1015A800312BF1D007D8262BEED00093A088082342
:1015B8000122312114E7372BE6D0402BF5D1E3E7A0
:1015C8000E2602ABF61800233370E0880128C9D92B
:1015D800637A991C884203D0A08800910323C5E749
:1015E8002100257A1A000A312800FFF7EBFA071EB6
:1015F80003D0031FDBB2012B09D83300082207A947
:101608002800FFF7FDFB002801D000233370327853
:101618000F2602ABF618042306A9009301960B00C7
:1016280028003900FFF7F8FC0300A088002B05D13B
:101638000433009322786178013BD1E63378009334
:1016480006AB01000022A02016E70F2602ABF61811
:1016580000233370E388012B00D0ECE61621277AAB
:1016680002A80918330008223800FFF7C9FB06ADA5
:1016780001000A23002823D00093019507AB00221C
:101688003800FFF7C9FC0300A088002BD0D02B78C6
:10169800009307ABD5E7C046704D00087D4D0008A4
:1016A800894D0008924D00089F4D0008B94D00086B
:1016B800010200005000F81F5400F81F5800F81FDE
:1016C800162102A8327809180093019507AB380053
:1016D800FFF7B6FC0300A088002B06D133782278E8
:1016E80002330093617803237AE62B780100009394
:1016F800002207ABA120BFE670B50400A2B00D0020
:10170800002806D0D54AFFF797FD002803D0FFF739
:101718000DFD22B070BDD24A29002000FFF78CFDD4
:1017280000280FD0CF4801F0FBF9CF4C200001F082
:10173800F7F9FFF703FD200001F0F2F9CB4801F0BB
:10174800EFF936E0CA4A29002000FFF775FD0028A6
:1017580033D0C848FFF750F9102001F0F5FBC64810
:1017680001F0DEF9BF4801F0DBF9C44801F0D8F90F
:10177800FFF7E4FCC24801F0D3F9BC4801F0D0F906
:10178800C04801F0CDF90120FFF72CFDBE4801F05B
:10179800C7F90220FFF726FDBC4801F0C1F91C2457
:1017A8007F252800E040043CC0B2FFF7DFFC231D82
:1017B800F7D1B74801F0B4F9A9E7B64A29002000E3
:1017C800FFF73AFD061E2BD0842101A800F042FC49
:1017D800842801D0B0483DE1B04801F0A1F9B04BF0
:1017E800B0481B78002B00D1AF4801F099F9AF48F9
:1017F80001F096F9AE4B1C782009FFF7B7FC2000E2
:10180800FFF7B4FCAB4801F08BF9402101A8FFF7C2
:1018180036FC002801D1A84891E7FFF7E3FCC8E7A8
:10182800A64A29002000FFF707FD002800D1F8E0AC
:10183800842101A800F00EFC8428CBD1310001A836
:10184800FFF71DFC01009E48FFF730FD864C200085
:1018580001F066F9042101A8FFF711FC010099487D
:10186800FFF724FD200001F05BF9082101A8FFF72C
:1018780006FC01009448FFF719FD854D280001F08A
:101888004FF90C2101A8FFF7FAFB01008F48FFF779
:101898000DFD200001F044F9102101A8FFF7EFFB2E
:1018A80001008B48FFF702FD200001F039F91421EF
:1018B80001A8FFF7E4FB01008648FFF7F7FC2000CA
:1018C80001F02EF9182101A8FFF7D9FB0100824881
:1018D800FFF7ECFC280001F023F9442101A8FFF7E9
:1018E800CEFB01007D48FFF7E1FC200001F018F96C
:1018F800482101A8FFF7C3FB01007948FFF7D6FC90
:10190800200001F00DF94C2101A8FFF7B8FB0100F8
:101918007448FFF7CBFC280001F002F9502101A818
:10192800FFF7ADFB01007048FFF7C0FC200001F095
:10193800F7F8542101A8FFF7A2FB01006B48FFF755
:10194800B5FC200001F0ECF8582101A8FFF797FB3F
:1019580001006748FFF7AAFC200001F0E1F85C21CC
:1019680001A8FFF78CFB01006248FFF79FFC2800E5
:1019780001F0D6F81C2101A8FFF781FB01005E48A1
:10198800FFF794FC200001F0CBF8202101A8FFF715
:1019980076FB01005948FFF789FC200001F0C0F8E8
:1019A800242101A8FFF76BFB01005548FFF77EFCD7
:1019B800200001F0B5F8282101A8FFF760FB01001D
:1019C8005048FFF773FC280001F0AAF8302101A85D
:1019D800FFF755FB01004C48FFF768FC200001F0B9
:1019E8009FF8342101A8FFF74AFB01004748FFF799
:1019F8005DFC200001F094F82C2101A8FFF73FFBC3
:101A080001004348FFF752FC200001F089F840210B
:101A180001A8FFF734FB01003E48FFF747FC280008
:101A2800C8E63D4A29002000FFF706FC002806D139
:101A38003A4A29002000FFF7FFFB002801D0384868
:101A4800B8E6384A29002000FFF7F6FB002800D145
:101A5800C0E6354801F064F85BE6C046C24D0008B0
:101A6800C54D00089F4D0008C94D0008B94D000834
:101A7800CB4D0008D34D0008E34D0008E74D0008A2
:101A8800F14D0008F74D0008FF4D0008084E00080A
:101A980053500008104E00081A4E0008224E000845
:101AA80050010020D84E0008BD4D0008294E0008FE
:101AB80051010020354E00081D4F00083D4E00081A
:101AC800464E0008534E00085F4E00086F4E00084F
:101AD8007D4E0008894E0008954E0008A14E00086A
:101AE800AF4E0008BE4E0008CD4E0008DB4E000881
:101AF800EA4E0008FF4E0008144F00081F4F000868
:101B08002A4F0008354F0008404F00084C4F000886
:101B1800584F0008664F00086C4F0008744F0008C3
:101B28007D4F0008B04F0008B74F00081FB50400EC
:101B380000F06EFA002C0BD0210003A8FFF7ADFAD5
:101B4800042300220093110003ABC02000F0D2FF51
:101B58001FBD30B5040085B0002813D0037802AD4E
:101B68002B70437841680A2068446B70FFF795FA38
:101B7800A3780022AB7107231100009390202B005B
:101B880000F0B8FF05B030BD7FB5002201AB18707A
:101B9800180059700292039204920592FFF7F5FA21
:101BA80007B000BD70B50500C4B0002824D00600F9
:101BB800FF36737802AC2370B37863700300FE338A
:101BC80004229B5EA3709BB21B0AE3700300FC33E4
:101BD800996803A8FFF761FA7278002A03D02900F0
:101BE80004A802F0BEFF00227378110008330093A6
:101BF8009120230000F07EFF44B070BD10B5031E95
:101C08002CD00020814229D0013008701A784A70FF
:101C18005A788A709A78CA70DA780A715A68140AF7
:101C28004A718C71140C120ECC710A729A68140ADB
:101C38004A728C72140C120ECC720A73DA68140A87
:101C48004A738C73140C120E0A74CC731B691A0A2B
:101C58004B748A741A0C1B0ECA740B7510BD0000E5
:101C6800002804D0FF2803D0431E052B01D9704754
:101C78000720044A4000835A03498B42F7D00133B6
:101C88008352F4E752010020FFFF000010B500283E
:101C980008D000231900044A9C5AC45299520233AE
:101CA800102BF9D110BDC04652010020054A064943
:101CB80013888B4201D001331380002801D0034BD5
:101CC8001870704762010020FFFF00000800002024
:101CD800F0B5060089B00F00141E03D100252800B6
:101CE80009B0F0BD02A91000FFF788FF051EF5D066
:101CF8006078FFF7B5FF6378002B02D1A07801F078
:101D080011FD6078FFF7D2FF15233A0000933100E8
:101D180002ABC32000F0EEFEE1E700000021044A18
:101D280013881180181CFF2B00D9FF20C0B2704700
:101D380062010020FF22024B18781A707047C046D3
:101D480008000020F0B5031E6BD00020814268D047
:101D580001220A705A784A709A788A70DA78CA70BA
:101D68001A790A715A798871C8714A719A68100A81
:101D78000A724872100C120E8872CA72DA68100A57
:101D88000A734873100C120E8873CA731A69100A02
:101D98000A744874100C120ECA7414228874985C61
:101DA80088540132462AFAD1985A8C188854000A65
:101DB80002326070AA2AF7D1985A8C188854000AFF
:101DC80002326070BA2AF7D11A00BA3210780A00C3
:101DD800BA3210701A00BB3210780A00BB32107089
:101DE800BC331A780B000C0008000826BC331A70A4
:101DF8000C4D0D4BBD3402781202534032001FB215
:101E08005B009BB2002F00DA6B40013AD2B2002A85
:101E1800F5D101308442EED101202370BE311B0A76
:101E28000B70F0BD21100000FFFF0000F0B5374C2B
:101E38000500A5440392022234ACFF322280A3702D
:101E48000F0001F041FC0023E070322802D8323341
:101E58001B1ADBB22371FFF76DFF0026039B60712D
:101E6800A76039A864AFE680E560236101F06AFCE9
:101E7800380001F015FE7300F8580023984209D085
:101E8800FA21234B8900C018FEF72CF9214B984200
:101E980039D883B2320002364632A352642EEAD1D0
:101EA800B92002AB4000C018FFF7F0FEFFF736FF7D
:101EB800C12302AA5B009B1818708423164E02A93E
:101EC8003278FF335B181A70144B20001B7863AF0D
:101ED80004A93B70FFF736FF041E0FD0BF233A78E2
:101EE800A9B20093C42004AB00F004FE00230B4AFF
:101EF80013703378FF2B01D0013333702000A523F2
:101F08009B009D44F0BD034BC4E7C0466CFDFFFF3A
:101F1800E7030000FFFF0000640100200900002023
:101F280070B50B4E0B0032680A490500821A8A42C6
:101F380001D8002070BD084C01002068FFF776FF2B
:101F48000028F6D02368356001332360F2E7C046E5
:101F5800680100205FEA00006C0100200B0A017094
:101F680043700B0C090E8370C170704700230B4A35
:101F780010B513600A4A13600A4A13600A4A1360CC
:101F88000A4A13600A4A13600A4A13600A4A13602D
:101F98000A4A136000F0ECFD10BDC0467401002031
:101FA800780100207C0100208001002070010020C1
:101FB80084010020900100208C010020880100206D
:101FC800024A1368013313607047C0468401002039
:101FD800024A1368013313607047C046700100203D
:101FE800024A1368013313607047C046900100200D
:101FF800024A1368013313607047C0468C01002001
:10200800024A1368013313607047C04688010020F4
:10201800C30703D50B4A136801331360830703D53D
:10202800094A136801331360430703D5074A136845
:1020380001331360030703D5054A1368013313609E
:102048007047C04674010020780100207C01002000
:102058008001002010B5041E00D1E5E0002083298E
:1020680000D8E1E084220100200002F083FD00F0A6
:10207800C7FE01002000FFF771FF00F0C7FE010056
:10208800201DFFF76BFF00F0C7FE0100200008309D
:10209800FFF764FF00F0C6FE010020000C30FFF7D8
:1020A8005DFF00F0C5FE010020001030FFF756FF6D
:1020B80000F0C4FE010020001430FFF74FFF00F0CD
:1020C800C3FE010020001830FFF748FF2000574BDF
:1020D8001C301968FFF742FF2000554B2030196863
:1020E800FFF73CFF2000534B24301968FFF736FFF9
:1020F8002000514B28301968FFF730FF20004F4B64
:102108002C301968FFF72AFF20004D4B3030196832
:10211800FFF724FF20004B4B34301968FFF71EFFF0
:102128002000494B38301968FFF718FF2000474B4B
:102138003C301968FFF712FF01F04AFD010020004A
:102148004030FFF70BFF00F085FE0100200044300F
:10215800FFF704FF00F084FE010020004830FFF77D
:10216800FDFE00F083FE010020004C30FFF7F6FE74
:1021780000F082FE010020005030FFF7EFFE00F073
:1021880081FE010020005430FFF7E8FE00F080FED9
:10219800010020005830FFF7E1FE00F07FFE01004B
:1021A80020005C30FFF7DAFE00F07EFE0100200020
:1021B8006030FFF7D3FE00F07DFE010020006430A0
:1021C800FFF7CCFE00F07CFE010020006830FFF72E
:1021D800C5FE00F07BFE010020006C30FFF7BEFE5C
:1021E80000F07AFE010020007030FFF7B7FE00F023
:1021F80079FE010020007430FFF7B0FE00F078FE91
:10220800010020007830FFF7A9FE00F077FE0100FA
:1022180020007C30FFF7A2FE00F076FE01002000CF
:102228008030FFF79BFE842010BDC046740100205B
:10223800780100207C01002080010020700100202E
:1022480084010020900100208C01002088010020DA
:10225800024A1368184310607047C04640030020C4
:10226800F0B50022082504000A4E0B4893B28B42B1
:1022780000D3F0BDA35C1B0258402B0007B24000FE
:1022880080B2002F00DA7040013BDBB2002BF5D1A1
:102298000132EBE721100000FFFF0000802307490F
:1022A8000A681A42FCD0064B0649186080230A685F
:1022B8001A42FCD0044B18607047C0461C480040C6
:1022C800284800401C3801402838014070B50400F7
:1022D8004518AC420AD1402307490A681A42FCD083
:1022E800402306490A681A42FCD070BD2078FFF7DF
:1022F800D5FF0134EDE7C0461C4800401C380140BA
:102308000C4910B50A880C4C92B2531C2488DB0582
:10231800DB0D9C4209D18020084A40011368013333
:102328001360FFF795FF002010BD054CA0540B80EB
:102338000120F9E74C0A0020540A0020500A002026
:102348004C080020F0B53E4CA544AAAC26880124D0
:1023580003ADAA70E970320A090A2C7068702971F5
:102368006E71AA710634002E0AD0002B08D00B20FB
:10237800190002AB3200C01802F0F3FB3619B4B2F0
:1023880021002800FFF76CFF03AB1855A31C9BB274
:102398000134A4B2000A019303AB185501220020AE
:1023A80014000300019E81B28E4212D8A4A9CB1852
:1023B800453BFF3B1A700020FFF770FF53A8210030
:1023C800FFF784FF0020FFF769FFA5239B009D44CA
:1023D800F0BD295C8C4600290FD1A4A9CB18453B38
:1023E800FF3B1A70A1235B009C4224D823000122E2
:1023F800611C89B201300C00D4E7A12149008C424C
:1024080019D86746A4AE3619453E0132611CFF3E15
:10241800D2B289B23770FF2AECD1A4AEF318453B8B
:10242800FF3B1A704423FF33994204D002340B0057
:10243800FE3AA1B2DEE7034A136801331360C4E72A
:102448006CFDFFFF5C0A0020F0B5694C694BA544A0
:10245800002422001888904217D823003822093B0C
:10246800FF329BB2934248D98020FFF7F1FE624ABF
:10247800136801331360614A136801331360022340
:102488005F4A11780B43137095E05E4B511C9D5CBD
:1024980089B2002D00D1A8E06E1EF3B202AE0A0088
:1024A80001932300A41900212600564FD719019C37
:1024B8008C4212D1FF2D0ED090420CD94021FF3111
:1024C8008B4200D991E0A2AC591CE3184E4C1B1961
:1024D80000241C708BB21C00BDE7904200D184E040
:1024E8004024FF34A34200D97FE07C5C01320133F1
:1024F800745492B29BB20131D9E702AB9D795B79F2
:102508002D021D439542AFD82B0009339BB29C4244
:10251800AAD1A11E89B202A8FFF7A2FEA2AB3B4A2C
:102528001B193B499A1812785B181B78120213433F
:10253800834299D102AB1B7852AC237002AB5B7813
:10254800E580637002AB9B78A37002AB1A79DB78E5
:1025580012021343A380002D05D002AB2A00D91D17
:1025680054A802F0FEFA6578012D07D180204000BA
:10257800FFF76EFE224B1A7815431D7080208000ED
:10258800FFF766FE234A136801331360EFF31086E2
:1025980072B6214D2B78032B11D9204A13680133C9
:1025A80013601F4A13680133136086F31088802074
:1025B800C000FFF74DFEA3239B009D44F0BDA02261
:1025C800184F52003B78184853432100C01802F0B6
:1025D800C8FA03223B78013313403B702B78013350
:1025E800DBB22B7086F31088E5E720203DE7C04674
:1025F80074FDFFFF3C0300205C0A0020700A0020E5
:102608003F030020F801002080FDFFFF7FFDFFFF52
:102618007EFDFFFF740A002048080020780A002089
:10262800580A0020490800204803002070B5164DBC
:102638002E78002E05D0002802D1144B287018805F
:1026480070BD124C2388002809D1002B04D010300B
:10265800FFF7FEFDFFF7F8FE00232380F0E7A12235
:10266800520093420AD94020FFF7F2FD0123084A9D
:102678002B701368268001331360E1E75A1C22800F
:10268800044AD054DCE7C0463E0300203C03002047
:102698005C0A0020F801002070B503244600B4400D
:1026A8000223A025E443B340ED052A68124E2240D8
:1026B8001A432A60012585403268AA430F4D3260CB
:1026C8002A68144023432B60072809D80F2280006A
:1026D800824081400A4C236893431943216070BDAE
:1026E8000F240838C0B2800084408140054A13682E
:1026F800A34319431160F2E704000050080000509A
:10270800200000502400005010B50024074A138808
:10271800A34204D800231380054A137010BD054B4B
:10272800185D0134FFF782FFA4B2EFE7F60100203D
:102738009401002096010020F8B50F252026EFF31C
:10274800108472B6404B1A68404B1B682A4229D045
:10275800D30703D53E490B6801330B60930703D5B4
:102768003C490B6801330B60530703D53A490B68A2
:1027780001330B60130703D5384A1368013313601C
:102788000420FFF765FD364B364A1D60364B1B6843
:10279800136801331360354A13680133136084F3F7
:1027A8001088CCE72B4224D0DA0703D530490A68D1
:1027B80001320A609A0703D52E490A6801320A6075
:1027C8005A0703D52C490A6801320A601B0703D54A
:1027D8002A4A1368013313600820FFF739FD284B94
:1027E800204A1D60274B1B68136801331360264A73
:1027F800D2E7324214D00120244A1B4B1F681368C9
:1028080001331360224A136801331360214A137895
:1028180003431370FFF71CFDF8B2FFF771FDBEE725
:1028280033420DD0194A174B02201F681368013331
:102838001360194A136801331360164A1378E7E7DF
:1028480084F31088F8BDC0461C4800401C3801407D
:10285800A80A0020900A0020980A0020A00A002058
:10286800204800405C0A002024480040880A0020D4
:10287800AC0A0020940A00209C0A0020A40A002028
:1028880020380140243801408C0A00207C0A0020AE
:10289800800A0020560A0020840A0020F7B5414922
:1028A800414A0B8812889BB2934234D13F4A13782D
:1028B800002B5ED1F7BD002C05D1FFF725FF2000C6
:1028C800FFF7B4FEEBE73A490B88012B04D120004F
:1028D8002025A8435428F0D1200020385E28ECD8C1
:1028E8005E2BEAD8581C08803249CA54D7E7324BC5
:1028F8001B88002BE3D1314B1B78002BDFD1230041
:1029080020218B43412BDAD12A4B1A700122284B04
:1029180032701A80C3E72A4A2A4DD25C0133DB059C
:10292800DB0D0B802B78D4B2002B03D000232B7047
:102938000A2CB4D0244E3378002BD8D00D2C01D0DB
:102948000A2CB8D180200027194B00011B880D3CA8
:102958000193019A174B9F54FFF77AFC0199154888
:10296800FEF7CAFE124B37701F8063425C412C7021
:1029780095E7EFF3108372B60021117083F3108886
:10298800114B1B788B4200D094E70B490B4B0A88FC
:10299800002A03D11A78002A00D18BE700220A8086
:1029A8001A7087E7540A00204C0A00204B080020C0
:1029B800F6010020960100203C0300203E03002081
:1029C8004C080020950100209401002010B5EFF379
:1029D800108372B60021244A1468116083F31088AA
:1029E8008C4240D0E30702D52048FEF705F8A3073C
:1029F80002D51F48FEF700F8630702D51D48FDF70A
:102A0800FBFF230702D51C48FDF7F6FFE30602D5B6
:102A18001A48FDF7F1FFA30602D51948FDF7ECFFA8
:102A2800630602D51748FDF7E7FF230602D51648C7
:102A3800FDF7E2FFE30502D51448FDF7DDFFA30526
:102A480002D51348FDF7D8FF630502D51148FDF7F5
:102A5800D3FF230502D51048FDF7CEFFE30402D5C6
:102A68000E48FDF7C9FF10BD400300201A500008AA
:102A780029500008375000084750000856500008F1
:102A880065500008725000087F5000088D500008FB
:102A98009C500008A9500008B4500008C450000811
:102AA80070B5EFF3108572B60F4C2378DBB2002BAC
:102AB80003D185F31088180070BDA0220B4E520078
:102AC80033780B495343C91802F04BF80322337883
:102AD8000133134033702378013BDBB2237085F355
:102AE80010880120E8E7C046480800204A0800206E
:102AF8004803002037B5382506AC2488FF35AC429A
:102B080004D9064A13680133136037BD002C01D07D
:102B1800002BF6D00094FFF715FCF6E75C0A0020BE
:102B280010B5041E04D1064A13680133136010BDA2
:102B3800FDF788FC81B22000FFF7C8FBF7E7C04625
:102B48005C0A002030B585B008AC258802ACA370BB
:102B58000523E5702D0A217062702571010000932C
:102B680000222300FE20FFF7EDFB05B030BD00007A
:102B7800EFF3108272B600231F490B601F490B60E8
:102B88001F490B601F490B601F490B601F490B60F1
:102B98001F490B601F490B601F490B601F490B60E1
:102BA8001F490B601F490B601F490B601F490B60D1
:102BB8001F490B601F490B601F490B601F490B60C1
:102BC8001F490B601F490B601F490B601F490B60B1
:102BD8001F490B601F490B701F490B701F490B8061
:102BE8001F490B801F490B601F490B701F490B6061
:102BF80082F310887047C046580A00205C0A0020FB
:102C0800780A0020640A0020600A0020680A002070
:102C18006C0A00207C0A0020800A0020840A002018
:102C2800740A0020700A0020880A00208C0A0020FC
:102C3800A80A0020900A0020980A0020A00A002074
:102C4800AC0A0020940A00209C0A0020A40A002054
:102C580044030020560A00203F0300204C0A0020AD
:102C6800540A0020500A00204B080020400300208E
:102C78008023474ADB01116870B50B43136080233A
:102C8800444ADB02116801240B43434913600B6873
:102C9800424A06001A408023DB001343404A0B6077
:102CA80013680621234313600220FFF7F5FC062171
:102CB8000320FFF7F1FCC0223A4D04212B680920BC
:102CC80093431A00402313432B60FFF7E5FC0A20C7
:102CD8000421FFF7E1FC2B68334A20001A408023C7
:102CE8005B0313432B600023304A314D2B60136084
:102CF800304A13609E4207D0FDF766FD7308000254
:102D0800C0183100FDF7EEF91F222B4B2B4C186031
:102D18002B4B01201A6000232A4A236013602A4A99
:102D280013609E420CD0FDF74FFD73084000C01899
:102D38003100FDF7D7F9254A03075B0F1040184308
:102D48001F22234B1860234B1A600023224A13705A
:102D5800224A1370224A1370224A1380224A13709F
:102D6800224A1370224A1380224A1370224A13708F
:102D7800FFF7FEFE3D232B60204B012123601D2021
:102D8800FDF75AFE01211B20FDF756FE70BDC04617
:102D980034100240381002404C100240FFF3FFFF8D
:102DA8002C1002400C000050FFFFCFFF04480040E9
:102DB80000480040084800400C48004000380140E6
:102DC800204800400438014008380140F0FF000066
:102DD8000C38014020380140490800204A080020EA
:102DE800480800203C0300203E030020570A00202A
:102DF800F601002094010020950100203D8000008C
:102E0800014B18687047C046580A0020014B1868E3
:102E18007047C0465C0A0020014B18687047C046DE
:102E2800780A0020014B18687047C046640A0020E1
:102E3800014B18687047C046600A0020014B1868AB
:102E48007047C046680A0020014B18687047C046A2
:102E58006C0A0020014B18687047C0467C0A0020A5
:102E6800014B18687047C046800A0020014B18685B
:102E78007047C046840A0020014B18687047C04656
:102E8800740A0020014B18687047C046700A002079
:102E9800014B18687047C046880A0020014B186823
:102EA8007047C0468C0A0020014B18687047C0461E
:102EB800A80A0020014B18687047C046900A0020F5
:102EC800014B18687047C046980A0020014B1868E3
:102ED8007047C046A00A0020014B18687047C046DA
:102EE800AC0A0020014B18687047C046940A0020BD
:102EF800014B18687047C0469C0A0020014B1868AF
:102F08007047C046A40A0020014B18687047C046A5
:102F1800500A0020EFF3108372B60021024A1068AD
:102F2800116083F31088704744030020EFF3108387
:102F380072B60021034A10781170C0B283F310886A
:102F48007047C046560A0020002808D0EFF31083C7
:102F580072B603490A781043087083F310887047E3
:102F68003F030020EFF3108372B60021034A107864
:102F78001170C0B283F310887047C0463F03002029
:102F88001022F8B5284C2368134208D027490A6054
:102F980027490A6801320A600121264A11701A0776
:102FA80019D120260127236833423CD0224A234BDB
:102FB80001201D68136801331360214A1368013327
:102FC8001360204A13783B431370FFF741F9E8B2C6
:102FD800FFF796F9E7E7DA0703D51B490A680132D4
:102FE8000A609A0703D519490A6801320A605A0724
:102FF80003D517490A6801320A601B0703D5154A29
:103008001368013313600420FFF722F90F22074BDE
:103018001A60114A094B1B681368013313600F4A81
:10302800136801331360F8BD1C4800402048004075
:10303800640A00204B0800207C0A00202448004035
:10304800800A0020560A0020A80A0020900A0020C2
:10305800980A0020A00A00205C0A0020880A0020A4
:103068001022F8B5284C2368134208D027490A6073
:1030780027490A6801320A600121264A11701A0795
:1030880019D120260227236833423CD0224A234BF9
:1030980002201D68136801331360214A1368013345
:1030A8001360204A13783B431370FFF7D1F8E8B256
:1030B800FFF726F9E7E7DA0703D51B490A68013263
:1030C8000A609A0703D519490A6801320A605A0743
:1030D80003D517490A6801320A601B0703D5154A48
:1030E8001368013313600820FFF7B2F80F22074B6B
:1030F8001A60114A094B1B681368013313600F4AA1
:10310800136801331360F8BD1C38014020380140B2
:10311800640A00204B0800207C0A00202438014063
:10312800840A0020560A0020AC0A0020940A0020D5
:103138009C0A0020A40A00205C0A00208C0A0020B7
:10314800F0B587B002930CAB1B78019203930DABDB
:103158001B7804930EAB1D880FAB1B7805930029D1
:1031680044D0002D00D10835041C0C2841D90C246A
:10317800E4B20E00220024480021FDF74BF8002796
:1031880002000B0001204042C117801979418018C4
:1031980059413B003200FDF749F8029B07005800EF
:1031A800039B001B9B000730C0180523049A5B4251
:1031B8005343C018059B80005900611A890000D14B
:1031C8000131082300280CDD01384018FCF78AFF7C
:1031D8006B46019A1B79082A10D90823DBB24343AE
:1031E80008330435EB187B43B9085918080007B0B1
:1031F800F0BDC3B2062BBBD20624B9E7DAB2052A62
:10320800ECD20523EAE7C04640420F007FB5099D8E
:1032180000240A2803D97D268E426441E4B2FA26A6
:1032280003940824B60071430294012600240096F2
:103238000194FFF785FFA54200D02860002398423B
:1032480003D02300089A824263413340180004B037
:1032580070BD0000F0B587B005901D2001F0D0F9D1
:1032680007001E2001F0CCF90500262001F0C8F95E
:103278000600202001F0C4F90400212001F0C0F963
:10328800844601202B09F608AD0839093A0705409C
:103298000740064060462402520F0443C9B2DBB21D
:1032A8000432A4B2082918D80839484241410C48C8
:1032B800494201400918181C0C2B00D90C20C3B234
:1032C800062B00D206200396029401970095059BD1
:1032D800C0B2FFF735FF07B0F0BD0249EBE7C046C3
:1032E80048E8010020A1070070B504000800160096
:1032F8001D00FFF7AFFF0222312C17D80C4BE4005A
:10330800E2580C49B21A8A4203D900211A19E65028
:1033180051601B195968084C0122641A844205D36C
:10332800091859602A1E01D000222860100070BDBB
:10333800B00A0020E7030000801A0600312807D8E9
:10334800C2000548801843688B4202D800234360B6
:1033580070475B1AFBE7C046B00A002030B5312839
:1033680013D80C4BC000C4580B4D141BAC4203D9E6
:103378000024C2501A185460002906D01B185A6835
:103388000648841A8C4201D2586030BD52185A60DF
:10339800FBE7C046B00A0020E7030000801A0600D9
:1033A80010B5084C2378002B01D0002010BDFF2158
:1033B800122001F037F900F02DFC0028F5D0012388
:1033C8002370F3E7400C002070B50D4E3378002BC6
:1033D80002D10325280070BD122001F011F9002543
:1033E80004004307F6D50100122001F01BF93570DF
:1033F80000F0FBFBA842ECD001231C40E518E9E7EC
:10340800400C0020031E14D0081E12D001200870A2
:103418001A784A705A788A700022CA705A680A71F3
:103428005A68120A4A715A68120C8A715B681B0E34
:10343800CB71704703000120002B18D0002A16D04A
:103448000018072913D91978013001290FD15978A3
:103458001170997851705979187909020843997946
:10346800DB790904014300201B060B4353607047B6
:1034780003000020312B03D802485843024BC018E0
:103488007047C04620A1070030DFCE35F0B50026D2
:103498008BB00090019102920393109D05ACF70048
:1034A8003A0000980199FCF7A9FE3A0030550298B5
:1034B8000399FCF7A3FEA31901361872082EEED162
:1034C8002B0A63742B0CA3740023257405482D0E56
:1034D800054AE574E15C013348405043142BF9D1A7
:1034E8000BB0F0BDC59D1C8193010001F7B5002309
:1034F80004000E00F3540133322BFBD1002C00D111
:103508000D4C350001273135BF1B63035C40630C4C
:103518005C4063015C402B78791920000193FCF72B
:1035280067FE71180B78013D6B706B461B790B7049
:10353800AE42EAD1F7BDC046B979379E13B5084CFB
:1035480023690093A268E36820686168FFF79EFF1B
:1035580004496061FFF7CAFF00234A34237013BD92
:10356800480C0020600C0020D3B500920193C422BF
:103578000D4C06000F0052000021200001F0FAFA5D
:10358800009A019BA260E360069B3222236123001C
:103598004C33266067601A80FFF7D0FF01234B3455
:1035A80000202370D6BDC046480C0020F7B5224D38
:1035B80000902B004B331B780F000120002B16D0F6
:1035C800009B0018002B12D0002910D032241B4B6E
:1035D8001B78312B04D92B6901332B61FFF7AEFF20
:1035E800164B1B78EA18167E312E01D90720FEBD2E
:1035F800124A01331370012032000021FCF70AFE41
:103608002B6D18406B6D19400843019004D0013CA4
:10361800E4B2002CDBD1E9E73000FFF729FF0028EE
:10362800E4D0009B4C351E7038602B880198002B25
:10363800DDD0013B2B80DAE7480C0020920C0020FB
:1036480070B50B4C030022004B3212780D0001209C
:10365800002A0BD00230322908D82361FFF76EFF09
:10366800230000204A334C341D70208070BDC046B2
:10367800480C002070B5134C022223004B331B78F2
:10368800002B1CD00132312919D823004A331B786A
:103698003125002B01D0013BDDB22369834202D1E1
:1036A80000228D420BD0C31ADA179B18534004220C
:1036B800012B04DC0131C9B2FFF7C2FF012210005F
:1036C80070BDC046480C0020F7B50021012676429F
:1036D800F7170C4B1A6D5B6D1000184303D132308D
:1036E800401AC0B2FEBD14001D00A4197D4100940B
:1036F8000195009C019814401840013122000300F4
:10370800C9B2E9E7480C0020312807D8044A163026
:1037180080008358591C01D0013383507047C0463C
:10372800480C0020312808D8044A90304000835AB9
:1037380003498B4201D0013383527047480C002063
:10374800FFFF0000F0B5002811D00023FF261C0061
:10375800074D5A002132FF3252191788391CFF2FA2
:1037680000D9311CC15401331480322BF1D1F0BD82
:10377800480C0020014B18697047C046480C0020CF
:10378800014B4A3318787047480C0020014B4B33E3
:1037980018787047480C002070B50C4D2A78131C17
:1037A800062A00D90623DAB20A2304009340984275
:1037B80000D91C00FDF7ECF8054B04191C602B78A8
:1037C800FF2B01D001332B7070BDC046D00D0020F7
:1037D800D40D002073B56B46DE1D9D1D9971002325
:1037E8000C003370012233002900FDF709FB002883
:1037F80003D13378012B00D12C78200076BD00004E
:10380800F0B5012185B00320FFF7E4FFA6210600EB
:103818000420FFF7DFFF002302AA03ADD41CD370F6
:1038280001902B800222230029001020FDF7E8FADE
:10383800002823D12378022B20D16C782B782402FE
:103848001C4304211120FFF7C5FF0500071E00D106
:103858000127FDF7A3F800900220002E0CD0FDF7F9
:1038680097F8284E3368C21A0BD59BB280B28342B0
:1038780007D0FEF7BDFB032005B0F0BDFA246400B5
:10388800DFE7002D24D0FFF78BFD1F4A009B9446ED
:1038980063441D00002801D10420EDE7FFF794FDE3
:1038A800022806D12000FFF777FFFEF7A1FB0120D1
:1038B800E2E70328F0D0012803D0FDF76FF8401B9A
:1038C800ECD4FDF76BF8451B02D400F08EF9E3E762
:1038D80000F099F90028DFD03800FDF783F81B20A5
:1038E80000F08EFE050000F080F96B461B799D3DC7
:1038F8005BB22DB2AB42D5DB0020044B30601870B0
:10390800BAE7C046D40D0020204E0000D00D00209C
:10391800F0B5050000203F2D08D8184C4B1EA342D7
:1039280004D88124164F013C002C00D1F0BD0C2393
:10393800144E5B42B4466343DB199C4466463678B2
:10394800002EF0D0104EB4469C4466463678AE42FF
:10395800E9D1C026F600B4469C4466463668961BF4
:10396800B142E0D9094E9B19C6431B689E4201D358
:10397800C018D8E701204042D8E7C0461F4E0000D3
:10398800D80D00200B0600000A06000004060000FF
:10399800F7B51600099A04000D00089F002A03D005
:1039A8000122099952420A8001213F2C24D82D482E
:1039B8005A1E023182421FD80139002D1CD0002F17
:1039C8001AD0BD4218D8190032002000FFF7A0FF16
:1039D800042101903F1AAF420ED3234A00230C273B
:1039E8009446DAB2802B09D11F4A00230C2794464B
:1039F800DAB2802B2BD105210800FEBD39006046C4
:103A0800013359430139415C0029EAD10C2353435E
:103A18009C466046144FF9180B89C651012601339C
:103A2800DB058C72DB0D81340B814D60CE72FF3467
:103A38000199A4006818E159814200D2E05109991E
:103A48000029D9D0DB011A430A800021D4E73900C4
:103A58006046594341580348711A01338142C7D916
:103A6800D4E7C0461F4E0000D80D00200A4B9842EC
:103A780010D07F220C2302405A43084B9B18DA7A55
:103A8800002A07D01A89C009824203D15A688A429B
:103A980000D959607047C046FFFF0000D80D0020CC
:103AA80070B500280ED0002380211C00064D490067
:103AB800C022D2009A1852191668C65004331460EE
:103AC8008B42F5D170BDC046D80D002000230128D7
:103AD8000CD00133022809D00133032806D0013362
:103AE800042803D00538431E9841031D052043438D
:103AF8000148C0187047C046D450000870B504008B
:103B0800FCF74CFF0500FCF749FF401BA042FAD325
:103B180070BD0000F8B5041E03D1FF22284B1A70AF
:103B2800F8BD80210079274A274B8902002831D027
:103B380002201060042219601A600A20FFF7DEFFD5
:103B4800A178402000F06EFDE178412000F06AFD88
:103B58006178012000F066FDFCF720FF1B4B07276A
:103B6800C618012000F04CFD050063786B403B420D
:103B780003D0FCF713FF801B12D463786B405B07FC
:103B880003D029000420FDF7FFFF22780C4B012009
:103B98001A70C5E7116002221A608022D202CBE7B0
:103BA800C820FFF7ABFF6178012000F03BFD322011
:103BB800FFF7A4FF012000F023FD0500D5E7C0466C
:103BC800D81400201800005018080050881300006E
:103BD800014B18787047C046D814002010B5012052
:103BE800FFF774FFFFF796FF10BD10B50220FFF72F
:103BF8006DFFFFF78FFF10BD10B50320FFF766FFBD
:103C0800FFF788FF10BD10B50420FFF75FFFFFF72F
:103C180081FF10BD10B5FFF7E8FF002804D006208B
:103C2800FFF754FFFFF776FF10BD000010B5002422
:103C38000F4B4B201C7000F0E3FC10210143C9B26C
:103C48004B2000F0EFFC0220FCF7CCFE2100012005
:103C580000F0E8FC0120FCF7C5FEFFF7BFFFA0421B
:103C680004D00120FCF7BEFEFFF7BFFF10BDC04621
:103C7800D814002070B5FFF7C6FF051E0CD01E2013
:103C880000F0BEFC0424044006D121000520FDF705
:103C98007BFF2500FFF7A9FF280070BD7FB501381D
:103CA8000C00032820D8FCF713FA0202202B00236B
:103CB80001A802A903700293FFF778FC002813D12A
:103CC800254B1870254B1870FFF78FFF029800F0EE
:103CD800F7FCFCF763FE0400FCF760FE204B001BBA
:103CE8009842F9D9FFF7C6FF7FBD00231D4A13701C
:103CF800194A1370194A137001221B4B1A70F3E703
:103D0800184D02A82B7801AE037003234370124BA1
:103D18001B788370114B1B78C370134B1B7803718E
:103D280000F0E4F93080C1B20D20FDF72DFF737863
:103D3800002B02D0FFF759FFD6E701202B7821008E
:103D480001332B70094B1870094B1C60094B1C6020
:103D5800FFF7A4FFC8E7C046EF140020EC140020CA
:103D6800E7030000EE140020ED140020F0140020FA
:103D7800E4140020E8140020F0B51500164A87B0B6
:103D88001278164E01AB1A70154F326818740392E8
:103D98003A68180059740295049200F049F96B4684
:103DA80018800D4BC4B22100187800F087F9022C56
:103DB8000FD0052C01D0012C01D135603D606B4638
:103DC800054A5B78290020001370FFF767FF07B0EA
:103DD800F0BD3560F3E7C046F0140020E41400207D
:103DE800E814002070B5444244410500FCF7D0FDBA
:103DF8000134020029002000FFF7BEFF70BD10B596
:103E0800FFF7F3FE10BD0000F0B5012787B00C00E6
:103E1800002538425CD0A9425AD0444B1F70FCF7A9
:103E2800BDFD2300FC339860122000F0E9FB20233D
:103E3800034006000193AB420BD0FEF7C9F82800F7
:103E4800FFF7D0FF3A4B1F703100122000F0EAFB59
:103E58003EE04306F8D5132000F0D2FB0500102001
:103E680000F0CEFB0290192000F0CAFB47B21A20DE
:103E780000F0C6FB029903900D2000F0D3FB002D43
:103E880004D02A002100019800F0E0FB2300FF3352
:103E980001935D7003232200F8171840C01900270A
:103EA800019B80109870039BFE329D3B9380019B81
:103EB800A9B25F7404AA2000FFF7BCFAB8420AD07E
:103EC8003800FFF78FFF3100122000F0ABFB3D00F8
:103ED800280007B0F0BD230001270933FF3304AAE7
:103EE80003CA03C3019B05985F7404AB5978FFF7B5
:103EF800C1FB00F071F83800FFF774FF2B00083B96
:103F0800DBB2002B08D0093DEDB2E219AD18227AD8
:103F180022700134A542FAD1019A01255370FEF7A7
:103F28004FF83100122000F07DFBD1E7EF1400209C
:103F3800EC140020204B73B51A7805001F4B022A99
:103F480002D000221A7073BD1A781D4C002A02D1C3
:103F580020600132F6E700F0F3FA0600FFF716FCDE
:103F6800431E98413200C3B22168280000F040F88F
:103F7800060000F051F8002E03D0042EE3D125608E
:103F8800E1E76B4601A9D81C06700196FFF70EFB06
:103F98000028F4D1FFF729FE019800F091FBFCF707
:103FA800FDFC0600FCF7FAFC064B801B9842F9D989
:103FB800FFF760FEE3E7C046F0140020E01400209D
:103FC800DC140020E7030000002110B502000800FF
:103FD800FFF7D2FE10BD0000042806D8034A80006F
:103FE8008358591C01D0013383507047F4140020C2
:103FF80010B50124002B0CD02419002A09D1411A2C
:104008000234002905DB7C23FF33013C994200D9A7
:104018001400200010BD0000042806D8034A8000C0
:104028008358591C01D0013383507047081500206C
:1040380013B501AB002806D11870587018785B7852
:104048001B02184316BD017C012903D1427C002ABA
:1040580000D101310278012A0AD0002A04D00021B7
:10406800022A26D019701FE001221A705A70E5E75B
:10407800012903D103221A70013AF7E7022903D173
:1040880000221A700132F1E74168C4680C1B02D49F
:104098008068091A03D505221A70043AE6E706482B
:1040A800844203D904221A700322DFE76329E7D97F
:1040B80002211970DAE7C0462F75000010B50328F1
:1040C80006D8084A800083585C1C01D0013383500D
:1040D800052906D8044A89008B58581C01D0013399
:1040E8008B5010BD341500201C150020F0B585B08C
:1040F80003AC002808D1C0235B00238063782078B4
:104108001B02184305B0F0BD00221500437807785C
:104118009C469F4255418378EDB2C678934201D1BF
:1041280001327240391C0F2F00D90F21CBB20193F5
:10413800614600238F425B410079DB01002802D0F1
:1041480040200343DBB2002A02D020221343DBB213
:10415800002E02D010221343DBB2019A657013437C
:104168002370CBE770B586B005000E00FCF750FF52
:10417800031E00D0037801AC2370104B65701B78C8
:104188000496A3700E4B1D780E4BE5701B680293C6
:104198000D4B1B680393FCF7FBFB0C49020028003E
:1041A800FFF7B6FB0A4D2061220028880021FDF7A1
:1041B8008FFD2B8801332B8006B070BD5815002069
:1041C8004415002050150020541500201027000029
:1041D8006815002010B5FFF708FD064C2378002B62
:1041E80001D0FFF747FD0023034A23701370034AE9
:1041F800136010BD601500206C15002064150020A8
:10420800F0B58BB00390FFF7E3FC039B0590002B00
:1042180001D1002416E0844B1C78002CF9D1039BB3
:10422800824FFF335B78824D08330493814EFF2B16
:104238000BD9814B2100FF201C703C602C6034702E
:10424800FFF790FF20000BB0F0BD04AB08A906A84B
:104258001C720894FFF7AAF90028EAD104AB1B7A6C
:104268003370089B2B60FFF78BFA3123002801D0AD
:104278000138C3B2704A1370FFF77CFA6B4B6F4A70
:104288001860059B043BDBB2012B21D80123137076
:10429800FFF7B5FD664B186800F012FAFCF77EFBD5
:1042A8000400FCF77BFB664B001B9842F9D9FFF72B
:1042B800A7FA0225A843C4B2002C10D03078FFF723
:1042C80023FA00212800FFF74DFFFFF783FFA0E73F
:1042D80000231370FFF789FC0028DBD199E76B46B0
:1042E8001D7C2800FEF7B6FF564B0700984208D9F8
:1042F800FDF786FE39000120FFF734FFFFF76AFF5C
:10430800A0E74C4B504E1C783060FCF741FB4F4BFC
:10431800020029002000FEF7E7FF041E06D001284E
:1043280001D1FDF76DFE31680420CCE70123484F29
:104338005B423B803F4B1B78049333680593FCF743
:1043480027FB444B0200019700930599424B0498C0
:10435800FFF71EFB071E08D0364B18783B4B196831
:10436800FEF7ECFF31680320C6E701000E2000F0DD
:1043780059F939000D2000F055F92900222000F0E4
:1043880051F9FCF745FE031E00D0037808A8037016
:10439800294B06A91B784370244B1B684360FFF721
:1043A80031F8082206A9002000F06AF9039BFF33C0
:1043B8005A78002A04D0039B0020591C00F060F9A9
:1043C800FF21122000F02EF9FFF716FC1F4E041EE5
:1043D80008D1184B31681878FEF7B0FF1A4B062041
:1043E800196889E7039B09201A781C4B1A7000F09A
:1043F80007F90F2318401A4B023018703368194E0A
:104408003360002B03D12800FEF724FF3060FCF74F
:10441800C5FA154A33689B1801221818134B1860FF
:10442800014B1A700EE7C0466C150020501500208D
:104438005415002044150020581500206015002050
:10444800E703000060CC05005C150020641500201F
:104458000A000020801A0600102700006A150020B4
:104468006B1500204C150020F0490200481500206B
:10447800F8B50D1E01D10020F8BD2A4B1C78012C7F
:10448800F9D120422CD0122000F0BAF80600010021
:10449800122000F0C7F8330722D50026224B234FFD
:1044A8001B786E702B70224B1B78AB703B686B606F
:1044B800204B1D78FCF76CFA310002002800FEF74B
:1044C8004DFFFDF78DFD1C4B39681888FFF7CEFAB4
:1044D80030003968FFF746FEFFF77CFE2000CBE787
:1044E800FCF75CFA154B1B68C01AC4D40124FF21E1
:1044F800122000F097F80C4B0C4E1B786C702B7048
:104508000B4B1B78AB7033686B600A4B1D78FCF75C
:104518003FFA002102002800FEF720FF316805203D
:10452800D8E7C0466C1500206A1500204C150020FD
:104538006B150020441500200A00002048150020B3
:10454800024B1878431E9841C0B270476C15002082
:104558000323012270B54C00A3401500DB43A5409E
:104568008A4006681E403543056045689543022227
:10457800A2404560816819400A438260C2681340BE
:10458800C36070BD032349008B40DB4302681A40B7
:104598000260C2681340C36070470000094B0221E3
:1045A8001A0010B51C680C42FCD00121064B18708B
:1045B80010680842FCD0802110680842FCD11878A5
:1045C800C0B210BD083001400C30014010B50A4C93
:1045D80000212000FFF7BCFF8022084B52021A601E
:1045E8000120FCF7FFF900212000FFF7CBFF062090
:1045F800FCF7F8F910BDC046000800501808005034
:10460800802310B5064C1B0623607F231840FFF754
:10461800C5FF0020FFF7C2FF80231B02236010BDE7
:1046280018000050802370B5074C1B0623608023B8
:104638000D001843FFF7B2FF2800FFF7AFFF8023F4
:104648001B02236070BDC04618000050802370B55F
:104658000A4D1B062B607F230C0016001840FFF73D
:104668009DFFA619B44203D180231B022B6070BDA5
:104678000020FFF793FF20700134F3E71800005083
:10468800802370B50A4D1B062B6080230C00160092
:104698001843FFF783FFA619B44203D180231B02F6
:1046A8002B6070BD2078FFF779FF0134F4E7C0462E
:1046B8001800005010B54220FFF7A2FF10BD0000FF
:1046C80010B50B4A0023410BC004FBF7AFFD0400F3
:1046D800010CC9B20620FFF7A5FF210AC9B20720BD
:1046E800FFF7A0FFE1B20820FFF79CFF10BDC0460E
:1046F8000048E80110B5011C112809D911218023AF
:1047080002395B421943C9B20920FFF78BFF10BD7C
:10471800C3B2022BF3D20221F1E70000F423F0B573
:104728000D0009218DB0FF33070004919D4205D883
:10473800F031A94289414942CB1D04930023391C19
:1047480007930C2F3ED90C21CBB20393161C082AD1
:104758003DD90826F3B2059307AB01933F4BF2B25C
:1047680000932900FF230398FEF750FD041E33D160
:10477800FA236A469B005D43127B08AB1A702A0A2B
:10478800DA702A0C1A71FF229A71079A9D70110A21
:10479800DA711972110C120E9A726022DA726C3286
:1047A8001A73C73A5A732D0E0A32597298735E708B
:1047B8005D71010000920200C220FEF79BF9200003
:1047C8000DB0F0BDFBB2062BBED20621BCE7D3B2BA
:1047D800052BBFD20526BDE70599049B04391B01AB
:1047E80049001943C9B21D20FFF71CFF0421039B90
:1047F8001E201B011943C9B2FFF714FF2620FFF73B
:10480800FFFE0A2F19D97D2D17D80C210143C9B2F3
:104818002620FFF707FF07253120062F12D8FFF7BC
:10482800EFFE0521A8430143C9B23120FFF7FAFE84
:104838000C213720FFF7F6FEC1E7F7210840F339CE
:104848000143E5E7FFF7DCFE0321A8430143C9B2B2
:104858003120FFF7E7FE0A21EBE7C04660CC0500F0
:10486800F8B50723774A8024116808200B431360A2
:10487800C0227549A0270B68FF05934323430B60AB
:104888007249734E0B68734D83430B60724938301D
:104898000B68934323430B607049714C0B68934337
:1048A800704A0B60136870490B40136080223B68A4
:1048B8006E4992010B4013433B6033688343336076
:1048C80023686B480B401A436A4B22601A682038E9
:1048D8000A401A60026A2A4002623A68664DAC468B
:1048E8002A4080252D022A433A6080273268BA433D
:1048F800326066466746226832402A432260802436
:104908001A68640117401F60026A5C4F120112099D
:1049180002621A685A4E1140214319600F21FFF7AD
:1049280017FE3D6000215748FFF712FE0125A02021
:104938002900C0053560FFF70BFE29005148FFF735
:1049480007FE02214F48FFF703FE80239B023B60CE
:10495800022333608023DB02336004213A48FFF7E7
:1049680011FE29003848FFF70DFE00213648FFF7F1
:1049780009FE0D214348FFF705FE802342494348BD
:104988000A6814430C600A6802681A40FCD1B8200F
:104998003F4B40011A603F4A0F241060CB2292001F
:1049A8001A604022186802431A6001230A68F0203E
:1049B8001A430A6038490A68A2431A430A60102158
:1049C800364A15688543294311601168A1430B4392
:1049D8001360202332490A68824313430B6031492C
:1049E800314B0A6831481A430A6031490A681A4348
:1049F8000A6030490A6802400A602F4A032113609E
:104A08000520FCF719F803210720FCF715F8FFF734
:104A1800DDFDFFF70BF9041E02D100242000F8BDCC
:104A2800FFF748FE0138C0B2FD28F6D82348FFF743
:104A380047FE0522FA210720FFF770FE0E20FFF738
:104A480059FEEBE72C10024000040050040400500B
:104A580004000050FFFFFFF0080400500C04005051
:104A68000800005020040050FF0FFFFFFFCFFFFF9A
:104A7800200000500C000050FF3FFFFF18000050BE
:104A88001808005000080050341002400830014057
:104A980000300140043001400C0001400800014092
:104AA800140001400004014013200000ECDFFFFF68
:104AB800080401400C04014014040140C0CA8936AE
:104AC800EFF3108372B60021024A1068116083F375
:104AD800108870477015002003230A490A6813409C
:104AE8000ED00B6002231A4203D00749086803431B
:104AF8000B60D30704D50423034A11680B431360E2
:104B08007047C04614040140701500200A490B4B39
:104B18000A6813400ED00B60D30604D50123084958
:104B2800086803430B60930404D50823044A1168FA
:104B38000B4313607047C046140401401020000066
:104B48007015002030B50024A24201D1002005E0F4
:104B5800035D651C0C5DA34201D0181B30BD2C0001
:104B6800F2E7002310B59A4200D110BDCC5CC454C2
:104B78000133F8E703001218934200D17047197007
:104B88000133F9E74641554C543A52455345540DC3
:104B98000A004541524C593A52455345545C725C9F
:104BA8006E005253543A53544152540D0A00525312
:104BB800543A4D41494E0D0A004541524C593A4D1F
:104BC80041494E5C725C6E004D3A524144494F5F18
:104BD8004259504153530D0A0000000001010300DF
:104BE800290B00080E00000000000000020101006F
:104BF80000000000010000000000000003010100A7
:104C08000000000001000000000000000401020094
:104C180000000000A60000000000000005010100DF
:104C28000000000001000000000000000601010073
:104C3800DD0A000800000000000000000708060068
:104C480000000000FF000000000000000801010053
:104C5800DD0A000801000000000000000901010051
:104C68000000000001000000000000000A0103002D
:104C78000000000000000000000000000B04050216
:104C88000000000000100E00000000000C010300EE
:104C98000000000010000000000000000D020400E9
:104CA8000000000064000000000000000E01010088
:104CB800DD0A0008000000000000000010020400E7
:104CC80000000000F40100000000000011010300D2
:104CD80000000000040000000000000013020400AF
:104CE8000000000090010000000000001401030013
:104CF8000000000000000000000000001501020094
:104D0800000000000200000000000000160103007F
:104D180000000000110000000000000080010301F5
:104D280000000000010000000000000081010301F4
:104D380000000000020000000000000082010101E4
:104D4800000000000000000000000000111E1E000E
:104D580048E8010090D0030020A1070000030809DB
:104D68000A0B0C070D0E2E00433A44495350415488
:104D780043480D0A00433A4241445F5645520D0AE2
:104D880000433A50494E470D0A00433A5645525F90
:104D9800444953500D0A004F53452D4C69666554DC
:104DA8007261634C4F52412D4D7572617461465763
:104DB80000646576004641494C004154004154491D
:104DC80000200041542B5645523F00433A41545F5E
:104DD8005645525F444953500D0A0046573D00203E
:104DE80056455253494F4E3D00204749543D0020F7
:104DF80050524F544F3D0020534348454D413D00CC
:104E0800204341503D30780041542B524144494F92
:104E18003F004552524F520D0A00524144494F3DFE
:104E2800002056455253494F4E3D30780020535488
:104E38004154453D0041542B535441543F00484F81
:104E480053545F44524F5050454400484F53545FA9
:104E58004552524F525300484F53545F5155455590
:104E6800455F46554C4C00484F53545F4952515F7B
:104E780049444C4500484F53545F4952515F485488
:104E880000484F53545F4952515F544300484F53B1
:104E9800545F4952515F544500484F53545F52582C
:104EA8005F425954455300484F53545F52585F4C22
:104EB800505541525400484F53545F52585F555310
:104EC8004152543100484F53545F50415253455F4B
:104ED8004F4B00484F53545F50415253455F455222
:104EE8005200484F53545F554152545F4552525FE8
:104EF8004C505541525400484F53545F55415254F9
:104F08005F4552525F555341525431005241444912
:104F18004F5F44494F3000524144494F5F44494F25
:104F28003100524144494F5F44494F320052414495
:104F3800494F5F44494F3300524144494F5F5258EB
:104F48005F4F4B00524144494F5F54585F4F4B00ED
:104F5800524144494F5F4352435F455252005354B4
:104F68004154450041542B48454C500041542B486E
:104F7800454C503F004154204154492041542B5640
:104F880045523F2041542B524144494F3F20415400
:104F98002B535441543F2041542B48454C502041F9
:104FA800542B42494E0D0A0041542B42494E004FA2
:104FB8004B2042494E0D0A00433A53454E445F4246
:104FC8004F4F540D0A00433A53454E445F464155EE
:104FD8004C540D0A00433A53454E445F52454144F0
:104FE800590D0A00433A434C4B5F4853455F3332EF
:104FF8004D0D0A00433A434C4B5F4853495F3136E5
:105008004D0D0A00433A494E49545F444F4E450DF1
:105018000A00483A52585F4C5055415254310D0AD3
:1050280000483A52585F5553415254310D0A0048CE
:105038003A4552525F4C5055415254310D0A00487E
:105048003A4552525F5553415254310D0A00483A7D
:1050580050524F435F4652414D450D0A00483A436E
:105068004F42535F4552520D0A00483A434F42534C
:105078005F4F56460D0A00483A50415253455F4526
:1050880052520D0A00483A5645525F5245515F52F6
:10509800580D0A00483A4652414D455F4F4B0D0A9C
:1050A80000483A515F46554C4C0D0A00483A415465
:1050B8005F44495350415443480D0A00483A5258F6
:1050C8005F52494E475F4F56460D0A000180000067
:1050D80000028100000003834000010485000000F5
:0C50E80005860000000687A00000000004
:1050F4001249134B70B50C68186872B60023032666
:10510400104A114D1360114A1360114A1360114A79
:105114001360114A1360114A13602A6801331A4359
:105124002A600F4D2A68B24313432B600D4B19605C
:1051340084F30888804730BFFDE7C0460000F01FB5
:105144000400F01F004400403410024004440040B6
:105154000844004010E000E014E000E018E000E043
:105164000000014008ED00E00122524BF0B519683F
:1051740085B00A431A60042219681142FCD0032145
:105184004D4B1A688A43110001220A430C211A600C
:105194001A680A40042AFBD1052400254749484BD4
:1051A400FA200B60474A484B15601C601C00400005
:1051B40001904F38FF38454F0090029103928020B0
:1051C400019B009A80029B1A414A0193AB009958B3
:1051D400404A002613680343136001233E4A1068C3
:1051E4000343A0201360F022C005036893431A0010
:1051F400A023134303600C20384A136883433848C0
:1052040013600368374A1A408823DB0113430360A1
:10521400354B3E601E60354B48081E60344BC01849
:10522400FAF762FF1F22334B31001860324B1A60C9
:105234000D233B603300314E009A8A4216D8002376
:10524400294A3B601360294A01351360032D06D1B6
:10525400029A23601360039A136005B0F0BDA6237D
:105264000093022DABD1019B0093A8E78020226814
:1052740040020240501E824120208918204A1268B0
:105284000242D9D01248326884469C446046007B6E
:10529400D2B290420AD10133082BCDD10023029A15
:1052A40023601360039A1360FFF722FFA53A534269
:1052B4005341C1E7001002400C10024014E000E02A
:1052C4007F3E000018E000E010E000E000440040F1
:1052D400C4000008381002402C10024004000050A2
:1052E40020000050FF00FFFF044400400844004039
:1052F4000024F4000C4400402044004024440040B6
:045304001C44004005
:085308006CAFFF7F0100000003
:0C531000010000000024F400FF01FFFF7A
:040000050800059159
:00000001FF
